S0180000586D65676133324134555F426F6172642E73726563A4
S11300004AC1000065C1000063C1000061C1000075
S11300105FC100005DC100005BC1000059C1000068
S113002057C1000055C100000C94C8180C9406096F
S11300304FC100004DC100000C94E4090C941A0A4D
S11300400C94500A0C94860A0C94BC0A0C94F20A80
S11300500C94280B0C945E0B0C94940B0C94CA0B0C
S113006037C1000035C1000033C1000031C10000B8
S11300702FC100002DC100002BC1000029C10000C8
S113008027C1000025C1000023C1000021C10000D8
S11300901FC100001DC100001BC1000019C10000E8
S11300A017C1000015C1000013C1000011C10000F8
S11300B00FC100000DC100000BC100000C941C0E08
S11300C00C94520E0C94880E0C94BE0E0C94F40EE8
S11300D00C942A0FFDC00000FBC00000F9C0000012
S11300E0F7C00000F5C000000C942718F1C0000010
S11300F0EFC00000EDC00000EBC00000E9C000004C
S1130100E7C00000E5C00000E3C00000E1C000005B
S1130110DFC00000DDC00000DBC00000D9C000006B
S1130120D7C00000D5C00000D3C00000D1C000007B
S1130130CFC000000C94000C0C94360C0C946C0C86
S11301400C94A20C0C94D80C0C940E0D0C94440D2D
S11301500C947A0D0C94B00D0C94E60DB9C000000B
S11301600C94FC17B5C00000B3C00000B1C000007F
S1130170AFC00000ADC00000ABC00000A9C00000CB
S1130180A7C00000A5C00000A3C00000A1C00000DB
S11301909FC000009DC000009BC0000099C00000EB
S11301A097C0000095C0000093C0000091C00000FB
S11301B08FC000008DC000008BC0000089C000000B
S11301C087C0000085C0000083C0000081C000001B
S11301D07FC000007DC000007BC0000079C000002B
S11301E077C0000075C0000073C0000071C000003B
S11301F06FC000006DC000006BC00000CD1AD31AA0
S1130200CB1A231B231B231B231BDD1A231B231B9A
S1130210231B231B231B231B231B231B231B231BEA
S1130220231BBA1A231B231B231B231B231B231B44
S1130230231B231B231BD51AD91AD71A1A1B231BBA
S1130240231B231B231B231B231BE31AE61AEC1A71
S1130250EF1AE91A231B231B231B231B231BDB1A63
S1130260181B1C1BFE1A231B231B231B231B231BD2
S1130270231BF21AF51AFB1AF81A151B231B231B4E
S1130280231B231B231B231B001B031B061B091BF4
S11302900C1B0F1B121B11241FBECFEFDFE2DEBFAE
S11302A0CDBF10E2A0E0B0E2E2E0F7E502C00590C5
S11302B00D92A033B107D9F723E2A0E3B0E201C065
S11302C01D92AC38B207E1F70E9464290C947F2B8D
S11302D097CECF92DF92EF92FF920F931F936B0111
S11302E07C0120E030E040E05FE4AED287FD0CC04A
S11302F020E030E040E05FE4C701B60197D1D0D2FE
S11303008B019C01305805C0C701B601C9D28B01CD
S11303109C01B801C9011F910F91FF90EF90DF90EC
S1130320CF900895A4E0B0E0E8E9F1E00C94502BFC
S11303307C016A01FC018081823008F44AC1FB011E
S11303409081923008F442C1843079F4943009F0F9
S113035040C1F7019181FB018181981709F439C1EA
S1130360A7E2EA2EA0E2FA2E34C1943009F42EC199
S1130370923091F4823009F02CC188E0F701DA015F
S113038001900D928A95E1F7FB018181F70191813A
S11303908923FA0181831CC1823009F417C1F70152
S11303A082819381FB01A281B381F70104811581CC
S11303B026813781FB0184809580A680B780FC016B
S11303C0EA1BFB0BAF01F7FF04C0442755274E1B64
S11303D05F0B403251050CF074C01E161F06B4F5B5
S11303E024013501042E04C07694679457944794ED
S11303F00A94D2F749825A826B827C82412C512C16
S11304003201439404C0440C551C661C771C4A9565
S1130410D2F741E0441A5108610871084820592074
S11304206A207B20812C912C5401839445284628F2
S1130430472819F4812C912C540149805A806B80EF
S11304407C8084289528A628B72846C0EF2B09F479
S113045043C0840F951F28013901042E04C07694EB
S11304606794579447940A94D2F749825A826B82CC
S11304707C82412C512C3201439404C0440C551C01
S1130480661C771C4A95D2F741E0441A510861086A
S11304907108402251226222732201E010E020E020
S11304A030E045284628472819F400E010E0980178
S11304B049805A806B807C80042915292629372994
S11304C00BC0A817B90724F4812C912C540104C043
S11304D0CD0100E010E09801F7014181FB01518159
S11304E0451709F446C0442349F024013501401A54
S11304F0510A620A730A9301820104C00819190996
S11305002A093B0937FD05C0F601118282839383D2
S11305100CC041E0F601418382839383309520959A
S1130520109501951F4F2F4F3F4F0483158326834A
S113053037830EC0880F991FAA1FBB1FF60184833F
S11305409583A683B7838281938101978283938362
S1130550F60184819581A681B781AC01BD0141502A
S11305605109610971094F3F5F4F6F4F7F4310F38A
S11305700CC0F601418382839383080D191D2A1D43
S11305803B1D048315832683378383E0F601808330
S1130590448155816681778177FF1AC0DB01CA01E6
S11305A081709927AA27BB27769567955795479514
S11305B0842B952BA62BB72B84839583A683B78393
S11305C08281938101968283938302C07B0101C05F
S11305D07601C7012496E0E10C94692BA0E2B0E017
S11305E0E4EFF2E00C945E2B6D8F7E8F8F8F98A3D7
S11305F0298F3A8F4B8F5C8FBE016F5E7F4FCE0188
S11306004D96DBD2BE01675F7F4FCE014996D5D2AE
S1130610AE014F5F5F4FBE01675F7F4FCE014196D2
S113062081DE01D2A096E2E00C94772BA0E2B0E048
S1130630ECE1F3E00C945E2B6D8F7E8F8F8F98A38B
S1130640298F3A8F4B8F5C8FBE016F5E7F4FCE0137
S11306504D96B3D2BE01675F7F4FCE014996ADD2AE
S11306608A8591E089278A87AE014F5F5F4FBE017B
S1130670675F7F4FCE01419655DED5D1A096E2E06B
S11306800C94772BA0E2B0E0E8E4F3E00C94502B58
S11306906D8F7E8F8F8F98A3298F3A8F4B8F5C8FAE
S11306A0BE016F5E7F4FCE014D9687D2BE01675F5C
S11306B07F4FCE01499681D29989923008F412C0B5
S11306C08985823008F41AC0943021F4823009F408
S11306D0B4C008C0843021F4923009F4AEC00EC016
S11306E0923051F481E02A899A85291301C080E06F
S11306F08A8BCE014196A3C0823051F481E02A89CD
S11307009A85291301C080E08A87CE01099697C093
S11307108D889E88AF88B88C0D851E852F85388975
S1130720E0E2F0E080E090E0DC01C12CD12C760125
S113073040E050E0BA0180FE18C0400F511F621F14
S1130740731F8C0D9D1DAE1DBF1D412C512C3201FC
S11307504394401751076207730718F0412C512C3A
S11307603201840D951DA61DB71DCC0CDD1CEE1C9D
S1130770FF1C37FF02C06894C0F8000F111F221F2E
S1130780331FB694A794979487943197A1F62B8935
S11307903C89EB85FC852E0F3F1F2E5F3F4F2B833B
S11307A03C8321E0EA893A85E31301C020E02A83EF
S11307B0EB81FC810CC080FF05C076956795579549
S11307C047957068B695A795979587953196B7FD27
S11307D0F2CF9F010CC0880F991FAA1FBB1F77FD82
S11307E08160440F551F661F771F21503109009700
S11307F0A105E0E4BE0778F32B833C838C019D01C3
S11308000F771127222733270034110521053105DD
S113081059F487FD09C0452B462B472B29F0805CF2
S11308209F4FAF4FBF4F80788D839E83AF83B88730
S113083083E08983CE01019602C087E290E2F3D07F
S1130840A096E0E10C94692BA8E1B0E0EAE2F4E0C0
S11308500C945E2B6D8B7E8B8F8B988F298B3A8BB0
S11308604B8B5C8BBE01675F7F4FCE014596A5D154
S1130870BE016F5F7F4FCE0141969FD18985823043
S113088050F08981823038F0BE016F5F7F4FCE0116
S1130890099602D201C08FEF6896E2E00C94772BA0
S11308A0ACE0B0E0E6E5F4E00C945C2B69877A8771
S11308B08B879C87BE016F5F7F4FCE0109967DD1E8
S11308C08981823091F1823080F1843041F48A81CF
S11308D0882331F100E010E020E030E829C02B81CA
S11308E03C8137FD22C02F3131058CF78EE190E039
S11308F0821B930B0D811E812F81388504C0369590
S11309002795179507958A95D2F78A81882381F0D0
S113091030952095109501951F4F2F4F3F4F08C0DC
S11309200FEF1FEF2FEF3FE703C000E010E0980147
S1130930B801C9012C96E4E00C94752BA8E0B0E052
S1130940E4EAF4E00C94582B8B019C011A826115A3
S113095071058105910519F482E089835DC083E006
S113096089834EE150E04B835C83C901B8010E9446
S1130970352B019797FF39C0EE27FF27E81BF90BAA
S113098041E050E060E070E00E2E04C0440F551FBB
S1130990661F771F0A94D2F7415051096109710902
S11309A04023512362237323C12CD12C7601C39499
S11309B0452B462B472B19F4C12CD12C760104C0AE
S11309C03695279517950795EA95D2F70C291D2991
S11309D02E293F290D831E832F8338872EE130E093
S11309E0281B390B2B833C8317C0009729F40D83F4
S11309F01E832F83388710C0082E04C0000F111FD8
S1130A00221F331F0A94D2F70D831E832F83388746
S1130A10481B590B4B835C83CE01019604D0289666
S1130A20E8E00C94712B0F931F93CF93DF93DC01B9
S1130A3014964D915D916D917C9117971196EC915F
S1130A4011978C91823020F460618FEF90E0A6C002
S1130A50843009F49EC0823009F495C041155105D3
S1130A606105710509F492C012962D913C9113977A
S1130A7022388FEF38070CF058C0C2E8DFEFC21BF2
S1130A80D30BCA31D1056CF58A019B010C2E04C02D
S1130A9036952795179507950A94D2F781E090E04B
S1130AA0A0E0B0E00C2E04C0880F991FAA1FBB1F42
S1130AB00A94D2F70197A109B10984239523A623A7
S1130AC0B72341E050E060E070E0892B8A2B8B2B48
S1130AD019F440E050E0BA01402B512B622B732BE8
S1130AE003C040E050E0BA01DB01CA018F779927C7
S1130AF0AA27BB2780349105A105B10539F447FF26
S1130B0009C0405C5F4F6F4F7F4F04C0415C5F4F33
S1130B106F4F7F4F81E090E041155105610520E45E
S1130B20720748F580E090E026C0203831058CF546
S1130B30DB01CA018F779927AA27BB278034910547
S1130B40A105B10539F447FF09C0405C5F4F6F4F01
S1130B507F4F04C0415C5F4F6F4F7F4F77FD04C0F0
S1130B60C90181589F4F07C076956795579547955A
S1130B70C90180589F4F97E076956795579547959B
S1130B809A95D1F70BC080E090E005C080E090E03A
S1130B9005C08FEF90E040E050E0BA01982F9695A1
S1130BA0E0FB97F9362F80FB37F9642F752F832FDD
S1130BB0DF91CF911F910F910895CF92DF92EF9221
S1130BC0DC01FB01CC901196DC90119712968C916C
S1130BD012973FE7E32EE8226E2DA60170E0982FCE
S1130BE0991F9927991F13962C91822F880F892B6F
S1130BF090E027FB222720F92183009729F541154E
S1130C0051056105710511F482E027C082E89FEF68
S1130C108283938327E0440F551F661F771F2A950D
S1130C20D1F783E0808309C0440F551F661F771FE7
S1130C3082819381019782839383411551056105D4
S1130C4080E4780788F320C08F3F910579F441153B
S1130C5051056105710519F484E0808319C0E4FE2F
S1130C6003C081E0808310C010820EC08F579109A9
S1130C708283938383E0808387E0440F551F661F3C
S1130C80771F8A95D1F7706444835583668377838D
S1130C90EF90DF90CF900895CF93FC01DB0190811A
S1130CA0923008F452C08C91823008F44EC09430D3
S1130CB071F4843039F411962C9130E08181281B31
S1130CC0310948C08181882309F43FC03BC0843086
S1130CD029F411968C91811138C034C0923019F4E2
S1130CE08230B9F735C0823069F3C18111968C9195
S1130CF01197C8131DC02281338112968D919C9146
S1130D001397821793070CF413C0281739070CF4B0
S1130D1017C0448155816681778114968D919D9188
S1130D200D90BC91A02D84179507A607B70718F45A
S1130D30C11108C00AC0481759076A077B0740F465
S1130D40C11103C02FEF3FEF05C021E030E002C026
S1130D5020E030E0C901CF910895CF93DF931F9233
S1130D60CDB7DEB78FE390E0FC0180818983F894EE
S1130D7089810F90DF91CF910895CF93DF931F92D4
S1130D80CDB7DEB789838FE390E02981FC0120830E
S1130D900F90DF91CF910895CF93DF9300D000D0CF
S1130DA0CDB7DEB78A839B836C83D7DF89838A813F
S1130DB09B8180599F4F2A813B8120593F4FF901E4
S1130DC02081322F2C8120952323FC0120838981CB
S1130DD0D4DF2496CDBFDEBFDF91CF910895CF93AA
S1130DE0DF93CDB7DEB72A97CDBFDEBF8A878A856A
S1130DF089831A8289818B838B818C838C818695EC
S1130E00869586958D838D81882F90E0880F991F14
S1130E1082959295907F9827807F98279A5F8E83FA
S1130E209F838A818823A9F0898188878885882F70
S1130E3090E09C012770332781E090E002C0880F86
S1130E40991F2A95E2F7282F8E819F81FC01258323
S1130E5014C0898189878985882F90E09C01277037
S1130E60332781E090E002C0880F991F2A95E2F7AA
S1130E70282F8E819F81FC0126832A96CDBFDEBF59
S1130E80DF91CF910895CF93DF93CDB7DEB72A9743
S1130E90CDBFDEBF8A878A85898381E08A83898181
S1130EA08B838B818C838C818695869586958D83A7
S1130EB08D81882F90E0880F991F82959295907F5D
S1130EC09827807F98279A5F8E839F838A818823BF
S1130ED0A9F0898188878885882F90E09C012770F4
S1130EE0332781E090E002C0880F991F2A95E2F72A
S1130EF0282F8E819F81FC01258314C089818987D5
S1130F008985882F90E09C012770332781E090E049
S1130F1002C0880F991F2A95E2F7282F8E819F819E
S1130F20FC0126832A96CDBFDEBFDF91CF910895C1
S1130F30CF93DF9300D01F92CDB7DEB789839A8316
S1130F406B8389819A812B81FC0123832396CDBFF6
S1130F50DEBFDF91CF910895CF93DF9300D0CDB75B
S1130F60DEB789839A8389819A81FC0183810F90FA
S1130F700F90DF91CF910895CF93DF9300D0CDB739
S1130F80DEB789839A8389819A81FC018281881FD3
S1130F908827881F0F900F90DF91CF910895CF93EA
S1130FA0DF9300D000D0CDB7DEB789839A836B83FB
S1130FB07C8389819A81D0DF282F8B819C81FC01DD
S1130FC020832496CDBFDEBFDF91CF910895CF93C8
S1130FD0DF9300D0CDB7DEB789839A8389819A8164
S1130FE0CBDF0F900F90DF91CF910895CF93DF93D4
S1130FF0CDB7DEB72997CDBFDEBF8C839D836E83CB
S11310007F83488759871BC08E819F81FC01208183
S11310108E819F8101968E839F838C819D8189839C
S11310209A832B8389819A816B8182DF00008C8172
S11310309D81CDDF982F81E089278823C1F721E0A6
S113104088859985009709F420E08885998501971A
S1131050888799872223C1F680E090E02996CDBF46
S1131060DEBFDF91CF910895CF93DF93CDB7DEB785
S11310702997CDBFDEBF8C839D836E837F83488792
S113108059871DC08C819D8189839A831B828981A4
S11310909A816B814DDF00008C819D8198DF982FB0
S11310A081E089278823C1F72E813F818C819D812E
S11310B0B90175DF8E819F8101968E839F8321E024
S11310C088859985009709F420E08885998501979A
S11310D0888799872223B1F680E090E02996CDBFD6
S11310E0DEBFDF91CF910895CF93DF9300D000D07E
S11310F0CDB7DEB789839A836B837C838B819C8194
S1131100FC0180816CDE2496CDBFDEBFDF91CF91E0
S11311100895CF93DF9300D000D0CDB7DEB7898395
S11311209A836B837C838B819C81FC018081ABDE01
S11311302496CDBFDEBFDF91CF9108951BBEFC0185
S113114028ED24BF60830895CF93DF931F92CDB71A
S1131150DEB78FE390E0FC0180818983F894898174
S11311600F90DF91CF910895CF93DF931F92CDB766
S1131170DEB789838FE390E02981FC0120830F90FF
S1131180DF91CF910895CF93DF9300D01F92CDB715
S1131190DEB78A839B83D8DF89838A819B818157C9
S11311A09F4DFC018081282F2F5F8A819B8181576D
S11311B09F4DFC0120838981D7DF2396CDBFDEBFFD
S11311C0DF91CF910895CF93DF93CDB7DEB764E07D
S11311D080E090E0E1DD80E094E02FEF3FEFFC0160
S11311E02287338780E094E0FC011086118683E037
S11311F090E0C9DF80E094E023E0FC01228380E0FA
S113120094E0FC011082DF91CF9108951F920F9218
S113121000903F000F9211242F933F934F935F93BD
S11312206F937F938F939F93AF93BF93EF93FF93AA
S1131230CF93DF93CDB7DEB72897CDBFDEBF209124
S1131240952030919620809197209091982028178E
S1131250390708F463C080E094E023E0FC012283B2
S113126080919B2090919C20009709F457C0809115
S1131270952090919620CC01A0E0B0E0AC013327FA
S1131280222780E094E0FC0180859185CC01A0E0D8
S1131290B0E0822B932BA42BB52B89839A83AB8349
S11312A0BC838091972090919820CC01A0E0B0E07D
S11312B0AC01332722278091992090919A20CC0168
S11312C0A0E0B0E0822B932BA42BB52B8D839E83BF
S11312D0AF83B8872D813E814F81588589819A815A
S11312E0AB81BC81281739074A075B0758F08D8109
S11312F09E81AF81B8850196A11DB11D89839A8312
S1131300AB83BC8320919B2030919C2089819A815E
S1131310AB81BC81BC01CD01F90109952896CDBFF3
S1131320DEBFDF91CF91FF91EF91BF91AF919F917C
S11313308F917F916F915F914F913F912F910F907A
S113134000923F000F901F901895CF93DF931F9248
S1131350CDB7DEB78FE390E0FC0180818983F894F8
S113136089810F90DF91CF910895CF93DF931F92DE
S1131370CDB7DEB789838FE390E02981FC01208318
S11313800F90DF91CF910895CF93DF9300D01F92F8
S1131390CDB7DEB78A839B83D8DF89838A819B811B
S11313A081579F4DFC018081282F2F5F8A819B816B
S11313B081579F4DFC0120838981D7DF2396CDBFC0
S11313C0DEBFDF91CF9108951F920F9200903F00EE
S11313D00F9211242F933F934F935F936F937F93B7
S11313E08F939F93AF93BF93EF93FF93CF93DF9329
S11313F0CDB7DEB78091302090913120009731F045
S11314008091302090913120FC010995DF91CF919A
S1131410FF91EF91BF91AF919F918F917F916F91C8
S11314205F914F913F912F910F9000923F000F9049
S11314301F9018951F920F9200903F000F92112455
S11314402F933F934F935F936F937F938F939F93C8
S1131450AF93BF93EF93FF93CF93DF93CDB7DEB7F3
S11314608091322090913320009731F08091322086
S113147090913320FC010995DF91CF91FF91EF9179
S1131480BF91AF919F918F917F916F915F914F9198
S11314903F912F910F9000923F000F901F9018954D
S11314A01F920F9200903F000F9211242F933F93AD
S11314B04F935F936F937F938F939F93AF93BF9358
S11314C0EF93FF93CF93DF93CDB7DEB780913420B2
S11314D090913520009731F08091342090913520FF
S11314E0FC010995DF91CF91FF91EF91BF91AF91ED
S11314F09F918F917F916F915F914F913F912F9128
S11315000F9000923F000F901F9018951F920F921A
S113151000903F000F9211242F933F934F935F93BA
S11315206F937F938F939F93AF93BF93EF93FF93A7
S1131530CF93DF93CDB7DEB78091362090913720DB
S1131540009731F08091362090913720FC01099565
S1131550DF91CF91FF91EF91BF91AF919F918F91C7
S11315607F916F915F914F913F912F910F900092D6
S11315703F000F901F9018951F920F9200903F000C
S11315800F9211242F933F934F935F936F937F9305
S11315908F939F93AF93BF93EF93FF93CF93DF9377
S11315A0CDB7DEB78091382090913920009731F083
S11315B08091382090913920FC010995DF91CF91D9
S11315C0FF91EF91BF91AF919F918F917F916F9117
S11315D05F914F913F912F910F9000923F000F9098
S11315E01F9018951F920F9200903F000F921124A4
S11315F02F933F934F935F936F937F938F939F9317
S1131600AF93BF93EF93FF93CF93DF93CDB7DEB741
S113161080913A2090913B20009731F080913A20BC
S113162090913B20FC010995DF91CF91FF91EF91BF
S1131630BF91AF919F918F917F916F915F914F91E6
S11316403F912F910F9000923F000F901F9018959B
S11316501F920F9200903F000F9211242F933F93FB
S11316604F935F936F937F938F939F93AF93BF93A6
S1131670EF93FF93CF93DF93CDB7DEB780913C20F8
S113168090913D20009731F080913C2090913D2035
S1131690FC010995DF91CF91FF91EF91BF91AF913B
S11316A09F918F917F916F915F914F913F912F9176
S11316B00F9000923F000F901F9018951F920F9269
S11316C000903F000F9211242F933F934F935F9309
S11316D06F937F938F939F93AF93BF93EF93FF93F6
S11316E0CF93DF93CDB7DEB780913E2090913F201A
S11316F0009731F080913E2090913F20FC010995A4
S1131700DF91CF91FF91EF91BF91AF919F918F9115
S11317107F916F915F914F913F912F910F90009224
S11317203F000F901F9018951F920F9200903F005A
S11317300F9211242F933F934F935F936F937F9353
S11317408F939F93AF93BF93EF93FF93CF93DF93C5
S1131750CDB7DEB78091402090914120009731F0C1
S11317608091402090914120FC010995DF91CF9117
S1131770FF91EF91BF91AF919F918F917F916F9165
S11317805F914F913F912F910F9000923F000F90E6
S11317901F9018951F920F9200903F000F921124F2
S11317A02F933F934F935F936F937F938F939F9365
S11317B0AF93BF93EF93FF93CF93DF93CDB7DEB790
S11317C08091422090914320009731F080914220F3
S11317D090914320FC010995DF91CF91FF91EF9106
S11317E0BF91AF919F918F917F916F915F914F9135
S11317F03F912F910F9000923F000F901F901895EA
S11318001F920F9200903F000F9211242F933F9349
S11318104F935F936F937F938F939F93AF93BF93F4
S1131820EF93FF93CF93DF93CDB7DEB7809144203E
S113183090914520009731F080914420909145206B
S1131840FC010995DF91CF91FF91EF91BF91AF9189
S11318509F918F917F916F915F914F913F912F91C4
S11318600F9000923F000F901F9018951F920F92B7
S113187000903F000F9211242F933F934F935F9357
S11318806F937F938F939F93AF93BF93EF93FF9344
S1131890CF93DF93CDB7DEB7809146209091472058
S11318A0009731F08091462090914720FC010995E2
S11318B0DF91CF91FF91EF91BF91AF919F918F9164
S11318C07F916F915F914F913F912F910F90009273
S11318D03F000F901F9018951F920F9200903F00A9
S11318E00F9211242F933F934F935F936F937F93A2
S11318F08F939F93AF93BF93EF93FF93CF93DF9314
S1131900CDB7DEB78091482090914920009731F0FF
S11319108091482090914920FC010995DF91CF9155
S1131920FF91EF91BF91AF919F918F917F916F91B3
S11319305F914F913F912F910F9000923F000F9034
S11319401F9018951F920F9200903F000F92112440
S11319502F933F934F935F936F937F938F939F93B3
S1131960AF93BF93EF93FF93CF93DF93CDB7DEB7DE
S113197080914A2090914B20009731F080914A2029
S113198090914B20FC010995DF91CF91FF91EF914C
S1131990BF91AF919F918F917F916F915F914F9183
S11319A03F912F910F9000923F000F901F90189538
S11319B01F920F9200903F000F9211242F933F9398
S11319C04F935F936F937F938F939F93AF93BF9343
S11319D0EF93FF93CF93DF93CDB7DEB780914C2085
S11319E090914D20009731F080914C2090914D20A2
S11319F0FC010995DF91CF91FF91EF91BF91AF91D8
S1131A009F918F917F916F915F914F913F912F9112
S1131A100F9000923F000F901F9018951F920F9205
S1131A2000903F000F9211242F933F934F935F93A5
S1131A306F937F938F939F93AF93BF93EF93FF9392
S1131A40CF93DF93CDB7DEB780914E2090914F2096
S1131A50009731F080914E2090914F20FC01099520
S1131A60DF91CF91FF91EF91BF91AF919F918F91B2
S1131A707F916F915F914F913F912F910F900092C1
S1131A803F000F901F9018951F920F9200903F00F7
S1131A900F9211242F933F934F935F936F937F93F0
S1131AA08F939F93AF93BF93EF93FF93CF93DF9362
S1131AB0CDB7DEB78091502090915120009731F03E
S1131AC08091502090915120FC010995DF91CF9194
S1131AD0FF91EF91BF91AF919F918F917F916F9102
S1131AE05F914F913F912F910F9000923F000F9083
S1131AF01F9018951F920F9200903F000F9211248F
S1131B002F933F934F935F936F937F938F939F9301
S1131B10AF93BF93EF93FF93CF93DF93CDB7DEB72C
S1131B208091522090915320009731F0809152205F
S1131B3090915320FC010995DF91CF91FF91EF9192
S1131B40BF91AF919F918F917F916F915F914F91D1
S1131B503F912F910F9000923F000F901F90189586
S1131B601F920F9200903F000F9211242F933F93E6
S1131B704F935F936F937F938F939F93AF93BF9391
S1131B80EF93FF93CF93DF93CDB7DEB780915420CB
S1131B9090915520009731F08091542090915520D8
S1131BA0FC010995DF91CF91FF91EF91BF91AF9126
S1131BB09F918F917F916F915F914F913F912F9161
S1131BC00F9000923F000F901F9018951F920F9254
S1131BD000903F000F9211242F933F934F935F93F4
S1131BE06F937F938F939F93AF93BF93EF93FF93E1
S1131BF0CF93DF93CDB7DEB78091562090915720D5
S1131C00009731F08091562090915720FC0109955E
S1131C10DF91CF91FF91EF91BF91AF919F918F9100
S1131C207F916F915F914F913F912F910F9000920F
S1131C303F000F901F9018951F920F9200903F0045
S1131C400F9211242F933F934F935F936F937F933E
S1131C508F939F93AF93BF93EF93FF93CF93DF93B0
S1131C60CDB7DEB78091582090915920009731F07C
S1131C708091582090915920FC010995DF91CF91D2
S1131C80FF91EF91BF91AF919F918F917F916F9150
S1131C905F914F913F912F910F9000923F000F90D1
S1131CA01F9018951F920F9200903F000F921124DD
S1131CB02F933F934F935F936F937F938F939F9350
S1131CC0AF93BF93EF93FF93CF93DF93CDB7DEB77B
S1131CD080915A2090915B20009731F080915A2096
S1131CE090915B20FC010995DF91CF91FF91EF91D9
S1131CF0BF91AF919F918F917F916F915F914F9120
S1131D003F912F910F9000923F000F901F901895D4
S1131D101F920F9200903F000F9211242F933F9334
S1131D204F935F936F937F938F939F93AF93BF93DF
S1131D30EF93FF93CF93DF93CDB7DEB780915C2011
S1131D4090915D20009731F080915C2090915D200E
S1131D50FC010995DF91CF91FF91EF91BF91AF9174
S1131D609F918F917F916F915F914F913F912F91AF
S1131D700F9000923F000F901F9018951F920F92A2
S1131D8000903F000F9211242F933F934F935F9342
S1131D906F937F938F939F93AF93BF93EF93FF932F
S1131DA0CF93DF93CDB7DEB780915E2090915F2013
S1131DB0009731F080915E2090915F20FC0109959D
S1131DC0DF91CF91FF91EF91BF91AF919F918F914F
S1131DD07F916F915F914F913F912F910F9000925E
S1131DE03F000F901F9018951F920F9200903F0094
S1131DF00F9211242F933F934F935F936F937F938D
S1131E008F939F93AF93BF93EF93FF93CF93DF93FE
S1131E10CDB7DEB78091602090916120009731F0BA
S1131E208091602090916120FC010995DF91CF9110
S1131E30FF91EF91BF91AF919F918F917F916F919E
S1131E405F914F913F912F910F9000923F000F901F
S1131E501F9018951F920F9200903F000F9211242B
S1131E602F933F934F935F936F937F938F939F939E
S1131E70AF93BF93EF93FF93CF93DF93CDB7DEB7C9
S1131E808091622090916320009731F080916220CC
S1131E9090916320FC010995DF91CF91FF91EF911F
S1131EA0BF91AF919F918F917F916F915F914F916E
S1131EB03F912F910F9000923F000F901F90189523
S1131EC0CF93DF9300D01F92CDB7DEB78A839B8375
S1131ED03CDA89838A819B81811528E0920759F431
S1131EE061E083E090E00E94CC0664E083E090E04F
S1131EF00E94CC0647C08A819B81803428E09207E7
S1131F0059F462E083E090E00E94CC0664E083E050
S1131F1090E00E94CC0636C08A819B81811529E01D
S1131F20920759F461E084E090E00E94CC0664E0FA
S1131F3084E090E00E94CC0625C08A819B81803495
S1131F4029E0920759F462E084E090E00E94CC0614
S1131F5064E084E090E00E94CC0614C08A819B81F6
S1131F6081152AE0920759F461E085E090E00E942F
S1131F70CC0664E085E090E00E94CC0603C0898131
S1131F80F4D905C081E090E0FFD98981EED9239688
S1131F90CDBFDEBFDF91CF910895CF93DF9300D003
S1131FA000D0CDB7DEB789839A836B837C83898124
S1131FB09A81811528E0920739F48B819C81809362
S1131FC030209093312033C089819A81803428E075
S1131FD0920739F48B819C8180933C2090933D201F
S1131FE026C089819A81811529E0920739F48B8171
S1131FF09C81809344209093452019C089819A81C3
S1132000803429E0920739F48B819C81809350209D
S1132010909351200CC089819A8181152AE09207FE
S113202031F48B819C81809358209093592024967D
S1132030CDBFDEBFDF91CF910895CF93DF9300D062
S1132040CDB7DEB789839A8389819A81FC01848123
S1132050282F206189819A81FC0124830F900F909D
S1132060DF91CF910895CF93DF93CDB7DEB7279754
S1132070CDBFDEBF89839A836B837C834D835E836C
S11320802F839B818D81982B8F81882311F088E089
S113209001C080E0292F282B89819A81FC012583A6
S11320A02796CDBFDEBFDF91CF910895CF93DF9305
S11320B000D0CDB7DEB789839A8389819A81FC01E8
S11320C08481282F286089819A81FC0124830F90C0
S11320D00F90DF91CF910895CF93DF9300D000D07C
S11320E0CDB7DEB789839A836B837C8389819A8198
S11320F0FC018581982F9F738B81292F282B89813F
S11321009A81FC0125832496CDBFDEBFDF91CF9158
S11321100895CF93DF9300D0CDB7DEB789839A8338
S113212089819A81FC018181882F90E080729927AE
S113213021E0009709F420E0822F0F900F90DF91A7
S1132140CF910895CF93DF93CDB7DEB780E098E4C5
S1132150A8EEB1E0BC01CD01DF91CF910895CF93FA
S1132160DF931F92CDB7DEB71982ECDFDC01CB0120
S11321702981222F30E0022E04C0B695A7959795A9
S113218087950A94D2F7BC01CD010F90DF91CF91CE
S11321900895CF93DF93CDB7DEB7E1DFDC01CB0148
S11321A0BC01CD01DF91CF910895CF93DF93CDB7DB
S11321B0DEB7EFDFDC01CB01BC01CD01DF91CF91B4
S11321C00895CF93DF9300D0CDB7DEB789839A8388
S11321D089819A81009709F41EC189819A81803C82
S11321E0910531F460E180E090E00E94CC0613C1D7
S11321F089819A81811524E0920731F464E080E0BA
S113220090E00E94CC0607C189819A81803821E040
S1132210920731F462E080E090E00E94CC06FBC0BB
S113222089819A81811521E0920731F461E080E08F
S113223090E00E94CC06EFC089819A81803823E027
S1132240920731F461E081E090E00E94CC06E3C0A3
S113225089819A81811522E0920731F462E081E05C
S113226090E00E94CC06D7C089819A81803223E015
S1132270920731F464E082E090E00E94CC06CBC087
S113228089819A81811528E0920731F461E083E025
S113229090E00E94CC06BFC089819A81811529E013
S11322A0920731F461E084E090E00E94CC06B3C070
S11322B089819A8181152AE0920731F461E085E0F1
S11322C090E00E94CC06A7C089819A81803428E0DE
S11322D0920731F462E083E090E00E94CC069BC058
S11322E089819A81803429E0920731F462E084E0A4
S11322F090E00E94CC068FC089819A81803928E0C1
S1132300920731F464E083E090E00E94CC0683C03D
S113231089819A81803929E0920731F464E084E06C
S113232090E00E94CC0677C089819A8180392AE0A6
S1132330920731F464E085E090E00E94CC066BC023
S113234089819A81803C28E0920731F468E083E037
S113235090E00E94CC065FC089819A81803C29E08C
S1132360920731F468E084E090E00E94CC0653C008
S113237089819A81803A28E0920731F460E183E010
S113238090E00E94CC0647C089819A81803A29E076
S1132390920731F460E184E090E00E94CC063BC0F7
S11323A089819A81803A2AE0920731F460E185E0DC
S11323B090E00E94CC062FC089819A81803B28E05E
S11323C0920731F460E283E090E00E94CC0623C0DF
S11323D089819A81803B29E0920731F460E284E0AC
S11323E090E00E94CC0617C089819A81803824E04D
S11323F0920731F460E483E090E00E94CC060BC0C5
S113240089819A81803A24E0920729F460E485E086
S113241090E00E94CC060F900F90DF91CF91089529
S11324200F931F93CF93DF93CDB7DEB72597CDBF1F
S1132430DEBF8A839B836C837D838A819B81C1DE1B
S11324408A819B8160E070E047DE8C819D81FC0184
S113245020858C819D81FC01468157818C819D81E1
S1132460FC01648175818A819B81FDDD9EDE9B0177
S1132470AC018C819D81FC0180819181A281B38119
S1132480EA81FB8189019A01AC01BD01CF012FD002
S113249089838A819B810ADE8A819B81CEDD898141
S11324A02596CDBFDEBFDF91CF911F910F91089587
S11324B0CF93DF9300D01F92CDB7DEB789839A8381
S11324C06B83000089819A8124DE982F81E089271B
S11324D08823C1F789819A812B81FC01208380E0C4
S11324E090E02396CDBFDEBFDF91CF910895EF92A8
S11324F0FF920F931F93CF93DF93CDB7DEB76F9700
S1132500CDBFDEBF8E8B9F8B488F598F6A8F7B8F99
S11325100C8F1D8F2E8F3F8F8C8D9D8DAE8DBF8D1B
S1132520689412F8B695A795979587951694D1F760
S11325308E879F87A88BB98B8C8D9D8DAE8DBF8D1B
S1132540072E76E1B695A795979587957A95D1F755
S1132550702D8A879B87AC87BD878E899F89FC01F4
S11325608481882F90E0847099270097C1F48E8528
S11325709F85A889B989B695A795979587958E87DC
S11325809F87A88BB98B8A859B85AC85BD85B695BD
S1132590A795979587958A879B87AC87BD87288D54
S11325A0398D4A8D5B8D8E859F85A889B98982175F
S11325B09307A407B50768F0288D398D4A8D5B8D84
S11325C08A859B85AC85BD85281739074A075B0733
S11325D010F480E03CC18E899F89FC018481882F9E
S11325E090E084709927009761F4888D998DAA8D65
S11325F0BB8D880F991FAA1FBB1F888F998FAA8F25
S1132600BB8F8FEF90E0A0E0B0E08E839F83A8871C
S1132610B9878C8D9D8DAE8DBF8D288D398D4A8D5A
S11326205B8DBC01CD010E940D2B2A8B3B8B4C8B07
S11326305D8B89EF898328C02A893B894C895D8910
S11326408E819F81A885B985281739074A075B07BA
S1132650F8F08E819F81A885B985880F991FAA1FDC
S1132660BB1F8E839F83A887B98789818D3F4CF4D4
S11326708E819F81A885B98581608E839F83A88779
S1132680B98789818F5F898389818730ACF201C0E2
S11326900000898188230CF088C0888D998DAA8DCB
S11326A0BB8D880F991FAA1FBB1F880F991FAA1FD4
S11326B0BB1F880F991FAA1FBB1F2C8D3D8D4E8DEC
S11326C05F8D79018A01E81AF90A0A0B1B0BD801FC
S11326D0C7018C8F9D8FAE8FBF8F89818E3F84F50C
S11326E08981992787FD90952DEF3FEF281B390BA2
S11326F08C8D9D8DAE8DBF8D7C018D0104C0EE0C43
S1132700FF1C001F111F2A95D2F7A8019701888D7D
S1132710998DAA8DBB8DB695A79597958795820FB0
S1132720931FA41FB51F288D398D4A8D5B8DBC0165
S1132730CD010E940D2B2A833B834C835D836EC0A5
S11327408981992787FD90959C012D5F3F4F888D46
S1132750998DAA8DBB8D04C0880F991FAA1FBB1F1A
S11327602A95D2F7888F998FAA8FBB8F888D998DE0
S1132770AA8DBB8D9C01AD0156954795379527953C
S11327808C8D9D8DAE8DBF8D820F931FA41FB51FA1
S1132790288D398D4A8D5B8DBC01CD010E940D2B96
S11327A02A833B834C835D8339C08981992787FDC4
S11327B090959C012D5F3F4F888D998DAA8DBB8D7F
S11327C004C0880F991FAA1FBB1F2A95D2F7888FB0
S11327D0998FAA8FBB8F888D998DAA8DBB8D9C01F3
S11327E0AD0156954795379527958C8D9D8DAE8D6A
S11327F0BF8D820F931FA41FB51F288D398D4A8D5D
S11328005B8DBC01CD010E940D2BDA01C90101973A
S1132810A109B1098A839B83AC83BD838A819B818F
S1132820AC81BD81892F9A2FAB2FBB27982F9F7026
S113283089818295807F292F282B8E899F89FC018D
S113284027832A818E899F89FC01268381E06F96E4
S1132850CDBFDEBFDF91CF911F910F91FF90EF901D
S11328600895CF93DF931F92CDB7DEB78FE390E047
S1132870FC0180818983F89489810F90DF91CF9145
S11328800895CF93DF931F92CDB7DEB789838FE38B
S113289090E02981FC0120830F90DF91CF9108956E
S11328A0CF93DF9300D0CDB7DEB78A83DADF898395
S11328B080E590E020E530E0F90130812A81232B86
S11328C0FC0120838981DDDF0F900F90DF91CF9190
S11328D00895CF93DF931F92CDB7DEB789830F900E
S11328E0DF91CF910895CF93DF9300D0CDB7DEB7BA
S11328F08A83B7DF898380E590E020E530E0F90141
S11329002081322F2A8120952323FC012083898171
S1132910B8DF0F900F90DF91CF910895CF93DF939D
S11329201F92CDB7DEB789838981883019F08981F8
S1132930B7DF02C08981CDDF0F90DF91CF91089579
S1132940CF93DF931F92CDB7DEB7898380E590E004
S1132950FC0191818981982381E0992309F480E025
S11329600F90DF91CF910895CF93DF931F92CDB74E
S1132970DEB7898300008981E3DF982F81E089270E
S11329808823C9F70F90DF91CF910895CF93DF93F8
S1132990CDB7DEB780E098E4A8EEB1E0BC01CD018C
S11329A0DF91CF910895CF93DF931F92CDB7DEB718
S11329B01982ECDFDC01CB012981222F30E0022EC9
S11329C004C0B695A795979587950A94D2F7BC014C
S11329D0CD010F90DF91CF910895CF93DF93CDB7C1
S11329E0DEB7E1DFDC01CB01BC01CD01DF91CF918A
S11329F00895CF93DF93CDB7DEB7EFDFDC01CB01D2
S1132A00BC01CD01DF91CF910895CF93DF93CDB772
S1132A10DEB7EFDFDC01CB01BC01CD01DF91CF914B
S1132A2008956150710981099109D9F70895CF93E7
S1132A30DF93CDB7DEB72B97CDBFDEBF8A876B8719
S1132A408A8589838B858A8389818B838B818C8317
S1132A508C818695869586958D838D81882F90E0CF
S1132A60880F991F82959295907F9827807F982749
S1132A709A5F8E839F838A818823A9F089818887BE
S1132A808885882F90E09C012770332781E090E0AF
S1132A9002C0880F991F2A95E2F7282F8E819F8103
S1132AA0FC01258314C0898189878985882F90E05A
S1132AB09C012770332781E090E002C0880F991FA2
S1132AC02A95E2F7282F8E819F81FC0126832B967D
S1132AD0CDBFDEBFDF91CF910895CF93DF93CDB704
S1132AE0DEB780EA90E027E0FC012283DF91CF91FA
S1132AF00895CF93DF9300D000D0CDB7DEB789839C
S1132B009A836B837C8389819A81FC018681282F37
S1132B102C7F89819A81FC01268389819A81FC0119
S1132B2096818B81292F282B89819A81FC01268308
S1132B302496CDBFDEBFDF91CF910895CF93DF936D
S1132B4000D000D0CDB7DEB789839A836B837C83B2
S1132B5089819A81FC018081982F907F8B81292F14
S1132B60282B89819A81FC0120832496CDBFDEBF66
S1132B70DF91CF910895CF93DF9300D000D0CDB7EC
S1132B80DEB789839A836B837C8389819A81FC0174
S1132B908181982F987F8B81292F282B89819A8175
S1132BA0FC0121832496CDBFDEBFDF91CF91089530
S1132BB0CF93DF9300D000D0CDB7DEB789839A835B
S1132BC06B837C8389819A81FC018381982F9F7C0C
S1132BD08B818295807F292F282B89819A81FC0102
S1132BE023832496CDBFDEBFDF91CF910895CF9389
S1132BF0DF9300D0CDB7DEB797D48093882080913F
S1132C008A20882309F472C080E499E0FC011082D0
S1132C1080918820882F90E08B3F910559F08C3F5C
S1132C20910521F08A3F910569F130C081E08093DC
S1132C308B206FC080918B20882319F010928A20FA
S1132C4068C010928A2080918920815080938920C5
S1132C5080918920882F90E08F559E4DFC018081C2
S1132C60898380918920682F81EA91E29CD18A83AB
S1132C7099818A81981711F462D44BC061E080E095
S1132C8062D147C010928A20000043C080918B20FB
S1132C908823E9F080918820882F90E08130910585
S1132CA049F08230910551F0009761F48AEF8093E6
S1132CB088200BC08BEF8093882007C08CEF809313
S1132CC0882003C010928A20000010928B2020914B
S1132CD08920822F90E0309188208F559E4DFC01F1
S1132CE03083822F8F5F8093892013C08091882046
S1132CF08A3F79F481E080938A201092892080E4CD
S1132D0099E0FC0110A211A280E499E026E0FC0104
S1132D1020830F900F90DF91CF910895CF93DF938D
S1132D201F92CDB7DEB789838981882F90E08B3FCE
S1132D30910579F08C3F9105A9F08A3F9105D9F46A
S1132D406CEF80EA99E0B4DB60E080EA99E0B0DB04
S1132D5017C06CEF80EA99E0ABDB61E080EA99E0B0
S1132D60A7DB0EC06CEF80EA99E0A2DB62E080EAA8
S1132D7099E09EDB05C0698180EA99E099DB000057
S1132D800F90DF91CF910895CF93DF93CDB7DEB746
S1132D902897CDBFDEBF81E080938C20809189226B
S1132DA08F836F818DE990E2FED088876AEF80EA95
S1132DB099E07EDB19821A820CC089819A8183563C
S1132DC09F4DFC018081AADF89819A8101968983C4
S1132DD09A838F81282F30E089819A818217930703
S1132DE064F388859BDF6BEF80EA99E061DBF894FC
S1132DF090918D208F81F92FF81B8F2F80938D2038
S1132E001B821C8216C08F81282F30E08B819C810D
S1132E10820F931F83569F4DFC0120818B819C81DF
S1132E2083569F4DFC0120838B819C8101968B836B
S1132E309C8380918D20282F30E08B819C81821788
S1132E4093070CF380918E20815080938E201D82F5
S1132E501E8212C08D819E81019687579D4DFC0173
S1132E6020818D819E8187579D4DFC0120838D811A
S1132E709E8101968D839E8380918E20282F30E041
S1132E808D819E81821793072CF3789410928C2065
S1132E902896CDBFDEBFDF91CF910895CF93DF9306
S1132EA0CDB7DEB72597CDBFDEBF8B839C836D8303
S1132EB08D81882309F440C0F89420918E20822FBC
S1132EC090E087579D4D3D81FC013083822F8F5FB9
S1132ED080938E2019821A8219C060918D20862FCA
S1132EE090E029813A814B815C81240F351FF901DF
S1132EF0208183569F4DFC012083862F8F5F809312
S1132F008D2089819A81019689839A838D81282FC6
S1132F1030E089819A8182179307FCF2789480913A
S1132F208C20882319F009C02FDF01C00000809194
S1132F308E208823C9F701C000002596CDBFDEBFCF
S1132F40DF91CF910895CF93DF9300D000D0CDB718
S1132F50DEB78B836C838B8189838C818A8362E067
S1132F60CE0101969BDF2496CDBFDEBFDF91CF91CA
S1132F700895CF93DF93CDB7DEB72697CDBFDEBFDD
S1132F808C836D834E838C8189838D818A838E812A
S1132F908B8363E0CE01019681DF2696CDBFDEBF31
S1132FA0DF91CF910895CF93DF93CDB7DEB7259707
S1132FB0CDBFDEBF8B839C836D8319821A8211C0BF
S1132FC08A81882F90E02B813C81820F931FFC0122
S1132FD080819981F92FF81B8F2F89838A818F5FD4
S1132FE08A839A818D81981758F389812596CDBF5C
S1132FF0DEBFDF91CF9108951F920F9200903F00A2
S11330000F9211242F933F934F935F936F937F936A
S11330108F939F93AF93BF93EF93FF93CF93DF93DC
S1133020CDB7DEB7E4DDDF91CF91FF91EF91BF9192
S1133030AF919F918F917F916F915F914F913F914C
S11330402F910F9000923F000F901F9018951F92A0
S11330500F9200903F000F9211242F933F934F93B0
S11330605F936F937F938F939F93AF93BF93EF93EC
S1133070FF93CF93DF93CDB7DEB780EA9AE0FC01EC
S113308080818093662080EA90E020EA30E0F901B4
S113309022812E7FFC01228380916720813029F0D8
S11330A080916720843009F051C080E498E0FC01ED
S11330B0108280E498E0FC0110A211A280916620A5
S11330C08A3241F0809166208D3321F08091662010
S11330D0833269F480916720813039F482E38093EC
S11330E0232281E08093652002C0109265208091A4
S11330F06520882F90E0209166208D5D9D4DFC0118
S11331002083809165208F5F809365208091662065
S11331108D30B1F480916720813039F4809165203D
S1133120682F83E292E2BADE01C076D6109265205F
S113313080E498E026E0FC012083109267200BC015
S113314080E498E025E0FC01208305C0809186207E
S113315080618093862080EA90E020EA30E0F901E3
S113316022812160FC012283DF91CF91FF91EF91B5
S1133170BF91AF919F918F917F916F915F914F918B
S11331803F912F910F9000923F000F901F90189540
S11331901F920F9200903F000F9211242F933F93A0
S11331A04F935F936F937F938F939F93AF93BF934B
S11331B0EF93FF93CF93DF93CDB7DEB7F89400007E
S11331C080E094E0FC0181818823D1F700E0009342
S11331D00008009300090093000A00930004809102
S11331E06E208823A1F110926E20000080E094E00C
S11331F0FC0181818823D1F780E094E02091732041
S113320030917420FC0122873387000080E094E031
S1133210FC0181818823D1F780E094E0FC011086D1
S11332201186000080E094E0FC0181818823D1F7BD
S113323080E094E020917220FC01208308E01AE0F1
S11332402CE000930008109300092093000A00006A
S113325080E094E0FC0181818823D1F780E094E050
S1133260FC018085918580937020909371200000EB
S113327080E094E0FC0181818823D1F780E094E030
S1133280FC0110861186789480E098E0FC0180A10E
S113329091A1809378209093792080E099E0FC01BB
S11332A080A191A180937C2090937D2080E09AE07E
S11332B0FC0180A191A180938020909381201092A1
S11332C06F2080916F20482F64E180E052DEDF910F
S11332D0CF91FF91EF91BF91AF919F918F917F918A
S11332E06F915F914F913F912F910F9000923F000A
S11332F00F901F901895CF93DF93CDB7DEB78091D1
S11333007A2090917B208F3F2FEF920751F080918C
S11333107A2090917B20019680937A2090937B2051
S11333200BC080E098E0FC01108280E098E02FEF71
S11333303FEFFC0120A331A3DF91CF910895CF93F8
S1133340DF93CDB7DEB780917E2090917F208F3FB1
S11333502FEF920751F080917E2090917F2001966B
S113336080937E2090937F200BC080E099E0FC0145
S1133370108280E099E02FEF3FEFFC0120A331A3FE
S1133380DF91CF910895CF93DF93CDB7DEB78091CE
S11333908220909183208F3F2FEF920751F08091EC
S11333A082209091832001968093822090938320A1
S11333B00BC080E09AE0FC01108280E09AE02FEFDD
S11333C03FEFFC0120A331A3DF91CF910895CF9368
S11333D0DF93CDB7DEB780EA90E020EA30E0F90170
S11333E022812E7FFC01228380E498E0FC0110827C
S11333F080E498E0FC0110A211A280916720882F3C
S113340090E08130910531F084309105D1F000973E
S113341071F04AC080918620886080938620109243
S1133420672080E498E026E0FC0120835FC084E00C
S113343080936720D9D680E498E025E0FC012083BE
S113344055C0F89480916A20882301F18091682006
S11334508F5F80936820809168208330B8F080E487
S113346096E028E0FC01258380918B23806480937F
S11334708B2380918B238F7D80938B2310926A20E2
S113348080916520482F6FE180E073DD789480910E
S113349086208460809386201092672080E498E0E0
S11334A026E0FC01208322C0F89480E496E028E022
S11334B0FC01258380918B23806480938B238091EE
S11334C08B238F7D80938B237894809186208062D8
S11334D080938620809186208064809386208091CA
S11334E06720482F6AE280E044DD000080EA90E033
S11334F020EA30E0F90122812160FC012283DF917E
S1133500CF910895CF93DF93CDB7DEB710928A2081
S113351080E499E0FC01108280E499E0FC0110A2AF
S113352011A2DF91CF910895CF93DF93CDB7DEB78A
S113353080EA99E0FC018081DF91CF910895CF93D7
S1133540DF93CDB7DEB78091A121882F90E0AA2721
S113355097FDA095BA2F41E050E02CE430E0841BA5
S1133560950B2817390708F46EC082509F4FFC0151
S11335700C942F2B80919D2190919E21FC01208100
S113358080919F219091A021FC018081422F682F7E
S113359084E1EFDC5EC060D05CC080910020682FC5
S11335A081E0D1DC56C08ED054C0CED052C04DD1B3
S11335B050C0BDD14EC00CD64CC080916420682F41
S11335C088E0C1DC46C081E007D743C082E004D76D
S11335D040C083E001D73DC084E0FED63AC085E018
S11335E0FBD637C086E0F8D634C087E0F5D631C0C4
S11335F088E0F2D62EC089E0EFD62BC012D629C0BF
S11336000E94D92626C00E94012723C00E943C277D
S113361020C00E9465271DC00E9491271AC00E94E5
S1133620C32717C00E94F72714C00E94572311C054
S113363062D60FC0CBD10DC09091A3218091A2215D
S1133640692F67D606C08091A121482F6AE080E0E7
S113365090DCDF91CF910895CF93DF93CDB7DEB7A0
S11336602997CDBFDEBFD1D9DC01CB0189839A83F1
S1133670AB83BC8383E08D8389818E8389819A8126
S1133680AB81BC81892F9A2FAB2FBB278F83898174
S11336909A81AB81BC81CD01AA27BB278887898108
S11336A09A81AB81BC818B2F9927AA27BB27898755
S11336B0CE01059665E0F2DB2996CDBFDEBFDF9132
S11336C0CF910895CF93DF93CDB7DEB72597CDBFC4
S11336D0DEBF82E089838091012090910220A09135
S11336E00320B09104208A838091012090910220CC
S11336F0A0910320B0910420892F9A2FAB2FBB27D0
S11337008B838091012090910220A0910320B0919D
S11337100420CD01AA27BB278C838091012090919E
S11337200220A0910320B09104208B2F9927AA276F
S1133730BB278D8365E0CE010196B0DB2596CDBF16
S1133740DEBFDF91CF910895CF93DF93CDB7DEB77E
S1133750F89480916F20823009F46EC0000080E0FC
S113376094E0FC0181818823D1F780E094E02091EA
S1133770A321222F30E0522F44272091A421222F6D
S113378030E0240F351FFC01228733871092782004
S11337901092792010927C2010927D20109280202B
S11337A01092812010927A2010927B2010927E2019
S11337B010927F201092822010928320000080E0DB
S11337C094E0FC0181818823D1F780E094E0FC013E
S11337D01086118680E098E0FC0110A211A280E01E
S11337E099E0FC0110A211A280E09AE0FC0110A271
S11337F011A28091A22180937220000080E094E0C5
S1133800FC0181818823D1F780E094E02091A221FA
S1133810FC01208308E01AE02CE0009300081093D8
S113382000092093000A80916F20682F8EE18BDBC2
S113383082E080936F2005C080916F20682F8EE115
S113384082DB7894DF91CF910895CF93DF93CDB746
S1133850DEB76197CDBFDEBF80E2898380916F20A0
S11338608A8380916F20882309F057C080917A2041
S113387090917B20892F99278B8380917A20909136
S11338807B208C838091782090917920892F9927AF
S11338908D8380917820909179208E8380917E20F1
S11338A090917F20892F99278F8380917E209091FA
S11338B07F20888780917C2090917D20892F992773
S11338C0898780917C2090917D208A8780918220B5
S11338D090918320892F99278B87809182209091C2
S11338E083208C878091802090918120892F992733
S11338F08D8780918020909181208E878091702087
S113390090917120892F99278F87809170209091B1
S11339107120888B80917220898B61E1CE010196A0
S1133920BDDA6196CDBFDEBFDF91CF910895CF930D
S1133930DF93CDB7DEB780916F20823009F03EC0AF
S1133940000080E094E0FC0181818823D1F780E0CD
S113395094E0FC01108260E070E080E098E0EED832
S113396060E070E080E099E0E9D860E070E080E039
S11339709AE0E4D880E098E0FC0110A211A280E073
S113398099E0FC0110A211A280E09AE0FC0110A2CF
S113399011A2000080E094E0FC0181818823D1F72A
S11339A080E094E0FC011086118680916F20682FDE
S11339B08FE1C9DA81E080936F2005C080916F2088
S11339C0682F8FE1C0DADF91CF910895CF93DF9311
S11339D0CDB7DEB72B97CDBFDEBF8091A221982F44
S11339E0990F990F8091A32182958695869583706E
S11339F0890F8093A2218091A321880F880F80933F
S1133A00A3218091A421982F990F990F8091A5212A
S1133A108295869586958370890F8093A4218091E1
S1133A20A521880F880F8093A5218091A621982F26
S1133A30990F990F8091A721829586958695837019
S1133A40890F8093A6218091A721880F880F8093E6
S1133A50A72180916F20823009F414C1C2D589E175
S1133A6089878091A2218A878091A3218B8761E233
S1133A7070E280EC98E00E947408CE01099643E05D
S1133A8050E0BC0180EC98E00E94F60761E270E22D
S1133A9080EC98E00E94890888E189878091A421BC
S1133AA08A878091A5218B8761E270E280EC98E09F
S1133AB00E947408CE01099643E050E0BC0180ECFA
S1133AC098E00E94F60761E270E280EC98E00E94C0
S1133AD089088091A6218A878091A7218B8762E239
S1133AE070E280EC98E00E947408CE01099643E0ED
S1133AF050E0BC0180EC98E00E94F60762E270E2BC
S1133B0080EC98E00E9489088091A821882F90E099
S1133B10382F22278091A921882F90E0820F931FAC
S1133B2089839A8389819A81B6D0DC01CB018B8306
S1133B309C83AD83BE838B819C81AD81BE810097C4
S1133B40A105B10521F460E081E2FDD99EC08B811D
S1133B509C81AD81BE81CD01AA27BB2780937520AE
S1133B608B819C8180937620909377208091AA21E9
S1133B70882F90E0382F22278091AB21882F90E066
S1133B80820F931F8F8398878F81988584D0DC015F
S1133B90CB018B839C83AD83BE838B819C81AD8160
S1133BA0BE810097A105B10521F460E081E2CBD983
S1133BB06CC08B819C81AD81BE81CD01AA27BB27BE
S1133BC0809372208B819C818093732090937420C6
S1133BD081E080936E20000080E094E0FC0181810C
S1133BE08823D1F780E094E02091762030917720EB
S1133BF0FC0122873387109278201092792010924A
S1133C007C2010927D2010928020109281201092AE
S1133C107A2010927B2010927E2010927F201092A6
S1133C20822010928320000080E094E0FC018181D6
S1133C308823D1F780E094E0FC011086118680E0AF
S1133C4098E0FC0110A211A280E099E0FC0110A20E
S1133C5011A280E09AE0FC0110A211A2000080E011
S1133C6094E0FC0181818823D1F780E094E02091E5
S1133C707520FC01208361E081E265D982E08093B4
S1133C806F2003C062E081E25ED92B96CDBFDEBF18
S1133C90DF91CF910895CF93DF93CDB7DEB72D9702
S1133CA0CDBFDEBF8C879D871E821F821886198632
S1133CB019821A821B821C821D821A861B868C859D
S1133CC09D85009789F08C859D85803D27E092072E
S1133CD058F481E089838FE692E1A3E0B2E48A8319
S1133CE09B83AC83BD835AC08C859D85803D27E032
S1133CF0920788F08C859D85803A2FE0920758F4CE
S1133D0082E089838FE692E1A3E8B1E48A839B830E
S1133D10AC83BD8343C08C859D85803A2FE0920798
S1133D2088F08C859D8580382EE3920758F483E0D3
S1133D3089838FE692E1A3E8B0E48A839B83AC8312
S1133D40BD832CC08C859D8580382EE3920788F036
S1133D508C859D8581152DE7920758F484E089832D
S1133D608FE692E1A3E0B0E48A839B83AC83BD83B6
S1133D7015C08C859D8581152DE7920758F085E047
S1133D8089838FE692E1A3E0BFE38A839B83AC83BC
S1133D90BD8304C080E090E0DC0136C08C859D8545
S1133DA0CC01A0E0B0E0BC01CD010E949E04DC0186
S1133DB0CB012A813B814C815D81BC01CD010E94F4
S1133DC04203DC01CB01BC01CD010E946901DC018D
S1133DD0CB018A879B878981882F90E0A0E0B0E09F
S1133DE0AC01332722278A859B85CC01A0E0B0E073
S1133DF0820F931FA41FB51F8E839F83A887B98743
S1133E008E819F81A885B985BC01CD012D96CDBF3A
S1133E10DEBFDF91CF910895CF93DF93CDB7DEB7A7
S1133E202A97CDBFDEBF809123228D3309F050C184
S1133E3080912422863509F04BC180912522893353
S1133E4009F046C180912622803309F041C1809156
S1133E502722823309F03CC180912822803209F064
S1133E6037C180916520882F90E001978D5D9D4D2D
S1133E70FC0180818D3009F02BC181E080936A20A0
S1133E80F89483E380930522809165208650809383
S1133E906B20198214C08981882F90E001962981B2
S1133EA0222F30E02A5F3F4F2D5D3D4DF9012081E7
S1133EB08B5F9D4DFC01208389818F5F8983809175
S1133EC06B209981981738F378941E8286E08F834B
S1133ED04FC08F81882F90E08D5D9D4DFC018081C6
S1133EE08B3321F48E818F5F8E833FC08E81882F28
S1133EF090E085309105B9F0863091051CF4009767
S1133F0041F032C086309105C1F087309105F9F057
S1133F102BC08F81882F90E08D5D9D4DFC018081A9
S1133F200AD18A8322C08F81882F90E08D5D9D4DB8
S1133F30FC01808100D18B8318C08F81882F90E091
S1133F408D5D9D4DFC018081F6D08C830EC08F81E8
S1133F50882F90E08D5D9D4DFC018081ECD08D8398
S1133F60809165208F8301C000008F818F5F8F83D4
S1133F70809165209F81981708F4ABCF8A8188309F
S1133F8008F0A6C08B81853008F0A2C08C818530F2
S1133F9008F09EC08D81853008F09AC01886198675
S1133FA08A81882F90E08430910519F481E0888714
S1133FB002C0188600008B81882F90E08430910520
S1133FC041F480E696E022E0FC01258310926D2006
S1133FD024C080E696E0FC018481882F90E0827002
S1133FE09927959587950097B9F080916D208F5FFB
S1133FF080936D2090916D2080910C20981760F033
S113400080E696E022E0FC0126834B8168E180E0B3
S11340100E94B91710926D2000008C81882F90E0C7
S11340208430910519F481E0898702C01986000063
S113403088858823A1F08985882389F080918B2342
S11340408074882349F080918B238F7B80938B230A
S113405066E180E00E94A31710926C2034C0809126
S11340608B238074882379F580916C208F5F8093F3
S11340706C2090916C2080910B20981720F180E4A3
S113408096E028E0FC01258380918B238064809353
S11340908B2380918B238F7D80938B238A81882F20
S11340A090E082959295907F9827807F9827982F0B
S11340B08C818F70890F8A874A8567E180E00E942E
S11340C0B91710926C2010926920109268202DC0AC
S11340D0809168208F5F809368208091682083306E
S11340E0F8F080E496E028E0FC01258380918B239E
S11340F0806480938B2380918B238F7D80938B238B
S113410080916920882351F480916520482F6EE1C5
S113411080E00E94B91781E08093692010926820A2
S1134120809186208062809386202A96CDBFDEBF50
S1134130DF91CF910895CF93DF931F92CDB7DEB770
S113414089838981882F90E08433910581F18533B7
S113415091058CF48133910521F18233910524F486
S113416080339105E1F02FC082339105E1F0833370
S11341709105D9F028C087339105F9F0883391056A
S11341803CF485339105A9F086339105A1F01BC059
S113419088339105A1F08933910599F014C080E02A
S11341A013C081E011C082E00FC083E00DC084E041
S11341B00BC085E009C086E007C087E005C088E041
S11341C003C089E001C08FEF0F90DF91CF91089574
S11341D0CF93DF93CDB7DEB7809184208260809344
S11341E08420DF91CF910895CF93DF931F92CDB7B1
S11341F0DEB719820FC08981882F90E08B5F9F4DB5
S1134200FC018081682F80EA9AE00E94581289811B
S11342108F5F89838981863070F30F90DF91CF910E
S11342200895EF92FF920F931F93CF93DF93CDB72F
S1134230DEB72597CDBFDEBF0DB71EB78DB79EB7CE
S11342407C0180916520882F90E00A969C01215082
S113425031092A833B832DB73EB7281B390B2DBF69
S11342603EBF8DB79EB701968C839D838C819D81C3
S113427025E3FC012083209165208C819D81FC0134
S11342802183198214C08981882F90E002962981A4
S1134290222F30E02D5D3D4DF90140812C813D817F
S11342A0820F931FFC01408389818F5F89838091F2
S11342B06520882F90E09C01295F3F4F8981882FDA
S11342C090E028173907FCF680916520282F265F97
S11342D08C819D81622F0E944E17EDBEFEBE0DBFE4
S11342E01EBF2596CDBFDEBFDF91CF911F910F91E9
S11342F0FF90EF900895CF93DF93CDB7DEB7809111
S11343006B20682F85E092E20E944E17DF91CF91D7
S11343100895CF93DF9300D01F92CDB7DEB78A8381
S11343206B8310926D2010926C208B8180930C20F3
S11343308A8180930B2084E3898361E0CE01019616
S11343400E944E172396CDBFDEBFDF91CF91089513
S1134350CF93DF93CDB7DEB72597CDBFDEBF8B8379
S11343606C837D838B81883070F48B81882F90E0FF
S113437080589E4F89839A832C8189819A81FC017C
S1134380208381E001C080E02596CDBFDEBFDF91B0
S1134390CF910895CF93DF93CDB7DEB72597CDBFE7
S11343A0DEBF8B836C837D838B81883070F48B813B
S11343B0882F90E088579E4F89839A832C81898126
S11343C09A81FC01208381E001C080E02596CDBF65
S11343D0DEBFDF91CF910895CF93DF93CDB7DEB7E2
S11343E06297CDBFDEBF8A8B81E089831A821B82EC
S11343F08A89882F90E08530910599F1863091055E
S11344008CF482309105F9F08330910524F48130E5
S11344109105A9F040C083309105C9F0843091051D
S1134420D1F039C08730910539F187309105FCF01E
S11344308830910531F18930910541F12CC080918A
S113444087208B832EC080911F208B832AC080916C
S113445020208B8326C0809121208B8381E08A8356
S113446020C0809122208B8381E08A831AC08091AE
S113447023208B83198215C0809124208B83198279
S113448010C0809125208B8319820BC08091262037
S11344908B83198206C04A8969E280E00E94B917B9
S11344A09AC09FD01C821D828A81882349F1809101
S11344B0A2218B878091A3218C878091A4218D8751
S11344C0CE010396BC0180EC98E00E947408CE01F2
S11344D00B9643E050E0BC0180EC98E00E94F607A4
S11344E0CE010396BC0180EC98E00E94890880917B
S11344F0A1218E87CE010E9661E00E944E176BC0FB
S11345008981882331F18091A2218F878091A32111
S1134510888BCE010396BC0180EC98E00E9474085D
S1134520CE010F9642E050E0BC0180EC98E00E947E
S1134530F607CE010396BC0180EC98E00E9489083E
S11345408091A121898BCE01419661E00E944E1792
S113455042C08091A2218E838091A3218F8360E049
S113456084E10E941715CE01069642E050E0BC019A
S113457080EC98E00E94F60761E084E10E94171540
S1134580CE010396BC0180EC98E00E94890860E0AB
S113459084E10E941715CE01049642E050E0BC016C
S11345A080EC98E00E94340861E084E10E941715D1
S11345B0CE010396BC0180EC98E00E9474088091BF
S11345C0A12188878C8189878D818A87CE0108966D
S11345D063E00E944E176296CDBFDEBFDF91CF919C
S11345E00895CF93DF9300D01F92CDB7DEB7198221
S11345F01A821B8280E889838CE38A8360E270E2FA
S113460080EC98E00E9474086FE170E280EC98E01E
S11346100E94740867E870E280EC98E00E947408D5
S113462042E050E0CE010196BC0180EC98E00E948B
S1134630F60760E270E280EC98E00E9489086FE17E
S113464070E280EC98E00E94890867E870E280ECF0
S113465098E00E94890888E389831A8281E08B8329
S113466062E270E280EC98E00E94740861E270E219
S113467080EC98E00E94740843E050E0CE0101967B
S1134680BC0180EC98E00E94F60762E270E280ECE4
S113469098E00E94890861E270E280EC98E00E9450
S11346A089082396CDBFDEBFDF91CF910895CF93C4
S11346B0DF93CDB7DEB7A097CDBFDEBF80E489839B
S11346C01D8E1E8E83E88F8F80E188A360E084E1D5
S11346D00E941715CE014F9642E050E0BC0180ECD9
S11346E098E00E94F60761E084E10E94171563E2F6
S11346F070E280EC98E00E94890860E084E10E9406
S11347001715CE014D9642E050E0BC0180EC98E0D4
S11347100E94340861E084E10E94171563E270E2AC
S113472080EC98E00E9474088D8D8A838E8D8B8333
S113473087E88F8F60E084E10E941715CE014F96C1
S113474042E050E0BC0180EC98E00E94F60761E092
S113475084E10E94171563E270E280EC98E00E9405
S1134760890860E084E10E941715CE014D9642E06D
S113477050E0BC0180EC98E00E94340861E084E1E0
S11347800E94171563E270E280EC98E00E947408BE
S11347908D8D8C838E8D8D838BE88F8F60E084E18B
S11347A00E941715CE014F9642E050E0BC0180EC08
S11347B098E00E94F60761E084E10E94171563E225
S11347C070E280EC98E00E94890860E084E10E9435
S11347D01715CE014D9642E050E0BC0180EC98E004
S11347E00E94340861E084E10E94171563E270E2DC
S11347F080EC98E00E9474088D8D8E838E8D8F835B
S11348008FE88F8F60E084E10E941715CE014F96E8
S113481042E050E0BC0180EC98E00E94F60761E0C1
S113482084E10E94171563E270E280EC98E00E9434
S1134830890860E084E10E941715CE014D9642E09C
S113484050E0BC0180EC98E00E94340861E084E10F
S11348500E94171563E270E280EC98E00E947408ED
S11348608D8D88878E8D898783E88F8F60E084E1C2
S11348700E941715CE014F9642E050E0BC0180EC37
S113488098E00E94F60761E084E10E94171564E253
S113489070E280EC98E00E94890860E084E10E9464
S11348A01715CE014D9642E050E0BC0180EC98E033
S11348B00E94340861E084E10E94171564E270E20A
S11348C080EC98E00E9474088D8D8A878E8D8B878A
S11348D087E88F8F60E084E10E941715CE014F9620
S11348E042E050E0BC0180EC98E00E94F60761E0F1
S11348F084E10E94171564E270E280EC98E00E9463
S1134900890860E084E10E941715CE014D9642E0CB
S113491050E0BC0180EC98E00E94340861E084E13E
S11349200E94171564E270E280EC98E00E9474081B
S11349308D8D8C878E8D8D878BE88F8F60E084E1E1
S11349400E941715CE014F9642E050E0BC0180EC66
S113495098E00E94F60761E084E10E94171564E282
S113496070E280EC98E00E94890860E084E10E9493
S11349701715CE014D9642E050E0BC0180EC98E062
S11349800E94340861E084E10E94171564E270E239
S113499080EC98E00E9474088D8D8E878E8D8F87B1
S11349A083E88F8F60E084E10E941715CE014F9653
S11349B042E050E0BC0180EC98E00E94F60761E020
S11349C084E10E94171566E270E280EC98E00E9490
S11349D0890860E084E10E941715CE014D9642E0FB
S11349E050E0BC0180EC98E00E94340861E084E16E
S11349F00E94171566E270E280EC98E00E94740849
S1134A008D8D888B8E8D898B87E88F8F60E084E114
S1134A100E941715CE014F9642E050E0BC0180EC95
S1134A2098E00E94F60761E084E10E94171566E2AF
S1134A3070E280EC98E00E94890860E084E10E94C2
S1134A401715CE014D9642E050E0BC0180EC98E091
S1134A500E94340861E084E10E94171566E270E266
S1134A6080EC98E00E9474088D8D8A8B8E8D8B8BE0
S1134A708BE88F8F60E084E10E941715CE014F967A
S1134A8042E050E0BC0180EC98E00E94F60761E04F
S1134A9084E10E94171566E270E280EC98E00E94BF
S1134AA0890860E084E10E941715CE014D9642E02A
S1134AB050E0BC0180EC98E00E94340861E084E19D
S1134AC00E94171566E270E280EC98E00E94740878
S1134AD08D8D8C8B8E8D8D8B8FE88F8F60E084E134
S1134AE00E941715CE014F9642E050E0BC0180ECC5
S1134AF098E00E94F60761E084E10E94171566E2DF
S1134B0070E280EC98E00E94890860E084E10E94F1
S1134B101715CE014D9642E050E0BC0180EC98E0C0
S1134B200E94340861E084E10E94171566E270E295
S1134B3080EC98E00E9474088D8D8E8B8E8D8F8B07
S1134B4083E88F8F60E084E10E941715CE014F96B1
S1134B5042E050E0BC0180EC98E00E94F60761E07E
S1134B6084E10E94171565E270E280EC98E00E94EF
S1134B70890860E084E10E941715CE014D9642E059
S1134B8050E0BC0180EC98E00E94340861E084E1CC
S1134B900E94171565E270E280EC98E00E947408A8
S1134BA08D8D888F8E8D898F87E88F8F60E084E16B
S1134BB00E941715CE014F9642E050E0BC0180ECF4
S1134BC098E00E94F60761E084E10E94171565E20F
S1134BD070E280EC98E00E94890860E084E10E9421
S1134BE01715CE014D9642E050E0BC0180EC98E0F0
S1134BF00E94340861E084E10E94171565E270E2C6
S1134C0080EC98E00E9474088D8D8A8F8E8D8B8F36
S1134C1080E496E0FC0184818870982F9295907FBF
S1134C2080918B2386FB882780F98295880F880FD3
S1134C30807C980F80918B2385FB882780F982954F
S1134C40880F807E292F280F80E096E0FC01848164
S1134C50882F90E0807899279595879595958795E5
S1134C6095958795280F80E696E0FC0184818270F3
S1134C70880F880F280F80E696E0FC018481882F36
S1134C8090E0807199279595879595958795280F3C
S1134C9080E696E0FC018481882F90E08072992759
S1134CA095958795959587959595879595958795E8
S1134CB0280F80E696E0FC0184818170820F8C8F3E
S1134CC06CE1CE0101960E944E17A096CDBFDEBFC7
S1134CD0DF91CF910895CF93DF93CDB7DEB780E016
S1134CE096E0FC018481881F8827881F8170817069
S1134CF08295807F90918B239F7E892B80938B2339
S1134D0080E696E0FC018481882F90E082709927E8
S1134D109595879581708170880F880F880F909181
S1134D208B23977F892B80938B2380E696E0FC016D
S1134D308481882F90E08071992795958795959522
S1134D408795959587959595879581708170880F3E
S1134D50880F90918B239B7F892B80938B2380E6F4
S1134D6096E0FC018481882F90E0807299279595C4
S1134D708795959587959595879595958795959517
S1134D80879581708170880F90918B239D7F892BEB
S1134D9080938B2380E696E0FC018481817081708E
S1134DA090918B239E7F892B80938B23DF91CF91CE
S1134DB00895CF93DF9300D01F92CDB7DEB787E479
S1134DC0898380E496E0FC018481882F90E08870D8
S1134DD099279595879595958795959587958A8330
S1134DE080918B2386FB882780F98B8363E0CE0137
S1134DF001960E944E172396CDBFDEBFDF91CF915F
S1134E000895CF93DF93CDB7DEB78091A221882F89
S1134E1090E0009721F08130910561F020C080E49A
S1134E2096E028E0FC01258380918B238F7D80937D
S1134E308B2316C080918B238074882359F480912E
S1134E408B23806280938B23809184208160809364
S1134E50842006C06EEF88E40E94A3170AC00000F5
S1134E6080918B2385FB882780F9682F88E40E9432
S1134E70A317DF91CF910895CF93DF93CDB7DEB71A
S1134E808091A221882F90E0009721F08130910534
S1134E9039F00CC080E096E020E8FC01268307C0CE
S1134EA080E096E020E8FC01258301C0000080E05A
S1134EB096E0FC018481881F8827881F682F89E475
S1134EC00E94A317DF91CF910895CF93DF93CDB7BD
S1134ED0DEB78091A221882F90E0009721F08130E5
S1134EE0910539F00CC080E696E022E0FC012683AF
S1134EF007C080E696E022E0FC01258301C00000A3
S1134F0080E696E0FC018481882F90E082709927E6
S1134F1095958795682F8AE40E94A317DF91CF9116
S1134F200895CF93DF93CDB7DEB78091A221882F68
S1134F3090E0009721F08130910539F00CC080E6B3
S1134F4096E020E1FC01268307C080E696E020E19C
S1134F50FC01258301C0000080E696E0FC01848109
S1134F60882F90E0807199279595879595958795D9
S1134F709595879595958795682F8BE40E94A3173F
S1134F80DF91CF910895CF93DF93CDB7DEB78091B2
S1134F90A221882F90E0009721F08130910539F00B
S1134FA00CC080E696E020E2FC01268307C080E680
S1134FB096E020E2FC01258301C0000080E696E033
S1134FC0FC018481882F90E08072992795958795BC
S1134FD095958795959587959595879595958795B5
S1134FE0682F8CE40E94A317DF91CF910895CF938B
S1134FF0DF93CDB7DEB78091A221882F90E0009790
S113500021F08130910539F00CC080E696E021E072
S1135010FC01268307C080E696E021E0FC0125839D
S113502001C0000080E696E0FC0184818170682F55
S11350308DE40E94A317DF91CF910895CF93DF935E
S113504000D01F92CDB7DEB780EA90E020EA30E0CE
S1135050F90122812D7FFC01228380E496E028E07F
S1135060FC0126836BEA72EC82EA90E00E9411153F
S113507019821A821B8280E889838CE38A8360E226
S113508070E280EC98E00E9474086FE170E280ECBA
S113509098E00E94740867E870E280EC98E00E944F
S11350A0740842E050E0CE010196BC0180EC98E027
S11350B00E94F60760E270E280EC98E00E948908A2
S11350C06FE170E280EC98E00E94890867E870E282
S11350D080EC98E00E948908198288EC8A8367E84A
S11350E070E280EC98E00E94740842E050E0CE0147
S11350F00196BC0180EC98E00E94F60767E870E234
S113510080EC98E00E9489088EE1898380E18A839B
S113511067E870E280EC98E00E94740842E050E096
S1135120CE010196BC0180EC98E00E94F60767E886
S113513070E280EC98E00E94890888E389831A82EF
S113514081E08B8362E270E280EC98E00E94740854
S113515061E270E280EC98E00E94740843E050E061
S1135160CE010196BC0180EC98E00E94F60762E251
S113517070E280EC98E00E94890861E270E280ECC1
S113518098E00E94890888E1898387E08A8380ED1A
S11351908B8362E270E280EC98E00E94740843E042
S11351A050E0CE010196BC0180EC98E00E94F60725
S11351B062E270E280EC98E00E94890889E18983C8
S11351C08FE18A8380E48B8361E270E280EC98E073
S11351D00E94740843E050E0CE010196BC0180ECCB
S11351E098E00E94F60761E270E280EC98E00E9489
S11351F0890888E1898387E18A8380E78B8361E278
S113520070E280EC98E00E94740843E050E0CE0124
S11352100196BC0180EC98E00E94F60761E270E21E
S113522080EC98E00E9489088FE2898380EA8A836F
S113523067E870E280EC98E00E94740842E050E075
S1135240CE010196BC0180EC98E00E94F60767E865
S113525070E280EC98E00E9489088FE3898380EAF9
S11352608A8367E870E280EC98E00E94740842E068
S113527050E0CE010196BC0180EC98E00E94F60754
S113528067E870E280EC98E00E94890880918420AD
S11352908E7F809384206BEA72EC82EA90E00E9415
S11352A0111565E180E00E94A31780EA90E020EAEE
S11352B030E0F90122812260FC0122832396CDBFD4
S11352C0DEBFDF91CF910895CF93DF9300D0CDB7A8
S11352D0DEB708EB00934006009344060FEF19E590
S11352E0009300061093040600E000932006009348
S11352F024060BE310E000936006109364060BE0B1
S113530012E0009380061093840600E00093E00707
S11353100093E407F89482E00E948E1482E00E94D5
S1135320B41461E080E490E00E949E0881E00E9451
S113533073140E946D1580EC98E027E5FC0120832E
S11353400E94E30880E490E02DE0FC01238380E0E8
S113535098E00E94600F80E099E00E94600F80E076
S11353609AE00E94600F80E498E00E94600F80E45D
S113537099E00E94600F6BE779E180E098E00E9479
S1135380CD0F6FE979E180E099E00E94CD0F63ECE5
S113539079E180E09AE00E94CD0F67EE79E180E444
S11353A098E00E94CD0F62E87AE180E499E00E94DF
S11353B0CD0F60E070E080E098E00E94BB1560E0F3
S11353C070E080E099E00E94BB1560E070E080E04E
S11353D09AE00E94BB1560E070E080E498E00E94CF
S11353E0BB1560E070E080E499E00E94BB1563E0C7
S11353F070E080E098E00E94791563E070E080E05E
S113540099E00E94791563E070E080E09AE00E94E0
S1135410791561E070E080E498E00E94791562E01B
S113542070E080E499E00E94791580E496E021E040
S1135430FC01208B80E496E021E0FC01218B80E4D8
S113544096E021E0FC01228B60E670E080E00E949F
S1135450A82162E070E080E00E94CA2161E670E069
S113546082E00E94A82162E070E082E00E94CA21EA
S113547062E670E084E00E94A82162E070E084E0CB
S11354800E94CA216DE070E280EA99E00E94101245
S113549062E070E080EA99E00E94D81566E170E26B
S11354A080EA9AE00E94101261E070E080EA9AE0DB
S11354B00E94D8158BE893E28093872290938822E8
S11354C085E890E280939D2190939E2186E890E266
S11354D080939F219093A021FEDB10926F208091F6
S11354E08B23806480938B2380918B238F7D809387
S11354F08B2380E499E02FEF3FEFFC0126A337A331
S113550080E499E0FC0110A211A280E499E0FC017E
S113551010821092672080E498E028EA31E6FC01CA
S113552026A337A380E498E0FC0110A211A280E432
S113553098E026E0FC012083789401C0000080916B
S113554084208170882309F079DD80918420827021
S11355508823A1F380916720843081F380EA90E06E
S113556020EA30E0F90122812E7FFC01228380E4CD
S113557098E0FC01108280E498E0FC0110A211A2E2
S113558081E08093672081E0898312C08981882F1C
S113559090E001972981222F30E02F553E4DF901EB
S11355A020818D5D9D4DFC01208389818F5F8983DE
S11355B0809189209981981748F31A820FC08A81B3
S11355C0882F90E08D5D9D4DFC018081682F80EADD
S11355D09AE00E9458128A818F5F8A838A81282FD9
S11355E030E080918920882F90E0019728173907AF
S11355F034F380E498E025E0FC01208380EA90E025
S113560020EA30E0F90122812160FC0122838091AB
S113561084208D7F8093842091CFA1E21A2EAA1B2F
S1135620BB1BFD010DC0AA1FBB1FEE1FFF1FA2174E
S1135630B307E407F50720F0A21BB30BE40BF50B4B
S1135640661F771F881F991F1A9469F760957095D4
S1135650809590959B01AC01BD01CF010895EE0F9B
S1135660FF1F0590F491E02D099406D084FF08955E
S1135670CB0102D0805F0895AA27992329F4A85F5B
S1135680982B11F480E10895903118F4AD5F929550
S1135690A395990FE8F78A2F992708952F923F929F
S11356A04F925F926F927F928F929F92AF92BF922E
S11356B0CF92DF92EF92FF920F931F93CF93DF93DA
S11356C0CDB7DEB7CA1BDB0BCDBFDEBF09942A887A
S11356D0398848885F846E847D848C849B84AA8402
S11356E0B984C884DF80EE80FD800C811B81AA818F
S11356F0B981CE0FD11DCDBFDEBFED010895F89461
S1055700FFCFD5
S1135702AEAB5233013F563930320D0202B9A80111
S11357120003000000014023000003000000010612
S11357222103040105200200000000000000000023
S9030000FC
