:100000004DC1000068C1000066C1000064C100006D
:1000100062C1000060C100005EC100005CC1000060
:100020005AC1000058C100000C943C190C947B0B81
:1000300052C1000050C100000C94590C0C948F0C5C
:100040000C94C50C0C94FB0C0C94310D0C94670DA6
:100050000C949D0D0C94D30D0C94090E0C943F0E32
:100060003AC1000038C1000036C1000034C10000B0
:1000700032C1000030C100002EC100002CC10000C0
:100080002AC1000028C1000026C1000024C10000D0
:1000900022C1000020C100001EC100001CC10000E0
:1000A0001AC1000018C1000016C1000014C10000F0
:1000B00012C1000010C100000EC100000C9491108C
:1000C0000C94C7100C94FD100C9433110C9469110E
:1000D0000C949F1100C10000FEC00000FCC0000095
:1000E000FAC00000F8C000000C942A19F4C0000007
:1000F000F2C00000F0C00000EEC00000ECC0000044
:10010000EAC00000E8C00000E6C00000E4C0000053
:10011000E2C00000E0C00000DEC00000DCC0000063
:10012000DAC00000D8C00000D6C00000D4C0000073
:10013000D2C000000C94750E0C94AB0E0C94E10E22
:100140000C94170F0C944D0F0C94830F0C94B90F53
:100150000C94EF0F0C9425100C945B10BCC00000A5
:100160000C946C18B8C00000B6C00000B4C0000009
:10017000B2C00000B0C00000AEC00000ACC00000C3
:10018000AAC00000A8C00000A6C00000A4C00000D3
:10019000A2C00000A0C000009EC000009CC00000E3
:1001A0009AC0000098C0000096C0000094C00000F3
:1001B00092C0000090C000008EC000008CC0000003
:1001C0008AC0000088C0000086C0000084C0000013
:1001D00082C0000080C000007EC000007CC0000023
:1001E0007AC0000078C0000076C0000074C0000033
:1001F00072C0000070C000006EC000004C1B521B9B
:100200004A1B581B8B1B8B1B8B1B5C1B8B1B8B1B61
:100210005A1B8B1B8B1B8B1B8B1B8B1B8B1B8B1BDF
:100220008B1B441B8B1B8B1B8B1B8B1B8B1B8B1BE5
:100230008B1B8B1B8B1B541B561B421B8B1B8B1B43
:100240008B1B8B1B8B1B8B1B8B1B621B651B6E1BEA
:10025000711B8B1B8B1B8B1B8B1B8B1B681B6B1BCB
:100260008B1B8B1B8B1B8B1B8B1B8B1B8B1B8B1B5E
:100270008B1B741B8B1B8B1B8B1B771B7A1B7D1B98
:10028000801B831B8B1B861B8B1B8B1B8B1B8B1B56
:100290008B1B8B1B8B1B8B1B8B1B891B11241FBE6A
:1002A000CFEFDFE2DEBFCDBF10E2A0E0B0E2E8EFCB
:1002B000FCE402C005900D92AA32B107D9F721E201
:1002C000AAE2B0E201C01D92A130B207E1F70E949C
:1002D00068240C947A2694CEA0E0B0E0E2E7F1E046
:1002E0000C9431266B017C0120E030E040E85FE3B4
:1002F000EBD287FD80C020E030E040E85FE4C7013A
:10030000B601E2D287FF09C0C701B601D9D34B01BC
:100310005C01C12CD12C760187C020E030E040E8A0
:100320005FE5C701B601D0D287FF6EC020E030E0A4
:1003300040E85FE2C701B60119D18B01D82FC92F60
:1003400095E0292E312C20E1C22ED12CE12CF12C6C
:10035000812C912C540161E070E080E090E00C2C45
:1003600004C0660F771F881F991F0A94D2F733D3F2
:100370002B013C01762F272F352D462D572DFE01C1
:10038000602F712F8F2F9C2F73D287FD11C08C2867
:100390009D28AE28BF28242D352D462D572DFE0132
:1003A000602F712F8F2F9C2FC3D18B01D82FC92F76
:1003B000F694E794D794C79481E0281A310859F647
:1003C00020E030E040E85FE4FE01602F712F8F2FC6
:1003D0009C2FCCD075D3DC01CB019C01AD0160E03A
:1003E00070E080E090E0082D0E94F72549015A0155
:1003F0006B017C0119C0812C912CA12CB12CC12C3A
:10040000D12CE12CF12C10C088248A9499249A9440
:10041000AA24AA94BB24BA94CC24CA94DD24DA94E6
:10042000EE24EA94FF24FA949401A501B601C701D1
:10043000CDB7DEB7E2E10C944A262F923F924F925D
:100440005F926F927F928F929F92AF92BF92CF9264
:10045000DF92EF92FF920F931F93CF9319012A011E
:100460003B014C0160E070E080E090E051016201EE
:10047000730184010E94712621F4B101C201ABD243
:1004800063C09101A201B301C40100E20E9462268F
:10049000B901CA010E941826AA2797FDA095BA2F74
:1004A00020E2C22ED12CE12CF12CC81AD90AEA0A7A
:1004B000FB0ACC2D9101A201B301C4010C2D0E94B5
:1004C000622660E270E06C197D0904C0220C331CC6
:1004D000441C551C6A95D2F7622F2328242825280E
:1004E00009F401C06160732FCA0175D23B014C0150
:1004F00080E2C816D104E104F104A1F09FE1C9161D
:10050000D104E104F10491F061E070E080E090E05A
:1005100004C0660F771F881F991FCA95D2F700D2B3
:10052000272F08C060E020E080E803C060E020E002
:1005300080E09FE4F22F262F3F2F482F592F662D62
:10054000772D882D992D12D0CF911F910F91FF906B
:10055000EF90DF90CF90BF90AF909F908F907F9063
:100560006F905F904F903F902F900895A0E2B0E081
:10057000ECEBF2E00C9433266D8F7E8F8F8F98A377
:10058000298F3A8F4B8F5C8FBE016F5E7F4FCE01FC
:100590004D9689D3BE01675F7F4FCE01499683D3C5
:1005A0009989923008F412C08985823008F41AC003
:1005B000943021F4823009F4B4C008C0843021F4AE
:1005C000923009F4AEC00EC0923051F481E02A8915
:1005D0009A85291301C080E08A8BCE014196A3C081
:1005E000823051F481E02A899A85291301C080E084
:1005F0008A87CE01099697C08D889E88AF88B88C6F
:100600000D851E852F853889E0E2F0E080E090E0DE
:10061000DC01C12CD12C760140E050E0BA0180FE13
:1006200018C0400F511F621F731F8C0D9D1DAE1D02
:10063000BF1D412C512C32014394401751076207D2
:10064000730718F0412C512C3201840D951DA61D05
:10065000B71DCC0CDD1CEE1CFF1C37FF02C06894DC
:10066000C0F8000F111F221F331FB694A794979450
:1006700087943197A1F62B893C89EB85FC852E0F59
:100680003F1F2E5F3F4F2B833C8321E0EA893A8551
:10069000E31301C020E02A83EB81FC810CC080FFC2
:1006A00005C076956795579547957068B695A79557
:1006B000979587953196B7FDF2CF9F010CC0880FB3
:1006C000991FAA1FBB1F77FD8160440F551F661F2E
:1006D000771F215031090097A105E0E4BE0778F3A8
:1006E0002B833C838C019D010F7711272227332711
:1006F000003411052105310559F487FD09C0452B4A
:10070000462B472B29F0805C9F4FAF4FBF4F80781F
:100710008D839E83AF83B88783E08983CE01019662
:1007200002C082E290E2F5D1A096E0E10C944C2662
:10073000A8E1B0E0EEE9F3E00C943B266D8B7E8BF4
:100740008F8B988F298B3A8B4B8B5C8BBE01675FAD
:100750007F4FCE014596A7D2BE016F5F7F4FCE017E
:100760004196A1D29985923008F475C08981823072
:1007700008F474C02A853A8123272A87943011F01F
:10078000923019F4981367C06CC0843039F41D8618
:100790001E861F86188A1B861C8604C0823029F498
:1007A00084E08987CE0109965EC08B859C852B816C
:1007B0003C81821B930B8B879C874D855E856F8563
:1007C0007889CD80DE80EF80F8844C155D056E055C
:1007D0007F0538F4440F551F661F771F01978B87DD
:1007E0009C87EFE1F0E000E010E020E030E480E002
:1007F00090E0DC014C155D056E057F0540F0802B17
:10080000912BA22BB32B4C195D096E097F093695EC
:10081000279517950795440F551F661F771F31972A
:1008200049F78C019D010F771127222733270034C8
:1008300011052105310559F487FD09C0452B462BCB
:10084000472B29F0805C9F4FAF4FBF4F80788D873B
:100850009E87AF87B88BCE01099605C0CE01019661
:1008600002C082E290E255D16896E8E00C945426EA
:10087000A8E1B0E0EEE3F4E00C9441266D8B7E8BB2
:100880008F8B988F298B3A8B4B8B5C8BBE01675F6C
:100890007F4FCE01459607D2BE016F5F7F4FCE01DD
:1008A000419601D28985823050F08981823038F0BA
:1008B000BE016F5F7F4FCE01099614D401C08FEF48
:1008C0006896E2E00C945A26A8E1B0E0EAE6F4E08B
:1008D0000C9441266D8B7E8B8F8B988F298B3A8B56
:1008E0004B8B5C8BBE01675F7F4FCE014596DBD1A2
:1008F000BE016F5F7F4FCE014196D5D18985823091
:1009000050F08981823038F0BE016F5F7F4FCE0199
:100910000996E8D301C081E06896E2E00C945A267B
:10092000A8E0B0E0E6E9F4E00C943F2623E0298358
:100930008B019C01002737FD0395112722273327C0
:10094000402F0A83611571058105910519F482E034
:10095000898335C02EE130E02B833C83442371F042
:1009600061157105810520E8920769F100271127BB
:100970009801061B170B280B390B02C08B019C0139
:10098000C901B8010E9418260197181619062CF003
:100990000D831E832F83388712C0082E04C0000FDA
:1009A000111F221F331F0A94D2F70D831E832F833A
:1009B00038872EE130E0281B390B2B833C83CE0196
:1009C0000196A7D004C060E070E080E09FEC28961C
:1009D000E4E00C945826A8E0B0E0E1EFF4E00C94D9
:1009E0003B268B019C011A826115710581059105D9
:1009F00019F482E089835DC083E089834EE150E091
:100A00004B835C83C901B8010E941826019797FFA8
:100A100039C0EE27FF27E81BF90B41E050E060E00A
:100A200070E00E2E04C0440F551F661F771F0A94F6
:100A3000D2F74150510961097109402351236223C2
:100A40007323C12CD12C7601C394452B462B472B05
:100A500019F4C12CD12C760104C036952795179531
:100A60000795EA95D2F70C291D292E293F290D83D8
:100A70001E832F8338872EE130E0281B390B2B8310
:100A80003C8317C0009729F40D831E832F8338877A
:100A900010C0082E04C0000F111F221F331F0A941C
:100AA000D2F70D831E832F833887481B590B4B8346
:100AB0005C83CE0101962DD02896E8E00C94542654
:100AC000CF92DF92EF92FF920F931F936B017C0105
:100AD00020E030E040E05FE4CBDE87FD0CC020E0AA
:100AE00030E040E05FE4C701B601D0D25CD38B01B7
:100AF0009C01305805C0C701B60155D38B019C013C
:100B0000B801C9011F910F91FF90EF90DF90CF9036
:100B100008950F931F93CF93DF93DC0114964D91AB
:100B20005D916D917C9117971196EC9111978C9135
:100B3000823020F460618FEF90E0A6C0843009F429
:100B40009EC0823009F495C04115510561057105BB
:100B500009F492C012962D913C91139722388FEF91
:100B600038070CF058C0C2E8DFEFC21BD30BCA3104
:100B7000D1056CF58A019B010C2E04C03695279592
:100B8000179507950A94D2F781E090E0A0E0B0E0D5
:100B90000C2E04C0880F991FAA1FBB1F0A94D2F7FE
:100BA0000197A109B10984239523A623B72341E026
:100BB00050E060E070E0892B8A2B8B2B19F440E029
:100BC00050E0BA01402B512B622B732B03C040E045
:100BD00050E0BA01DB01CA018F779927AA27BB270A
:100BE00080349105A105B10539F447FF09C0405C87
:100BF0005F4F6F4F7F4F04C0415C5F4F6F4F7F4F20
:100C000081E090E041155105610520E4720748F547
:100C100080E090E026C0203831058CF5DB01CA0168
:100C20008F779927AA27BB2780349105A105B105A5
:100C300039F447FF09C0405C5F4F6F4F7F4F04C0DE
:100C4000415C5F4F6F4F7F4F77FD04C0C9018158F2
:100C50009F4F07C07695679557954795C90180586E
:100C60009F4F97E076956795579547959A95D1F759
:100C70000BC080E090E005C080E090E005C08FEF01
:100C800090E040E050E0BA01982F9695E0FB97F98C
:100C9000362F80FB37F9642F752F832FDF91CF918B
:100CA0001F910F910895CF92DF92EF92DC01FB012B
:100CB000CC901196DC90119712968C9112973FE789
:100CC000E32EE8226E2DA60170E0982F991F992738
:100CD000991F13962C91822F880F892B90E027FB68
:100CE000222720F92183009729F541155105610537
:100CF000710511F482E027C082E89FEF828393831D
:100D000027E0440F551F661F771F2A95D1F783E010
:100D1000808309C0440F551F661F771F828193810E
:100D200001978283938341155105610580E478071B
:100D300088F320C08F3F910579F441155105610575
:100D4000710519F484E0808319C0E4FE03C081E0DA
:100D5000808310C010820EC08F57910982839383C5
:100D600083E0808387E0440F551F661F771F8A95B5
:100D7000D1F770644483558366837783EF90DF9067
:100D8000CF900895A4E0B0E0E8ECF6E00C943326B0
:100D90007C016A01FC018081823008F44AC1FB01B8
:100DA0009081923008F442C1843079F4943009F093
:100DB00040C1F7019181FB018181981709F439C184
:100DC000A2E2EA2EA0E2FA2E34C1943009F42EC138
:100DD000923091F4823009F02CC188E0F701DA01F9
:100DE00001900D928A95E1F7FB018181F7019181D4
:100DF0008923FA0181831CC1823009F417C1F701EC
:100E000082819381FB01A281B381F7010481158165
:100E100026813781FB0184809580A680B780FC0104
:100E2000EA1BFB0BAF01F7FF04C0442755274E1BFD
:100E30005F0B403251050CF074C01E161F06B4F54E
:100E400024013501042E04C0769467945794479486
:100E50000A94D2F749825A826B827C82412C512CAF
:100E60003201439404C0440C551C661C771C4A95FF
:100E7000D2F741E0441A510861087108482059200E
:100E80006A207B20812C912C54018394452846288C
:100E9000472819F4812C912C540149805A806B8089
:100EA0007C8084289528A628B72846C0EF2B09F413
:100EB00043C0840F951F28013901042E04C0769485
:100EC0006794579447940A94D2F749825A826B8266
:100ED0007C82412C512C3201439404C0440C551C9B
:100EE000661C771C4A95D2F741E0441A5108610804
:100EF0007108402251226222732201E010E020E0BA
:100F000030E045284628472819F400E010E0980111
:100F100049805A806B807C8004291529262937292D
:100F20000BC0A817B90724F4812C912C540104C0DC
:100F3000CD0100E010E09801F7014181FB015181F2
:100F4000451709F446C0442349F024013501401AED
:100F5000510A620A730A9301820104C0081919092F
:100F60002A093B0937FD05C0F6011182828393836C
:100F70000CC041E0F6014183828393833095209534
:100F8000109501951F4F2F4F3F4F048315832683E4
:100F900037830EC0880F991FAA1FBB1FF6018483D9
:100FA0009583A683B78382819381019782839383FC
:100FB000F60184819581A681B781AC01BD014150C4
:100FC0005109610971094F3F5F4F6F4F7F4310F324
:100FD0000CC0F601418382839383080D191D2A1DDD
:100FE0003B1D048315832683378383E0F6018083CA
:100FF000448155816681778177FF1AC0DB01CA0180
:1010000081709927AA27BB277695679557954795AD
:10101000842B952BA62BB72B84839583A683B7832C
:101020008281938101968283938302C07B0101C0F8
:101030007601C7012496E0E10C944C26A0E2B0E0D2
:10104000E4E2F8E00C9441266D8F7E8F8F8F98A399
:10105000298F3A8F4B8F5C8FBE016F5E7F4FCE0121
:101060004D9621DEBE01675F7F4FCE0149961BDEA4
:10107000AE014F5F5F4FBE01675F7F4FCE0141966C
:1010800081DE47DDA096E2E00C945A26A0E2B0E0B3
:10109000ECE4F8E00C9441266D8F7E8F8F8F98A33F
:1010A000298F3A8F4B8F5C8FBE016F5E7F4FCE01D1
:1010B0004D96F9DDBE01675F7F4FCE014996F3DDA6
:1010C0008A8591E089278A87AE014F5F5F4FBE0115
:1010D000675F7F4FCE01419655DE1BDDA096E2E0B3
:1010E0000C945A26CF93FC01DB019081923008F4D6
:1010F00052C08C91823008F44EC0943071F4843028
:1011000039F411962C9130E08181281B310948C0B7
:101110008181882309F43FC03BC0843029F41196B3
:101120008C91811138C034C0923019F48230B9F7F3
:1011300035C0823069F3C18111968C911197C81323
:101140001DC02281338112968D919C911397821735
:1011500093070CF413C0281739070CF417C0448107
:1011600055816681778114968D919D910D90BC91EA
:10117000A02D84179507A607B70718F4C11108C05A
:101180000AC0481759076A077B0740F4C11103C01A
:101190002FEF3FEF05C021E030E002C020E030E05B
:1011A000C901CF910895ACE0B0E0E9EDF8E00C940E
:1011B0003F2669877A878B879C87BE016F5F7F4F49
:1011C000CE01099670DD8981823091F1823080F103
:1011D000843041F48A81882331F100E010E020E07E
:1011E00030E829C02B813C8137FD22C02F313105E9
:1011F0008CF78EE190E0821B930B0D811E812F8175
:10120000388504C036952795179507958A95D2F7A6
:101210008A81882381F030952095109501951F4F84
:101220002F4F3F4F08C00FEF1FEF2FEF3FE703C0D7
:1012300000E010E09801B801C9012C96E4E00C949C
:101240005826CF93DF931F92CDB7DEB78FE390E0A0
:10125000FC0180818983F89489810F90DF91CF917F
:101260000895CF93DF931F92CDB7DEB789838FE3C5
:1012700090E02981FC0120830F90DF91CF910895A8
:10128000CF93DF9300D000D0CDB7DEB78A839B83A6
:101290006C83D7DF89838A819B8180599F4F2A8104
:1012A0003B8120593F4FF9012081322F2C8120951D
:1012B0002323FC0120838981D4DF2496CDBFDEBFA8
:1012C000DF91CF910895CF93DF93CDB7DEB72A9703
:1012D000CDBFDEBF8A878A8589831A8289818B8305
:1012E0008B818C838C818695869586958D838D8167
:1012F000882F90E0880F991F82959295907F98276C
:10130000807F98279A5F8E839F838A818823A9F0A4
:10131000898188878885882F90E09C0127703327F2
:1013200081E090E002C0880F991F2A95E2F7282FEC
:101330008E819F81FC01258314C0898189878985DD
:10134000882F90E09C012770332781E090E002C055
:10135000880F991F2A95E2F7282F8E819F81FC0123
:1013600026832A96CDBFDEBFDF91CF910895CF931C
:10137000DF93CDB7DEB72A97CDBFDEBF8A878A85D8
:10138000898381E08A8389818B838B818C838C81A3
:101390008695869586958D838D81882F90E0880F20
:1013A000991F82959295907F9827807F98279A5FC2
:1013B0008E839F838A818823A9F089818887888585
:1013C000882F90E09C012770332781E090E002C0D5
:1013D000880F991F2A95E2F7282F8E819F81FC01A3
:1013E000258314C0898189878985882F90E09C0195
:1013F0002770332781E090E002C0880F991F2A955B
:10140000E2F7282F8E819F81FC0126832A96CDBF8B
:10141000DEBFDF91CF910895CF93DF9300D01F926D
:10142000CDB7DEB789839A836B8389819A812B81BB
:10143000FC0123832396CDBFDEBFDF91CF910895BA
:10144000CF93DF9300D0CDB7DEB789839A838981AC
:101450009A81FC0183810F900F90DF91CF910895C5
:10146000CF93DF9300D0CDB7DEB789839A8389818C
:101470009A81FC018281881F8827881F0F900F9016
:10148000DF91CF910895CF93DF9300D000D0CDB7F7
:10149000DEB789839A836B837C8389819A81D0DFCD
:1014A000282F8B819C81FC0120832496CDBFDEBF39
:1014B000DF91CF910895CF93DF9300D0CDB7DEB702
:1014C00089839A8389819A81CBDF0F900F90DF9176
:1014D000CF910895CF93DF93CDB7DEB72997CDBFD6
:1014E000DEBF8C839D836E837F83488759871BC0B3
:1014F0008E819F81FC0120818E819F8101968E8348
:101500009F838C819D8189839A832B8389819A8192
:101510006B8182DF00008C819D81CDDF982F81E07F
:1015200089278823C1F721E088859985009709F4E8
:1015300020E0888599850197888799872223C1F6BD
:1015400080E090E02996CDBFDEBFDF91CF91089576
:10155000CF93DF93CDB7DEB72997CDBFDEBF8C83A6
:101560009D836E837F83488759871EC08C819D81B0
:1015700089839A838FEF8B8389819A816B814CDF7A
:1015800000008C819D8197DF982F81E08927882337
:10159000C1F72E813F818C819D81B90174DF8E81DD
:1015A0009F8101968E839F8321E08885998500978E
:1015B00009F420E0888599850197888799872223F7
:1015C000A9F680E090E02996CDBFDEBFDF91CF91F4
:1015D0000895CF93DF9300D000D0CDB7DEB78983D5
:1015E0009A836B837C838B819C81FC0180816BDE81
:1015F0002496CDBFDEBFDF91CF910895CF93DF93C7
:1016000000D000D0CDB7DEB789839A836B837C830B
:101610008B819C81FC018081AADE2496CDBFDEBF38
:10162000DF91CF9108951BBEFC0128ED24BF60839C
:101630000895CF93DF931F92CDB7DEB78FE390E08D
:10164000FC0180818983F89489810F90DF91CF918B
:101650000895CF93DF931F92CDB7DEB789838FE3D1
:1016600090E02981FC0120830F90DF91CF910895B4
:10167000CF93DF9300D01F92CDB7DEB78A839B83D1
:10168000D8DF89838A819B818F579F4DFC018081A0
:10169000282F2F5F8A819B818F579F4DFC012083CC
:1016A0008981D7DF2396CDBFDEBFDF91CF9108952B
:1016B000CF93DF93CDB7DEB764E080E090E0E0DD6C
:1016C00080E094E02FEF3FEFFC012287338780E03A
:1016D00094E0FC011086118683E090E0C9DF80E091
:1016E00094E023E0FC01228380E094E0FC0110827E
:1016F000DF91CF9108951F920F9200903F000F92BB
:1017000011242F933F934F935F936F937F938F9306
:101710009F93AF93BF93EF93FF93CF93DF93CDB797
:10172000DEB72897CDBFDEBF20918720309188207B
:101730008091892090918A202817390708F463C086
:1017400080E094E023E0FC01228380918D20909141
:101750008E20009709F457C08091872090918820AF
:10176000CC01A0E0B0E0AC013327222780E094E078
:10177000FC0180859185CC01A0E0B0E0822B932B09
:10178000A42BB52B89839A83AB83BC83809189205A
:1017900090918A20CC01A0E0B0E0AC013327222751
:1017A00080918B2090918C20CC01A0E0B0E0822B26
:1017B000932BA42BB52B8D839E83AF83B8872D816C
:1017C0003E814F81588589819A81AB81BC812817E0
:1017D00039074A075B0758F08D819E81AF81B88534
:1017E0000196A11DB11D89839A83AB83BC8320918F
:1017F0008D2030918E2089819A81AB81BC81BC0182
:10180000CD01F90109952896CDBFDEBFDF91CF91BB
:10181000FF91EF91BF91AF919F918F917F916F91C8
:101820005F914F913F912F910F9000923F000F9049
:101830001F901895CF93DF931F92CDB7DEB78FE33C
:1018400090E0FC0180818983F89489810F90DF9179
:10185000CF910895CF93DF931F92CDB7DEB78983E1
:101860008FE390E02981FC0120830F90DF91CF91DD
:101870000895CF93DF9300D01F92CDB7DEB78A8350
:101880009B83D8DF89838A819B818F579F4DFC0181
:101890008081282F2F5F8A819B818F579F4DFC016C
:1018A00020838981D7DF2396CDBFDEBFDF91CF9123
:1018B00008951F920F9200903F000F9211242F93D2
:1018C0003F934F935F936F937F938F939F93AF93C8
:1018D000BF93EF93FF93CF93DF93CDB7DEB78091A4
:1018E0002A2090912B20009731F080912A2090910E
:1018F0002B20FC010995DF91CF91FF91EF91BF91D2
:10190000AF919F918F917F916F915F914F913F9197
:101910002F910F9000923F000F901F9018951F92EB
:101920000F9200903F000F9211242F933F934F93FB
:101930005F936F937F938F939F93AF93BF93EF9337
:10194000FF93CF93DF93CDB7DEB780912C2090919A
:101950002D20009731F080912C2090912D20FC01BA
:101960000995DF91CF91FF91EF91BF91AF919F9139
:101970008F917F916F915F914F913F912F910F9038
:1019800000923F000F901F9018951F920F920090A9
:101990003F000F9211242F933F934F935F936F93C8
:1019A0007F938F939F93AF93BF93EF93FF93CF93C7
:1019B000DF93CDB7DEB780912E2090912F20009736
:1019C00031F080912E2090912F20FC010995DF911C
:1019D000CF91FF91EF91BF91AF919F918F917F91A7
:1019E0006F915F914F913F912F910F9000923F0027
:1019F0000F901F9018951F920F9200903F000F922A
:101A000011242F933F934F935F936F937F938F9303
:101A10009F93AF93BF93EF93FF93CF93DF93CDB794
:101A2000DEB78091302090913120009731F0809185
:101A3000302090913120FC010995DF91CF91FF91E9
:101A4000EF91BF91AF919F918F917F916F915F9136
:101A50004F913F912F910F9000923F000F901F9058
:101A600018951F920F9200903F000F9211242F9310
:101A70003F934F935F936F937F938F939F93AF9316
:101A8000BF93EF93FF93CF93DF93CDB7DEB78091F2
:101A9000322090913320009731F080913220909144
:101AA0003320FC010995DF91CF91FF91EF91BF9118
:101AB000AF919F918F917F916F915F914F913F91E6
:101AC0002F910F9000923F000F901F9018951F923A
:101AD0000F9200903F000F9211242F933F934F934A
:101AE0005F936F937F938F939F93AF93BF93EF9386
:101AF000FF93CF93DF93CDB7DEB7809134209091E1
:101B00003520009731F08091342090913520FC01F0
:101B10000995DF91CF91FF91EF91BF91AF919F9187
:101B20008F917F916F915F914F913F912F910F9086
:101B300000923F000F901F9018951F920F920090F7
:101B40003F000F9211242F933F934F935F936F9316
:101B50007F938F939F93AF93BF93EF93FF93CF9315
:101B6000DF93CDB7DEB78091362090913720009774
:101B700031F08091362090913720FC010995DF915A
:101B8000CF91FF91EF91BF91AF919F918F917F91F5
:101B90006F915F914F913F912F910F9000923F0075
:101BA0000F901F9018951F920F9200903F000F9278
:101BB00011242F933F934F935F936F937F938F9352
:101BC0009F93AF93BF93EF93FF93CF93DF93CDB7E3
:101BD000DEB78091382090913920009731F08091C4
:101BE000382090913920FC010995DF91CF91FF9128
:101BF000EF91BF91AF919F918F917F916F915F9185
:101C00004F913F912F910F9000923F000F901F90A6
:101C100018951F920F9200903F000F9211242F935E
:101C20003F934F935F936F937F938F939F93AF9364
:101C3000BF93EF93FF93CF93DF93CDB7DEB7809140
:101C40003A2090913B20009731F080913A2090917A
:101C50003B20FC010995DF91CF91FF91EF91BF915E
:101C6000AF919F918F917F916F915F914F913F9134
:101C70002F910F9000923F000F901F9018951F9288
:101C80000F9200903F000F9211242F933F934F9398
:101C90005F936F937F938F939F93AF93BF93EF93D4
:101CA000FF93CF93DF93CDB7DEB780913C20909127
:101CB0003D20009731F080913C2090913D20FC0127
:101CC0000995DF91CF91FF91EF91BF91AF919F91D6
:101CD0008F917F916F915F914F913F912F910F90D5
:101CE00000923F000F901F9018951F920F92009046
:101CF0003F000F9211242F933F934F935F936F9365
:101D00007F938F939F93AF93BF93EF93FF93CF9363
:101D1000DF93CDB7DEB780913E2090913F200097B2
:101D200031F080913E2090913F20FC010995DF9198
:101D3000CF91FF91EF91BF91AF919F918F917F9143
:101D40006F915F914F913F912F910F9000923F00C3
:101D50000F901F9018951F920F9200903F000F92C6
:101D600011242F933F934F935F936F937F938F93A0
:101D70009F93AF93BF93EF93FF93CF93DF93CDB731
:101D8000DEB78091402090914120009731F0809102
:101D9000402090914120FC010995DF91CF91FF9166
:101DA000EF91BF91AF919F918F917F916F915F91D3
:101DB0004F913F912F910F9000923F000F901F90F5
:101DC00018951F920F9200903F000F9211242F93AD
:101DD0003F934F935F936F937F938F939F93AF93B3
:101DE000BF93EF93FF93CF93DF93CDB7DEB780918F
:101DF000422090914320009731F0809142209091B1
:101E00004320FC010995DF91CF91FF91EF91BF91A4
:101E1000AF919F918F917F916F915F914F913F9182
:101E20002F910F9000923F000F901F9018951F92D6
:101E30000F9200903F000F9211242F933F934F93E6
:101E40005F936F937F938F939F93AF93BF93EF9322
:101E5000FF93CF93DF93CDB7DEB78091442090916D
:101E60004520009731F08091442090914520FC015D
:101E70000995DF91CF91FF91EF91BF91AF919F9124
:101E80008F917F916F915F914F913F912F910F9023
:101E900000923F000F901F9018951F920F92009094
:101EA0003F000F9211242F933F934F935F936F93B3
:101EB0007F938F939F93AF93BF93EF93FF93CF93B2
:101EC000DF93CDB7DEB780914620909147200097F1
:101ED00031F08091462090914720FC010995DF91D7
:101EE000CF91FF91EF91BF91AF919F918F917F9192
:101EF0006F915F914F913F912F910F9000923F0012
:101F00000F901F9018951F920F9200903F000F9214
:101F100011242F933F934F935F936F937F938F93EE
:101F20009F93AF93BF93EF93FF93CF93DF93CDB77F
:101F3000DEB78091482090914920009731F0809140
:101F4000482090914920FC010995DF91CF91FF91A4
:101F5000EF91BF91AF919F918F917F916F915F9121
:101F60004F913F912F910F9000923F000F901F9043
:101F700018951F920F9200903F000F9211242F93FB
:101F80003F934F935F936F937F938F939F93AF9301
:101F9000BF93EF93FF93CF93DF93CDB7DEB78091DD
:101FA0004A2090914B20009731F080914A209091E7
:101FB0004B20FC010995DF91CF91FF91EF91BF91EB
:101FC000AF919F918F917F916F915F914F913F91D1
:101FD0002F910F9000923F000F901F9018951F9225
:101FE0000F9200903F000F9211242F933F934F9335
:101FF0005F936F937F938F939F93AF93BF93EF9371
:10200000FF93CF93DF93CDB7DEB780914C209091B3
:102010004D20009731F080914C2090914D20FC0193
:102020000995DF91CF91FF91EF91BF91AF919F9172
:102030008F917F916F915F914F913F912F910F9071
:1020400000923F000F901F9018951F920F920090E2
:102050003F000F9211242F933F934F935F936F9301
:102060007F938F939F93AF93BF93EF93FF93CF9300
:10207000DF93CDB7DEB780914E2090914F2000972F
:1020800031F080914E2090914F20FC010995DF9115
:10209000CF91FF91EF91BF91AF919F918F917F91E0
:1020A0006F915F914F913F912F910F9000923F0060
:1020B0000F901F9018951F920F9200903F000F9263
:1020C00011242F933F934F935F936F937F938F933D
:1020D0009F93AF93BF93EF93FF93CF93DF93CDB7CE
:1020E000DEB78091502090915120009731F080917F
:1020F000502090915120FC010995DF91CF91FF91E3
:10210000EF91BF91AF919F918F917F916F915F916F
:102110004F913F912F910F9000923F000F901F9091
:1021200018951F920F9200903F000F9211242F9349
:102130003F934F935F936F937F938F939F93AF934F
:10214000BF93EF93FF93CF93DF93CDB7DEB780912B
:10215000522090915320009731F08091522090911D
:102160005320FC010995DF91CF91FF91EF91BF9131
:10217000AF919F918F917F916F915F914F913F911F
:102180002F910F9000923F000F901F9018951F9273
:102190000F9200903F000F9211242F933F934F9383
:1021A0005F936F937F938F939F93AF93BF93EF93BF
:1021B000FF93CF93DF93CDB7DEB7809154209091FA
:1021C0005520009731F08091542090915520FC01CA
:1021D0000995DF91CF91FF91EF91BF91AF919F91C1
:1021E0008F917F916F915F914F913F912F910F90C0
:1021F00000923F000F901F9018951F920F92009031
:102200003F000F9211242F933F934F935F936F934F
:102210007F938F939F93AF93BF93EF93FF93CF934E
:10222000DF93CDB7DEB7809156209091572000976D
:1022300031F08091562090915720FC010995DF9153
:10224000CF91FF91EF91BF91AF919F918F917F912E
:102250006F915F914F913F912F910F9000923F00AE
:102260000F901F9018951F920F9200903F000F92B1
:1022700011242F933F934F935F936F937F938F938B
:102280009F93AF93BF93EF93FF93CF93DF93CDB71C
:10229000DEB78091582090915920009731F08091BD
:1022A000582090915920FC010995DF91CF91FF9121
:1022B000EF91BF91AF919F918F917F916F915F91BE
:1022C0004F913F912F910F9000923F000F901F90E0
:1022D00018951F920F9200903F000F9211242F9398
:1022E0003F934F935F936F937F938F939F93AF939E
:1022F000BF93EF93FF93CF93DF93CDB7DEB780917A
:102300005A2090915B20009731F080915A20909153
:102310005B20FC010995DF91CF91FF91EF91BF9177
:10232000AF919F918F917F916F915F914F913F916D
:102330002F910F9000923F000F901F9018951F92C1
:102340000F9200903F000F9211242F933F934F93D1
:102350005F936F937F938F939F93AF93BF93EF930D
:10236000FF93CF93DF93CDB7DEB780915C20909140
:102370005D20009731F080915C2090915D20FC0100
:102380000995DF91CF91FF91EF91BF91AF919F910F
:102390008F917F916F915F914F913F912F910F900E
:1023A00000923F000F901F901895CF93DF9300D0BD
:1023B0001F92CDB7DEB78A839B833CDA89838A81FB
:1023C0009B81811528E0920759F461E083E090E059
:1023D0000E94400964E083E090E00E94400947C009
:1023E0008A819B81803428E0920759F462E083E07F
:1023F00090E00E94400964E083E090E00E94400980
:1024000036C08A819B81811529E0920759F461E0E9
:1024100084E090E00E94400964E084E090E00E9443
:10242000400925C08A819B81803429E0920759F4B4
:1024300062E084E090E00E94400964E084E090E083
:102440000E94400914C08A819B8181152AE092076D
:1024500059F461E085E090E00E94400964E085E085
:1024600090E00E94400903C08981F4D905C081E051
:1024700090E0FFD98981EED92396CDBFDEBFDF91F1
:10248000CF910895CF93DF9300D000D0CDB7DEB7C2
:1024900089839A836B837C8389819A81811528E063
:1024A000920739F48B819C8180932A2090932B2072
:1024B00033C089819A81803428E0920739F48B8176
:1024C0009C81809336209093372026C089819A8101
:1024D000811529E0920739F48B819C8180933E20FD
:1024E00090933F2019C089819A81803429E0920716
:1024F00039F48B819C8180934A2090934B200CC0AF
:1025000089819A8181152AE0920731F48B819C811F
:1025100080935220909353202496CDBFDEBFDF914D
:10252000CF910895CF93DF9300D0CDB7DEB78983E5
:102530009A8389819A81FC018481282F2061898175
:102540009A81FC0124830F900F90DF91CF91089521
:10255000CF93DF93CDB7DEB72797CDBFDEBF89839B
:102560009A836B837C834D835E832F839B818D81D4
:10257000982B8F81882311F088E001C080E0292FFB
:10258000282B89819A81FC0125832796CDBFDEBF48
:10259000DF91CF910895CF93DF9300D0CDB7DEB711
:1025A00089839A8389819A81FC018481282F2860FC
:1025B00089819A81FC0124830F900F90DF91CF9144
:1025C0000895CF93DF9300D000D0CDB7DEB78983D5
:1025D0009A836B837C8389819A81FC018581982F02
:1025E0009F738B81292F282B89819A81FC01258358
:1025F0002496CDBFDEBFDF91CF910895CF93DF93B7
:1026000000D0CDB7DEB789839A8389819A81FC0196
:102610008181882F90E08072992721E0009709F44A
:1026200020E0822F0F900F90DF91CF910895CF93EC
:10263000DF93CDB7DEB780E098E4A8EEB1E0BC014F
:10264000CD01DF91CF910895CF93DF931F92CDB746
:10265000DEB71982ECDFDC01CB012981222F30E0CB
:10266000022E04C0B695A795979587950A94D2F740
:10267000BC01CD010F90DF91CF910895CF93DF93EF
:10268000CDB7DEB7E1DFDC01CB01BC01CD01DF91CD
:10269000CF910895CF93DF93CDB7DEB7EFDFDC01A5
:1026A000CB01BC01CD01DF91CF910895CF93DF9392
:1026B00000D0CDB7DEB789839A8389819A8100974C
:1026C00009F41EC189819A81803C910531F460E151
:1026D00080E090E00E94400913C189819A818115B0
:1026E00024E0920731F464E080E090E00E94400929
:1026F00007C189819A81803821E0920731F462E034
:1027000080E090E00E944009FBC089819A81811598
:1027100021E0920731F461E080E090E00E944009FE
:10272000EFC089819A81803823E0920731F461E01B
:1027300081E090E00E944009E3C089819A8181157F
:1027400022E0920731F462E081E090E00E944009CB
:10275000D7C089819A81803223E0920731F464E006
:1027600082E090E00E944009CBC089819A81811566
:1027700028E0920731F461E083E090E00E94400994
:10278000BFC089819A81811529E0920731F461E007
:1027900084E090E00E944009B3C089819A8181154C
:1027A0002AE0920731F461E085E090E00E94400960
:1027B000A7C089819A81803428E0920731F462E0D1
:1027C00083E090E00E9440099BC089819A81803417
:1027D00029E0920731F462E084E090E00E94400931
:1027E0008FC089819A81803928E0920731F464E0B2
:1027F00083E090E00E94400983C089819A818039FA
:1028000029E0920731F464E084E090E00E944009FE
:1028100077C089819A8180392AE0920731F464E097
:1028200085E090E00E9440096BC089819A81803CDC
:1028300028E0920731F468E083E090E00E944009CC
:102840005FC089819A81803C29E0920731F468E079
:1028500084E090E00E94400953C089819A81803AC7
:1028600028E0920731F460E183E090E00E944009A3
:1028700047C089819A81803A29E0920731F460E16A
:1028800084E090E00E9440093BC089819A81803AAF
:102890002AE0920731F460E185E090E00E9440096F
:1028A0002FC089819A81803B28E0920731F460E251
:1028B00083E090E00E94400923C089819A81803B97
:1028C00029E0920731F460E284E090E00E94400940
:1028D00017C089819A81803824E0920731F460E43E
:1028E00083E090E00E9440090BC089819A81803A80
:1028F00024E0920729F460E485E090E00E9440091A
:102900000F900F90DF91CF9108950F931F93CF9366
:10291000DF93CDB7DEB72597CDBFDEBF8A839B831C
:102920006C837D838A819B81C1DE8A819B8160E08B
:1029300070E047DE8C819D81FC0120858C819D812A
:10294000FC01468157818C819D81FC0164817581E8
:102950008A819B81FDDD9EDE9B01AC018C819D8186
:10296000FC0180819181A281B381EA81FB8189018F
:102970009A01AC01BD01CF012FD089838A819B814F
:102980000ADE8A819B81CEDD89812596CDBFDEBF9F
:10299000DF91CF911F910F910895CF93DF9300D0D6
:1029A0001F92CDB7DEB789839A836B83000089813C
:1029B0009A8124DE982F81E089278823C1F78981B5
:1029C0009A812B81FC01208380E090E02396CDBF8B
:1029D000DEBFDF91CF910895EF92FF920F931F9387
:1029E000CF93DF93CDB7DEB76F97CDBFDEBF8E8BB2
:1029F0009F8B488F598F6A8F7B8F0C8F1D8F2E8FE7
:102A00003F8F8C8D9D8DAE8DBF8D689412F8B695DD
:102A1000A795979587951694D1F78E879F87A88B52
:102A2000B98B8C8D9D8DAE8DBF8D072E76E1B695C1
:102A3000A795979587957A95D1F7702D8A879B876B
:102A4000AC87BD878E899F89FC018481882F90E0A7
:102A5000847099270097C1F48E859F85A889B989CC
:102A6000B695A795979587958E879F87A88BB98BE5
:102A70008A859B85AC85BD85B695A79597958795E5
:102A80008A879B87AC87BD87288D398D4A8D5B8D62
:102A90008E859F85A889B98982179307A407B507F2
:102AA00068F0288D398D4A8D5B8D8A859B85AC8534
:102AB000BD85281739074A075B0710F480E03CC141
:102AC0008E899F89FC018481882F90E084709927EA
:102AD000009761F4888D998DAA8DBB8D880F991F01
:102AE000AA1FBB1F888F998FAA8FBB8F8FEF90E093
:102AF000A0E0B0E08E839F83A887B9878C8D9D8DE1
:102B0000AE8DBF8D288D398D4A8D5B8DBC01CD0179
:102B10000E94CF252A8B3B8B4C8B5D8B89EF898361
:102B200028C02A893B894C895D898E819F81A8852F
:102B3000B985281739074A075B07F8F08E819F810E
:102B4000A885B985880F991FAA1FBB1F8E839F83F5
:102B5000A887B98789818D3F4CF48E819F81A88594
:102B6000B98581608E839F83A887B98789818F5FAC
:102B7000898389818730ACF201C000008981882374
:102B80000CF088C0888D998DAA8DBB8D880F991FF8
:102B9000AA1FBB1F880F991FAA1FBB1F880F991F51
:102BA000AA1FBB1F2C8D3D8D4E8D5F8D79018A0133
:102BB000E81AF90A0A0B1B0BD801C7018C8F9D8FED
:102BC000AE8FBF8F89818E3F84F58981992787FDDC
:102BD00090952DEF3FEF281B390B8C8D9D8DAE8D81
:102BE000BF8D7C018D0104C0EE0CFF1C001F111F66
:102BF0002A95D2F7A8019701888D998DAA8DBB8D52
:102C0000B695A79597958795820F931FA41FB51F1B
:102C1000288D398D4A8D5B8DBC01CD010E94CF2559
:102C20002A833B834C835D836EC08981992787FD0E
:102C300090959C012D5F3F4F888D998DAA8DBB8DFE
:102C400004C0880F991FAA1FBB1F2A95D2F7888F2F
:102C5000998FAA8FBB8F888D998DAA8DBB8D9C0172
:102C6000AD0156954795379527958C8D9D8DAE8DE9
:102C7000BF8D820F931FA41FB51F288D398D4A8DDC
:102C80005B8DBC01CD010E94CF252A833B834C8301
:102C90005D8339C08981992787FD90959C012D5FBF
:102CA0003F4F888D998DAA8DBB8D04C0880F991FC9
:102CB000AA1FBB1F2A95D2F7888F998FAA8FBB8F27
:102CC000888D998DAA8DBB8D9C01AD015695479538
:102CD000379527958C8D9D8DAE8DBF8D820F931F5F
:102CE000A41FB51F288D398D4A8D5B8DBC01CD0188
:102CF0000E94CF25DA01C9010197A109B1098A8390
:102D00009B83AC83BD838A819B81AC81BD81892FEC
:102D10009A2FAB2FBB27982F9F7089818295807F38
:102D2000292F282B8E899F89FC0127832A818E8950
:102D30009F89FC01268381E06F96CDBFDEBFDF91C6
:102D4000CF911F910F91FF90EF900895CF93DF9354
:102D50001F92CDB7DEB78FE390E0FC0180818983BD
:102D6000F89489810F90DF91CF910895CF93DF93ED
:102D70001F92CDB7DEB789838FE390E02981FC01F4
:102D800020830F90DF91CF910895CF93DF9300D0F0
:102D9000CDB7DEB78A83DADF898380E590E020E56E
:102DA00030E0F90130812A81232BFC0120838981C5
:102DB000DDDF0F900F90DF91CF910895CF93DF93D8
:102DC0001F92CDB7DEB789830F90DF91CF91089521
:102DD000CF93DF9300D0CDB7DEB78A83B7DF898387
:102DE00080E590E020E530E0F9012081322F2A8152
:102DF00020952323FC0120838981B8DF0F900F9059
:102E0000DF91CF910895CF93DF931F92CDB7DEB7B7
:102E100089838981883019F08981B7DF02C089816F
:102E2000CDDF0F90DF91CF910895CF93DF931F9265
:102E3000CDB7DEB7898380E590E0FC01918189817F
:102E4000982381E0992309F480E00F90DF91CF91DE
:102E50000895CF93DF931F92CDB7DEB7898300002B
:102E60008981E3DF982F81E089278823C9F70F90B4
:102E7000DF91CF910895CF93DF93CDB7DEB780E098
:102E800098E4A8EEB1E0BC01CD01DF91CF910895A7
:102E9000CF93DF931F92CDB7DEB71982ECDFDC0151
:102EA000CB012981222F30E0022E04C0B695A795D0
:102EB000979587950A94D2F7BC01CD010F90DF91C9
:102EC000CF910895CF93DF93CDB7DEB7E1DFDC017B
:102ED000CB01BC01CD01DF91CF910895CF93DF935A
:102EE000CDB7DEB7EFDFDC01CB01BC01CD01DF9157
:102EF000CF910895CF93DF93CDB7DEB7EFDFDC013D
:102F0000CB01BC01CD01DF91CF91089561507109D2
:102F100081099109D9F70895CF93DF93CDB7DEB733
:102F20002B97CDBFDEBF8A876B878A8589838B8588
:102F30008A8389818B838B818C838C81869586950E
:102F400086958D838D81882F90E0880F991F8295BB
:102F50009295907F9827807F98279A5F8E839F8392
:102F60008A818823A9F0898188878885882F90E0C5
:102F70009C012770332781E090E002C0880F991FE1
:102F80002A95E2F7282F8E819F81FC01258314C0AA
:102F9000898189878985882F90E09C012770332754
:102FA00081E090E002C0880F991F2A95E2F7282F50
:102FB0008E819F81FC0126832B96CDBFDEBFDF91E2
:102FC000CF910895CF93DF93CDB7DEB780EA90E03D
:102FD00027E0FC012283DF91CF910895CF93DF9307
:102FE00000D000D0CDB7DEB789839A836B837C8312
:102FF00089819A81FC018681282F2C7F89819A8181
:10300000FC01268389819A81FC0196818B81292F7D
:10301000282B89819A81FC0126832496CDBFDEBFAF
:10302000DF91CF910895CF93DF9300D000D0CDB73B
:10303000DEB789839A836B837C8389819A81FC01C3
:103040008081982F907F8B81292F282B89819A81CD
:10305000FC0120832496CDBFDEBFDF91CF91089580
:10306000CF93DF9300D000D0CDB7DEB789839A83AA
:103070006B837C8389819A81FC018181982F987F61
:103080008B81292F282B89819A81FC012183249609
:10309000CDBFDEBFDF91CF910895CF93DF9300D0F6
:1030A00000D0CDB7DEB789839A836B837C83898117
:1030B0009A81FC018381982F9F7C8B818295807FF0
:1030C000292F282B89819A81FC0123832496CDBF47
:1030D000DEBFDF91CF9108951F920F9200903F00C5
:1030E0000F9211242F933F938F939F93EF93FF930E
:1030F000CF93DF93CDB7DEB7F89480EA99E0FC0177
:10310000808180936420809161209091622000975B
:1031100009F476C080916520882389F48091642029
:103120008093652080916520853008F084C081E01F
:103130008093632010926120109262207CC0809165
:103140006020282F30E080916520882F90E0049740
:103150002817390784F480916020882F90E020910F
:1031600064208B569F4DFC012083809160208F5FEF
:103170008093602060C080916020282F30E0809193
:103180006520882F90E004972817390751F4809123
:10319000642080936620809160208F5F8093602000
:1031A0004AC080916020282F30E080916520882FD0
:1031B00090E0039728173907D9F4809164208D3067
:1031C00079F480916020815080936020109261207A
:1031D0001092622080917F20806280937F202BC09C
:1031E00082E080936320109261201092622023C0BD
:1031F00084E08093632010926120109262201BC0B3
:10320000809164208A33B9F480917F208072882372
:1032100059F481E090E080936120909362201092B5
:1032200060201092652007C08FEF8093632010927A
:103230006120109262207894DF91CF91FF91EF91FD
:103240009F918F913F912F910F9000923F000F908F
:103250001F9018951F920F9200903F000F9211241B
:10326000CF93DF93CDB7DEB7DF91CF910F90009270
:103270003F000F901F9018951F920F9200903F00F3
:103280000F9211242F933F934F935F936F937F93EC
:103290008F939F93AF93BF93EF93FF93CF93DF935E
:1032A000CDB7DEB7F89480910720833009F03DC197
:1032B00000E000930008009300090093000A0093C7
:1032C000400800934009000080E094E0FC01818107
:1032D0008823D1F780E094E0FC01108280917F2068
:1032E0008270882309F46EC0000080E094E0FC0145
:1032F00081818823D1F780E094E0FC01108611865B
:10330000000080E094E0FC0181818823D1F780E017
:1033100094E020916B2030916C20FC012287338750
:10332000000080E094E0FC0181818823D1F780E0F7
:1033300094E020916820FC01208384E080930720A2
:1033400080917F208D7F80937F206CE170E280EC04
:1033500098E00E94E90A43E050E06FE870E280ECF8
:1033600098E00E946A0A6CE170E280EC98E00E94AA
:10337000FE0A6DE170E280EC98E00E94E90A43E009
:1033800050E062E970E280EC98E00E946A0A6DE128
:1033900070E280EC98E00E94FE0A6CE170E280EC42
:1033A00098E00E94E90A43E050E06BEF70E280ECA5
:1033B00098E00E946A0A6CE170E280EC98E00E945A
:1033C000FE0A14C081E080930720000080E094E0B2
:1033D000FC0181818823D1F780E094E0FC01108614
:1033E000118680910720682F81E2F5D380917F209C
:1033F0008470882301F580917F20806180937F20F5
:1034000082E080930720000080E094E0FC0181814D
:103410008823D1F780E094E0FC011082000080E076
:1034200094E0FC0181818823D1F780E094E0FC01E5
:1034300010861186D3C080E498E0FC0180A191A1A0
:10344000CC01A0E0B0E0AC013327222780E098E077
:10345000FC0180A191A1CC01A0E0B0E0820F931FFC
:10346000A41FB51F80936D2090936E20A0936F20B2
:10347000B093702080E499E0FC0180A191A1CC017F
:10348000A0E0B0E0AC013327222780E099E0FC0106
:1034900080A191A1CC01A0E0B0E0820F931FA41FF6
:1034A000B51F8093732090937420A0937520B093E0
:1034B000762080E09AE0FC0180A191A1CC01A0E0FF
:1034C000B0E08093792090937A20A0937B20B093F2
:1034D0007C2080917220809371208091782080934D
:1034E000772080917E2080937D2010927220109210
:1034F000782010927E2080E098E0FC0110A211A2BA
:1035000080E498E0FC0110A211A280E099E0FC01A7
:1035100010A211A280E499E0FC0110A211A280E0A7
:103520009AE0FC0110A211A259C0809107208430BA
:1035300009F051C0000080E094E0FC018181882303
:10354000D1F780E094E0FC011082000080E094E07C
:10355000FC0181818823D1F780E094E0FC01108692
:103560001186000080E094E0FC0181818823D1F77E
:1035700080E094E02091692030916A20FC0122874C
:103580003387000080E094E0FC0181818823D1F73B
:1035900008E01AE02CE049E05BE00093000810939B
:1035A00000092093000A409340085093400980E0AE
:1035B00094E020916720FC01208383E08093072022
:1035C00080917F208B7F80937F2080910720682FC0
:1035D00081E201D303C06BE780E0FDD27894DF91F4
:1035E000CF91FF91EF91BF91AF919F918F917F917B
:1035F0006F915F914F913F912F910F9000923F00FB
:103600000F901F901895CF93DF93CDB7DEB78091C1
:1036100072208F5F80937220DF91CF910895CF93B6
:10362000DF93CDB7DEB7809178208F5F80937820CD
:10363000DF91CF910895CF93DF93CDB7DEB780911F
:103640007E208F5F80937E20DF91CF910895CF936E
:10365000DF93CDB7DEB780919520882F90E0AA2721
:1036600097FDA095BA2F41E050E02FE430E0841B95
:10367000950B2817390708F44EC082509F4FFC0164
:103680000C94F12551D04DC080915F20682F84E1CA
:10369000A2D247C03BD345C080910020682F81E073
:1036A0009AD23FC069D33DC0BED33BC030D439C0ED
:1036B000A5D337C081D435C080915E20682F88E0C3
:1036C0008AD22FC081E0C3D42CC082E0C0D429C0EC
:1036D00083E0BDD426C083E0BAD423C084E0B7D44D
:1036E00020C085E0B4D41DC086E0B1D41AC087E004
:1036F000AED417C087E0ABD414C087E0A8D411C003
:1037000088E0A5D40EC088E0A2D40BC089E09FD485
:1037100008C09DD506C080919520482F61E080E0CB
:103720008BD2DF91CF910895CF93DF93CDB7DEB7E2
:103730006C97CDBFDEBFF89480910720843009F4E8
:1037400000C280919620813029F480917F20826090
:1037500080937F20809197208823A1F080919720EB
:103760008093672080919820882F90E0382F22271F
:1037700080919920882F90E0820F931F8093692079
:1037800090936A2080919A208823A1F080919A20BA
:103790008093682080919B20882F90E0382F2227EB
:1037A00080919C20882F90E0820F931F80936B2044
:1037B00090936C2080919D2080938F2080919E20FB
:1037C0008093902080919F20809391208091A020D1
:1037D0008093FB208091A1208093FC208091A220E7
:1037E0008093FD208091A320809392208091A4203B
:1037F000809393208091A52080939420809107202E
:103800008330E1F16CE170E280EC98E00E94E90A1B
:1038100043E050E06FE870E280EC98E00E946A0AB2
:103820006CE170E280EC98E00E94FE0A6DE170E2CB
:1038300080EC98E00E94E90A43E050E062E970E21F
:1038400080EC98E00E946A0A6DE170E280EC98E0FA
:103850000E94FE0A6CE170E280EC98E00E94E90AA6
:1038600043E050E06BEF70E280EC98E00E946A0A5F
:103870006CE170E280EC98E00E94FE0A80917F206B
:103880008071882309F05DC180910720882F90E026
:103890008130910521F08330910509F051C180E21A
:1038A0008D8380915F208E83809107208F8380910C
:1038B0007120888780916D2090916E20A0916F205B
:1038C000B09170208B2F9927AA27BB2789878091D9
:1038D0006D2090916E20A0916F20B0917020CD014D
:1038E000AA27BB278A8780916D2090916E20A09196
:1038F0006F20B0917020892F9A2FAB2FBB278B8719
:1039000080916D2090916E20A0916F20B0917020D9
:103910008C87809177208D8780917320909174207F
:10392000A0917520B09176208B2F9927AA27BB27CD
:103930008E878091732090917420A0917520B09112
:103940007620CD01AA27BB278F8780917320909185
:103950007420A0917520B0917620892F9A2FAB2FDB
:10396000BB27888B8091732090917420A091752043
:10397000B0917620898B80917D208A8B80917920EF
:1039800090917A20A0917B20B0917C20892F9A2F52
:10399000AB2FBB278B8B8091792090917A20A091BF
:1039A0007B20B0917C208C8B8FE8898380E18A8397
:1039B00060E084E1B1DA42E050E0CE010196BC0162
:1039C00080EC98E00E946A0A61E084E1A5DA61E295
:1039D00070E280EC98E00E94FE0A60E084E19CDAEC
:1039E000CE01039642E050E0BC0180EC98E00E94DA
:1039F000A80A61E084E190DA61E270E280EC98E08C
:103A00000E94E90A8B818D8B8C818E8B8BE8898358
:103A100060E084E181DA42E050E0CE010196BC0131
:103A200080EC98E00E946A0A61E084E175DA61E264
:103A300070E280EC98E00E94FE0A60E084E16CDABB
:103A4000CE01039642E050E0BC0180EC98E00E9479
:103A5000A80A61E084E160DA61E270E280EC98E05B
:103A60000E94E90A8B818F8B8C81888F83E8898300
:103A700060E084E151DA42E050E0CE010196BC0101
:103A800080EC98E00E946A0A61E084E145DA61E234
:103A900070E280EC98E00E94FE0A60E084E13CDA8B
:103AA000CE01039642E050E0BC0180EC98E00E9419
:103AB000A80A61E084E130DA61E270E280EC98E02B
:103AC0000E94E90A8B81898F8C818A8F87E889839C
:103AD00060E084E121DA42E050E0CE010196BC01D1
:103AE00080EC98E00E946A0A61E084E115DA61E204
:103AF00070E280EC98E00E94FE0A60E084E10CDA5B
:103B0000CE01039642E050E0BC0180EC98E00E94B8
:103B1000A80A61E084E100DA61E270E280EC98E0FA
:103B20000E94E90A8B818B8F8C818C8FCE01059648
:103B300068E10ED080917F20846080937F2001C057
:103B4000000078946C96CDBFDEBFDF91CF910895D1
:103B5000CF93DF9300D000D0CDB7DEB78A839B83AD
:103B60006C836AE380EA99E00E94CD148C818C5FBB
:103B7000682F80EA99E00E94CD14198211C08981D2
:103B8000882F90E02A813B81820F931FFC01808166
:103B9000682F80EA99E00E94CD1489818F5F898324
:103BA00099818C81981758F38C81282F2F5F8A81F7
:103BB0009B81622F7CD0682F80EA99E00E94CD140F
:103BC0006DE080EA99E00E94CD142496CDBFDEBF5F
:103BD000DF91CF910895CF93DF9300D0CDB7DEB7BB
:103BE00089836A836AE380EA99E00E94CD1466E0E3
:103BF00080EA99E00E94CD14698180EA99E00E94F0
:103C0000CD146A8180EA99E00E94CD148981982FB1
:103C100091958A81292F281B822F682F80EA99E0AD
:103C20000E94CD146DE080EA99E00E94CD140F90BF
:103C30000F90DF91CF910895CF93DF9300D01F9223
:103C4000CDB7DEB789836A834B836AE380EA99E064
:103C50000E94CD1467E080EA99E00E94CD1469814A
:103C600080EA99E00E94CD146A8180EA99E00E947E
:103C7000CD146B8180EA99E00E94CD148981982F40
:103C800091958A81981B8B81292F281B822F682F61
:103C900080EA99E00E94CD146DE080EA99E00E94EC
:103CA000CD142396CDBFDEBFDF91CF910895CF9382
:103CB000DF93CDB7DEB72597CDBFDEBF8B839C8367
:103CC0006D8319821A8211C08A81882F90E02B811E
:103CD0003C81820F931FFC0180819981F92FF81B91
:103CE0008F2F89838A818F5F8A838A81282F30E092
:103CF0008D81882F90E00197281739072CF389814F
:103D00002596CDBFDEBFDF91CF910895CF93DF938E
:103D1000CDB7DEB72997CDBFDEBFECD8DC01CB0134
:103D200089839A83AB83BC8383E08D8389818E836F
:103D300089819A81AB81BC81892F9A2FAB2FBB27B8
:103D40008F8389819A81AB81BC81CD01AA27BB2752
:103D5000888789819A81AB81BC818B2F9927AA277B
:103D6000BB278987CE01059665E0F2DE2996CDBF97
:103D7000DEBFDF91CF910895CF93DF93CDB7DEB74C
:103D80002597CDBFDEBF82E089838091012090918D
:103D90000220A0910320B09104208A838091012009
:103DA00090910220A0910320B0910420892F9A2F96
:103DB000AB2FBB278B838091012090910220A09193
:103DC0000320B0910420CD01AA27BB278C838091CA
:103DD000012090910220A0910320B09104208B2F0C
:103DE0009927AA27BB278D8365E0CE010196B0DE17
:103DF0002596CDBFDEBFDF91CF910895CF93DF939E
:103E00001F92CDB7DEB7F89484E0898361E0CE01DC
:103E100001969EDE88E790E021E0FC0121830F906F
:103E2000DF91CF910895CF93DF93CDB7DEB7809127
:103E30000720833009F463C080910720843009F49F
:103E40005EC0000080E094E0FC0181818823D1F70E
:103E500080E094E02091692030916A20FC01228763
:103E6000338780917F208F7E80937F2080917F2079
:103E7000846080937F20109272201092782010929C
:103E80007E2080E098E0FC0110A211A280E498E07E
:103E9000FC0110A211A280E099E0FC0110A211A285
:103EA00080E499E0FC0110A211A280E09AE0FC01FC
:103EB00010A211A280917F208D7F80937F2000002F
:103EC00080E094E0FC0181818823D1F708E01AE0CA
:103ED0002CE049E05BE00093000810930009209378
:103EE000000A409340085093400980E094E02091FC
:103EF0006720FC01208383E08093072005C0809128
:103F00000720682F8EE167DEDF91CF910895CF9370
:103F1000DF93CDB7DEB780910720833009F044C02E
:103F200060E070E080E098E07ED860E070E080E0E3
:103F300099E079D860E070E080E09AE074D880E0A1
:103F400094E0FC01108260E070E080E498E06BD8BF
:103F500060E070E080E499E066D880E094E0FC01E5
:103F60001086118680E098E0FC0110A211A280E486
:103F700098E0FC0110A211A280E099E0FC0110A2DF
:103F800011A280E499E0FC0110A211A280E09AE065
:103F9000FC0110A211A280910720682F8FE11BDE87
:103FA00082E08093072005C080910720682F8FE171
:103FB00012DEDF91CF910895CF93DF93CDB7DEB7B7
:103FC000DF91CF910895CF93DF93CDB7DEB72597DB
:103FD000CDBFDEBF8B836C837D838B81883070F493
:103FE0008B81882F90E080589E4F89839A832C8103
:103FF00089819A81FC01208381E001C080E02596BF
:10400000CDBFDEBFDF91CF910895CF93DF93CDB7C2
:10401000DEB72597CDBFDEBF8B836C837D838B811D
:10402000883070F48B81882F90E088579E4F898369
:104030009A832C8189819A81FC01208381E001C0CF
:1040400080E02596CDBFDEBFDF91CF910895CF935D
:10405000DF93CDB7DEB76297CDBFDEBF8A8B81E03D
:1040600089831A821B828A89882F90E08530910586
:1040700099F1863091058CF482309105F9F0833006
:10408000910524F481309105A9F040C08330910559
:10409000C9F084309105D1F039C08730910539F1EC
:1040A00087309105FCF08830910531F18930910518
:1040B00041F12CC0809180208B832DC080911A20EB
:1040C0008B8329C080911B208B8325C080911C206D
:1040D0008B8381E08A831FC080911D208B8381E0C8
:1040E0008A8319C080911E208B83198214C080910D
:1040F0001F208B8319820FC0809120208B8319820F
:104100000AC0809121208B83198205C04A8965E00D
:1041100080E092DD96C01C821D828A81882341F155
:10412000809196208B87809197208C878091982012
:104130008D87CE010396BC0180EC98E00E94E90ACD
:10414000CE010B9643E050E0BC0180EC98E00E9469
:104150006A0ACE010396BC0180EC98E00E94FE0A38
:10416000809195208E87CE010E9661E0F1DC69C0CA
:104170008981882329F1809196208F8780919720CB
:10418000888BCE010396BC0180EC98E00E94E90A7E
:10419000CE010F9642E050E0BC0180EC98E00E9416
:1041A0006A0ACE010396BC0180EC98E00E94FE0AE8
:1041B00080919520898BCE01419661E0C9DC41C098
:1041C000809196208E83809197208F8360E084E198
:1041D0000E948C17CE01069642E050E0BC0180ECB4
:1041E00098E00E946A0A61E084E10E948C17CE0187
:1041F0000396BC0180EC98E00E94FE0A60E084E136
:104200000E948C17CE01049642E050E0BC0180EC85
:1042100098E00E94A80A61E084E10E948C17CE0118
:104220000396BC0180EC98E00E94E90A80919520F9
:1042300088878C8189878D818A87CE01089663E083
:1042400087DC6296CDBFDEBFDF91CF9108952F92BC
:104250003F924F925F926F927F928F929F92AF9216
:10426000BF92CF92DF92EF92FF920F931F93CF9363
:10427000DF93CDB7DEB76597CDBFDEBFA2D2809109
:104280009620881F8827881F8170879588278795A3
:10429000909100219F77892B8093002180910021AC
:1042A0008078882351F48091F9209091FA20FC01C4
:1042B0008081682F80E58FDC6EC2209196208091EE
:1042C000F9209091FA20FC018081281709F45CC242
:1042D00080919620882F90E08072992795958795F8
:1042E00095958795959587959595879595958795B6
:1042F00089838091002185FB882780F9282F30E071
:104300008981882F90E02817390789F089818130C9
:1043100029F461E083E10E948C1709C060E083E129
:104320000E948C1780917F20816080937F208091F4
:104330009620882F90E0807199279595879595957F
:104340008795959587959595879589838091002187
:1043500082958170282F30E08981882F90E028177E
:10436000390761F08981813029F461E087E00E949A
:104370008C1704C060E087E00E948C178091962023
:10438000882F90E0887099279595879595958795C2
:104390009595879589838091002183FB882780F9F3
:1043A000282F30E08981882F90E02817390761F0A5
:1043B0008981813029F461E089E10E948C1704C071
:1043C00060E089E10E948C1780919620882F90E010
:1043D0008470992795958795959587958983809180
:1043E000002182FB882780F9282F30E08981882FDF
:1043F00090E02817390761F08981813029F461E064
:104400008CE10E948C1704C060E08CE10E948C1744
:1044100080919620882F90E08270992795958795B6
:1044200089838091002186958170282F30E08981D1
:10443000882F90E02817390761F08981813029F4AD
:1044400061E08DE10E948C1704C060E08DE10E9464
:104450008C178091962081708983809100218170D2
:10446000282F30E08981882F90E02817390761F0E4
:104470008981813029F461E088E10E948C1704C0B1
:1044800060E088E10E948C179CD18091F920909186
:10449000FA20FC018081682F80E59DDB80917F20E0
:1044A0008170882309F476C10E947A17DC01CB0160
:1044B0008C019D0140E050E0BA010E831F832887E4
:1044C00039874A875B876C877D871E811E872F818E
:1044D0002F873885388B4985498B5A855A8B6B8550
:1044E0006B8B7C857C8B8D858D8B2E853F8548895C
:1044F00059896A897B898C899D8902E078D3A22EAB
:10450000B32EC42ED52EE62EF72E082F192FAE86E9
:10451000BF86C88AD98AEA8AFB8A0C8B1D8B2E85B6
:104520003F85488959896A897B898C899D8905E0FD
:104530005ED3222E332E442E552E662E772E882EB5
:10454000992E222D332D442D552D662D772D882D16
:10455000992DAE84BF84C888D988EA88FB880C89E5
:104560001D895DD3222E332E442E552E662E772E96
:10457000882E992E222D332D442D552D662D772DE5
:10458000882D992DAE80BF80C884D984EA84FB84AD
:104590000C851D853BD3222E332E442E552E662EA0
:1045A000772E882E992E222D332D442D552D662DB4
:1045B000772D882D992D04E01AD3A22EB32EC42E68
:1045C000D52EE62EF72E082F192F2A2C3B2C4C2CFB
:1045D0005D2C6E2C7F2C802E912EA22CB32CC42C03
:1045E000D52CE62CF72C082D192D2A2D3B2D4C2DE2
:1045F0005D2D6E2D7F2D802F912F29513C4F4F4FD8
:104600005F4F6F4F7F4F8F4F9F4FA22EB32EC42E01
:10461000D52EE62EF72E082F192F2A2D3B2D4C2DA7
:104620005D2D6E2D7F2D802F912F0E941D02DC01AC
:10463000CB0120E030E84BEB55E4BC01CD010E94FA
:104640009803DC01CB01BC01CD010E946C01A22EBC
:10465000B32EC42ED52EE62EF72E082F192FD601F5
:10466000C501BC01CD010E94861788E38B831C82A3
:1046700081E08D836DE170E280EC98E00E94E90AB0
:104680006CE170E280EC98E00E94E90ACE010396AA
:1046900043E050E0BC0180EC98E00E946A0A6DE1C2
:1046A00070E280EC98E00E94FE0A6CE170E280EC1F
:1046B00098E00E94FE0A88E18B838FE78C838CEF61
:1046C0008D836CE170E280EC98E00E94E90A6DE174
:1046D00070E280EC98E00E94E90ACE01039643E084
:1046E00050E0BC0180EC98E00E946A0A6CE170E244
:1046F00080EC98E00E94FE0A6DE170E280EC98E0A8
:104700000E94FE0A89E18B836CE170E280EC98E004
:104710000E94E90ACE01039643E050E0BC0180EC20
:1047200098E00E946A0A6CE170E280EC98E00E94D6
:10473000FE0A80E88B838CE38C836AE170E280EC74
:1047400098E00E94E90A60E870E280EC98E00E943C
:10475000E90ACE01039642E050E0BC0180EC98E00B
:104760000E946A0A6AE170E280EC98E00E94FE0A08
:1047700060E870E280EC98E00E94FE0A80917F2061
:104780008E7F80937F2006C080E48A836A8180E5E3
:1047900022DA01C000006596CDBFDEBFDF91CF9168
:1047A0001F910F91FF90EF90DF90CF90BF90AF904F
:1047B0009F908F907F906F905F904F903F902F9041
:1047C0000895CF93DF93CDB7DEB780E496E0FC0188
:1047D0008481882F90E08870992795958795959585
:1047E000879595958795817081708295880F807ED9
:1047F000909100219F7D892B8093002180E096E09D
:10480000FC018481881F8827881F817081708295B0
:10481000807F909100219F7E892B8093002180E6EC
:1048200096E0FC018481882F90E08270992795950D
:10483000879581708170880F880F880F9091002173
:10484000977F892B8093002180E696E0FC0184818C
:10485000882F90E0807199279595879595958795F4
:10486000959587959595879581708170880F880FAC
:10487000909100219B7F892B8093002180E696E018
:10488000FC018481882F90E0807299279595879507
:104890009595879595958795959587959595879500
:1048A00081708170880F909100219D7F892B80936A
:1048B000002180E696E0FC018481817081709091F6
:1048C00000219E7F892B80930021DF91CF91089555
:1048D000CF93DF9300D0CDB7DEB708EB009340064F
:1048E000009344060FEF19E50093000610930406A9
:1048F00000E000932006009324060BE310E00093F1
:104900006006109364060BE012E00093800610939B
:10491000840600E00093E0070093E40782E00E9431
:10492000031782E00E94291761E080E490E00E9472
:10493000130B81E00E94E8160E94E21780EC98E0D9
:1049400027E5FC0120830E94580B80E490E02DE0D5
:10495000FC01238380E098E00E94D51180E498E078
:104960000E94D51180E099E00E94D51180E499E081
:104970000E94D51180E09AE00E94D51163E07BE1AE
:1049800080E498E00E9442126FE07BE180E499E0CD
:104990000E9442126BE17BE180E09AE00E944212A9
:1049A00060E070E080E098E00E94301860E070E025
:1049B00080E498E00E94301860E070E080E099E0C8
:1049C0000E94301860E070E080E499E00E943018A6
:1049D00060E070E080E09AE00E94301860E070E0F3
:1049E00080E098E00E94EE1763E070E080E498E0D9
:1049F0000E94EE1760E070E080E099E00E94EE1700
:104A000063E070E080E499E00E94EE1763E070E0FC
:104A100080E09AE00E94EE1768E070E280EA99E098
:104A20000E94851462E070E080EA99E00E944D18CF
:104A300061E170E280EA99E00E94851462E070E032
:104A400080EA99E00E944D1880E496E021E0FC01A4
:104A5000208B80E496E021E0FC01218B80E496E04D
:104A600021E0FC01228B60E670E080E0ACDA62E0DD
:104A700070E080E0CADA60EC70E081E0A4DA60E027
:104A800070E081E0C2DA61E670E082E09CDA62E028
:104A900070E082E0BADA60ED70E083E094DA60E022
:104AA00070E083E0B2DA62E670E084E08CDA62E023
:104AB00070E084E0AADA80E091E28093F92090939C
:104AC000FA207FDE81E0809307207894F89480912B
:104AD0007F208072882369F119821A820FC08A812F
:104AE000882F90E08B569F4DFC0180819981F92F92
:104AF000F81B8F2F89838A818F5F8A838091602042
:104B00009A81981760F3809166209981981749F4EB
:104B100078940E94271B80917F208F7D80937F2037
:104B200029C086E080936320109261201092622059
:104B300021C080916120909162200097D9F08091EE
:104B40006120909162200196809361209093622071
:104B50002091612030916220809105209091062063
:104B60002817390738F0109261201092622083E0F4
:104B7000809363207894F89480910720843021F00A
:104B800080910720833049F480E094E0FC0180812B
:104B9000882319F482E080930720789497CFA1E2CC
:104BA0001A2EAA1BBB1BFD010DC0AA1FBB1FEE1FA7
:104BB000FF1FA217B307E407F50720F0A21BB30BF2
:104BC000E40BF50B661F771F881F991F1A9469F76E
:104BD00060957095809590959B01AC01BD01CF01CA
:104BE0000895EE0FFF1F0590F491E02D09940F93A7
:104BF0000F7351F0220F331F441F551F661F771F7D
:104C0000881F991F0A95B1F70F9108952A0D3B1D32
:104C10004C1D5D1D6E1D7F1D801F911F08952A195B
:104C20003B094C095D096E097F09800B910B0895C2
:104C300006D084FF0895CB0102D0805F0895AA2793
:104C4000992329F4A85F982B11F480E108959031FD
:104C500018F4AD5F9295A395990FE8F78A2F9927DD
:104C600008952F923F924F925F926F927F928F9210
:104C70009F92AF92BF92CF92DF92EF92FF920F93EB
:104C80001F93CF93DF93CDB7DEB7CA1BDB0BCDBF2E
:104C9000DEBF09942A88398848885F846E847D84C1
:104CA0008C849B84AA84B984C884DF80EE80FD80D4
:104CB0000C811B81AA81B981CE0FD11DCDBFDEBF72
:104CC000ED0108950F930F7351F0969587957795A1
:104CD000679557954795379527950A95B1F70F91A1
:104CE00008952A153B054C055D056E057F05800777
:084CF00091070895F894FFCF2D
:104CF8005E312D3301FFFF0100F4010003000000C5
:104D08000100F4010003000000010621030401056D
:0A4D1800200200000000000000006F
:00000001FF
