S0180000586D65676133324134555F426F6172642E73726563A4
S11300004DC1000068C1000066C1000064C1000069
S113001062C1000060C100005EC100005CC100005C
S11300205AC1000058C100000C94EE180C947B0BCC
S113003052C1000050C100000C94590C0C948F0C58
S11300400C94C50C0C94FB0C0C94310D0C94670DA2
S11300500C949D0D0C94D30D0C94090E0C943F0E2E
S11300603AC1000038C1000036C1000034C10000AC
S113007032C1000030C100002EC100002CC10000BC
S11300802AC1000028C1000026C1000024C10000CC
S113009022C1000020C100001EC100001CC10000DC
S11300A01AC1000018C1000016C1000014C10000EC
S11300B012C1000010C100000EC100000C94911088
S11300C00C94C7100C94FD100C9433110C9469110A
S11300D00C949F1100C10000FEC00000FCC0000091
S11300E0FAC00000F8C000000C94CE18F4C0000060
S11300F0F2C00000F0C00000EEC00000ECC0000040
S1130100EAC00000E8C00000E6C00000E4C000004F
S1130110E2C00000E0C00000DEC00000DCC000005F
S1130120DAC00000D8C00000D6C00000D4C000006F
S1130130D2C000000C94750E0C94AB0E0C94E10E1E
S11301400C94170F0C944D0F0C94830F0C94B90F4F
S11301500C94EF0F0C9425100C945B10BCC00000A1
S11301600C946C18B8C00000B6C00000B4C0000005
S1130170B2C00000B0C00000AEC00000ACC00000BF
S1130180AAC00000A8C00000A6C00000A4C00000CF
S1130190A2C00000A0C000009EC000009CC00000DF
S11301A09AC0000098C0000096C0000094C00000EF
S11301B092C0000090C000008EC000008CC00000FF
S11301C08AC0000088C0000086C0000084C000000F
S11301D082C0000080C000007EC000007CC000001F
S11301E07AC0000078C0000076C0000074C000002F
S11301F072C0000070C000006EC00000D419DA198B
S1130200D219E219151A151A151AE619151A151A1A
S1130210E419151A151A151A151A151A151A151A94
S1130220151AC519151A151A151A151A151A151AA3
S1130230151A151A151ADC19E019DE19151A151AEA
S1130240151A151A151A151A151AEC19EF19F819A1
S1130250FB19151A151A151A151A151AF219F51982
S1130260151A151A151A151A151A151A151A151A12
S1130270151AFE19151A151A151A011A041A071A4D
S11302800A1A0D1A151A101A151A151A151A151A0A
S1130290151A151A151A151A151A131A11241FBE30
S11302A0CFEFDFE2DEBFCDBF10E2A0E0B0E2E2E8D4
S11302B0F7E402C005900D92AA32B107D9F721E202
S11302C0AAE2B0E201C01D92A735B207E1F70E948D
S11302D089210C94BF2394CEA0E0B0E0E2E7F1E0E2
S11302E00C9476236B017C0120E030E040E85FE36E
S11302F0EBD287FD80C020E030E040E85FE4C70136
S1130300B601E2D287FF09C0C701B601D9D34B01B8
S11303105C01C12CD12C760187C020E030E040E89C
S11303205FE5C701B601D0D287FF6EC020E030E0A0
S113033040E85FE2C701B60119D18B01D82FC92F5C
S113034095E0292E312C20E1C22ED12CE12CF12C68
S1130350812C912C540161E070E080E090E00C2C41
S113036004C0660F771F881F991F0A94D2F733D3EE
S11303702B013C01762F272F352D462D572DFE01BD
S1130380602F712F8F2F9C2F73D287FD11C08C2863
S11303909D28AE28BF28242D352D462D572DFE012E
S11303A0602F712F8F2F9C2FC3D18B01D82FC92F72
S11303B0F694E794D794C79481E0281A310859F643
S11303C020E030E040E85FE4FE01602F712F8F2FC2
S11303D09C2FCCD075D3DC01CB019C01AD0160E036
S11303E070E080E090E0082D0E943C2349015A010E
S11303F06B017C0119C0812C912CA12CB12CC12C36
S1130400D12CE12CF12C10C088248A9499249A943C
S1130410AA24AA94BB24BA94CC24CA94DD24DA94E2
S1130420EE24EA94FF24FA949401A501B601C701CD
S1130430CDB7DEB7E2E10C948F232F923F924F9217
S11304405F926F927F928F929F92AF92BF92CF9260
S1130450DF92EF92FF920F931F93CF9319012A011A
S11304603B014C0160E070E080E090E051016201EA
S1130470730184010E94B62321F4B101C201ABD2FD
S113048063C09101A201B301C40100E20E94A72349
S1130490B901CA010E945D23AA2797FDA095BA2F2E
S11304A020E2C22ED12CE12CF12CC81AD90AEA0A76
S11304B0FB0ACC2D9101A201B301C4010C2D0E94B1
S11304C0A72360E270E06C197D0904C0220C331C80
S11304D0441C551C6A95D2F7622F2328242825280A
S11304E009F401C06160732FCA0175D23B014C014C
S11304F080E2C816D104E104F104A1F09FE1C91619
S1130500D104E104F10491F061E070E080E090E056
S113051004C0660F771F881F991FCA95D2F700D2AF
S1130520272F08C060E020E080E803C060E020E0FE
S113053080E09FE4F22F262F3F2F482F592F662D5E
S1130540772D882D992D12D0CF911F910F91FF9067
S1130550EF90DF90CF90BF90AF909F908F907F905F
S11305606F905F904F903F902F900895A0E2B0E07D
S1130570ECEBF2E00C9478236D8F7E8F8F8F98A331
S1130580298F3A8F4B8F5C8FBE016F5E7F4FCE01F8
S11305904D9689D3BE01675F7F4FCE01499683D3C1
S11305A09989923008F412C08985823008F41AC0FF
S11305B0943021F4823009F4B4C008C0843021F4AA
S11305C0923009F4AEC00EC0923051F481E02A8911
S11305D09A85291301C080E08A8BCE014196A3C07D
S11305E0823051F481E02A899A85291301C080E080
S11305F08A87CE01099697C08D889E88AF88B88C6B
S11306000D851E852F853889E0E2F0E080E090E0DA
S1130610DC01C12CD12C760140E050E0BA0180FE0F
S113062018C0400F511F621F731F8C0D9D1DAE1DFE
S1130630BF1D412C512C32014394401751076207CE
S1130640730718F0412C512C3201840D951DA61D01
S1130650B71DCC0CDD1CEE1CFF1C37FF02C06894D8
S1130660C0F8000F111F221F331FB694A79497944C
S113067087943197A1F62B893C89EB85FC852E0F55
S11306803F1F2E5F3F4F2B833C8321E0EA893A854D
S1130690E31301C020E02A83EB81FC810CC080FFBE
S11306A005C076956795579547957068B695A79553
S11306B0979587953196B7FDF2CF9F010CC0880FAF
S11306C0991FAA1FBB1F77FD8160440F551F661F2A
S11306D0771F215031090097A105E0E4BE0778F3A4
S11306E02B833C838C019D010F771127222733270D
S11306F0003411052105310559F487FD09C0452B46
S1130700462B472B29F0805C9F4FAF4FBF4F80781B
S11307108D839E83AF83B88783E08983CE0101965E
S113072002C081E290E2F5D1A096E0E10C9491231D
S1130730A8E1B0E0EEE9F3E00C9480236D8B7E8BAE
S11307408F8B988F298B3A8B4B8B5C8BBE01675FA9
S11307507F4FCE014596A7D2BE016F5F7F4FCE017A
S11307604196A1D29985923008F475C0898182306E
S113077008F474C02A853A8123272A87943011F01B
S1130780923019F4981367C06CC0843039F41D8614
S11307901E861F86188A1B861C8604C0823029F494
S11307A084E08987CE0109965EC08B859C852B8168
S11307B03C81821B930B8B879C874D855E856F855F
S11307C07889CD80DE80EF80F8844C155D056E0558
S11307D07F0538F4440F551F661F771F01978B87D9
S11307E09C87EFE1F0E000E010E020E030E480E0FE
S11307F090E0DC014C155D056E057F0540F0802B13
S1130800912BA22BB32B4C195D096E097F093695E8
S1130810279517950795440F551F661F771F319726
S113082049F78C019D010F771127222733270034C4
S113083011052105310559F487FD09C0452B462BC7
S1130840472B29F0805C9F4FAF4FBF4F80788D8737
S11308509E87AF87B88BCE01099605C0CE0101965D
S113086002C081E290E255D16896E8E00C949923A5
S1130870A8E1B0E0EEE3F4E00C9486236D8B7E8B6C
S11308808F8B988F298B3A8B4B8B5C8BBE01675F68
S11308907F4FCE01459607D2BE016F5F7F4FCE01D9
S11308A0419601D28985823050F08981823038F0B6
S11308B0BE016F5F7F4FCE01099614D401C08FEF44
S11308C06896E2E00C949F23A8E1B0E0EAE6F4E045
S11308D00C9486236D8B7E8B8F8B988F298B3A8B10
S11308E04B8B5C8BBE01675F7F4FCE014596DBD19E
S11308F0BE016F5F7F4FCE014196D5D1898582308D
S113090050F08981823038F0BE016F5F7F4FCE0195
S11309100996E8D301C081E06896E2E00C949F2335
S1130920A8E0B0E0E6E9F4E00C94842323E0298312
S11309308B019C01002737FD0395112722273327BC
S1130940402F0A83611571058105910519F482E030
S1130950898335C02EE130E02B833C83442371F03E
S113096061157105810520E8920769F100271127B7
S11309709801061B170B280B390B02C08B019C0135
S1130980C901B8010E945D230197181619062CF0BD
S11309900D831E832F83388712C0082E04C0000FD6
S11309A0111F221F331F0A94D2F70D831E832F8336
S11309B038872EE130E0281B390B2B833C83CE0192
S11309C00196A7D004C060E070E080E09FEC289618
S11309D0E4E00C949D23A8E0B0E0E1EFF4E00C9493
S11309E080238B019C011A82611571058105910593
S11309F019F482E089835DC083E089834EE150E08D
S1130A004B835C83C901B8010E945D23019797FF62
S1130A1039C0EE27FF27E81BF90B41E050E060E006
S1130A2070E00E2E04C0440F551F661F771F0A94F2
S1130A30D2F74150510961097109402351236223BE
S1130A407323C12CD12C7601C394452B462B472B01
S1130A5019F4C12CD12C760104C03695279517952D
S1130A600795EA95D2F70C291D292E293F290D83D4
S1130A701E832F8338872EE130E0281B390B2B830C
S1130A803C8317C0009729F40D831E832F83388776
S1130A9010C0082E04C0000F111F221F331F0A9418
S1130AA0D2F70D831E832F833887481B590B4B8342
S1130AB05C83CE0101962DD02896E8E00C9499230E
S1130AC0CF92DF92EF92FF920F931F936B017C0101
S1130AD020E030E040E05FE4CBDE87FD0CC020E0A6
S1130AE030E040E05FE4C701B601D0D25CD38B01B3
S1130AF09C01305805C0C701B60155D38B019C0138
S1130B00B801C9011F910F91FF90EF90DF90CF9032
S1130B1008950F931F93CF93DF93DC0114964D91A7
S1130B205D916D917C9117971196EC9111978C9131
S1130B30823020F460618FEF90E0A6C0843009F425
S1130B409EC0823009F495C04115510561057105B7
S1130B5009F492C012962D913C91139722388FEF8D
S1130B6038070CF058C0C2E8DFEFC21BD30BCA3100
S1130B70D1056CF58A019B010C2E04C0369527958E
S1130B80179507950A94D2F781E090E0A0E0B0E0D1
S1130B900C2E04C0880F991FAA1FBB1F0A94D2F7FA
S1130BA00197A109B10984239523A623B72341E022
S1130BB050E060E070E0892B8A2B8B2B19F440E025
S1130BC050E0BA01402B512B622B732B03C040E041
S1130BD050E0BA01DB01CA018F779927AA27BB2706
S1130BE080349105A105B10539F447FF09C0405C83
S1130BF05F4F6F4F7F4F04C0415C5F4F6F4F7F4F1C
S1130C0081E090E041155105610520E4720748F543
S1130C1080E090E026C0203831058CF5DB01CA0164
S1130C208F779927AA27BB2780349105A105B105A1
S1130C3039F447FF09C0405C5F4F6F4F7F4F04C0DA
S1130C40415C5F4F6F4F7F4F77FD04C0C9018158EE
S1130C509F4F07C07695679557954795C90180586A
S1130C609F4F97E076956795579547959A95D1F755
S1130C700BC080E090E005C080E090E005C08FEFFD
S1130C8090E040E050E0BA01982F9695E0FB97F988
S1130C90362F80FB37F9642F752F832FDF91CF9187
S1130CA01F910F910895CF92DF92EF92DC01FB0127
S1130CB0CC901196DC90119712968C9112973FE785
S1130CC0E32EE8226E2DA60170E0982F991F992734
S1130CD0991F13962C91822F880F892B90E027FB64
S1130CE0222720F92183009729F541155105610533
S1130CF0710511F482E027C082E89FEF8283938319
S1130D0027E0440F551F661F771F2A95D1F783E00C
S1130D10808309C0440F551F661F771F828193810A
S1130D2001978283938341155105610580E4780717
S1130D3088F320C08F3F910579F441155105610571
S1130D40710519F484E0808319C0E4FE03C081E0D6
S1130D50808310C010820EC08F57910982839383C1
S1130D6083E0808387E0440F551F661F771F8A95B1
S1130D70D1F770644483558366837783EF90DF9063
S1130D80CF900895A4E0B0E0E8ECF6E00C9478236A
S1130D907C016A01FC018081823008F44AC1FB01B4
S1130DA09081923008F442C1843079F4943009F08F
S1130DB040C1F7019181FB018181981709F439C180
S1130DC0A1E2EA2EA0E2FA2E34C1943009F42EC135
S1130DD0923091F4823009F02CC188E0F701DA01F5
S1130DE001900D928A95E1F7FB018181F7019181D0
S1130DF08923FA0181831CC1823009F417C1F701E8
S1130E0082819381FB01A281B381F7010481158161
S1130E1026813781FB0184809580A680B780FC0100
S1130E20EA1BFB0BAF01F7FF04C0442755274E1BF9
S1130E305F0B403251050CF074C01E161F06B4F54A
S1130E4024013501042E04C0769467945794479482
S1130E500A94D2F749825A826B827C82412C512CAB
S1130E603201439404C0440C551C661C771C4A95FB
S1130E70D2F741E0441A510861087108482059200A
S1130E806A207B20812C912C540183944528462888
S1130E90472819F4812C912C540149805A806B8085
S1130EA07C8084289528A628B72846C0EF2B09F40F
S1130EB043C0840F951F28013901042E04C0769481
S1130EC06794579447940A94D2F749825A826B8262
S1130ED07C82412C512C3201439404C0440C551C97
S1130EE0661C771C4A95D2F741E0441A5108610800
S1130EF07108402251226222732201E010E020E0B6
S1130F0030E045284628472819F400E010E098010D
S1130F1049805A806B807C80042915292629372929
S1130F200BC0A817B90724F4812C912C540104C0D8
S1130F30CD0100E010E09801F7014181FB015181EE
S1130F40451709F446C0442349F024013501401AE9
S1130F50510A620A730A9301820104C0081919092B
S1130F602A093B0937FD05C0F60111828283938368
S1130F700CC041E0F6014183828393833095209530
S1130F80109501951F4F2F4F3F4F048315832683E0
S1130F9037830EC0880F991FAA1FBB1FF6018483D5
S1130FA09583A683B78382819381019782839383F8
S1130FB0F60184819581A681B781AC01BD014150C0
S1130FC05109610971094F3F5F4F6F4F7F4310F320
S1130FD00CC0F601418382839383080D191D2A1DD9
S1130FE03B1D048315832683378383E0F6018083C6
S1130FF0448155816681778177FF1AC0DB01CA017C
S113100081709927AA27BB277695679557954795A9
S1131010842B952BA62BB72B84839583A683B78328
S11310208281938101968283938302C07B0101C0F4
S11310307601C7012496E0E10C949123A0E2B0E08C
S1131040E4E2F8E00C9486236D8F7E8F8F8F98A353
S1131050298F3A8F4B8F5C8FBE016F5E7F4FCE011D
S11310604D9621DEBE01675F7F4FCE0149961BDEA0
S1131070AE014F5F5F4FBE01675F7F4FCE01419668
S113108081DE47DDA096E2E00C949F23A0E2B0E06D
S1131090ECE4F8E00C9486236D8F7E8F8F8F98A3F9
S11310A0298F3A8F4B8F5C8FBE016F5E7F4FCE01CD
S11310B04D96F9DDBE01675F7F4FCE014996F3DDA2
S11310C08A8591E089278A87AE014F5F5F4FBE0111
S11310D0675F7F4FCE01419655DE1BDDA096E2E0AF
S11310E00C949F23CF93FC01DB019081923008F490
S11310F052C08C91823008F44EC0943071F4843024
S113110039F411962C9130E08181281B310948C0B3
S11311108181882309F43FC03BC0843029F41196AF
S11311208C91811138C034C0923019F48230B9F7EF
S113113035C0823069F3C18111968C911197C8131F
S11311401DC02281338112968D919C911397821731
S113115093070CF413C0281739070CF417C0448103
S113116055816681778114968D919D910D90BC91E6
S1131170A02D84179507A607B70718F4C11108C056
S11311800AC0481759076A077B0740F4C11103C016
S11311902FEF3FEF05C021E030E002C020E030E057
S11311A0C901CF910895ACE0B0E0E9EDF8E00C940A
S11311B0842369877A878B879C87BE016F5F7F4F03
S11311C0CE01099670DD8981823091F1823080F1FF
S11311D0843041F48A81882331F100E010E020E07A
S11311E030E829C02B813C8137FD22C02F313105E5
S11311F08CF78EE190E0821B930B0D811E812F8171
S1131200388504C036952795179507958A95D2F7A2
S11312108A81882381F030952095109501951F4F80
S11312202F4F3F4F08C00FEF1FEF2FEF3FE703C0D3
S113123000E010E09801B801C9012C96E4E00C9498
S11312409D23CF93DF931F92CDB7DEB78FE390E05A
S1131250FC0180818983F89489810F90DF91CF917B
S11312600895CF93DF931F92CDB7DEB789838FE3C1
S113127090E02981FC0120830F90DF91CF910895A4
S1131280CF93DF9300D000D0CDB7DEB78A839B83A2
S11312906C83D7DF89838A819B8180599F4F2A8100
S11312A03B8120593F4FF9012081322F2C81209519
S11312B02323FC0120838981D4DF2496CDBFDEBFA4
S11312C0DF91CF910895CF93DF93CDB7DEB72A97FF
S11312D0CDBFDEBF8A878A8589831A8289818B8301
S11312E08B818C838C818695869586958D838D8163
S11312F0882F90E0880F991F82959295907F982768
S1131300807F98279A5F8E839F838A818823A9F0A0
S1131310898188878885882F90E09C0127703327EE
S113132081E090E002C0880F991F2A95E2F7282FE8
S11313308E819F81FC01258314C0898189878985D9
S1131340882F90E09C012770332781E090E002C051
S1131350880F991F2A95E2F7282F8E819F81FC011F
S113136026832A96CDBFDEBFDF91CF910895CF9318
S1131370DF93CDB7DEB72A97CDBFDEBF8A878A85D4
S1131380898381E08A8389818B838B818C838C819F
S11313908695869586958D838D81882F90E0880F1C
S11313A0991F82959295907F9827807F98279A5FBE
S11313B08E839F838A818823A9F089818887888581
S11313C0882F90E09C012770332781E090E002C0D1
S11313D0880F991F2A95E2F7282F8E819F81FC019F
S11313E0258314C0898189878985882F90E09C0191
S11313F02770332781E090E002C0880F991F2A9557
S1131400E2F7282F8E819F81FC0126832A96CDBF87
S1131410DEBFDF91CF910895CF93DF9300D01F9269
S1131420CDB7DEB789839A836B8389819A812B81B7
S1131430FC0123832396CDBFDEBFDF91CF910895B6
S1131440CF93DF9300D0CDB7DEB789839A838981A8
S11314509A81FC0183810F900F90DF91CF910895C1
S1131460CF93DF9300D0CDB7DEB789839A83898188
S11314709A81FC018281881F8827881F0F900F9012
S1131480DF91CF910895CF93DF9300D000D0CDB7F3
S1131490DEB789839A836B837C8389819A81D0DFC9
S11314A0282F8B819C81FC0120832496CDBFDEBF35
S11314B0DF91CF910895CF93DF9300D0CDB7DEB7FE
S11314C089839A8389819A81CBDF0F900F90DF9172
S11314D0CF910895CF93DF93CDB7DEB72997CDBFD2
S11314E0DEBF8C839D836E837F83488759871BC0AF
S11314F08E819F81FC0120818E819F8101968E8344
S11315009F838C819D8189839A832B8389819A818E
S11315106B8182DF00008C819D81CDDF982F81E07B
S113152089278823C1F721E088859985009709F4E4
S113153020E0888599850197888799872223C1F6B9
S113154080E090E02996CDBFDEBFDF91CF91089572
S1131550CF93DF93CDB7DEB72997CDBFDEBF8C83A2
S11315609D836E837F83488759871EC08C819D81AC
S113157089839A838FEF8B8389819A816B814CDF76
S113158000008C819D8197DF982F81E08927882333
S1131590C1F72E813F818C819D81B90174DF8E81D9
S11315A09F8101968E839F8321E08885998500978A
S11315B009F420E0888599850197888799872223F3
S11315C0A9F680E090E02996CDBFDEBFDF91CF91F0
S11315D00895CF93DF9300D000D0CDB7DEB78983D1
S11315E09A836B837C838B819C81FC0180816BDE7D
S11315F02496CDBFDEBFDF91CF910895CF93DF93C3
S113160000D000D0CDB7DEB789839A836B837C8307
S11316108B819C81FC018081AADE2496CDBFDEBF34
S1131620DF91CF9108951BBEFC0128ED24BF608398
S11316300895CF93DF931F92CDB7DEB78FE390E089
S1131640FC0180818983F89489810F90DF91CF9187
S11316500895CF93DF931F92CDB7DEB789838FE3CD
S113166090E02981FC0120830F90DF91CF910895B0
S1131670CF93DF9300D01F92CDB7DEB78A839B83CD
S1131680D8DF89838A819B8186589F4DFC018081A4
S1131690282F2F5F8A819B8186589F4DFC012083D0
S11316A08981D7DF2396CDBFDEBFDF91CF91089527
S11316B0CF93DF93CDB7DEB764E080E090E0E0DD68
S11316C080E094E02FEF3FEFFC012287338780E036
S11316D094E0FC011086118683E090E0C9DF80E08D
S11316E094E023E0FC01228380E094E0FC0110827A
S11316F0DF91CF9108951F920F9200903F000F92B7
S113170011242F933F934F935F936F937F938F9302
S11317109F93AF93BF93EF93FF93CF93DF93CDB793
S1131720DEB72897CDBFDEBF209180203091812085
S113173080918220909183202817390708F463C090
S113174080E094E023E0FC01228380918620909144
S11317508720009709F457C08091802090918120C0
S1131760CC01A0E0B0E0AC013327222780E094E074
S1131770FC0180859185CC01A0E0B0E0822B932B05
S1131780A42BB52B89839A83AB83BC83809182205D
S113179090918320CC01A0E0B0E0AC013327222754
S11317A08091842090918520CC01A0E0B0E0822B30
S11317B0932BA42BB52B8D839E83AF83B8872D8168
S11317C03E814F81588589819A81AB81BC812817DC
S11317D039074A075B0758F08D819E81AF81B88530
S11317E00196A11DB11D89839A83AB83BC8320918B
S11317F086203091872089819A81AB81BC81BC018C
S1131800CD01F90109952896CDBFDEBFDF91CF91B7
S1131810FF91EF91BF91AF919F918F917F916F91C4
S11318205F914F913F912F910F9000923F000F9045
S11318301F901895CF93DF931F92CDB7DEB78FE338
S113184090E0FC0180818983F89489810F90DF9175
S1131850CF910895CF93DF931F92CDB7DEB78983DD
S11318608FE390E02981FC0120830F90DF91CF91D9
S11318700895CF93DF9300D01F92CDB7DEB78A834C
S11318809B83D8DF89838A819B8186589F4DFC0185
S11318908081282F2F5F8A819B8186589F4DFC0170
S11318A020838981D7DF2396CDBFDEBFDF91CF911F
S11318B008951F920F9200903F000F9211242F93CE
S11318C03F934F935F936F937F938F939F93AF93C4
S11318D0BF93EF93FF93CF93DF93CDB7DEB78091A0
S11318E02A2090912B20009731F080912A2090910A
S11318F02B20FC010995DF91CF91FF91EF91BF91CE
S1131900AF919F918F917F916F915F914F913F9193
S11319102F910F9000923F000F901F9018951F92E7
S11319200F9200903F000F9211242F933F934F93F7
S11319305F936F937F938F939F93AF93BF93EF9333
S1131940FF93CF93DF93CDB7DEB780912C20909196
S11319502D20009731F080912C2090912D20FC01B6
S11319600995DF91CF91FF91EF91BF91AF919F9135
S11319708F917F916F915F914F913F912F910F9034
S113198000923F000F901F9018951F920F920090A5
S11319903F000F9211242F933F934F935F936F93C4
S11319A07F938F939F93AF93BF93EF93FF93CF93C3
S11319B0DF93CDB7DEB780912E2090912F20009732
S11319C031F080912E2090912F20FC010995DF9118
S11319D0CF91FF91EF91BF91AF919F918F917F91A3
S11319E06F915F914F913F912F910F9000923F0023
S11319F00F901F9018951F920F9200903F000F9226
S1131A0011242F933F934F935F936F937F938F93FF
S1131A109F93AF93BF93EF93FF93CF93DF93CDB790
S1131A20DEB78091302090913120009731F0809181
S1131A30302090913120FC010995DF91CF91FF91E5
S1131A40EF91BF91AF919F918F917F916F915F9132
S1131A504F913F912F910F9000923F000F901F9054
S1131A6018951F920F9200903F000F9211242F930C
S1131A703F934F935F936F937F938F939F93AF9312
S1131A80BF93EF93FF93CF93DF93CDB7DEB78091EE
S1131A90322090913320009731F080913220909140
S1131AA03320FC010995DF91CF91FF91EF91BF9114
S1131AB0AF919F918F917F916F915F914F913F91E2
S1131AC02F910F9000923F000F901F9018951F9236
S1131AD00F9200903F000F9211242F933F934F9346
S1131AE05F936F937F938F939F93AF93BF93EF9382
S1131AF0FF93CF93DF93CDB7DEB7809134209091DD
S1131B003520009731F08091342090913520FC01EC
S1131B100995DF91CF91FF91EF91BF91AF919F9183
S1131B208F917F916F915F914F913F912F910F9082
S1131B3000923F000F901F9018951F920F920090F3
S1131B403F000F9211242F933F934F935F936F9312
S1131B507F938F939F93AF93BF93EF93FF93CF9311
S1131B60DF93CDB7DEB78091362090913720009770
S1131B7031F08091362090913720FC010995DF9156
S1131B80CF91FF91EF91BF91AF919F918F917F91F1
S1131B906F915F914F913F912F910F9000923F0071
S1131BA00F901F9018951F920F9200903F000F9274
S1131BB011242F933F934F935F936F937F938F934E
S1131BC09F93AF93BF93EF93FF93CF93DF93CDB7DF
S1131BD0DEB78091382090913920009731F08091C0
S1131BE0382090913920FC010995DF91CF91FF9124
S1131BF0EF91BF91AF919F918F917F916F915F9181
S1131C004F913F912F910F9000923F000F901F90A2
S1131C1018951F920F9200903F000F9211242F935A
S1131C203F934F935F936F937F938F939F93AF9360
S1131C30BF93EF93FF93CF93DF93CDB7DEB780913C
S1131C403A2090913B20009731F080913A20909176
S1131C503B20FC010995DF91CF91FF91EF91BF915A
S1131C60AF919F918F917F916F915F914F913F9130
S1131C702F910F9000923F000F901F9018951F9284
S1131C800F9200903F000F9211242F933F934F9394
S1131C905F936F937F938F939F93AF93BF93EF93D0
S1131CA0FF93CF93DF93CDB7DEB780913C20909123
S1131CB03D20009731F080913C2090913D20FC0123
S1131CC00995DF91CF91FF91EF91BF91AF919F91D2
S1131CD08F917F916F915F914F913F912F910F90D1
S1131CE000923F000F901F9018951F920F92009042
S1131CF03F000F9211242F933F934F935F936F9361
S1131D007F938F939F93AF93BF93EF93FF93CF935F
S1131D10DF93CDB7DEB780913E2090913F200097AE
S1131D2031F080913E2090913F20FC010995DF9194
S1131D30CF91FF91EF91BF91AF919F918F917F913F
S1131D406F915F914F913F912F910F9000923F00BF
S1131D500F901F9018951F920F9200903F000F92C2
S1131D6011242F933F934F935F936F937F938F939C
S1131D709F93AF93BF93EF93FF93CF93DF93CDB72D
S1131D80DEB78091402090914120009731F08091FE
S1131D90402090914120FC010995DF91CF91FF9162
S1131DA0EF91BF91AF919F918F917F916F915F91CF
S1131DB04F913F912F910F9000923F000F901F90F1
S1131DC018951F920F9200903F000F9211242F93A9
S1131DD03F934F935F936F937F938F939F93AF93AF
S1131DE0BF93EF93FF93CF93DF93CDB7DEB780918B
S1131DF0422090914320009731F0809142209091AD
S1131E004320FC010995DF91CF91FF91EF91BF91A0
S1131E10AF919F918F917F916F915F914F913F917E
S1131E202F910F9000923F000F901F9018951F92D2
S1131E300F9200903F000F9211242F933F934F93E2
S1131E405F936F937F938F939F93AF93BF93EF931E
S1131E50FF93CF93DF93CDB7DEB780914420909169
S1131E604520009731F08091442090914520FC0159
S1131E700995DF91CF91FF91EF91BF91AF919F9120
S1131E808F917F916F915F914F913F912F910F901F
S1131E9000923F000F901F9018951F920F92009090
S1131EA03F000F9211242F933F934F935F936F93AF
S1131EB07F938F939F93AF93BF93EF93FF93CF93AE
S1131EC0DF93CDB7DEB780914620909147200097ED
S1131ED031F08091462090914720FC010995DF91D3
S1131EE0CF91FF91EF91BF91AF919F918F917F918E
S1131EF06F915F914F913F912F910F9000923F000E
S1131F000F901F9018951F920F9200903F000F9210
S1131F1011242F933F934F935F936F937F938F93EA
S1131F209F93AF93BF93EF93FF93CF93DF93CDB77B
S1131F30DEB78091482090914920009731F080913C
S1131F40482090914920FC010995DF91CF91FF91A0
S1131F50EF91BF91AF919F918F917F916F915F911D
S1131F604F913F912F910F9000923F000F901F903F
S1131F7018951F920F9200903F000F9211242F93F7
S1131F803F934F935F936F937F938F939F93AF93FD
S1131F90BF93EF93FF93CF93DF93CDB7DEB78091D9
S1131FA04A2090914B20009731F080914A209091E3
S1131FB04B20FC010995DF91CF91FF91EF91BF91E7
S1131FC0AF919F918F917F916F915F914F913F91CD
S1131FD02F910F9000923F000F901F9018951F9221
S1131FE00F9200903F000F9211242F933F934F9331
S1131FF05F936F937F938F939F93AF93BF93EF936D
S1132000FF93CF93DF93CDB7DEB780914C209091AF
S11320104D20009731F080914C2090914D20FC018F
S11320200995DF91CF91FF91EF91BF91AF919F916E
S11320308F917F916F915F914F913F912F910F906D
S113204000923F000F901F9018951F920F920090DE
S11320503F000F9211242F933F934F935F936F93FD
S11320607F938F939F93AF93BF93EF93FF93CF93FC
S1132070DF93CDB7DEB780914E2090914F2000972B
S113208031F080914E2090914F20FC010995DF9111
S1132090CF91FF91EF91BF91AF919F918F917F91DC
S11320A06F915F914F913F912F910F9000923F005C
S11320B00F901F9018951F920F9200903F000F925F
S11320C011242F933F934F935F936F937F938F9339
S11320D09F93AF93BF93EF93FF93CF93DF93CDB7CA
S11320E0DEB78091502090915120009731F080917B
S11320F0502090915120FC010995DF91CF91FF91DF
S1132100EF91BF91AF919F918F917F916F915F916B
S11321104F913F912F910F9000923F000F901F908D
S113212018951F920F9200903F000F9211242F9345
S11321303F934F935F936F937F938F939F93AF934B
S1132140BF93EF93FF93CF93DF93CDB7DEB7809127
S1132150522090915320009731F080915220909119
S11321605320FC010995DF91CF91FF91EF91BF912D
S1132170AF919F918F917F916F915F914F913F911B
S11321802F910F9000923F000F901F9018951F926F
S11321900F9200903F000F9211242F933F934F937F
S11321A05F936F937F938F939F93AF93BF93EF93BB
S11321B0FF93CF93DF93CDB7DEB7809154209091F6
S11321C05520009731F08091542090915520FC01C6
S11321D00995DF91CF91FF91EF91BF91AF919F91BD
S11321E08F917F916F915F914F913F912F910F90BC
S11321F000923F000F901F9018951F920F9200902D
S11322003F000F9211242F933F934F935F936F934B
S11322107F938F939F93AF93BF93EF93FF93CF934A
S1132220DF93CDB7DEB78091562090915720009769
S113223031F08091562090915720FC010995DF914F
S1132240CF91FF91EF91BF91AF919F918F917F912A
S11322506F915F914F913F912F910F9000923F00AA
S11322600F901F9018951F920F9200903F000F92AD
S113227011242F933F934F935F936F937F938F9387
S11322809F93AF93BF93EF93FF93CF93DF93CDB718
S1132290DEB78091582090915920009731F08091B9
S11322A0582090915920FC010995DF91CF91FF911D
S11322B0EF91BF91AF919F918F917F916F915F91BA
S11322C04F913F912F910F9000923F000F901F90DC
S11322D018951F920F9200903F000F9211242F9394
S11322E03F934F935F936F937F938F939F93AF939A
S11322F0BF93EF93FF93CF93DF93CDB7DEB7809176
S11323005A2090915B20009731F080915A2090914F
S11323105B20FC010995DF91CF91FF91EF91BF9173
S1132320AF919F918F917F916F915F914F913F9169
S11323302F910F9000923F000F901F9018951F92BD
S11323400F9200903F000F9211242F933F934F93CD
S11323505F936F937F938F939F93AF93BF93EF9309
S1132360FF93CF93DF93CDB7DEB780915C2090913C
S11323705D20009731F080915C2090915D20FC01FC
S11323800995DF91CF91FF91EF91BF91AF919F910B
S11323908F917F916F915F914F913F912F910F900A
S11323A000923F000F901F901895CF93DF9300D0B9
S11323B01F92CDB7DEB78A839B833CDA89838A81F7
S11323C09B81811528E0920759F461E083E090E055
S11323D00E94400964E083E090E00E94400947C005
S11323E08A819B81803428E0920759F462E083E07B
S11323F090E00E94400964E083E090E00E9440097C
S113240036C08A819B81811529E0920759F461E0E5
S113241084E090E00E94400964E084E090E00E943F
S1132420400925C08A819B81803429E0920759F4B0
S113243062E084E090E00E94400964E084E090E07F
S11324400E94400914C08A819B8181152AE0920769
S113245059F461E085E090E00E94400964E085E081
S113246090E00E94400903C08981F4D905C081E04D
S113247090E0FFD98981EED92396CDBFDEBFDF91ED
S1132480CF910895CF93DF9300D000D0CDB7DEB7BE
S113249089839A836B837C8389819A81811528E05F
S11324A0920739F48B819C8180932A2090932B206E
S11324B033C089819A81803428E0920739F48B8172
S11324C09C81809336209093372026C089819A81FD
S11324D0811529E0920739F48B819C8180933E20F9
S11324E090933F2019C089819A81803429E0920712
S11324F039F48B819C8180934A2090934B200CC0AB
S113250089819A8181152AE0920731F48B819C811B
S113251080935220909353202496CDBFDEBFDF9149
S1132520CF910895CF93DF9300D0CDB7DEB78983E1
S11325309A8389819A81FC018481282F2061898171
S11325409A81FC0124830F900F90DF91CF9108951D
S1132550CF93DF93CDB7DEB72797CDBFDEBF898397
S11325609A836B837C834D835E832F839B818D81D0
S1132570982B8F81882311F088E001C080E0292FF7
S1132580282B89819A81FC0125832796CDBFDEBF44
S1132590DF91CF910895CF93DF9300D0CDB7DEB70D
S11325A089839A8389819A81FC018481282F2860F8
S11325B089819A81FC0124830F900F90DF91CF9140
S11325C00895CF93DF9300D000D0CDB7DEB78983D1
S11325D09A836B837C8389819A81FC018581982FFE
S11325E09F738B81292F282B89819A81FC01258354
S11325F02496CDBFDEBFDF91CF910895CF93DF93B3
S113260000D0CDB7DEB789839A8389819A81FC0192
S11326108181882F90E08072992721E0009709F446
S113262020E0822F0F900F90DF91CF910895CF93E8
S1132630DF93CDB7DEB780E098E4A8EEB1E0BC014B
S1132640CD01DF91CF910895CF93DF931F92CDB742
S1132650DEB71982ECDFDC01CB012981222F30E0C7
S1132660022E04C0B695A795979587950A94D2F73C
S1132670BC01CD010F90DF91CF910895CF93DF93EB
S1132680CDB7DEB7E1DFDC01CB01BC01CD01DF91C9
S1132690CF910895CF93DF93CDB7DEB7EFDFDC01A1
S11326A0CB01BC01CD01DF91CF910895CF93DF938E
S11326B000D0CDB7DEB789839A8389819A81009748
S11326C009F41EC189819A81803C910531F460E14D
S11326D080E090E00E94400913C189819A818115AC
S11326E024E0920731F464E080E090E00E94400925
S11326F007C189819A81803821E0920731F462E030
S113270080E090E00E944009FBC089819A81811594
S113271021E0920731F461E080E090E00E944009FA
S1132720EFC089819A81803823E0920731F461E017
S113273081E090E00E944009E3C089819A8181157B
S113274022E0920731F462E081E090E00E944009C7
S1132750D7C089819A81803223E0920731F464E002
S113276082E090E00E944009CBC089819A81811562
S113277028E0920731F461E083E090E00E94400990
S1132780BFC089819A81811529E0920731F461E003
S113279084E090E00E944009B3C089819A81811548
S11327A02AE0920731F461E085E090E00E9440095C
S11327B0A7C089819A81803428E0920731F462E0CD
S11327C083E090E00E9440099BC089819A81803413
S11327D029E0920731F462E084E090E00E9440092D
S11327E08FC089819A81803928E0920731F464E0AE
S11327F083E090E00E94400983C089819A818039F6
S113280029E0920731F464E084E090E00E944009FA
S113281077C089819A8180392AE0920731F464E093
S113282085E090E00E9440096BC089819A81803CD8
S113283028E0920731F468E083E090E00E944009C8
S11328405FC089819A81803C29E0920731F468E075
S113285084E090E00E94400953C089819A81803AC3
S113286028E0920731F460E183E090E00E9440099F
S113287047C089819A81803A29E0920731F460E166
S113288084E090E00E9440093BC089819A81803AAB
S11328902AE0920731F460E185E090E00E9440096B
S11328A02FC089819A81803B28E0920731F460E24D
S11328B083E090E00E94400923C089819A81803B93
S11328C029E0920731F460E284E090E00E9440093C
S11328D017C089819A81803824E0920731F460E43A
S11328E083E090E00E9440090BC089819A81803A7C
S11328F024E0920729F460E485E090E00E94400916
S11329000F900F90DF91CF9108950F931F93CF9362
S1132910DF93CDB7DEB72597CDBFDEBF8A839B8318
S11329206C837D838A819B81C1DE8A819B8160E087
S113293070E047DE8C819D81FC0120858C819D8126
S1132940FC01468157818C819D81FC0164817581E4
S11329508A819B81FDDD9EDE9B01AC018C819D8182
S1132960FC0180819181A281B381EA81FB8189018B
S11329709A01AC01BD01CF012FD089838A819B814B
S11329800ADE8A819B81CEDD89812596CDBFDEBF9B
S1132990DF91CF911F910F910895CF93DF9300D0D2
S11329A01F92CDB7DEB789839A836B830000898138
S11329B09A8124DE982F81E089278823C1F78981B1
S11329C09A812B81FC01208380E090E02396CDBF87
S11329D0DEBFDF91CF910895EF92FF920F931F9383
S11329E0CF93DF93CDB7DEB76F97CDBFDEBF8E8BAE
S11329F09F8B488F598F6A8F7B8F0C8F1D8F2E8FE3
S1132A003F8F8C8D9D8DAE8DBF8D689412F8B695D9
S1132A10A795979587951694D1F78E879F87A88B4E
S1132A20B98B8C8D9D8DAE8DBF8D072E76E1B695BD
S1132A30A795979587957A95D1F7702D8A879B8767
S1132A40AC87BD878E899F89FC018481882F90E0A3
S1132A50847099270097C1F48E859F85A889B989C8
S1132A60B695A795979587958E879F87A88BB98BE1
S1132A708A859B85AC85BD85B695A79597958795E1
S1132A808A879B87AC87BD87288D398D4A8D5B8D5E
S1132A908E859F85A889B98982179307A407B507EE
S1132AA068F0288D398D4A8D5B8D8A859B85AC8530
S1132AB0BD85281739074A075B0710F480E03CC13D
S1132AC08E899F89FC018481882F90E084709927E6
S1132AD0009761F4888D998DAA8DBB8D880F991FFD
S1132AE0AA1FBB1F888F998FAA8FBB8F8FEF90E08F
S1132AF0A0E0B0E08E839F83A887B9878C8D9D8DDD
S1132B00AE8DBF8D288D398D4A8D5B8DBC01CD0175
S1132B100E9414232A8B3B8B4C8B5D8B89EF89831A
S1132B2028C02A893B894C895D898E819F81A8852B
S1132B30B985281739074A075B07F8F08E819F810A
S1132B40A885B985880F991FAA1FBB1F8E839F83F1
S1132B50A887B98789818D3F4CF48E819F81A88590
S1132B60B98581608E839F83A887B98789818F5FA8
S1132B70898389818730ACF201C000008981882370
S1132B800CF088C0888D998DAA8DBB8D880F991FF4
S1132B90AA1FBB1F880F991FAA1FBB1F880F991F4D
S1132BA0AA1FBB1F2C8D3D8D4E8D5F8D79018A012F
S1132BB0E81AF90A0A0B1B0BD801C7018C8F9D8FE9
S1132BC0AE8FBF8F89818E3F84F58981992787FDD8
S1132BD090952DEF3FEF281B390B8C8D9D8DAE8D7D
S1132BE0BF8D7C018D0104C0EE0CFF1C001F111F62
S1132BF02A95D2F7A8019701888D998DAA8DBB8D4E
S1132C00B695A79597958795820F931FA41FB51F17
S1132C10288D398D4A8D5B8DBC01CD010E94142312
S1132C202A833B834C835D836EC08981992787FD0A
S1132C3090959C012D5F3F4F888D998DAA8DBB8DFA
S1132C4004C0880F991FAA1FBB1F2A95D2F7888F2B
S1132C50998FAA8FBB8F888D998DAA8DBB8D9C016E
S1132C60AD0156954795379527958C8D9D8DAE8DE5
S1132C70BF8D820F931FA41FB51F288D398D4A8DD8
S1132C805B8DBC01CD010E9414232A833B834C83BA
S1132C905D8339C08981992787FD90959C012D5FBB
S1132CA03F4F888D998DAA8DBB8D04C0880F991FC5
S1132CB0AA1FBB1F2A95D2F7888F998FAA8FBB8F23
S1132CC0888D998DAA8DBB8D9C01AD015695479534
S1132CD0379527958C8D9D8DAE8DBF8D820F931F5B
S1132CE0A41FB51F288D398D4A8D5B8DBC01CD0184
S1132CF00E941423DA01C9010197A109B1098A8349
S1132D009B83AC83BD838A819B81AC81BD81892FE8
S1132D109A2FAB2FBB27982F9F7089818295807F34
S1132D20292F282B8E899F89FC0127832A818E894C
S1132D309F89FC01268381E06F96CDBFDEBFDF91C2
S1132D40CF911F910F91FF90EF900895CF93DF9350
S1132D501F92CDB7DEB78FE390E0FC0180818983B9
S1132D60F89489810F90DF91CF910895CF93DF93E9
S1132D701F92CDB7DEB789838FE390E02981FC01F0
S1132D8020830F90DF91CF910895CF93DF9300D0EC
S1132D90CDB7DEB78A83DADF898380E590E020E56A
S1132DA030E0F90130812A81232BFC0120838981C1
S1132DB0DDDF0F900F90DF91CF910895CF93DF93D4
S1132DC01F92CDB7DEB789830F90DF91CF9108951D
S1132DD0CF93DF9300D0CDB7DEB78A83B7DF898383
S1132DE080E590E020E530E0F9012081322F2A814E
S1132DF020952323FC0120838981B8DF0F900F9055
S1132E00DF91CF910895CF93DF931F92CDB7DEB7B3
S1132E1089838981883019F08981B7DF02C089816B
S1132E20CDDF0F90DF91CF910895CF93DF931F9261
S1132E30CDB7DEB7898380E590E0FC01918189817B
S1132E40982381E0992309F480E00F90DF91CF91DA
S1132E500895CF93DF931F92CDB7DEB78983000027
S1132E608981E3DF982F81E089278823C9F70F90B0
S1132E70DF91CF910895CF93DF93CDB7DEB780E094
S1132E8098E4A8EEB1E0BC01CD01DF91CF910895A3
S1132E90CF93DF931F92CDB7DEB71982ECDFDC014D
S1132EA0CB012981222F30E0022E04C0B695A795CC
S1132EB0979587950A94D2F7BC01CD010F90DF91C5
S1132EC0CF910895CF93DF93CDB7DEB7E1DFDC0177
S1132ED0CB01BC01CD01DF91CF910895CF93DF9356
S1132EE0CDB7DEB7EFDFDC01CB01BC01CD01DF9153
S1132EF0CF910895CF93DF93CDB7DEB7EFDFDC0139
S1132F00CB01BC01CD01DF91CF91089561507109CE
S1132F1081099109D9F70895CF93DF93CDB7DEB72F
S1132F202B97CDBFDEBF8A876B878A8589838B8584
S1132F308A8389818B838B818C838C81869586950A
S1132F4086958D838D81882F90E0880F991F8295B7
S1132F509295907F9827807F98279A5F8E839F838E
S1132F608A818823A9F0898188878885882F90E0C1
S1132F709C012770332781E090E002C0880F991FDD
S1132F802A95E2F7282F8E819F81FC01258314C0A6
S1132F90898189878985882F90E09C012770332750
S1132FA081E090E002C0880F991F2A95E2F7282F4C
S1132FB08E819F81FC0126832B96CDBFDEBFDF91DE
S1132FC0CF910895CF93DF93CDB7DEB780EA90E039
S1132FD027E0FC012283DF91CF910895CF93DF9303
S1132FE000D000D0CDB7DEB789839A836B837C830E
S1132FF089819A81FC018681282F2C7F89819A817D
S1133000FC01268389819A81FC0196818B81292F79
S1133010282B89819A81FC0126832496CDBFDEBFAB
S1133020DF91CF910895CF93DF9300D000D0CDB737
S1133030DEB789839A836B837C8389819A81FC01BF
S11330408081982F907F8B81292F282B89819A81C9
S1133050FC0120832496CDBFDEBFDF91CF9108957C
S1133060CF93DF9300D000D0CDB7DEB789839A83A6
S11330706B837C8389819A81FC018181982F987F5D
S11330808B81292F282B89819A81FC012183249605
S1133090CDBFDEBFDF91CF910895CF93DF9300D0F2
S11330A000D0CDB7DEB789839A836B837C83898113
S11330B09A81FC018381982F9F7C8B818295807FEC
S11330C0292F282B89819A81FC0123832496CDBF43
S11330D0DEBFDF91CF9108951F920F9200903F00C1
S11330E00F9211242F938F939F93EF93FF93CF937A
S11330F0DF93CDB7DEB7F89480EA99E0FC018081D4
S11331008093642080916120909162200097F9F06F
S113311081E090E080936120909362208091602010
S1133120882F90E02091642080519F4DFC012083E2
S1133130809160208F5F8093602010926320809143
S113314064208D30E9F481E08093632019C080917C
S113315064208A33A9F4809177208270882359F4FB
S113316081E090E08093612090936220109260202F
S11331701092632005C08091782088608093782025
S11331807894DF91CF91FF91EF919F918F912F913F
S11331900F9000923F000F901F9018951F920F926E
S11331A000903F000F9211248F939F93EF93FF930E
S11331B0CF93DF93CDB7DEB780EA99E0FC0180813D
S11331C080936620DF91CF91FF91EF919F918F9132
S11331D00F9000923F000F901F9018951F920F922E
S11331E000903F000F9211242F933F934F935F93CE
S11331F06F937F938F939F93AF93BF93EF93FF93BB
S1133200CF93DF93CDB7DEB7F89400E000930008C6
S1133210009300090093000A0093400800934009BA
S1133220000080E094E0FC0181818823D1F780E0F4
S113323094E0FC01108280E498E0FC0180A191A15B
S1133240CC01A0E0B0E0AC013327222780E098E075
S1133250FC0180A191A1CC01A0E0B0E0820F931FFA
S1133260A41FB51F8093682090936920A0936A20BF
S1133270B0936B2080E499E0FC0180A191A1CC0182
S1133280A0E0B0E0AC013327222780E099E0FC0104
S113329080A191A1CC01A0E0B0E0820F931FA41FF4
S11332A0B51F80936D2090936E20A0936F20B093F0
S11332B0702080E09AE0FC0180A191A1CC01A0E003
S11332C0B0E08093722090937320A0937420B09305
S11332D075201092672080916720482F61E08EEF5F
S11332E00CD17894DF91CF91FF91EF91BF91AF9181
S11332F09F918F917F916F915F914F913F912F910A
S11333000F9000923F000F901F901895CF93DF937A
S1133310CDB7DEB780916C208F5F80936C20DF91F6
S1133320CF910895CF93DF93CDB7DEB7809171200D
S11333308F5F80937120DF91CF910895CF93DF93B6
S1133340CDB7DEB7809176208F5F80937620DF91B2
S1133350CF910895CF93DF93CDB7DEB78091F0205E
S1133360882F90E0AA2797FDA095BA2F41E050E05E
S11333702FE430E0841B950B2817390708F455C057
S113338082509F4FFC010C9436238091EE20909143
S1133390EF20FC01908180915F20492F682F84E108
S11333A0ACD049C009D147C080910020682F81E08A
S11333B07DD041C037D13FC08CD13DC01DD23BC070
S11333C0B3D239C071D137C012D335C080915E20D9
S11333D0682F88E06BD02FC081E054D32CC082E0EA
S11333E051D329C083E04ED326C083E04BD323C0FE
S11333F084E048D320C085E045D31DC086E042D395
S11334001AC087E03FD317C087E03CD314C087E0DD
S113341039D311C088E036D30EC088E033D30BC053
S113342089E030D308C02AD406C08091F020482F08
S113343061E08FEF62D0DF91CF910895CF93DF9356
S113344000D000D0CDB7DEB78A839B836C836AE358
S113345080EA99E0A2DA198210C08981882F90E06D
S11334602A813B81820F931FFC018081682F80EAAF
S113347099E093DA89818F5F898399818C81981788
S113348060F38C81282F2F5F8A819B81622F65D006
S1133490682F80EA99E081DA6DE080EA99E07DDACC
S11334A02496CDBFDEBFDF91CF910895CF93DF93F4
S11334B000D0CDB7DEB789836A836AE380EA99E0F6
S11334C06CDA698180EA99E068DA6A8180EA99E0D5
S11334D064DA8981982F91958A81292F281B822F5C
S11334E0682F80EA99E059DA6DE080EA99E055DACC
S11334F00F900F90DF91CF910895CF93DF9300D079
S11335001F92CDB7DEB789836A834B836AE380EA6F
S113351099E043DA698180EA99E03FDA6A8180EAD6
S113352099E03BDA6B8180EA99E037DA8981982F58
S113353091958A81981B8B81292F281B822F682FB4
S113354080EA99E02ADA6DE080EA99E026DA2396A7
S1133550CDBFDEBFDF91CF910895CF93DF93CDB779
S1133560DEB72597CDBFDEBF8B839C836D83198225
S11335701A8211C08A81882F90E02B813C81820FAE
S1133580931FFC0180819981F92FF81B8F2F898368
S11335908A818F5F8A838A81282F30E08D81882FEA
S11335A090E00197281739072CF389812596CDBF20
S11335B0DEBFDF91CF910895CF93DF93CDB7DEB710
S11335C02997CDBFDEBF96DCDC01CB0189839A83CA
S11335D0AB83BC8383E08D8389818E8389819A81C7
S11335E0AB81BC81892F9A2FAB2FBB278F83898115
S11335F09A81AB81BC81CD01AA27BB2788878981A9
S11336009A81AB81BC818B2F9927AA27BB278987F5
S1133610CE01059665E012DF2996CDBFDEBFDF91AE
S1133620CF910895CF93DF93CDB7DEB72597CDBF64
S1133630DEBF82E089838091012090910220A091D5
S11336400320B09104208A8380910120909102206C
S1133650A0910320B0910420892F9A2FAB2FBB2770
S11336608B838091012090910220A0910320B0913E
S11336700420CD01AA27BB278C838091012090913F
S11336800220A0910320B09104208B2F9927AA2710
S1133690BB278D8365E0CE010196D0DE2596CDBF94
S11336A0DEBFDF91CF910895CF93DF931F92CDB703
S11336B0DEB7F89484E0898361E0CE010196BEDE32
S11336C088E790E021E0FC0121830F90DF91CF9106
S11336D00895CF93DF93CDB7DEB7F8948091672038
S11336E0823009F480C0000080E094E0FC01818114
S11336F08823D1F780E094E02091F220222F30E05B
S1133700522F44272091F320222F30E0240F351F1D
S1133710FC0122873387109268201092692010924E
S11337206A2010926B2010926D2010926E201092DD
S11337306F201092702010927220109273201092B9
S113374074201092752010926C20109271201092A7
S11337507620000080E094E0FC0181818823D1F789
S113376080E094E0FC011086118680E098E0FC0182
S113377010A211A280E498E0FC0110A211A280E042
S113378099E0FC0110A211A280E499E0FC0110A2CE
S113379011A280E09AE0FC0110A211A2000080E0D6
S11337A094E0FC0181818823D1F708E01AE02CE041
S11337B049E05BE000930008109300092093000A9D
S11337C0409340085093400980E094E02091F12018
S11337D0FC01208380916720682F8EE167DE82E000
S11337E08093672005C080916720682F8EE15EDE9C
S11337F07894DF91CF910895CF93DF93CDB7DEB75F
S11338002F97CDBFDEBF80E28983809167208A83B2
S113381080916720882309F07DC080916C208B8380
S11338208091682090916920A0916A20B0916B20CA
S11338308B2F9927AA27BB278C838091682090918E
S11338406920A0916A20B0916B20CD01AA27BB27E3
S11338508D838091682090916920A0916A20B09115
S11338606B20892F9A2FAB2FBB278E8380916820E2
S113387090916920A0916A20B0916B208F838091F0
S11338807120888780916D2090916E20A0916F2087
S1133890B09170208B2F9927AA27BB278987809105
S11338A06D2090916E20A0916F20B0917020CD0179
S11338B0AA27BB278A8780916D2090916E20A091C2
S11338C06F20B0917020892F9A2FAB2FBB278B8745
S11338D080916D2090916E20A0916F20B091702006
S11338E08C87809176208D878091722090917320AF
S11338F0A0917420B0917520892F9A2FAB2FBB27EC
S11339008E878091722090917320A0917420B09141
S113391075208F876FE0CE01019690DD2F96CDBF85
S1133920DEBFDF91CF910895CF93DF93CDB7DEB79C
S113393080916720823009F052C0000080E094E05A
S1133940FC0181818823D1F780E094E0FC0110829E
S113395060E070E080E098E066DB60E070E080E0CA
S113396099E061DB60E070E080E09AE05CDB60E0BD
S113397070E080E498E057DB60E070E080E499E078
S113398052DB80E098E0FC0110A211A280E498E0F0
S1133990FC0110A211A280E099E0FC0110A211A286
S11339A080E499E0FC0110A211A280E09AE0FC01FD
S11339B010A211A2000080E094E0FC018181882320
S11339C0D1F780E094E0FC01108611868091672095
S11339D0682F8FE16BDD81E08093672005C08091C3
S11339E06720682F8FE162DDDF91CF910895CF9337
S11339F0DF93CDB7DEB7DF91CF910895CF93DF93F7
S1133A00CDB7DEB72597CDBFDEBF8B836C837D83B7
S1133A108B81883070F48B81882F90E080589E4F82
S1133A2089839A832C8189819A81FC01208381E096
S1133A3001C080E02596CDBFDEBFDF91CF91089510
S1133A40CF93DF93CDB7DEB72597CDBFDEBF8B8392
S1133A506C837D838B81883070F48B81882F90E018
S1133A6088579E4F89839A832C8189819A81FC018E
S1133A70208381E001C080E02596CDBFDEBFDF91C9
S1133A80CF910895CF93DF93CDB7DEB76297CDBFC3
S1133A90DEBF8A8B81E089831A821B828A89882F00
S1133AA090E08530910599F1863091058CF482304F
S1133AB09105F9F08330910524F481309105A9F042
S1133AC040C083309105C9F084309105D1F039C0EC
S1133AD08730910539F187309105FCF088309105E4
S1133AE031F18930910541F12CC0809179208B838B
S1133AF02DC0809119208B8329C080911A208B833B
S1133B0025C080911B208B8381E08A831FC0809114
S1133B101C208B8381E08A8319C080911D208B83B4
S1133B20198214C080911E208B8319820FC080914A
S1133B301F208B8319820AC0809120208B831982D5
S1133B4005C04A8962E08FEFD8DC92C01C821D82D6
S1133B508A81882341F18091F1208B878091F22022
S1133B608C878091F3208D87CE010396BC0180EC75
S1133B7098E00E94E90ACE010B9643E050E0BC01B4
S1133B8080EC98E00E946A0ACE010396BC0180ECA6
S1133B9098E00E94FE0A8091F0208E87CE010E9656
S1133BA061E04CDC65C08981882329F18091F12092
S1133BB08F878091F220888BCE010396BC0180EC24
S1133BC098E00E94E90ACE010F9642E050E0BC0161
S1133BD080EC98E00E946A0ACE010396BC0180EC56
S1133BE098E00E94FE0A8091F020898BCE014196D4
S1133BF061E024DC3DC08091F1208E838091F2202D
S1133C008F8360E084E188D9CE01069642E050E0DB
S1133C10BC0180EC98E00E946A0A61E084E17CD9EE
S1133C20CE010396BC0180EC98E00E94FE0A60E09D
S1133C3084E172D9CE01049642E050E0BC0180ECEC
S1133C4098E00E94A80A61E084E166D9CE01039657
S1133C50BC0180EC98E00E94E90A8091F0208887FA
S1133C608C8189878D818A87CE01089663E0E6DBA3
S1133C706296CDBFDEBFDF91CF9108952F923F9220
S1133C804F925F926F927F928F929F92AF92BF9268
S1133C90CF92DF92EF92FF920F931F93CF93DF9314
S1133CA0CDB7DEB76497CDBFDEBFC5D280915621B4
S1133CB08F77809356218091F120882354F080914E
S1133CC0EC209091ED20FC018081682F80E5EEDBF3
S1133CD09CC28091F120882F90E08072992795955D
S1133CE087959595879595958795959587959595B8
S1133CF0879589838091562185FB882780F9282F11
S1133D0030E08981882F90E02817390729F18981CB
S1133D108130A9F48091562180748823E9F480913C
S1133D205621806280935621809177208160809310
S1133D307720809156218068809356210DC061E0E0
S1133D4083E1EAD8809156218F7D8093562180911A
S1133D5056218068809356218091F120882F90E02D
S1133D6080719927959587959595879595958795CC
S1133D709595879589838091562182958170282F06
S1133D8030E08981882F90E028173907A1F08981D4
S1133D90813049F461E087E0BFD880915621806882
S1133DA08093562108C060E087E0B6D88091562100
S1133DB08068809356218091F120882F90E088704C
S1133DC09927959587959595879595958795898351
S1133DD08091562183FB882780F9282F30E0898140
S1133DE0882F90E028173907A1F08981813049F4A0
S1133DF061E089E191D880915621806880935621B1
S1133E0008C060E089E188D8809156218068809359
S1133E1056218091F120882F90E084709927959500
S1133E2087959595879589838091562182FB88276C
S1133E3080F9282F30E08981882F90E028173907EE
S1133E40A1F08981813049F461E08CE165D88091E9
S1133E50562180688093562108C060E08CE15CD8CC
S1133E60809156218068809356218091F120882F7B
S1133E7090E0827099279595879589838091562142
S1133E8086958170282F30E08981882F90E028174B
S1133E903907A1F08981813049F461E08DE13CD892
S1133EA08091562180688093562108C060E08DE19E
S1133EB033D8809156218068809356218091F120D7
S1133EC081708983809156218170282F30E0898107
S1133ED0882F90E028173907A1F08981813049F4AF
S1133EE061E088E119D88091562180688093562139
S1133EF008C060E088E110D88091562180688093E2
S1133F00562199D18091EC209091ED20FC01808183
S1133F10682F80E5CBDA809177208170882309F4BB
S1133F2073C160E083E10E948C170E947A17DC0160
S1133F30CB018C019D0140E050E0BA010D831E834A
S1133F402F83388749875A876B877C871D811D8714
S1133F502E812E873F813F874885488B5985598B11
S1133F606A856A8B7B857B8B8C858C8B2D853E85C6
S1133F704F85588969897A898B899C8902E07CD329
S1133F80A22EB32EC42ED52EE62EF72E082F192FCF
S1133F90AD86BE86CF86D88AE98AFA8A0B8B1C8BBB
S1133FA02D853E854F85588969897A898B899C89B5
S1133FB005E062D3222E332E442E552E662E772E04
S1133FC0882E992E222D332D442D552D662D772D97
S1133FD0882D992DAD84BE84CF84D888E988FA8849
S1133FE00B891C8961D3222E332E442E552E662E26
S1133FF0772E882E992E222D332D442D552D662D66
S1134000772D882D992DAD80BE80CF80D884E9840A
S1134010FA840B851C853FD3222E332E442E552E35
S1134020662E772E882E992E222D332D442D552D34
S1134030662D772D882D992D04E01ED3A22EB32E44
S1134040C42ED52EE62EF72E082F192F2A2C3B2C02
S11340504C2C5D2C6E2C7F2C802E912EA22CB32CFC
S1134060C42CD52CE62CF72C082D192D2A2D3B2DEC
S11340704C2D5D2D6E2D7F2D802F912F29513C4F7E
S11340804F4F5F4F6F4F7F4F8F4F9F4FA22EB32ED7
S1134090C42ED52EE62EF72E082F192F2A2D3B2DB0
S11340A04C2D5D2D6E2D7F2D802F912F0E941D0292
S11340B0DC01CB0120E030E84BEB55E4BC01CD0141
S11340C00E949803DC01CB01BC01CD010E946C016C
S11340D0A22EB32EC42ED52EE62EF72E082F192F7E
S11340E0D601C501BC01CD010E94861788E38A83ED
S11340F01B8281E08C836CE170E280EC98E00E948A
S1134100E90A6BE170E280EC98E00E94E90ACE01D2
S1134110029643E050E0BC0180EC98E00E946A0AF9
S11341206CE170E280EC98E00E94FE0A6BE170E2C0
S113413080EC98E00E94FE0A88E18A838FE78B83F3
S11341408CEF8C836BE170E280EC98E00E94E90ACA
S11341506CE170E280EC98E00E94E90ACE010296DC
S113416043E050E0BC0180EC98E00E946A0A6BE1F5
S113417070E280EC98E00E94FE0A6CE170E280EC50
S113418098E00E94FE0A89E18A836BE170E280EC88
S113419098E00E94E90ACE01029643E050E0BC0197
S11341A080EC98E00E946A0A6BE170E280EC98E08F
S11341B00E94FE0A80E88A838CE38B8369E170E2C3
S11341C080EC98E00E94E90A69E770E280EC98E0EC
S11341D00E94E90ACE01029642E050E0BC0180EC64
S11341E098E00E946A0A69E170E280EC98E00E941B
S11341F0FE0A69E770E280EC98E00E94FE0A809172
S113420077208E7F8093772000006496CDBFDEBF39
S1134210DF91CF911F910F91FF90EF90DF90CF909E
S1134220BF90AF909F908F907F906F905F904F90D2
S11342303F902F900895CF93DF93CDB7DEB780E002
S113424096E0FC018481881F8827881F8170817013
S11342508295807F909156219F7E892B8093562151
S113426080E696E0FC018481882F90E08270992793
S11342709595879581708170880F880F880F90912C
S11342805621977F892B8093562180E696E0FC0186
S11342908481882F90E080719927959587959595CD
S11342A08795959587959595879581708170880FE9
S11342B0880F909156219B7F892B8093562180E60D
S11342C096E0FC018481882F90E08072992795956F
S11342D087959595879595958795959587959595C2
S11342E0879581708170880F909156219D7F892BCD
S11342F08093562180E696E0FC0184818170817070
S1134300909156219E7F892B80935621DF91CF91E6
S11343100895CF93DF9300D0CDB7DEB708EB0093B9
S11343204006009344060FEF19E50093000610932E
S1134330040600E000932006009324060BE310E03B
S113434000936006109364060BE012E0009380066D
S11343501093840600E00093E0070093E40782E0F2
S11343600E94031782E00E94291761E080E490E034
S11343700E94130B81E00E94E8160E94E21780EC71
S113438098E027E5FC0120830E94580B80E490E02C
S11343902DE0FC01238380E098E00E94D51180E4A5
S11343A098E00E94D51180E099E00E94D51180E444
S11343B099E00E94D51180E09AE00E94D51166E848
S11343C079E180E498E00E94421262E979E180E4B4
S11343D099E00E9442126EE979E180E09AE00E943D
S11343E0421260E070E080E098E00E94301860E0E3
S11343F070E080E498E00E94301860E070E080E0B3
S113440099E00E94301860E070E080E499E00E9436
S1134410301860E070E080E09AE00E94301860E0BC
S113442070E080E098E00E94EE1763E070E080E4C2
S113443098E00E94EE1760E070E080E099E00E944E
S1134440EE1763E070E080E499E00E94EE1763E009
S113445070E080E09AE00E94EE1767E070E280EA84
S113446099E00E94851462E070E080EA99E00E947D
S11344704D1860E170E280EA99E00E94851462E0E0
S113448070E080EA99E00E944D1880E496E021E013
S1134490FC01208B80E496E021E0FC01218B80E488
S11344A096E021E0FC01228B60E670E080E0A6DA71
S11344B062E070E080E0C4DA60EC70E081E09EDAF3
S11344C060E070E081E0BCDA61E670E082E096DAF8
S11344D062E070E082E0B4DA60ED70E083E08EDAEE
S11344E060E070E083E0ACDA62E670E084E086DAF3
S11344F062E070E084E0A4DA86E591E28093EC2047
S11345009093ED2088E790E28093EE209093EF2043
S113451092DE109267208091562180648093562108
S1134520809156218F7D809356217894F8948091C0
S113453077208270882309F448C0809160208330FA
S1134540C8F18091602081508093602019821A8282
S11345500FC08A81882F90E080519F4DFC0180819B
S11345609981F92FF81B8F2F89838A818F5F8A8322
S1134570809160209A81981760F3809165209981D9
S1134580981749F478940E94AA19809177208D7F16
S11345908093772047C0498162E08FEF0E947D1AA3
S11345A01092612010926220809177208D7F8093F9
S11345B0772038C08091782084608093782080911F
S11345C077208D7F809377202DC0809161209091FA
S11345D06220009739F180916120909162200196C8
S11345E08093612090936220209161203091622019
S11345F080910520909106208217930798F41092D9
S113460061201092622080916320813031F4809186
S1134610772082608093772005C080917820826023
S113462080937820789482CFA1E21A2EAA1BBB1B18
S1134630FD010DC0AA1FBB1FEE1FFF1FA217B3076A
S1134640E407F50720F0A21BB30BE40BF50B661F80
S1134650771F881F991F1A9469F760957095809544
S113466090959B01AC01BD01CF010895EE0FFF1F92
S11346700590F491E02D09940F930F7351F0220FDC
S1134680331F441F551F661F771F881F991F0A95E4
S1134690B1F70F9108952A0D3B1D4C1D5D1D6E1D34
S11346A07F1D801F911F08952A193B094C095D093C
S11346B06E097F09800B910B089506D084FF08953D
S11346C0CB0102D0805F0895AA27992329F4A85F1B
S11346D0982B11F480E10895903118F4AD5F929510
S11346E0A395990FE8F78A2F992708952F923F925F
S11346F04F925F926F927F928F929F92AF92BF92EE
S1134700CF92DF92EF92FF920F931F93CF93DF9399
S1134710CDB7DEB7CA1BDB0BCDBFDEBF09942A8839
S1134720398848885F846E847D848C849B84AA84C1
S1134730B984C884DF80EE80FD800C811B81AA814E
S1134740B981CE0FD11DCDBFDEBFED0108950F930A
S11347500F7351F09695879577956795579547957B
S1134760379527950A95B1F70F9108952A153B05BA
S11347704C055D056E057F05800791070895F89443
S1054780FFCF65
S11347826D372D3301200300F40100030000000102
S113479200F40100030000000106210304010520C6
S10D47A20200000000000000000007
S9030000FC
