:100000004DC1000068C1000066C1000064C100006D
:1000100062C1000060C100005EC100005CC1000060
:100020005AC1000058C100000C94BD1A0C947B0BFF
:1000300052C1000050C100000C94590C0C948F0C5C
:100040000C94C50C0C94FB0C0C94310D0C94670DA6
:100050000C949D0D0C94D30D0C94090E0C943F0E32
:100060003AC1000038C1000036C1000034C10000B0
:1000700032C1000030C100002EC100002CC10000C0
:100080002AC1000028C1000026C1000024C10000D0
:1000900022C1000020C100001EC100001CC10000E0
:1000A0001AC1000018C1000016C1000014C10000F0
:1000B00012C1000010C100000EC100000C9491108C
:1000C0000C94C7100C94FD100C9433110C9469110E
:1000D0000C949F1100C10000FEC00000FCC0000095
:1000E000FAC00000F8C000000C94AB1AF4C0000085
:1000F000F2C00000F0C00000EEC00000ECC0000044
:10010000EAC00000E8C00000E6C00000E4C0000053
:10011000E2C00000E0C00000DEC00000DCC0000063
:10012000DAC00000D8C00000D6C00000D4C0000073
:10013000D2C000000C94750E0C94AB0E0C94E10E22
:100140000C94170F0C944D0F0C94830F0C94B90F53
:100150000C94EF0F0C9425100C945B10BCC00000A5
:100160000C949018B8C00000B6C00000B4C00000E5
:10017000B2C00000B0C00000AEC00000ACC00000C3
:10018000AAC00000A8C00000A6C00000A4C00000D3
:10019000A2C00000A0C000009EC000009CC00000E3
:1001A0009AC0000098C0000096C0000094C00000F3
:1001B00092C0000090C000008EC000008CC0000003
:1001C0008AC0000088C0000086C0000084C0000013
:1001D00082C0000080C000007EC000007CC0000023
:1001E0007AC0000078C0000076C0000074C0000033
:1001F00072C0000070C000006EC00000C319C919B1
:10020000C019DF19551A551A551AED19551A551AEC
:10021000E819551A551A551A551A551A551A551AD4
:10022000551ABC19551A551A551A551A551A551AF0
:10023000551A551A551ACF19CC19D919DC19D419D0
:10024000E219551A551A551A551AF319FA190F1AAF
:10025000161A551A551A551A551A551A011A081A06
:10026000551A551A551A551A551A551A551A551A16
:10027000551A1D1A551A551A551A241A2B1A321ABC
:10028000391A401A551A471A551A551A551A551A35
:10029000551A551A551A551A551A4E1A11241FBEB9
:1002A000CFEFDFE2DEBFCDBF10E2A0E0B0E2E6E8D4
:1002B000F4E602C005900D92A832B107D9F720E20A
:1002C000A8E2B0E201C01D92A039B207E1F70E9496
:1002D00099300C94413294CEA0E0B0E0E2E7F1E036
:1002E0000C94F8316B017C0120E030E040E85FE3E2
:1002F000EBD287FD80C020E030E040E85FE4C7013A
:10030000B601E2D287FF09C0C701B601D9D34B01BC
:100310005C01C12CD12C760187C020E030E040E8A0
:100320005FE5C701B601D0D287FF6EC020E030E0A4
:1003300040E85FE2C701B60119D18B01D82FC92F60
:1003400095E0292E312C20E1C22ED12CE12CF12C6C
:10035000812C912C540161E070E080E090E00C2C45
:1003600004C0660F771F881F991F0A94D2F733D3F2
:100370002B013C01762F272F352D462D572DFE01C1
:10038000602F712F8F2F9C2F73D287FD11C08C2867
:100390009D28AE28BF28242D352D462D572DFE0132
:1003A000602F712F8F2F9C2FC3D18B01D82FC92F76
:1003B000F694E794D794C79481E0281A310859F647
:1003C00020E030E040E85FE4FE01602F712F8F2FC6
:1003D0009C2FCCD075D3DC01CB019C01AD0160E03A
:1003E00070E080E090E0082D0E94BE3149015A0182
:1003F0006B017C0119C0812C912CA12CB12CC12C3A
:10040000D12CE12CF12C10C088248A9499249A9440
:10041000AA24AA94BB24BA94CC24CA94DD24DA94E6
:10042000EE24EA94FF24FA949401A501B601C701D1
:10043000CDB7DEB7E2E10C9411322F923F924F928A
:100440005F926F927F928F929F92AF92BF92CF9264
:10045000DF92EF92FF920F931F93CF9319012A011E
:100460003B014C0160E070E080E090E051016201EE
:10047000730184010E94383221F4B101C201ABD270
:1004800063C09101A201B301C40100E20E942932BC
:10049000B901CA010E94DF31AA2797FDA095BA2FA2
:1004A00020E2C22ED12CE12CF12CC81AD90AEA0A7A
:1004B000FB0ACC2D9101A201B301C4010C2D0E94B5
:1004C000293260E270E06C197D0904C0220C331CF3
:1004D000441C551C6A95D2F7622F2328242825280E
:1004E00009F401C06160732FCA0175D23B014C0150
:1004F00080E2C816D104E104F104A1F09FE1C9161D
:10050000D104E104F10491F061E070E080E090E05A
:1005100004C0660F771F881F991FCA95D2F700D2B3
:10052000272F08C060E020E080E803C060E020E002
:1005300080E09FE4F22F262F3F2F482F592F662D62
:10054000772D882D992D12D0CF911F910F91FF906B
:10055000EF90DF90CF90BF90AF909F908F907F9063
:100560006F905F904F903F902F900895A0E2B0E081
:10057000ECEBF2E00C94FA316D8F7E8F8F8F98A3A5
:10058000298F3A8F4B8F5C8FBE016F5E7F4FCE01FC
:100590004D9689D3BE01675F7F4FCE01499683D3C5
:1005A0009989923008F412C08985823008F41AC003
:1005B000943021F4823009F4B4C008C0843021F4AE
:1005C000923009F4AEC00EC0923051F481E02A8915
:1005D0009A85291301C080E08A8BCE014196A3C081
:1005E000823051F481E02A899A85291301C080E084
:1005F0008A87CE01099697C08D889E88AF88B88C6F
:100600000D851E852F853889E0E2F0E080E090E0DE
:10061000DC01C12CD12C760140E050E0BA0180FE13
:1006200018C0400F511F621F731F8C0D9D1DAE1D02
:10063000BF1D412C512C32014394401751076207D2
:10064000730718F0412C512C3201840D951DA61D05
:10065000B71DCC0CDD1CEE1CFF1C37FF02C06894DC
:10066000C0F8000F111F221F331FB694A794979450
:1006700087943197A1F62B893C89EB85FC852E0F59
:100680003F1F2E5F3F4F2B833C8321E0EA893A8551
:10069000E31301C020E02A83EB81FC810CC080FFC2
:1006A00005C076956795579547957068B695A79557
:1006B000979587953196B7FDF2CF9F010CC0880FB3
:1006C000991FAA1FBB1F77FD8160440F551F661F2E
:1006D000771F215031090097A105E0E4BE0778F3A8
:1006E0002B833C838C019D010F7711272227332711
:1006F000003411052105310559F487FD09C0452B4A
:10070000462B472B29F0805C9F4FAF4FBF4F80781F
:100710008D839E83AF83B88783E08983CE01019662
:1007200002C08FE190E2F5D1A096E0E10C94133283
:10073000A8E1B0E0EEE9F3E00C9402326D8B7E8B21
:100740008F8B988F298B3A8B4B8B5C8BBE01675FAD
:100750007F4FCE014596A7D2BE016F5F7F4FCE017E
:100760004196A1D29985923008F475C08981823072
:1007700008F474C02A853A8123272A87943011F01F
:10078000923019F4981367C06CC0843039F41D8618
:100790001E861F86188A1B861C8604C0823029F498
:1007A00084E08987CE0109965EC08B859C852B816C
:1007B0003C81821B930B8B879C874D855E856F8563
:1007C0007889CD80DE80EF80F8844C155D056E055C
:1007D0007F0538F4440F551F661F771F01978B87DD
:1007E0009C87EFE1F0E000E010E020E030E480E002
:1007F00090E0DC014C155D056E057F0540F0802B17
:10080000912BA22BB32B4C195D096E097F093695EC
:10081000279517950795440F551F661F771F31972A
:1008200049F78C019D010F771127222733270034C8
:1008300011052105310559F487FD09C0452B462BCB
:10084000472B29F0805C9F4FAF4FBF4F80788D873B
:100850009E87AF87B88BCE01099605C0CE01019661
:1008600002C08FE190E255D16896E8E00C941B320B
:10087000A8E1B0E0EEE3F4E00C9408326D8B7E8BDF
:100880008F8B988F298B3A8B4B8B5C8BBE01675F6C
:100890007F4FCE01459607D2BE016F5F7F4FCE01DD
:1008A000419601D28985823050F08981823038F0BA
:1008B000BE016F5F7F4FCE01099614D401C08FEF48
:1008C0006896E2E00C942132A8E1B0E0EAE6F4E0B8
:1008D0000C9408326D8B7E8B8F8B988F298B3A8B83
:1008E0004B8B5C8BBE01675F7F4FCE014596DBD1A2
:1008F000BE016F5F7F4FCE014196D5D18985823091
:1009000050F08981823038F0BE016F5F7F4FCE0199
:100910000996E8D301C081E06896E2E00C942132A8
:10092000A8E0B0E0E6E9F4E00C94063223E0298385
:100930008B019C01002737FD0395112722273327C0
:10094000402F0A83611571058105910519F482E034
:10095000898335C02EE130E02B833C83442371F042
:1009600061157105810520E8920769F100271127BB
:100970009801061B170B280B390B02C08B019C0139
:10098000C901B8010E94DF310197181619062CF031
:100990000D831E832F83388712C0082E04C0000FDA
:1009A000111F221F331F0A94D2F70D831E832F833A
:1009B00038872EE130E0281B390B2B833C83CE0196
:1009C0000196A7D004C060E070E080E09FEC28961C
:1009D000E4E00C941F32A8E0B0E0E1EFF4E00C9406
:1009E00002328B019C011A82611571058105910506
:1009F00019F482E089835DC083E089834EE150E091
:100A00004B835C83C901B8010E94DF31019797FFD6
:100A100039C0EE27FF27E81BF90B41E050E060E00A
:100A200070E00E2E04C0440F551F661F771F0A94F6
:100A3000D2F74150510961097109402351236223C2
:100A40007323C12CD12C7601C394452B462B472B05
:100A500019F4C12CD12C760104C036952795179531
:100A60000795EA95D2F70C291D292E293F290D83D8
:100A70001E832F8338872EE130E0281B390B2B8310
:100A80003C8317C0009729F40D831E832F8338877A
:100A900010C0082E04C0000F111F221F331F0A941C
:100AA000D2F70D831E832F833887481B590B4B8346
:100AB0005C83CE0101962DD02896E8E00C941B3281
:100AC000CF92DF92EF92FF920F931F936B017C0105
:100AD00020E030E040E05FE4CBDE87FD0CC020E0AA
:100AE00030E040E05FE4C701B601D0D25CD38B01B7
:100AF0009C01305805C0C701B60155D38B019C013C
:100B0000B801C9011F910F91FF90EF90DF90CF9036
:100B100008950F931F93CF93DF93DC0114964D91AB
:100B20005D916D917C9117971196EC9111978C9135
:100B3000823020F460618FEF90E0A6C0843009F429
:100B40009EC0823009F495C04115510561057105BB
:100B500009F492C012962D913C91139722388FEF91
:100B600038070CF058C0C2E8DFEFC21BD30BCA3104
:100B7000D1056CF58A019B010C2E04C03695279592
:100B8000179507950A94D2F781E090E0A0E0B0E0D5
:100B90000C2E04C0880F991FAA1FBB1F0A94D2F7FE
:100BA0000197A109B10984239523A623B72341E026
:100BB00050E060E070E0892B8A2B8B2B19F440E029
:100BC00050E0BA01402B512B622B732B03C040E045
:100BD00050E0BA01DB01CA018F779927AA27BB270A
:100BE00080349105A105B10539F447FF09C0405C87
:100BF0005F4F6F4F7F4F04C0415C5F4F6F4F7F4F20
:100C000081E090E041155105610520E4720748F547
:100C100080E090E026C0203831058CF5DB01CA0168
:100C20008F779927AA27BB2780349105A105B105A5
:100C300039F447FF09C0405C5F4F6F4F7F4F04C0DE
:100C4000415C5F4F6F4F7F4F77FD04C0C9018158F2
:100C50009F4F07C07695679557954795C90180586E
:100C60009F4F97E076956795579547959A95D1F759
:100C70000BC080E090E005C080E090E005C08FEF01
:100C800090E040E050E0BA01982F9695E0FB97F98C
:100C9000362F80FB37F9642F752F832FDF91CF918B
:100CA0001F910F910895CF92DF92EF92DC01FB012B
:100CB000CC901196DC90119712968C9112973FE789
:100CC000E32EE8226E2DA60170E0982F991F992738
:100CD000991F13962C91822F880F892B90E027FB68
:100CE000222720F92183009729F541155105610537
:100CF000710511F482E027C082E89FEF828393831D
:100D000027E0440F551F661F771F2A95D1F783E010
:100D1000808309C0440F551F661F771F828193810E
:100D200001978283938341155105610580E478071B
:100D300088F320C08F3F910579F441155105610575
:100D4000710519F484E0808319C0E4FE03C081E0DA
:100D5000808310C010820EC08F57910982839383C5
:100D600083E0808387E0440F551F661F771F8A95B5
:100D7000D1F770644483558366837783EF90DF9067
:100D8000CF900895A4E0B0E0E8ECF6E00C94FA31DE
:100D90007C016A01FC018081823008F44AC1FB01B8
:100DA0009081923008F442C1843079F4943009F093
:100DB00040C1F7019181FB018181981709F439C184
:100DC000AFE1EA2EA0E2FA2E34C1943009F42EC12C
:100DD000923091F4823009F02CC188E0F701DA01F9
:100DE00001900D928A95E1F7FB018181F7019181D4
:100DF0008923FA0181831CC1823009F417C1F701EC
:100E000082819381FB01A281B381F7010481158165
:100E100026813781FB0184809580A680B780FC0104
:100E2000EA1BFB0BAF01F7FF04C0442755274E1BFD
:100E30005F0B403251050CF074C01E161F06B4F54E
:100E400024013501042E04C0769467945794479486
:100E50000A94D2F749825A826B827C82412C512CAF
:100E60003201439404C0440C551C661C771C4A95FF
:100E7000D2F741E0441A510861087108482059200E
:100E80006A207B20812C912C54018394452846288C
:100E9000472819F4812C912C540149805A806B8089
:100EA0007C8084289528A628B72846C0EF2B09F413
:100EB00043C0840F951F28013901042E04C0769485
:100EC0006794579447940A94D2F749825A826B8266
:100ED0007C82412C512C3201439404C0440C551C9B
:100EE000661C771C4A95D2F741E0441A5108610804
:100EF0007108402251226222732201E010E020E0BA
:100F000030E045284628472819F400E010E0980111
:100F100049805A806B807C8004291529262937292D
:100F20000BC0A817B90724F4812C912C540104C0DC
:100F3000CD0100E010E09801F7014181FB015181F2
:100F4000451709F446C0442349F024013501401AED
:100F5000510A620A730A9301820104C0081919092F
:100F60002A093B0937FD05C0F6011182828393836C
:100F70000CC041E0F6014183828393833095209534
:100F8000109501951F4F2F4F3F4F048315832683E4
:100F900037830EC0880F991FAA1FBB1FF6018483D9
:100FA0009583A683B78382819381019782839383FC
:100FB000F60184819581A681B781AC01BD014150C4
:100FC0005109610971094F3F5F4F6F4F7F4310F324
:100FD0000CC0F601418382839383080D191D2A1DDD
:100FE0003B1D048315832683378383E0F6018083CA
:100FF000448155816681778177FF1AC0DB01CA0180
:1010000081709927AA27BB277695679557954795AD
:10101000842B952BA62BB72B84839583A683B7832C
:101020008281938101968283938302C07B0101C0F8
:101030007601C7012496E0E10C941332A0E2B0E0FF
:10104000E4E2F8E00C9408326D8F7E8F8F8F98A3C6
:10105000298F3A8F4B8F5C8FBE016F5E7F4FCE0121
:101060004D9621DEBE01675F7F4FCE0149961BDEA4
:10107000AE014F5F5F4FBE01675F7F4FCE0141966C
:1010800081DE47DDA096E2E00C942132A0E2B0E0E0
:10109000ECE4F8E00C9408326D8F7E8F8F8F98A36C
:1010A000298F3A8F4B8F5C8FBE016F5E7F4FCE01D1
:1010B0004D96F9DDBE01675F7F4FCE014996F3DDA6
:1010C0008A8591E089278A87AE014F5F5F4FBE0115
:1010D000675F7F4FCE01419655DE1BDDA096E2E0B3
:1010E0000C942132CF93FC01DB019081923008F403
:1010F00052C08C91823008F44EC0943071F4843028
:1011000039F411962C9130E08181281B310948C0B7
:101110008181882309F43FC03BC0843029F41196B3
:101120008C91811138C034C0923019F48230B9F7F3
:1011300035C0823069F3C18111968C911197C81323
:101140001DC02281338112968D919C911397821735
:1011500093070CF413C0281739070CF417C0448107
:1011600055816681778114968D919D910D90BC91EA
:10117000A02D84179507A607B70718F4C11108C05A
:101180000AC0481759076A077B0740F4C11103C01A
:101190002FEF3FEF05C021E030E002C020E030E05B
:1011A000C901CF910895ACE0B0E0E9EDF8E00C940E
:1011B000063269877A878B879C87BE016F5F7F4F76
:1011C000CE01099670DD8981823091F1823080F103
:1011D000843041F48A81882331F100E010E020E07E
:1011E00030E829C02B813C8137FD22C02F313105E9
:1011F0008CF78EE190E0821B930B0D811E812F8175
:10120000388504C036952795179507958A95D2F7A6
:101210008A81882381F030952095109501951F4F84
:101220002F4F3F4F08C00FEF1FEF2FEF3FE703C0D7
:1012300000E010E09801B801C9012C96E4E00C949C
:101240001F32CF93DF931F92CDB7DEB78FE390E0CD
:10125000FC0180818983F89489810F90DF91CF917F
:101260000895CF93DF931F92CDB7DEB789838FE3C5
:1012700090E02981FC0120830F90DF91CF910895A8
:10128000CF93DF9300D000D0CDB7DEB78A839B83A6
:101290006C83D7DF89838A819B8180599F4F2A8104
:1012A0003B8120593F4FF9012081322F2C8120951D
:1012B0002323FC0120838981D4DF2496CDBFDEBFA8
:1012C000DF91CF910895CF93DF93CDB7DEB72A9703
:1012D000CDBFDEBF8A878A8589831A8289818B8305
:1012E0008B818C838C818695869586958D838D8167
:1012F000882F90E0880F991F82959295907F98276C
:10130000807F98279A5F8E839F838A818823A9F0A4
:10131000898188878885882F90E09C0127703327F2
:1013200081E090E002C0880F991F2A95E2F7282FEC
:101330008E819F81FC01258314C0898189878985DD
:10134000882F90E09C012770332781E090E002C055
:10135000880F991F2A95E2F7282F8E819F81FC0123
:1013600026832A96CDBFDEBFDF91CF910895CF931C
:10137000DF93CDB7DEB72A97CDBFDEBF8A878A85D8
:10138000898381E08A8389818B838B818C838C81A3
:101390008695869586958D838D81882F90E0880F20
:1013A000991F82959295907F9827807F98279A5FC2
:1013B0008E839F838A818823A9F089818887888585
:1013C000882F90E09C012770332781E090E002C0D5
:1013D000880F991F2A95E2F7282F8E819F81FC01A3
:1013E000258314C0898189878985882F90E09C0195
:1013F0002770332781E090E002C0880F991F2A955B
:10140000E2F7282F8E819F81FC0126832A96CDBF8B
:10141000DEBFDF91CF910895CF93DF9300D01F926D
:10142000CDB7DEB789839A836B8389819A812B81BB
:10143000FC0123832396CDBFDEBFDF91CF910895BA
:10144000CF93DF9300D0CDB7DEB789839A838981AC
:101450009A81FC0183810F900F90DF91CF910895C5
:10146000CF93DF9300D0CDB7DEB789839A8389818C
:101470009A81FC018281881F8827881F0F900F9016
:10148000DF91CF910895CF93DF9300D000D0CDB7F7
:10149000DEB789839A836B837C8389819A81D0DFCD
:1014A000282F8B819C81FC0120832496CDBFDEBF39
:1014B000DF91CF910895CF93DF9300D0CDB7DEB702
:1014C00089839A8389819A81CBDF0F900F90DF9176
:1014D000CF910895CF93DF93CDB7DEB72997CDBFD6
:1014E000DEBF8C839D836E837F83488759871BC0B3
:1014F0008E819F81FC0120818E819F8101968E8348
:101500009F838C819D8189839A832B8389819A8192
:101510006B8182DF00008C819D81CDDF982F81E07F
:1015200089278823C1F721E088859985009709F4E8
:1015300020E0888599850197888799872223C1F6BD
:1015400080E090E02996CDBFDEBFDF91CF91089576
:10155000CF93DF93CDB7DEB72997CDBFDEBF8C83A6
:101560009D836E837F83488759871EC08C819D81B0
:1015700089839A838FEF8B8389819A816B814CDF7A
:1015800000008C819D8197DF982F81E08927882337
:10159000C1F72E813F818C819D81B90174DF8E81DD
:1015A0009F8101968E839F8321E08885998500978E
:1015B00009F420E0888599850197888799872223F7
:1015C000A9F680E090E02996CDBFDEBFDF91CF91F4
:1015D0000895CF93DF9300D000D0CDB7DEB78983D5
:1015E0009A836B837C838B819C81FC0180816BDE81
:1015F0002496CDBFDEBFDF91CF910895CF93DF93C7
:1016000000D000D0CDB7DEB789839A836B837C830B
:101610008B819C81FC018081AADE2496CDBFDEBF38
:10162000DF91CF9108951BBEFC0128ED24BF60839C
:101630000895CF93DF931F92CDB7DEB78FE390E08D
:10164000FC0180818983F89489810F90DF91CF918B
:101650000895CF93DF931F92CDB7DEB789838FE3D1
:1016600090E02981FC0120830F90DF91CF910895B4
:10167000CF93DF9300D01F92CDB7DEB78A839B83D1
:10168000D8DF89838A819B818E589F4DFC018081A0
:10169000282F2F5F8A819B818E589F4DFC012083CC
:1016A0008981D7DF2396CDBFDEBFDF91CF9108952B
:1016B000CF93DF93CDB7DEB764E080E090E0E0DD6C
:1016C00080E094E02FEF3FEFFC012287338780E03A
:1016D00094E0FC011086118683E090E0C9DF80E091
:1016E00094E023E0FC01228380E094E0FC0110827E
:1016F000DF91CF9108951F920F9200903F000F92BB
:1017000011242F933F934F935F936F937F938F9306
:101710009F93AF93BF93EF93FF93CF93DF93CDB797
:10172000DEB72897CDBFDEBF209178203091792099
:1017300080917A2090917B202817390708F463C0A4
:1017400080E094E023E0FC01228380917E20909150
:101750007F20009709F457C08091782090917920DC
:10176000CC01A0E0B0E0AC013327222780E094E078
:10177000FC0180859185CC01A0E0B0E0822B932B09
:10178000A42BB52B89839A83AB83BC8380917A2069
:1017900090917B20CC01A0E0B0E0AC013327222760
:1017A00080917C2090917D20CC01A0E0B0E0822B44
:1017B000932BA42BB52B8D839E83AF83B8872D816C
:1017C0003E814F81588589819A81AB81BC812817E0
:1017D00039074A075B0758F08D819E81AF81B88534
:1017E0000196A11DB11D89839A83AB83BC8320918F
:1017F0007E2030917F2089819A81AB81BC81BC01A0
:10180000CD01F90109952896CDBFDEBFDF91CF91BB
:10181000FF91EF91BF91AF919F918F917F916F91C8
:101820005F914F913F912F910F9000923F000F9049
:101830001F901895CF93DF931F92CDB7DEB78FE33C
:1018400090E0FC0180818983F89489810F90DF9179
:10185000CF910895CF93DF931F92CDB7DEB78983E1
:101860008FE390E02981FC0120830F90DF91CF91DD
:101870000895CF93DF9300D01F92CDB7DEB78A8350
:101880009B83D8DF89838A819B818E589F4DFC0181
:101890008081282F2F5F8A819B818E589F4DFC016C
:1018A00020838981D7DF2396CDBFDEBFDF91CF9123
:1018B00008951F920F9200903F000F9211242F93D2
:1018C0003F934F935F936F937F938F939F93AF93C8
:1018D000BF93EF93FF93CF93DF93CDB7DEB78091A4
:1018E000282090912920009731F080912820909114
:1018F0002920FC010995DF91CF91FF91EF91BF91D4
:10190000AF919F918F917F916F915F914F913F9197
:101910002F910F9000923F000F901F9018951F92EB
:101920000F9200903F000F9211242F933F934F93FB
:101930005F936F937F938F939F93AF93BF93EF9337
:10194000FF93CF93DF93CDB7DEB780912A2090919C
:101950002B20009731F080912A2090912B20FC01C0
:101960000995DF91CF91FF91EF91BF91AF919F9139
:101970008F917F916F915F914F913F912F910F9038
:1019800000923F000F901F9018951F920F920090A9
:101990003F000F9211242F933F934F935F936F93C8
:1019A0007F938F939F93AF93BF93EF93FF93CF93C7
:1019B000DF93CDB7DEB780912C2090912D2000973A
:1019C00031F080912C2090912D20FC010995DF9120
:1019D000CF91FF91EF91BF91AF919F918F917F91A7
:1019E0006F915F914F913F912F910F9000923F0027
:1019F0000F901F9018951F920F9200903F000F922A
:101A000011242F933F934F935F936F937F938F9303
:101A10009F93AF93BF93EF93FF93CF93DF93CDB794
:101A2000DEB780912E2090912F20009731F0809189
:101A30002E2090912F20FC010995DF91CF91FF91ED
:101A4000EF91BF91AF919F918F917F916F915F9136
:101A50004F913F912F910F9000923F000F901F9058
:101A600018951F920F9200903F000F9211242F9310
:101A70003F934F935F936F937F938F939F93AF9316
:101A8000BF93EF93FF93CF93DF93CDB7DEB78091F2
:101A9000302090913120009731F08091302090914A
:101AA0003120FC010995DF91CF91FF91EF91BF911A
:101AB000AF919F918F917F916F915F914F913F91E6
:101AC0002F910F9000923F000F901F9018951F923A
:101AD0000F9200903F000F9211242F933F934F934A
:101AE0005F936F937F938F939F93AF93BF93EF9386
:101AF000FF93CF93DF93CDB7DEB7809132209091E3
:101B00003320009731F08091322090913320FC01F6
:101B10000995DF91CF91FF91EF91BF91AF919F9187
:101B20008F917F916F915F914F913F912F910F9086
:101B300000923F000F901F9018951F920F920090F7
:101B40003F000F9211242F933F934F935F936F9316
:101B50007F938F939F93AF93BF93EF93FF93CF9315
:101B6000DF93CDB7DEB78091342090913520009778
:101B700031F08091342090913520FC010995DF915E
:101B8000CF91FF91EF91BF91AF919F918F917F91F5
:101B90006F915F914F913F912F910F9000923F0075
:101BA0000F901F9018951F920F9200903F000F9278
:101BB00011242F933F934F935F936F937F938F9352
:101BC0009F93AF93BF93EF93FF93CF93DF93CDB7E3
:101BD000DEB78091362090913720009731F08091C8
:101BE000362090913720FC010995DF91CF91FF912C
:101BF000EF91BF91AF919F918F917F916F915F9185
:101C00004F913F912F910F9000923F000F901F90A6
:101C100018951F920F9200903F000F9211242F935E
:101C20003F934F935F936F937F938F939F93AF9364
:101C3000BF93EF93FF93CF93DF93CDB7DEB7809140
:101C4000382090913920009731F080913820909180
:101C50003920FC010995DF91CF91FF91EF91BF9160
:101C6000AF919F918F917F916F915F914F913F9134
:101C70002F910F9000923F000F901F9018951F9288
:101C80000F9200903F000F9211242F933F934F9398
:101C90005F936F937F938F939F93AF93BF93EF93D4
:101CA000FF93CF93DF93CDB7DEB780913A20909129
:101CB0003B20009731F080913A2090913B20FC012D
:101CC0000995DF91CF91FF91EF91BF91AF919F91D6
:101CD0008F917F916F915F914F913F912F910F90D5
:101CE00000923F000F901F9018951F920F92009046
:101CF0003F000F9211242F933F934F935F936F9365
:101D00007F938F939F93AF93BF93EF93FF93CF9363
:101D1000DF93CDB7DEB780913C2090913D200097B6
:101D200031F080913C2090913D20FC010995DF919C
:101D3000CF91FF91EF91BF91AF919F918F917F9143
:101D40006F915F914F913F912F910F9000923F00C3
:101D50000F901F9018951F920F9200903F000F92C6
:101D600011242F933F934F935F936F937F938F93A0
:101D70009F93AF93BF93EF93FF93CF93DF93CDB731
:101D8000DEB780913E2090913F20009731F0809106
:101D90003E2090913F20FC010995DF91CF91FF916A
:101DA000EF91BF91AF919F918F917F916F915F91D3
:101DB0004F913F912F910F9000923F000F901F90F5
:101DC00018951F920F9200903F000F9211242F93AD
:101DD0003F934F935F936F937F938F939F93AF93B3
:101DE000BF93EF93FF93CF93DF93CDB7DEB780918F
:101DF000402090914120009731F0809140209091B7
:101E00004120FC010995DF91CF91FF91EF91BF91A6
:101E1000AF919F918F917F916F915F914F913F9182
:101E20002F910F9000923F000F901F9018951F92D6
:101E30000F9200903F000F9211242F933F934F93E6
:101E40005F936F937F938F939F93AF93BF93EF9322
:101E5000FF93CF93DF93CDB7DEB78091422090916F
:101E60004320009731F08091422090914320FC0163
:101E70000995DF91CF91FF91EF91BF91AF919F9124
:101E80008F917F916F915F914F913F912F910F9023
:101E900000923F000F901F9018951F920F92009094
:101EA0003F000F9211242F933F934F935F936F93B3
:101EB0007F938F939F93AF93BF93EF93FF93CF93B2
:101EC000DF93CDB7DEB780914420909145200097F5
:101ED00031F08091442090914520FC010995DF91DB
:101EE000CF91FF91EF91BF91AF919F918F917F9192
:101EF0006F915F914F913F912F910F9000923F0012
:101F00000F901F9018951F920F9200903F000F9214
:101F100011242F933F934F935F936F937F938F93EE
:101F20009F93AF93BF93EF93FF93CF93DF93CDB77F
:101F3000DEB78091462090914720009731F0809144
:101F4000462090914720FC010995DF91CF91FF91A8
:101F5000EF91BF91AF919F918F917F916F915F9121
:101F60004F913F912F910F9000923F000F901F9043
:101F700018951F920F9200903F000F9211242F93FB
:101F80003F934F935F936F937F938F939F93AF9301
:101F9000BF93EF93FF93CF93DF93CDB7DEB78091DD
:101FA000482090914920009731F0809148209091ED
:101FB0004920FC010995DF91CF91FF91EF91BF91ED
:101FC000AF919F918F917F916F915F914F913F91D1
:101FD0002F910F9000923F000F901F9018951F9225
:101FE0000F9200903F000F9211242F933F934F9335
:101FF0005F936F937F938F939F93AF93BF93EF9371
:10200000FF93CF93DF93CDB7DEB780914A209091B5
:102010004B20009731F080914A2090914B20FC0199
:102020000995DF91CF91FF91EF91BF91AF919F9172
:102030008F917F916F915F914F913F912F910F9071
:1020400000923F000F901F9018951F920F920090E2
:102050003F000F9211242F933F934F935F936F9301
:102060007F938F939F93AF93BF93EF93FF93CF9300
:10207000DF93CDB7DEB780914C2090914D20009733
:1020800031F080914C2090914D20FC010995DF9119
:10209000CF91FF91EF91BF91AF919F918F917F91E0
:1020A0006F915F914F913F912F910F9000923F0060
:1020B0000F901F9018951F920F9200903F000F9263
:1020C00011242F933F934F935F936F937F938F933D
:1020D0009F93AF93BF93EF93FF93CF93DF93CDB7CE
:1020E000DEB780914E2090914F20009731F0809183
:1020F0004E2090914F20FC010995DF91CF91FF91E7
:10210000EF91BF91AF919F918F917F916F915F916F
:102110004F913F912F910F9000923F000F901F9091
:1021200018951F920F9200903F000F9211242F9349
:102130003F934F935F936F937F938F939F93AF934F
:10214000BF93EF93FF93CF93DF93CDB7DEB780912B
:10215000502090915120009731F080915020909123
:102160005120FC010995DF91CF91FF91EF91BF9133
:10217000AF919F918F917F916F915F914F913F911F
:102180002F910F9000923F000F901F9018951F9273
:102190000F9200903F000F9211242F933F934F9383
:1021A0005F936F937F938F939F93AF93BF93EF93BF
:1021B000FF93CF93DF93CDB7DEB7809152209091FC
:1021C0005320009731F08091522090915320FC01D0
:1021D0000995DF91CF91FF91EF91BF91AF919F91C1
:1021E0008F917F916F915F914F913F912F910F90C0
:1021F00000923F000F901F9018951F920F92009031
:102200003F000F9211242F933F934F935F936F934F
:102210007F938F939F93AF93BF93EF93FF93CF934E
:10222000DF93CDB7DEB78091542090915520009771
:1022300031F08091542090915520FC010995DF9157
:10224000CF91FF91EF91BF91AF919F918F917F912E
:102250006F915F914F913F912F910F9000923F00AE
:102260000F901F9018951F920F9200903F000F92B1
:1022700011242F933F934F935F936F937F938F938B
:102280009F93AF93BF93EF93FF93CF93DF93CDB71C
:10229000DEB78091562090915720009731F08091C1
:1022A000562090915720FC010995DF91CF91FF9125
:1022B000EF91BF91AF919F918F917F916F915F91BE
:1022C0004F913F912F910F9000923F000F901F90E0
:1022D00018951F920F9200903F000F9211242F9398
:1022E0003F934F935F936F937F938F939F93AF939E
:1022F000BF93EF93FF93CF93DF93CDB7DEB780917A
:10230000582090915920009731F080915820909159
:102310005920FC010995DF91CF91FF91EF91BF9179
:10232000AF919F918F917F916F915F914F913F916D
:102330002F910F9000923F000F901F9018951F92C1
:102340000F9200903F000F9211242F933F934F93D1
:102350005F936F937F938F939F93AF93BF93EF930D
:10236000FF93CF93DF93CDB7DEB780915A20909142
:102370005B20009731F080915A2090915B20FC0106
:102380000995DF91CF91FF91EF91BF91AF919F910F
:102390008F917F916F915F914F913F912F910F900E
:1023A00000923F000F901F901895CF93DF9300D0BD
:1023B0001F92CDB7DEB78A839B833CDA89838A81FB
:1023C0009B81811528E0920759F461E083E090E059
:1023D0000E94400964E083E090E00E94400947C009
:1023E0008A819B81803428E0920759F462E083E07F
:1023F00090E00E94400964E083E090E00E94400980
:1024000036C08A819B81811529E0920759F461E0E9
:1024100084E090E00E94400964E084E090E00E9443
:10242000400925C08A819B81803429E0920759F4B4
:1024300062E084E090E00E94400964E084E090E083
:102440000E94400914C08A819B8181152AE092076D
:1024500059F461E085E090E00E94400964E085E085
:1024600090E00E94400903C08981F4D905C081E051
:1024700090E0FFD98981EED92396CDBFDEBFDF91F1
:10248000CF910895CF93DF9300D000D0CDB7DEB7C2
:1024900089839A836B837C8389819A81811528E063
:1024A000920739F48B819C81809328209093292076
:1024B00033C089819A81803428E0920739F48B8176
:1024C0009C81809334209093352026C089819A8105
:1024D000811529E0920739F48B819C8180933C20FF
:1024E00090933D2019C089819A81803429E0920718
:1024F00039F48B819C8180934820909349200CC0B3
:1025000089819A8181152AE0920731F48B819C811F
:1025100080935020909351202496CDBFDEBFDF9151
:10252000CF910895CF93DF9300D0CDB7DEB78983E5
:102530009A8389819A81FC018481282F2061898175
:102540009A81FC0124830F900F90DF91CF91089521
:10255000CF93DF93CDB7DEB72797CDBFDEBF89839B
:102560009A836B837C834D835E832F839B818D81D4
:10257000982B8F81882311F088E001C080E0292FFB
:10258000282B89819A81FC0125832796CDBFDEBF48
:10259000DF91CF910895CF93DF9300D0CDB7DEB711
:1025A00089839A8389819A81FC018481282F2860FC
:1025B00089819A81FC0124830F900F90DF91CF9144
:1025C0000895CF93DF9300D000D0CDB7DEB78983D5
:1025D0009A836B837C8389819A81FC018581982F02
:1025E0009F738B81292F282B89819A81FC01258358
:1025F0002496CDBFDEBFDF91CF910895CF93DF93B7
:1026000000D0CDB7DEB789839A8389819A81FC0196
:102610008181882F90E08072992721E0009709F44A
:1026200020E0822F0F900F90DF91CF910895CF93EC
:10263000DF93CDB7DEB780E098E4A8EEB1E0BC014F
:10264000CD01DF91CF910895CF93DF931F92CDB746
:10265000DEB71982ECDFDC01CB012981222F30E0CB
:10266000022E04C0B695A795979587950A94D2F740
:10267000BC01CD010F90DF91CF910895CF93DF93EF
:10268000CDB7DEB7E1DFDC01CB01BC01CD01DF91CD
:10269000CF910895CF93DF93CDB7DEB7EFDFDC01A5
:1026A000CB01BC01CD01DF91CF910895CF93DF9392
:1026B00000D0CDB7DEB789839A8389819A8100974C
:1026C00009F41EC189819A81803C910531F460E151
:1026D00080E090E00E94400913C189819A818115B0
:1026E00024E0920731F464E080E090E00E94400929
:1026F00007C189819A81803821E0920731F462E034
:1027000080E090E00E944009FBC089819A81811598
:1027100021E0920731F461E080E090E00E944009FE
:10272000EFC089819A81803823E0920731F461E01B
:1027300081E090E00E944009E3C089819A8181157F
:1027400022E0920731F462E081E090E00E944009CB
:10275000D7C089819A81803223E0920731F464E006
:1027600082E090E00E944009CBC089819A81811566
:1027700028E0920731F461E083E090E00E94400994
:10278000BFC089819A81811529E0920731F461E007
:1027900084E090E00E944009B3C089819A8181154C
:1027A0002AE0920731F461E085E090E00E94400960
:1027B000A7C089819A81803428E0920731F462E0D1
:1027C00083E090E00E9440099BC089819A81803417
:1027D00029E0920731F462E084E090E00E94400931
:1027E0008FC089819A81803928E0920731F464E0B2
:1027F00083E090E00E94400983C089819A818039FA
:1028000029E0920731F464E084E090E00E944009FE
:1028100077C089819A8180392AE0920731F464E097
:1028200085E090E00E9440096BC089819A81803CDC
:1028300028E0920731F468E083E090E00E944009CC
:102840005FC089819A81803C29E0920731F468E079
:1028500084E090E00E94400953C089819A81803AC7
:1028600028E0920731F460E183E090E00E944009A3
:1028700047C089819A81803A29E0920731F460E16A
:1028800084E090E00E9440093BC089819A81803AAF
:102890002AE0920731F460E185E090E00E9440096F
:1028A0002FC089819A81803B28E0920731F460E251
:1028B00083E090E00E94400923C089819A81803B97
:1028C00029E0920731F460E284E090E00E94400940
:1028D00017C089819A81803824E0920731F460E43E
:1028E00083E090E00E9440090BC089819A81803A80
:1028F00024E0920729F460E485E090E00E9440091A
:102900000F900F90DF91CF9108950F931F93CF9366
:10291000DF93CDB7DEB72597CDBFDEBF8A839B831C
:102920006C837D838A819B81C1DE8A819B8160E08B
:1029300070E047DE8C819D81FC0120858C819D812A
:10294000FC01468157818C819D81FC0164817581E8
:102950008A819B81FDDD9EDE9B01AC018C819D8186
:10296000FC0180819181A281B381EA81FB8189018F
:102970009A01AC01BD01CF012FD089838A819B814F
:102980000ADE8A819B81CEDD89812596CDBFDEBF9F
:10299000DF91CF911F910F910895CF93DF9300D0D6
:1029A0001F92CDB7DEB789839A836B83000089813C
:1029B0009A8124DE982F81E089278823C1F78981B5
:1029C0009A812B81FC01208380E090E02396CDBF8B
:1029D000DEBFDF91CF910895EF92FF920F931F9387
:1029E000CF93DF93CDB7DEB76F97CDBFDEBF8E8BB2
:1029F0009F8B488F598F6A8F7B8F0C8F1D8F2E8FE7
:102A00003F8F8C8D9D8DAE8DBF8D689412F8B695DD
:102A1000A795979587951694D1F78E879F87A88B52
:102A2000B98B8C8D9D8DAE8DBF8D072E76E1B695C1
:102A3000A795979587957A95D1F7702D8A879B876B
:102A4000AC87BD878E899F89FC018481882F90E0A7
:102A5000847099270097C1F48E859F85A889B989CC
:102A6000B695A795979587958E879F87A88BB98BE5
:102A70008A859B85AC85BD85B695A79597958795E5
:102A80008A879B87AC87BD87288D398D4A8D5B8D62
:102A90008E859F85A889B98982179307A407B507F2
:102AA00068F0288D398D4A8D5B8D8A859B85AC8534
:102AB000BD85281739074A075B0710F480E03CC141
:102AC0008E899F89FC018481882F90E084709927EA
:102AD000009761F4888D998DAA8DBB8D880F991F01
:102AE000AA1FBB1F888F998FAA8FBB8F8FEF90E093
:102AF000A0E0B0E08E839F83A887B9878C8D9D8DE1
:102B0000AE8DBF8D288D398D4A8D5B8DBC01CD0179
:102B10000E9496312A8B3B8B4C8B5D8B89EF89838E
:102B200028C02A893B894C895D898E819F81A8852F
:102B3000B985281739074A075B07F8F08E819F810E
:102B4000A885B985880F991FAA1FBB1F8E839F83F5
:102B5000A887B98789818D3F4CF48E819F81A88594
:102B6000B98581608E839F83A887B98789818F5FAC
:102B7000898389818730ACF201C000008981882374
:102B80000CF088C0888D998DAA8DBB8D880F991FF8
:102B9000AA1FBB1F880F991FAA1FBB1F880F991F51
:102BA000AA1FBB1F2C8D3D8D4E8D5F8D79018A0133
:102BB000E81AF90A0A0B1B0BD801C7018C8F9D8FED
:102BC000AE8FBF8F89818E3F84F58981992787FDDC
:102BD00090952DEF3FEF281B390B8C8D9D8DAE8D81
:102BE000BF8D7C018D0104C0EE0CFF1C001F111F66
:102BF0002A95D2F7A8019701888D998DAA8DBB8D52
:102C0000B695A79597958795820F931FA41FB51F1B
:102C1000288D398D4A8D5B8DBC01CD010E94963186
:102C20002A833B834C835D836EC08981992787FD0E
:102C300090959C012D5F3F4F888D998DAA8DBB8DFE
:102C400004C0880F991FAA1FBB1F2A95D2F7888F2F
:102C5000998FAA8FBB8F888D998DAA8DBB8D9C0172
:102C6000AD0156954795379527958C8D9D8DAE8DE9
:102C7000BF8D820F931FA41FB51F288D398D4A8DDC
:102C80005B8DBC01CD010E9496312A833B834C832E
:102C90005D8339C08981992787FD90959C012D5FBF
:102CA0003F4F888D998DAA8DBB8D04C0880F991FC9
:102CB000AA1FBB1F2A95D2F7888F998FAA8FBB8F27
:102CC000888D998DAA8DBB8D9C01AD015695479538
:102CD000379527958C8D9D8DAE8DBF8D820F931F5F
:102CE000A41FB51F288D398D4A8D5B8DBC01CD0188
:102CF0000E949631DA01C9010197A109B1098A83BD
:102D00009B83AC83BD838A819B81AC81BD81892FEC
:102D10009A2FAB2FBB27982F9F7089818295807F38
:102D2000292F282B8E899F89FC0127832A818E8950
:102D30009F89FC01268381E06F96CDBFDEBFDF91C6
:102D4000CF911F910F91FF90EF900895CF93DF9354
:102D50001F92CDB7DEB78FE390E0FC0180818983BD
:102D6000F89489810F90DF91CF910895CF93DF93ED
:102D70001F92CDB7DEB789838FE390E02981FC01F4
:102D800020830F90DF91CF910895CF93DF9300D0F0
:102D9000CDB7DEB78A83DADF898380E590E020E56E
:102DA00030E0F90130812A81232BFC0120838981C5
:102DB000DDDF0F900F90DF91CF910895CF93DF93D8
:102DC0001F92CDB7DEB789830F90DF91CF91089521
:102DD000CF93DF9300D0CDB7DEB78A83B7DF898387
:102DE00080E590E020E530E0F9012081322F2A8152
:102DF00020952323FC0120838981B8DF0F900F9059
:102E0000DF91CF910895CF93DF931F92CDB7DEB7B7
:102E100089838981883019F08981B7DF02C089816F
:102E2000CDDF0F90DF91CF910895CF93DF931F9265
:102E3000CDB7DEB7898380E590E0FC01918189817F
:102E4000982381E0992309F480E00F90DF91CF91DE
:102E50000895CF93DF931F92CDB7DEB7898300002B
:102E60008981E3DF982F81E089278823C9F70F90B4
:102E7000DF91CF910895CF93DF93CDB7DEB780E098
:102E800098E4A8EEB1E0BC01CD01DF91CF910895A7
:102E9000CF93DF931F92CDB7DEB71982ECDFDC0151
:102EA000CB012981222F30E0022E04C0B695A795D0
:102EB000979587950A94D2F7BC01CD010F90DF91C9
:102EC000CF910895CF93DF93CDB7DEB7E1DFDC017B
:102ED000CB01BC01CD01DF91CF910895CF93DF935A
:102EE000CDB7DEB7EFDFDC01CB01BC01CD01DF9157
:102EF000CF910895CF93DF93CDB7DEB7EFDFDC013D
:102F0000CB01BC01CD01DF91CF91089561507109D2
:102F100081099109D9F70895CF93DF93CDB7DEB733
:102F20002B97CDBFDEBF8A876B878A8589838B8588
:102F30008A8389818B838B818C838C81869586950E
:102F400086958D838D81882F90E0880F991F8295BB
:102F50009295907F9827807F98279A5F8E839F8392
:102F60008A818823A9F0898188878885882F90E0C5
:102F70009C012770332781E090E002C0880F991FE1
:102F80002A95E2F7282F8E819F81FC01258314C0AA
:102F9000898189878985882F90E09C012770332754
:102FA00081E090E002C0880F991F2A95E2F7282F50
:102FB0008E819F81FC0126832B96CDBFDEBFDF91E2
:102FC000CF910895CF93DF93CDB7DEB780EA90E03D
:102FD00027E0FC012283DF91CF910895CF93DF9307
:102FE00000D000D0CDB7DEB789839A836B837C8312
:102FF00089819A81FC018681282F2C7F89819A8181
:10300000FC01268389819A81FC0196818B81292F7D
:10301000282B89819A81FC0126832496CDBFDEBFAF
:10302000DF91CF910895CF93DF9300D000D0CDB73B
:10303000DEB789839A836B837C8389819A81FC01C3
:103040008081982F907F8B81292F282B89819A81CD
:10305000FC0120832496CDBFDEBFDF91CF91089580
:10306000CF93DF9300D000D0CDB7DEB789839A83AA
:103070006B837C8389819A81FC018181982F987F61
:103080008B81292F282B89819A81FC012183249609
:10309000CDBFDEBFDF91CF910895CF93DF9300D0F6
:1030A00000D0CDB7DEB789839A836B837C83898117
:1030B0009A81FC018381982F9F7C8B818295807FF0
:1030C000292F282B89819A81FC0123832496CDBF47
:1030D000DEBFDF91CF910895CF93DF9300D01F9291
:1030E000CDB7DEB789839A836B8389819A812B81DF
:1030F000FC0120832396CDBFDEBFDF91CF910895E1
:10310000CF93DF9300D0CDB7DEB789839A838981CF
:103110009A81FC0180810F900F90DF91CF910895EB
:103120001F920F9200903F000F9211248F929F9256
:10313000AF92BF92CF92DF92EF92FF920F931F93C5
:103140002F933F934F935F936F937F938F939F93AF
:10315000AF93BF93EF93FF93CF93DF93CDB7DEB7DA
:103160002797CDBFDEBF8DB69EB680915D20082F1C
:1031700010E080EA99E0C4DF282FC80180589F4DF5
:10318000FC01208380915D208F5F80935D20B2DE03
:10319000DC01CB015C016D01E12CF12C87012A2DB2
:1031A0003B2D4C2D5D2D6E2D7F2D802F912F01E01D
:1031B0000E94BE31A22EB32EC42ED52EE62EF72E9F
:1031C000082F192F2A2D3B2D4C2D5D2D6E2D7F2D77
:1031D000802F912F215C3D4B404F5F4F6F4F7F4FB2
:1031E0008F4F9F4FA22EB32EC42ED52EE62EF72E34
:1031F000082F192F2A2D3B2D4C2D5D2D6E2D7F2D47
:10320000802F912F0E941D02DC01CB0120E03BE1C9
:1032100047EB5AE4BC01CD010E949803DC01CB01CD
:10322000BC01CD010E946C01A22EB32EC42ED52E5E
:10323000E62EF72E082F192FD601C501BC01CD01AE
:1032400065DE81EA99E0FC01808188230CF460C18D
:10325000809180208A3309F052C180915D20882FAF
:1032600090E0019780589F4DFC0180818D3009F0DE
:1032700037C1198281E08A830FC08A81882F90E04C
:1032800080589F4DFC0180819981F92FF81B8F2F69
:1032900089838A818F5F8A838A81282F30E0809199
:1032A0005D20882F90E002972817390734F380912A
:1032B0005D20882F90E0029780589F4DFC019081FF
:1032C0008981981709F0FDC08DB79EB78C01809158
:1032D0005D20882F90E002979C01215031092C83BA
:1032E0003D832DB73EB7281B390B2DBF3EBF8DB791
:1032F0009EB701968E839F8381E08B8314C08B8160
:10330000882F90E001972B81222F30E020583F4DED
:10331000F90140812E813F81820F931FFC01408380
:103320008B818F5F8B838B81282F30E080915D2094
:10333000882F90E00297281739070CF380915C20C2
:103340008F5F80935C208E819F81FC018081882F1C
:1033500090E0AA2797FDA095BA2F41E050E02FE416
:1033600030E0841B950B2817390708F49EC0825063
:103370009F4FFC010C94B83161E084E10FD79EC0EF
:103380000E94FE289BC080910020682F81E006D714
:1033900095C00E94362992C00E94642A8FC08E81F7
:1033A0009F810E943C2A8AC08E819F810E941C2B93
:1033B00085C00E948F2982C00E94C02A7FC00E94BF
:1033C00079297CC080915E20682F83E2E7D676C0A1
:1033D0008E819F810E94312B71C080915C20682F6B
:1033E00088E0DCD66BC08E819F81BC0181E00E94A9
:1033F000422C64C08E819F81BC0182E00E94422CDD
:103400005DC08E819F81BC0183E00E94422C56C02A
:103410008E819F81BC0183E00E94422C4FC08E812F
:103420009F81BC0184E00E94422C48C08E819F8114
:10343000BC0185E00E94422C41C08E819F81BC016D
:1034400086E00E94422C3AC08E819F81BC0187E0B9
:103450000E94422C33C08E819F81BC0187E00E9474
:10346000422C2CC08E819F81BC0187E00E94422C9F
:1034700025C08E819F81BC0188E00E94422C1EC025
:103480008E819F81BC0188E00E94422C17C08E81F2
:103490009F81BC0189E00E94422C10C08E819F81D7
:1034A000FC0181810E945C2D09C08E819F81FC01FD
:1034B0008081482F61E080E00E945C240DBF1EBF28
:1034C00025C080915D20882F90E0029780589F4D05
:1034D000FC018081482F64E080E00E945C2416C0DB
:1034E00080915D20882F90E0019780589F4DFC01CE
:1034F0008081482F63E080E00E945C2407C08091B7
:103500008020482F62E080E00E945C2410925D20C1
:103510008DBE9EBE2796CDBFDEBFDF91CF91FF91BE
:10352000EF91BF91AF919F918F917F916F915F913B
:103530004F913F912F911F910F91FF90EF90DF904E
:10354000CF90BF90AF909F908F900F9000923F00D0
:103550000F901F9018951F920F9200903F000F92AE
:103560001124CF93DF93CDB7DEB7DF91CF910F90CA
:1035700000923F000F901F9018951F920F9200909D
:103580003F000F9211242F933F934F935F938F939C
:103590009F93AF93BF93EF93FF93CF93DF93CDB7F9
:1035A000DEB700E000930008009300090093000AD2
:1035B000009340080093400980E094E0FC011082F1
:1035C00080E498E0FC0180A191A1CC01A0E0B0E0F2
:1035D000AC013327222780E098E0FC0180A191A173
:1035E000CC01A0E0B0E0820F931FA41FB51F809311
:1035F000622090936320A0936420B093652080E4C0
:1036000099E0FC0180A191A1CC01A0E0B0E0AC0167
:103610003327222780E099E0FC0180A191A1CC0111
:10362000A0E0B0E0820F931FA41FB51F8093672016
:1036300090936820A0936920B0936A2080E09AE07C
:10364000FC0180A191A1CC01A0E0B0E080936C20AE
:1036500090936D20A0936E20B0936F2080E094E053
:10366000FC011086118610925E20DF91CF91FF91B0
:10367000EF91BF91AF919F918F915F914F913F914A
:103680002F910F9000923F000F901F901895CF93AD
:10369000DF93CDB7DEB7809166208F5F8093662081
:1036A000DF91CF910895CF93DF93CDB7DEB78091AF
:1036B0006B208F5F80936B20DF91CF910895CF9324
:1036C000DF93CDB7DEB7809170208F5F809370203D
:1036D000DF91CF9108958F929F92AF92BF92CF9238
:1036E000DF92EF92FF920F931F93CF93DF93CDB7AB
:1036F000DEB7C454D109CDBFDEBF8A839B836C8300
:10370000F9DBDC01CB019C01AD0160E070E0CB0195
:10371000822E932EA42EB52EC62ED72EE82EF92E4D
:10372000282D392D4A2D5B2D6C2D7D2D8E2D9F2D15
:1037300001E00E94BE312D833E834F835887698705
:103740007A878B879C878D809E80AF80B884C98460
:10375000DA84EB84FC84282D392D4A2D5B2D6C2DC9
:103760007D2D8E2D9F2D02E00E94BE312D873E873C
:103770004F87588B698B7A8B8B8B9C8B282D392D9F
:103780004A2D5B2D6C2D7D2D8E2D9F2DAD84BE84FD
:10379000CF84D888E988FA880B891C890E94CD31AA
:1037A000A22EB32EC42ED52EE62EF72E082F192FBB
:1037B0002A2D3B2D4C2D5D2D6E2D7F2D802F912F91
:1037C000215C3D4B404F5F4F6F4F7F4F8F4F9F4F5F
:1037D000A22EB32EC42ED52EE62EF72E082F192F8B
:1037E0002A2D3B2D4C2D5D2D6E2D7F2D802F912F61
:1037F0000E941D02DC01CB0120E03BE147EB5AE4D3
:10380000BC01CD010E949803DC01CB01BC01CD01BC
:103810000E946C01A22EB32EC42ED52EE62EF72EBA
:10382000082F192FD601C501BC01CD016FDB6AE35A
:1038300080EA99E0B2D85EDBDC01CB019C01AD01EE
:1038400060E070E0CB01822E932EA42EB52EC62E02
:10385000D72EE82EF92E282D392D4A2D5B2D6C2DD3
:103860007D2D8E2D9F2D01E00E94BE312D8B3E8B34
:103870004F8B588F698F7A8F8B8F9C8F8D889E8806
:10388000AF88B88CC98CDA8CEB8CFC8C282D392D48
:103890004A2D5B2D6C2D7D2D8E2D9F2D02E00E94DB
:1038A000BE312D8F3E8F4F8F58A369A37AA38BA370
:1038B0009CA3282D392D4A2D5B2D6C2D7D2D8E2D11
:1038C0009F2DAD8CBE8CCF8CD8A0E9A0FAA00BA107
:1038D0001CA10E94CD31A22EB32EC42ED52EE62ED1
:1038E000F72E082F192F2A2D3B2D4C2D5D2D6E2DD7
:1038F0007F2D802F912F215C3D4B404F5F4F6F4FAD
:103900007F4F8F4F9F4FA22EB32EC42ED52EE62E63
:10391000F72E082F192F2A2D3B2D4C2D5D2D6E2DA6
:103920007F2D802F912F0E941D02DC01CB0120E012
:103930003BE147EB5AE4BC01CD010E949803DC0156
:10394000CB01BC01CD010E946C01A22EB32EC42E6E
:10395000D52EE62EF72E082F192FD601C501BC0152
:10396000CD01D4DA1982A7C08981882F90E02A81FD
:103970003B81820F931FFC018081682F80EA99E0D0
:103980000CD8B8DADC01CB019C01AD0160E070E03D
:10399000CB01822E932EA42EB52EC62ED72EE82E26
:1039A000F92E282D392D4A2D5B2D6C2D7D2D8E2D38
:1039B0009F2D01E00E94BE312DA33EA34FA358A727
:1039C00069A77AA78BA79CA78DA09EA0AFA0B8A43B
:1039D000C9A4DAA4EBA4FCA4282D392D4A2D5B2D13
:1039E0006C2D7D2D8E2D9F2D02E00E94BE312DA7C6
:1039F0003EA74FA758AB69AB7AAB8BAB9CAB282DDE
:103A0000392D4A2D5B2D6C2D7D2D8E2D9F2DADA436
:103A1000BEA4CFA4D8A8E9A8FAA80BA91CA90E9403
:103A2000CD31A22EB32EC42ED52EE62EF72E082F82
:103A3000192F2A2D3B2D4C2D5D2D6E2D7F2D802F86
:103A4000912F215C3D4B404F5F4F6F4F7F4F8F4F0A
:103A50009F4FA22EB32EC42ED52EE62EF72E082F62
:103A6000192F2A2D3B2D4C2D5D2D6E2D7F2D802F56
:103A7000912F0E941D02DC01CB0120E03BE147EBCE
:103A80005AE4BC01CD010E949803DC01CB01BC01CA
:103A9000CD010E946C01A22EB32EC42ED52EE62E8F
:103AA000F72E082F192FD601C501BC01CD012EDA42
:103AB00089818F5F898399818C81981708F454CF0D
:103AC0008C81282F2F5F8A819B81622F0E94CF28B3
:103AD000682F80EA99E00E94CD140CDADC01CB015A
:103AE0009C01AD0160E070E0CB01822E932EA42EEC
:103AF000B52EC62ED72EE82EF92E282D392D4A2D7B
:103B00005B2D6C2D7D2D8E2D9F2D01E00E94BE31F1
:103B10002DAB3EAB4FAB58AF69AF7AAF8BAF9CAF1D
:103B20008DA89EA8AFA8B8ACC9ACDAACEBACFCAC25
:103B3000282D392D4A2D5B2D6C2D7D2D8E2D9F2D01
:103B400002E00E94BE312DAF3EAF4FAF21965FAF76
:103B5000219722966FAF229723967FAF23972496C3
:103B60008FAF249725969FAF2597282D392D4A2D65
:103B70005B2D6C2D7D2D8E2D9F2DADACBEACCFACB5
:103B80002196DFAC21972296EFAC22972396FFACCB
:103B9000239724960FAD249725961FAD25970E9455
:103BA000CD31A22EB32EC42ED52EE62EF72E082F01
:103BB000192F2A2D3B2D4C2D5D2D6E2D7F2D802F05
:103BC000912F215C3D4B404F5F4F6F4F7F4F8F4F89
:103BD0009F4FA22EB32EC42ED52EE62EF72E082FE1
:103BE000192F2A2D3B2D4C2D5D2D6E2D7F2D802FD5
:103BF000912F0E941D02DC01CB0120E03BE147EB4D
:103C00005AE4BC01CD010E949803DC01CB01BC0148
:103C1000CD010E946C01A22EB32EC42ED52EE62E0D
:103C2000F72E082F192FD601C501BC01CD016ED981
:103C30006DE080EA99E050DACC5BDF4FCDBFDEBFAC
:103C4000DF91CF911F910F91FF90EF90DF90CF9078
:103C5000BF90AF909F908F9008958F929F92AF9258
:103C6000BF92CF92DF92EF92FF920F931F93CF9369
:103C7000DF93CDB7DEB7C154D109CDBFDEBF898395
:103C800039D9DC01CB019C01AD0160E070E0CB01D2
:103C9000822E932EA42EB52EC62ED72EE82EF92EC8
:103CA000282D392D4A2D5B2D6C2D7D2D8E2D9F2D90
:103CB00001E00E94BE312A833B834C835D836E8387
:103CC0007F83888799878A809B80AC80BD80CE80E7
:103CD000DF80E884F984282D392D4A2D5B2D6C2D49
:103CE0007D2D8E2D9F2D02E00E94BE312A873B87BD
:103CF0004C875D876E877F87888B998B282D392D20
:103D00004A2D5B2D6C2D7D2D8E2D9F2DAA84BB847D
:103D1000CC84DD84EE84FF84088919890E94CD312A
:103D2000A22EB32EC42ED52EE62EF72E082F192F35
:103D30002A2D3B2D4C2D5D2D6E2D7F2D802F912F0B
:103D4000215C3D4B404F5F4F6F4F7F4F8F4F9F4FD9
:103D5000A22EB32EC42ED52EE62EF72E082F192F05
:103D60002A2D3B2D4C2D5D2D6E2D7F2D802F912FDB
:103D70000E941D02DC01CB0120E03BE147EB5AE44D
:103D8000BC01CD010E949803DC01CB01BC01CD0137
:103D90000E946C01A22EB32EC42ED52EE62EF72E35
:103DA000082F192FD601C501BC01CD01AFD86AE398
:103DB00080EA99E00E94CD149DD8DC01CB019C01E2
:103DC000AD0160E070E0CB01822E932EA42EB52EC3
:103DD000C62ED72EE82EF92E282D392D4A2D5B2DF3
:103DE0006C2D7D2D8E2D9F2D01E00E94BE312A8BE2
:103DF0003B8B4C8B5D8B6E8B7F8B888F998F8A88EA
:103E00009B88AC88BD88CE88DF88E88CF98C282D0B
:103E1000392D4A2D5B2D6C2D7D2D8E2D9F2D02E091
:103E20000E94BE312A8F3B8F4C8F5D8F6E8F7F8FAC
:103E300088A399A3282D392D4A2D5B2D6C2D7D2D1E
:103E40008E2D9F2DAA8CBB8CCC8CDD8CEE8CFF8CA8
:103E500008A119A10E94CD31A22EB32EC42ED52EB9
:103E6000E62EF72E082F192F2A2D3B2D4C2D5D2DD8
:103E70006E2D7F2D802F912F215C3D4B404F5F4F4A
:103E80006F4F7F4F8F4F9F4FA22EB32EC42ED52E34
:103E9000E62EF72E082F192F2A2D3B2D4C2D5D2DA8
:103EA0006E2D7F2D802F912F0E941D02DC01CB01F2
:103EB00020E03BE147EB5AE4BC01CD010E949803AE
:103EC000DC01CB01BC01CD010E946C01A22EB32EFE
:103ED000C42ED52EE62EF72E082F192FD601C50198
:103EE000BC01CD0113D8698180EA99E00E94CD140C
:103EF00001D8DC01CB019C01AD0160E070E0CB0199
:103F0000822E932EA42EB52EC62ED72EE82EF92E55
:103F1000282D392D4A2D5B2D6C2D7D2D8E2D9F2D1D
:103F200001E00E94BE312AA33BA34CA35DA36EA374
:103F30007FA388A799A78AA09BA0ACA0BDA0CEA074
:103F4000DFA0E8A4F9A4282D392D4A2D5B2D6C2D76
:103F50007D2D8E2D9F2D02E00E94BE312AA73BA70A
:103F60004CA75DA76EA77FA788AB99AB282D392DED
:103F70004A2D5B2D6C2D7D2D8E2D9F2DAAA4BBA4CB
:103F8000CCA4DDA4EEA4FFA408A919A90E94CD31F8
:103F9000A22EB32EC42ED52EE62EF72E082F192FC3
:103FA0002A2D3B2D4C2D5D2D6E2D7F2D802F912F99
:103FB000215C3D4B404F5F4F6F4F7F4F8F4F9F4F67
:103FC000A22EB32EC42ED52EE62EF72E082F192F93
:103FD0002A2D3B2D4C2D5D2D6E2D7F2D802F912F69
:103FE0000E941D02DC01CB0120E03BE147EB5AE4DB
:103FF000BC01CD010E949803DC01CB01BC01CD01C5
:104000000E946C01A22EB32EC42ED52EE62EF72EC2
:10401000082F192FD601C501BC01CD010E948617BA
:1040200089818195682F80EA99E00E94CD140E94D1
:104030007A17DC01CB019C01AD0160E070E0CB019F
:10404000822E932EA42EB52EC62ED72EE82EF92E14
:10405000282D392D4A2D5B2D6C2D7D2D8E2D9F2DDC
:1040600001E00E94BE312AAB3BAB4CAB5DAB6EAB0B
:104070007FAB88AF99AF8AA89BA8ACA8BDA8CEA8F3
:10408000DFA8E8ACF9AC282D392D4A2D5B2D6C2D1D
:104090007D2D8E2D9F2D02E00E94BE312AAF3BAFB9
:1040A0004CAF5DAF6EAF7FAF21968FAF2197229659
:1040B0009FAF2297282D392D4A2D5B2D6C2D7D2DFC
:1040C0008E2D9F2DAAACBBACCCACDDACEEACFFAC66
:1040D00021960FAD219722961FAD22970E94CD31D8
:1040E000A22EB32EC42ED52EE62EF72E082F192F72
:1040F0002A2D3B2D4C2D5D2D6E2D7F2D802F912F48
:10410000215C3D4B404F5F4F6F4F7F4F8F4F9F4F15
:10411000A22EB32EC42ED52EE62EF72E082F192F41
:104120002A2D3B2D4C2D5D2D6E2D7F2D802F912F17
:104130000E941D02DC01CB0120E03BE147EB5AE489
:10414000BC01CD010E949803DC01CB01BC01CD0173
:104150000E946C01A22EB32EC42ED52EE62EF72E71
:10416000082F192FD601C501BC01CD010E94861769
:104170006DE080EA99E00E946C18CF5BDF4FCDBF05
:10418000DEBFDF91CF911F910F91FF90EF90DF90F5
:10419000CF90BF90AF909F908F9008958F929F92F5
:1041A000AF92BF92CF92DF92EF92FF920F931F9345
:1041B000CF93DF93CDB7DEB7C255D109CDBFDEBFF8
:1041C00089836A830E947A17DC01CB019C01AD01CF
:1041D00060E070E0CB01822E932EA42EB52EC62E69
:1041E000D72EE82EF92E282D392D4A2D5B2D6C2D3A
:1041F0007D2D8E2D9F2D01E00E94BE312B833C83AF
:104200004D835E836F83788789879A878B809C80B4
:10421000AD80BE80CF80D884E984FA84282D392DE2
:104220004A2D5B2D6C2D7D2D8E2D9F2D02E00E9441
:10423000BE312B873C874D875E876F87788B898B54
:104240009A8B282D392D4A2D5B2D6C2D7D2D8E2D91
:104250009F2DAB84BC84CD84DE84EF84F8880989EB
:104260001A890E94CD31A22EB32EC42ED52EE62E51
:10427000F72E082F192F2A2D3B2D4C2D5D2D6E2D3D
:104280007F2D802F912F215C3D4B404F5F4F6F4F13
:104290007F4F8F4F9F4FA22EB32EC42ED52EE62ECA
:1042A000F72E082F192F2A2D3B2D4C2D5D2D6E2D0D
:1042B0007F2D802F912F0E941D02DC01CB0120E079
:1042C0003BE147EB5AE4BC01CD010E949803DC01BD
:1042D000CB01BC01CD010E946C01A22EB32EC42ED5
:1042E000D52EE62EF72E082F192FD601C501BC01B9
:1042F000CD010E9486176AE380EA99E00E94CD14FE
:104300000E947A17DC01CB019C01AD0160E070E0F6
:10431000CB01822E932EA42EB52EC62ED72EE82E9C
:10432000F92E282D392D4A2D5B2D6C2D7D2D8E2DAE
:104330009F2D01E00E94BE312B8B3C8B4D8B5E8B01
:104340006F8B788F898F9A8F8B889C88AD88BE8879
:10435000CF88D88CE98CFA8C282D392D4A2D5B2DED
:104360006C2D7D2D8E2D9F2D02E00E94BE312B8F56
:104370003C8F4D8F5E8F6F8F78A389A39AA3282DD2
:10438000392D4A2D5B2D6C2D7D2D8E2D9F2DAB8CC7
:10439000BC8CCD8CDE8CEF8CF8A009A11AA10E94F8
:1043A000CD31A22EB32EC42ED52EE62EF72E082FF9
:1043B000192F2A2D3B2D4C2D5D2D6E2D7F2D802FFD
:1043C000912F215C3D4B404F5F4F6F4F7F4F8F4F81
:1043D0009F4FA22EB32EC42ED52EE62EF72E082FD9
:1043E000192F2A2D3B2D4C2D5D2D6E2D7F2D802FCD
:1043F000912F0E941D02DC01CB0120E03BE147EB45
:104400005AE4BC01CD010E949803DC01CB01BC0140
:10441000CD010E946C01A22EB32EC42ED52EE62E05
:10442000F72E082F192FD601C501BC01CD010E941E
:104430008617698180EA99E00E94CD140E947A175C
:10444000DC01CB019C01AD0160E070E0CB01822E6C
:10445000932EA42EB52EC62ED72EE82EF92E282D5B
:10446000392D4A2D5B2D6C2D7D2D8E2D9F2D01E03C
:104470000E94BE312BA33CA34DA35EA36FA378A7DC
:1044800089A79AA78BA09CA0ADA0BEA0CFA0D8A4BE
:10449000E9A4FAA4282D392D4A2D5B2D6C2D7D2DF4
:1044A0008E2D9F2D02E00E94BE312BA73CA74DA769
:1044B0005EA76FA778AB89AB9AAB282D392D4A2D13
:1044C0005B2D6C2D7D2D8E2D9F2DABA4BCA4CDA47A
:1044D000DEA4EFA4F8A809A91AA90E94CD31A22E42
:1044E000B32EC42ED52EE62EF72E082F192F2A2DE7
:1044F0003B2D4C2D5D2D6E2D7F2D802F912F215C1E
:104500003D4B404F5F4F6F4F7F4F8F4F9F4FA22EBE
:10451000B32EC42ED52EE62EF72E082F192F2A2DB6
:104520003B2D4C2D5D2D6E2D7F2D802F912F0E94C8
:104530001D02DC01CB0120E03BE147EB5AE4BC016A
:10454000CD010E949803DC01CB01BC01CD010E948A
:104550006C01A22EB32EC42ED52EE62EF72E082FD8
:10456000192FD601C501BC01CD010E9486176A81B1
:1045700080EA99E00E94CD140E947A17DC01CB01F9
:104580009C01AD0160E070E0CB01822E932EA42E41
:10459000B52EC62ED72EE82EF92E282D392D4A2DD0
:1045A0005B2D6C2D7D2D8E2D9F2D01E00E94BE3147
:1045B0002BAB3CAB4DAB5EAB6FAB78AF89AF9AAF7B
:1045C0008BA89CA8ADA8BEA8CFA8D8ACE9ACFAAC83
:1045D000282D392D4A2D5B2D6C2D7D2D8E2D9F2D57
:1045E00002E00E94BE312BAF3CAF4DAF5EAF6FAF6C
:1045F00021967FAF219722968FAF229723969FAF68
:104600002397282D392D4A2D5B2D6C2D7D2D8E2D38
:104610009F2DABACBCACCDACDEACEFAC2196FFAC0F
:10462000219722960FAD229723961FAD23970E94C4
:10463000CD31A22EB32EC42ED52EE62EF72E082F66
:10464000192F2A2D3B2D4C2D5D2D6E2D7F2D802F6A
:10465000912F215C3D4B404F5F4F6F4F7F4F8F4FEE
:104660009F4FA22EB32EC42ED52EE62EF72E082F46
:10467000192F2A2D3B2D4C2D5D2D6E2D7F2D802F3A
:10468000912F0E941D02DC01CB0120E03BE147EBB2
:104690005AE4BC01CD010E949803DC01CB01BC01AE
:1046A000CD010E946C01A22EB32EC42ED52EE62E73
:1046B000F72E082F192FD601C501BC01CD010E948C
:1046C00086178981982F91958A81292F281B822FFF
:1046D000682F80EA99E00E94CD140E947A17DC01CD
:1046E000CB019C01AD0160E070E0CB01822E932EE6
:1046F000A42EB52EC62ED72EE82EF92E282D392D14
:104700004A2D5B2D6C2D7D2D8E2D9F2D01E00E945D
:10471000BE3124962FAF249725963FAF2597269636
:104720004FAF269727965FAF279728966FAF2897AA
:1047300029967FAF29972A968FAF2A972B969FAFFE
:104740002B9724968FAC249725969FAC2597269679
:10475000AFAC26972796BFAC27972896CFAC289763
:104760002996DFAC29972A96EFAC2A972B96FFACB7
:104770002B97282D392D4A2D5B2D6C2D7D2D8E2DBF
:104780009F2D02E00E94BE312C962FAF2C972D96C4
:104790003FAF2D972E964FAF2E972F965FAF2F9747
:1047A00060966FAF609761967FAF619762968FAFAB
:1047B000629763969FAF6397282D392D4A2D5B2D05
:1047C0006C2D7D2D8E2D9F2D2C96AFAC2C972D967C
:1047D000BFAC2D972E96CFAC2E972F96DFAC2F9790
:1047E0006096EFAC60976196FFAC619762960FADF3
:1047F000629763961FAD63970E94CD31A22EB32EB0
:10480000C42ED52EE62EF72E082F192F2A2D3B2D3C
:104810004C2D5D2D6E2D7F2D802F912F215C3D4BDA
:10482000404F5F4F6F4F7F4F8F4F9F4FA22EB32E42
:10483000C42ED52EE62EF72E082F192F2A2D3B2D0C
:104840004C2D5D2D6E2D7F2D802F912F0E941D02EE
:10485000DC01CB0120E03BE147EB5AE4BC01CD0198
:104860000E949803DC01CB01BC01CD010E946C01C8
:10487000A22EB32EC42ED52EE62EF72E082F192FDA
:10488000D601C501BC01CD010E9486176DE080EA0A
:1048900099E00E946C18CE5ADF4FCDBFDEBFDF918A
:1048A000CF911F910F91FF90EF90DF90CF90BF902D
:1048B000AF909F908F9008958F929F92AF92BF92EA
:1048C000CF92DF92EF92FF920F931F93CF93DF93DC
:1048D000CDB7DEB7C356D109CDBFDEBF89836A83AA
:1048E0004B830E947A17DC01CB019C01AD0160E093
:1048F00070E0CB01822E932EA42EB52EC62ED72E7D
:10490000E82EF92E282D392D4A2D5B2D6C2D7D2D6D
:104910008E2D9F2D01E00E94BE312C833D834E835E
:104920005F83688779878A879B878C809D80AE802C
:10493000BF80C884D984EA84FB84282D392D4A2D70
:104940005B2D6C2D7D2D8E2D9F2D02E00E94BE31A2
:104950002C873D874E875F87688B798B8A8B9B8BF3
:10496000282D392D4A2D5B2D6C2D7D2D8E2D9F2DC3
:10497000AC84BD84CE84DF84E888F9880A891B89E9
:104980000E94CD31A22EB32EC42ED52EE62EF72EA8
:10499000082F192F2A2D3B2D4C2D5D2D6E2D7F2D8F
:1049A000802F912F215C3D4B404F5F4F6F4F7F4FCA
:1049B0008F4F9F4FA22EB32EC42ED52EE62EF72E4C
:1049C000082F192F2A2D3B2D4C2D5D2D6E2D7F2D5F
:1049D000802F912F0E941D02DC01CB0120E03BE1E2
:1049E00047EB5AE4BC01CD010E949803DC01CB01E6
:1049F000BC01CD010E946C01A22EB32EC42ED52E77
:104A0000E62EF72E082F192FD601C501BC01CD01C6
:104A10000E9486176AE380EA99E00E94CD140E9402
:104A20007A17DC01CB019C01AD0160E070E0CB01A5
:104A3000822E932EA42EB52EC62ED72EE82EF92E1A
:104A4000282D392D4A2D5B2D6C2D7D2D8E2D9F2DE2
:104A500001E00E94BE312C8B3D8B4E8B5F8B688FAB
:104A6000798F8A8F9B8F8C889D88AE88BF88C88CF1
:104A7000D98CEA8CFB8C282D392D4A2D5B2D6C2D81
:104A80007D2D8E2D9F2D02E00E94BE312C8F3D8FFB
:104A90004E8F5F8F68A379A38AA39BA3282D392DFE
:104AA0004A2D5B2D6C2D7D2D8E2D9F2DAC8CBD8CBC
:104AB000CE8CDF8CE8A0F9A00AA11BA10E94CD3109
:104AC000A22EB32EC42ED52EE62EF72E082F192F88
:104AD0002A2D3B2D4C2D5D2D6E2D7F2D802F912F5E
:104AE000215C3D4B404F5F4F6F4F7F4F8F4F9F4F2C
:104AF000A22EB32EC42ED52EE62EF72E082F192F58
:104B00002A2D3B2D4C2D5D2D6E2D7F2D802F912F2D
:104B10000E941D02DC01CB0120E03BE147EB5AE49F
:104B2000BC01CD010E949803DC01CB01BC01CD0189
:104B30000E946C01A22EB32EC42ED52EE62EF72E87
:104B4000082F192FD601C501BC01CD010E9486177F
:104B5000698180EA99E00E94CD140E947A17DC01F5
:104B6000CB019C01AD0160E070E0CB01822E932E61
:104B7000A42EB52EC62ED72EE82EF92E282D392D8F
:104B80004A2D5B2D6C2D7D2D8E2D9F2D01E00E94D9
:104B9000BE312CA33DA34EA35FA368A779A78AA724
:104BA0009BA78CA09DA0AEA0BFA0C8A4D9A4EAA436
:104BB000FBA4282D392D4A2D5B2D6C2D7D2D8E2D9E
:104BC0009F2D02E00E94BE312CA73DA74EA75FA7F4
:104BD00068AB79AB8AAB9BAB282D392D4A2D5B2D69
:104BE0006C2D7D2D8E2D9F2DACA4BDA4CEA4DFA455
:104BF000E8A8F9A80AA91BA90E94CD31A22EB32EBC
:104C0000C42ED52EE62EF72E082F192F2A2D3B2D38
:104C10004C2D5D2D6E2D7F2D802F912F215C3D4BD6
:104C2000404F5F4F6F4F7F4F8F4F9F4FA22EB32E3E
:104C3000C42ED52EE62EF72E082F192F2A2D3B2D08
:104C40004C2D5D2D6E2D7F2D802F912F0E941D02EA
:104C5000DC01CB0120E03BE147EB5AE4BC01CD0194
:104C60000E949803DC01CB01BC01CD010E946C01C4
:104C7000A22EB32EC42ED52EE62EF72E082F192FD6
:104C8000D601C501BC01CD010E9486176A8180EA68
:104C900099E00E94CD140E947A17DC01CB019C019F
:104CA000AD0160E070E0CB01822E932EA42EB52ED4
:104CB000C62ED72EE82EF92E282D392D4A2D5B2D04
:104CC0006C2D7D2D8E2D9F2D01E00E94BE312CABD1
:104CD0003DAB4EAB5FAB68AF79AF8AAF9BAF8CA8F3
:104CE0009DA8AEA8BFA8C8ACD9ACEAACFBAC282D37
:104CF000392D4A2D5B2D6C2D7D2D8E2D9F2D02E0A3
:104D00000E94BE312CAF3DAF4EAF5FAF21966FAF6B
:104D1000219722967FAF229723968FAF23972496D1
:104D20009FAF2497282D392D4A2D5B2D6C2D7D2D7D
:104D30008E2D9F2DACACBDACCEACDFAC2196EFACD4
:104D400021972296FFAC229723960FAD23972496A6
:104D50001FAD24970E94CD31A22EB32EC42ED52E86
:104D6000E62EF72E082F192F2A2D3B2D4C2D5D2DC9
:104D70006E2D7F2D802F912F215C3D4B404F5F4F3B
:104D80006F4F7F4F8F4F9F4FA22EB32EC42ED52E25
:104D9000E62EF72E082F192F2A2D3B2D4C2D5D2D99
:104DA0006E2D7F2D802F912F0E941D02DC01CB01E3
:104DB00020E03BE147EB5AE4BC01CD010E9498039F
:104DC000DC01CB01BC01CD010E946C01A22EB32EEF
:104DD000C42ED52EE62EF72E082F192FD601C50189
:104DE000BC01CD010E9486176B8180EA99E00E9488
:104DF000CD140E947A17DC01CB019C01AD0160E06B
:104E000070E0CB01822E932EA42EB52EC62ED72E67
:104E1000E82EF92E282D392D4A2D5B2D6C2D7D2D58
:104E20008E2D9F2D01E00E94BE3125962FAF259734
:104E300026963FAF269727964FAF279728965FAFC6
:104E4000289729966FAF29972A967FAF2A972B9696
:104E50008FAF2B972C969FAF2C9725968FAC2597CD
:104E600026969FAC26972796AFAC27972896BFAC7F
:104E700028972996CFAC29972A96DFAC2A972B96AC
:104E8000EFAC2B972C96FFAC2C97282D392D4A2D63
:104E90005B2D6C2D7D2D8E2D9F2D02E00E94BE314D
:104EA0002D962FAF2D972E963FAF2E972F964FAF63
:104EB0002F9760965FAF609761966FAF619762962C
:104EC0007FAF629763968FAF639764969FAF649747
:104ED000282D392D4A2D5B2D6C2D7D2D8E2D9F2D4E
:104EE0002D96AFAC2D972E96BFAC2E972F96CFACAC
:104EF0002F976096DFAC60976196EFAC61976296F2
:104F0000FFAC629763960FAD639764961FAD64978D
:104F10000E94CD31A22EB32EC42ED52EE62EF72E12
:104F2000082F192F2A2D3B2D4C2D5D2D6E2D7F2DF9
:104F3000802F912F215C3D4B404F5F4F6F4F7F4F34
:104F40008F4F9F4FA22EB32EC42ED52EE62EF72EB6
:104F5000082F192F2A2D3B2D4C2D5D2D6E2D7F2DC9
:104F6000802F912F0E941D02DC01CB0120E03BE14C
:104F700047EB5AE4BC01CD010E949803DC01CB0150
:104F8000BC01CD010E946C01A22EB32EC42ED52EE1
:104F9000E62EF72E082F192FD601C501BC01CD0131
:104FA0000E9486178981982F91958A81981B8B8101
:104FB000292F281B822F682F80EA99E00E94CD14A8
:104FC0000E947A17DC01CB019C01AD0160E070E02A
:104FD000CB01822E932EA42EB52EC62ED72EE82ED0
:104FE000F92E282D392D4A2D5B2D6C2D7D2D8E2DE2
:104FF0009F2D01E00E94BE3165962FAF65976696A2
:105000003FAF669767964FAF679768965FAF6897B1
:1050100069966FAF69976A967FAF6A976B968FAF05
:105020006B976C969FAF6C9765968FAC65976696FD
:105030009FAC66976796AFAC67976896BFAC68976A
:105040006996CFAC69976A96DFAC6A976B96EFACBE
:105050006B976C96FFAC6C97282D392D4A2D5B2DE4
:105060006C2D7D2D8E2D9F2D02E00E94BE316D9600
:105070002FAF6D976E963FAF6E976F964FAF6F974E
:10508000A0965FAFA097A1966FAFA197A2967FAFB2
:10509000A297A3968FAFA397A4969FAFA497282D0E
:1050A000392D4A2D5B2D6C2D7D2D8E2D9F2D6D96CE
:1050B000AFAC6D976E96BFAC6E976F96CFAC6F9797
:1050C000A096DFACA097A196EFACA197A296FFACFB
:1050D000A297A3960FADA397A4961FADA4970E9485
:1050E000CD31A22EB32EC42ED52EE62EF72E082FAC
:1050F000192F2A2D3B2D4C2D5D2D6E2D7F2D802FB0
:10510000912F215C3D4B404F5F4F6F4F7F4F8F4F33
:105110009F4FA22EB32EC42ED52EE62EF72E082F8B
:10512000192F2A2D3B2D4C2D5D2D6E2D7F2D802F7F
:10513000912F0E941D02DC01CB0120E03BE147EBF7
:105140005AE4BC01CD010E949803DC01CB01BC01F3
:10515000CD010E946C01A22EB32EC42ED52EE62EB8
:10516000F72E082F192FD601C501BC01CD010E94D1
:1051700086176DE080EA99E00E946C18CD59DF4FE8
:10518000CDBFDEBFDF91CF911F910F91FF90EF90C8
:10519000DF90CF90BF90AF909F908F900895CF9366
:1051A000DF93CDB7DEB72597CDBFDEBF8B839C8362
:1051B0006D8319821A8211C08A81882F90E02B8119
:1051C0003C81820F931FFC0180819981F92FF81B8C
:1051D0008F2F89838A818F5F8A838A81282F30E08D
:1051E0008D81882F90E00197281739072CF389814A
:1051F0002596CDBFDEBFDF91CF910895CF93DF938A
:10520000CDB7DEB72997CDBFDEBF0E947A17DC018C
:10521000CB0189839A83AB83BC8383E08D838981AF
:105220008E8389819A81AB81BC81892F9A2FAB2F84
:10523000BB278F8389819A81AB81BC81CD01AA274D
:10524000BB27888789819A81AB81BC818B2F992765
:10525000AA27BB278987CE01059665E00E946B1BB4
:105260002996CDBFDEBFDF91CF910895CF93DF9315
:10527000CDB7DEB72597CDBFDEBF82E089838091B1
:10528000012090910220A0910320B09104208A83F4
:105290008091012090910220A0910320B0910420E0
:1052A000892F9A2FAB2FBB278B8380910120909160
:1052B0000220A0910320B0910420CD01AA27BB2792
:1052C0008C838091012090910220A0910320B091C5
:1052D00004208B2F9927AA27BB278D8365E0CE0159
:1052E00001960E946B1B2596CDBFDEBFDF91CF914B
:1052F0000895CF93DF931F92CDB7DEB7F89484E083
:10530000898361E0CE0101960E946B1B88E790E0E3
:1053100021E0FC0121830F90DF91CF910895CF937D
:10532000DF93CDB7DEB72F97CDBFDEBF80E2898395
:1053300080915E208A83809166208B831C821D82EF
:105340001E821F8280916B20888719861A861B8691
:105350001C86809170208D871E861F8680915E201E
:10536000882F90E0009709F07AC080916220909198
:105370006320A0916420B09165208B2F9927AA27E4
:10538000BB278C838091622090916320A091642040
:10539000B0916520CD01AA27BB278D838091622023
:1053A00090916320A0916420B0916520892F9A2F5D
:1053B000AB2FBB278E838091622090916320A091B8
:1053C0006420B09165208F83809167209091682040
:1053D000A0916920B0916A208B2F9927AA27BB271B
:1053E00089878091672090916820A0916920B09171
:1053F0006A20CD01AA27BB278A87809167209091D8
:105400006820A0916920B0916A20892F9A2FAB2F34
:10541000BB278B878091672090916820A09169209D
:10542000B0916A208C8780916C2090916D20A09122
:105430006E20B0916F20892F9A2FAB2FBB278E87BC
:1054400080916C2090916D20A0916E20B0916F2082
:105450008F876FE0CE0101960E946B1B07C0809181
:105460005E20682F80E20E94CE2000002F96CDBFE4
:10547000DEBFDF91CF910895CF93DF9300D0CDB7FA
:10548000DEB789839A8389819A810196FC018081A4
:10549000882F90E0382F222789819A810296FC017B
:1054A0008081882F90E0820F931F809360209093DB
:1054B000612080915E20682F8EE10E94CE200F90A7
:1054C0000F90DF91CF910895CF93DF93CDB7DEB7E3
:1054D00080915E20823009F44AC0109266201092BA
:1054E0006B201092702080E098E0FC0110A211A2C5
:1054F00080E498E0FC0110A211A280E099E0FC0198
:1055000010A211A280E499E0FC0110A211A280E097
:105510009AE0FC0110A211A280E094E0FC01108648
:10552000118680E094E02091602030916120FC01A0
:105530002287338708E01AE02CE030915F2049E0B1
:105540005BE000930008109300092093000A309359
:105550000004409340085093400980915E20682FDA
:105560008FE10E94CE2082E080935E2006C0809171
:105570005E20682F8FE10E94CE20DF91CF910895A9
:10558000CF93DF93CDB7DEB780915E20823009F0F4
:105590004AC060E070E080E098E00E94131860E08C
:1055A00070E080E099E00E94131860E070E080E015
:1055B0009AE00E94131880E094E0FC01108260E001
:1055C00070E080E498E00E94131860E070E080E4EE
:1055D00099E00E94131880E094E0FC011086118687
:1055E00080E098E0FC0110A211A280E498E0FC01A8
:1055F00010A211A280E099E0FC0110A211A280E4A7
:1056000099E0FC0110A211A280E09AE0FC0110A236
:1056100011A280915E20682F81E20E94CE2081E05D
:1056200080935E2006C080915E20682F81E20E94F8
:10563000CE20DF91CF910895CF93DF9300D0CDB7E7
:10564000DEB789839A8389819A81FC018181809365
:105650005F2082E20E942D1E0F900F90DF91CF916C
:105660000895AF92BF92CF92DF92EF92FF920F9385
:105670001F93CF93DF9300D01F92CDB7DEB78A83FD
:105680009B830E947A17DC01CB015C016D01E12C48
:10569000F12C87012A2D3B2D4C2D5D2D6E2D7F2D5C
:1056A000802F912F215C3D4B404F5F4F6F4F7F4FBD
:1056B0008F4F9F4FA22EB32EC42ED52EE62EF72E3F
:1056C000082F192F2A2D3B2D4C2D5D2D6E2D7F2D52
:1056D000802F912F0E941D02DC01CB0120E03BE1D5
:1056E00047EB5AE4BC01CD010E949803DC01CB01D9
:1056F000BC01CD010E946C01A22EB32EC42ED52E6A
:10570000E62EF72E082F192FD601C501BC01CD01B9
:105710000E94861782E089835AC08981882F90E091
:105720002A813B81820F931FFC018081682F80EAD0
:1057300099E00E94CD140E947A17DC01CB015C0134
:105740006D01E12CF12C87012A2D3B2D4C2D5D2D77
:105750006E2D7F2D802F912F215C3D4B404F5F4F51
:105760006F4F7F4F8F4F9F4FA22EB32EC42ED52E3B
:10577000E62EF72E082F192F2A2D3B2D4C2D5D2DAF
:105780006E2D7F2D802F912F0E941D02DC01CB01F9
:1057900020E03BE147EB5AE4BC01CD010E949803B5
:1057A000DC01CB01BC01CD010E946C01A22EB32E05
:1057B000C42ED52EE62EF72E082F192FD601C5019F
:1057C000BC01CD010E94861789818F5F89838A8100
:1057D0009B810196FC0190818981891708F49DCFF6
:1057E0002396CDBFDEBFDF91CF911F910F91FF9028
:1057F000EF90DF90CF90BF90AF900895CF93DF935D
:10580000CDB7DEB72597CDBFDEBF8B836C837D839D
:105810008B81883070F48B81882F90E080589E4F68
:1058200089839A832C8189819A81FC01208381E07C
:1058300001C080E02596CDBFDEBFDF91CF910895F6
:10584000CF93DF93CDB7DEB72597CDBFDEBF8B8378
:105850006C837D838B81883070F48B81882F90E0FE
:1058600088579E4F89839A832C8189819A81FC0174
:10587000208381E001C080E02596CDBFDEBFDF91AF
:10588000CF910895CF93DF93CDB7DEB76497CDBFA7
:10589000DEBF8A8B6B8B7C8B81E089831A821B82B3
:1058A0008A89882F90E08530910599F1863091059D
:1058B0008CF482309105F9F08330910524F4813025
:1058C0009105A9F040C083309105C9F0843091055D
:1058D000D1F039C08730910539F187309105FCF05E
:1058E0008830910531F18930910541F12CC08091CA
:1058F00071208B832EC0809117208B832AC08091CA
:1059000018208B8326C0809119208B8381E08A83A5
:1059100020C080911A208B8381E08A831AC08091F5
:105920001B208B83198215C080911C208B831982C8
:1059300010C080911D208B8319820BC080911E2086
:105940008B83198206C04A8965E080E00E945C244E
:10595000ADC01C821D828A81882389F18B899C8934
:10596000FC0181818B878B899C89FC0182818C87DA
:105970008B899C89FC0183818D87CE010396BC01B4
:1059800080EC98E00E94E90ACE010B9643E050E0DB
:10599000BC0180EC98E00E946A0ACE010396BC012B
:1059A00080EC98E00E94FE0A8B899C89FC01808132
:1059B0008E87CE010E9661E00E946B1B77C08981B5
:1059C000882361F18B899C89FC0181818F878B8978
:1059D0009C89FC018281888BCE010396BC0180ECFE
:1059E00098E00E94E90ACE010F9642E050E0BC0127
:1059F00080EC98E00E946A0ACE010396BC0180EC1C
:105A000098E00E94FE0A8B899C89FC018081898B29
:105A1000CE01419661E00E946B1B48C08B899C8936
:105A2000FC0181818E838B899C89FC0182818F831B
:105A300060E084E10E948C17CE01069642E050E0BF
:105A4000BC0180EC98E00E946A0A61E084E10E9457
:105A50008C17CE010396BC0180EC98E00E94FE0AF0
:105A600060E084E10E948C17CE01049642E050E091
:105A7000BC0180EC98E00E94A80A61E084E10E94E9
:105A80008C17CE010396BC0180EC98E00E94E90AD5
:105A90008B899C89FC01808188878C8189878D8195
:105AA0008A87CE01089663E00E946B1B6496CDBF87
:105AB000DEBFDF91CF9108952F923F924F925F9278
:105AC0006F927F928F929F92AF92BF92CF92DF920E
:105AD000EF92FF920F931F93CF93DF93CDB7DEB773
