S0180000586D65676133324134555F426F6172642E73726563A4
S113000043C100005EC100005CC100005AC1000091
S113001058C1000056C1000054C1000052C1000084
S113002050C100004EC100000C942F11A5C3000064
S113003048C1000046C100007DC40000B1C40000F6
S1130040E5C4000019C500004DC5000081C50000CD
S1130050B5C50000E9C500001DC6000051C600007A
S113006030C100002EC100002CC100002AC10000D4
S113007028C1000026C1000024C1000022C10000E4
S113008020C100001EC100001CC100001AC10000F4
S113009018C1000016C1000014C1000012C1000004
S11300A010C100000EC100000CC100000AC1000014
S11300B008C1000006C1000004C100000C94D2086D
S11300C00C9408090C943E090C9474090C94AA0924
S11300D00C94E009F6C00000F4C00000F2C0000077
S11300E0F0C00000EEC000000C940F11EAC0000044
S11300F0E8C00000E6C00000E4C00000E2C0000068
S1130100E0C00000DEC00000DCC00000DAC0000077
S1130110D8C00000D6C00000D4C00000D2C0000087
S1130120D0C00000CEC00000CCC00000CAC0000097
S1130130C8C000001BC600004FC6000083C60000F4
S1130140B7C60000EBC600001FC7000053C700007D
S113015087C70000BBC70000EFC70000B2C00000A3
S11301600C94AD10AEC00000ACC00000AAC00000EA
S1130170A8C00000A6C00000A4C00000A2C00000E7
S1130180A0C000009EC000009CC000009AC00000F7
S113019098C0000096C0000094C0000092C0000007
S11301A090C000008EC000008CC000008AC0000017
S11301B088C0000086C0000084C0000082C0000027
S11301C080C000007EC000007CC000007AC0000037
S11301D078C0000076C0000074C0000072C0000047
S11301E070C000006EC000006CC000006AC0000057
S11301F068C0000066C0000064C0000015121B1235
S1130200131223124A124A124A1227124A124A128B
S11302104A124A124A124A124A124A124A124A12FA
S11302204A1206124A124A124A124A124A124A122E
S11302304A124A124A121D1221121F124A124A125B
S11302404A124A124A124A124A122D123012361215
S1130250391233124A124A124A124A124A12251207
S11302604A124A124A124A124A124A124A124A12AA
S11302704A123C123F12451242124A124A124A12C0
S11302804A124A124A12481211241FBECFEFDFE26B
S1130290DEBFCDBF10E2A0E0B0E2E8EEF4E302C0BE
S11302A005900D92A232B107D9F721E2A2E2B0E2A1
S11302B001C01D92AF34B207E1F70E94C0180C943C
S11302C0721A9ECECF93DF931F92CDB7DEB78FE322
S11302D090E0FC0180818983F89489810F90DF91FB
S11302E0CF910895CF93DF931F92CDB7DEB7898363
S11302F08FE390E02981FC0120830F90DF91CF915F
S11303000895CF93DF9300D000D0CDB7DEB78A83B2
S11303109B836C83D7DF89838A819B8180599F4F1C
S11303202A813B8120593F4FF9012081322F2C81B2
S113033020952323FC0120838981D4DF2496CDBF1B
S1130340DEBFDF91CF910895CF93DF93CDB7DEB7B2
S11303502A97CDBFDEBF8A878A8589831A828981DD
S11303608B838B818C838C818695869586958D83F2
S11303708D81882F90E0880F991F82959295907FA8
S11303809827807F98279A5F8E839F838A8188230A
S1130390A9F0898188878885882F90E09C0127703F
S11303A0332781E090E002C0880F991F2A95E2F775
S11303B0282F8E819F81FC01258314C08981898720
S11303C08985882F90E09C012770332781E090E095
S11303D002C0880F991F2A95E2F7282F8E819F81EA
S11303E0FC0126832A96CDBFDEBFDF91CF9108950D
S11303F0CF93DF93CDB7DEB72A97CDBFDEBF8A8711
S11304008A85898381E08A8389818B838B818C832C
S11304108C818695869586958D838D81882F90E035
S1130420880F991F82959295907F9827807F9827AF
S11304309A5F8E839F838A818823A9F08981888724
S11304408885882F90E09C012770332781E090E015
S113045002C0880F991F2A95E2F7282F8E819F8169
S1130460FC01258314C0898189878985882F90E0C0
S11304709C012770332781E090E002C0880F991F08
S11304802A95E2F7282F8E819F81FC0126832A96E4
S1130490CDBFDEBFDF91CF910895CF93DF9300D01E
S11304A01F92CDB7DEB789839A836B8389819A8142
S11304B02B81FC0123832396CDBFDEBFDF91CF9137
S11304C00895CF93DF9300D0CDB7DEB789839A83A5
S11304D089819A81FC0183810F900F90DF91CF91E4
S11304E00895CF93DF9300D0CDB7DEB789839A8385
S11304F089819A81FC018281881F8827881F0F9037
S11305000F90DF91CF910895CF93DF9300D000D067
S1130510CDB7DEB789839A836B837C8389819A8183
S1130520D0DF282F8B819C81FC0120832496CDBFB2
S1130530DEBFDF91CF910895CF93DF9300D0CDB785
S1130540DEB789839A8389819A81CBDF0F900F90DC
S1130550DF91CF910895CF93DF93CDB7DEB729977D
S1130560CDBFDEBF8C839D836E837F83488759878D
S11305701BC08E819F81FC0120818E819F81019609
S11305808E839F838C819D8189839A832B83898128
S11305909A816B8182DF00008C819D81CDDF982F51
S11305A081E089278823C1F721E088859985009710
S11305B009F420E088859985019788879987222303
S11305C0C1F680E090E02996CDBFDEBFDF91CF91E8
S11305D00895CF93DF93CDB7DEB72997CDBFDEBFA4
S11305E08C839D836E837F83488759871EC08C814B
S11305F09D8189839A838FEF8B8389819A816B8113
S11306004CDF00008C819D8197DF982F81E0892742
S11306108823C1F72E813F818C819D81B90174DFCC
S11306208E819F8101968E839F8321E088859985A1
S1130630009709F420E08885998501978887998730
S11306402223A9F680E090E02996CDBFDEBFDF919A
S1130650CF910895CF93DF9300D000D0CDB7DEB70C
S113066089839A836B837C838B819C81FC01808149
S11306706BDE2496CDBFDEBFDF91CF910895CF937B
S1130680DF9300D000D0CDB7DEB789839A836B8324
S11306907C838B819C81FC018081AADE2496CDBF62
S11306A0DEBFDF91CF9108951BBEFC0128ED24BF6E
S11306B060830895CF93DF931F92CDB7DEB78FE3A6
S11306C090E0FC0180818983F89489810F90DF9107
S11306D0CF910895CF93DF931F92CDB7DEB789836F
S11306E08FE390E02981FC0120830F90DF91CF916B
S11306F00895CF93DF9300D01F92CDB7DEB78A83DE
S11307009B83D8DF89838A819B818E589F4DFC010E
S11307108081282F2F5F8A819B818E589F4DFC01F9
S113072020838981D7DF2396CDBFDEBFDF91CF91B0
S11307300895CF93DF93CDB7DEB764E080E090E017
S1130740E0DD80E094E02FEF3FEFFC012287338768
S113075080E094E0FC011086118683E090E0C9DF1C
S113076080E094E023E0FC01228380E094E0FC013B
S11307701082DF91CF9108951F920F9200903F0055
S11307800F9211242F933F934F935F936F937F9313
S11307908F939F93AF93BF93EF93FF93CF93DF9385
S11307A0CDB7DEB72897CDBFDEBF2091782030913A
S11307B0792080917A2090917B202817390708F4BA
S11307C063C080E094E023E0FC01228380917E20DA
S11307D090917F20009709F457C0809178209091E0
S11307E07920CC01A0E0B0E0AC013327222780E0DF
S11307F094E0FC0180859185CC01A0E0B0E0822BDF
S1130800932BA42BB52B89839A83AB83BC838091D0
S11308107A2090917B20CC01A0E0B0E0AC0133279A
S1130820222780917C2090917D20CC01A0E0B0E033
S1130830822B932BA42BB52B8D839E83AF83B887F8
S11308402D813E814F81588589819A81AB81BC81FC
S1130850281739074A075B0758F08D819E81AF81BD
S1130860B8850196A11DB11D89839A83AB83BC838E
S113087020917E2030917F2089819A81AB81BC8137
S1130880BC01CD01F90109952896CDBFDEBFDF91EA
S1130890CF91FF91EF91BF91AF919F918F917F91F4
S11308A06F915F914F913F912F910F9000923F0074
S11308B00F901F901895CF93DF931F92CDB7DEB79B
S11308C08FE390E0FC0180818983F89489810F9003
S11308D0DF91CF910895CF93DF931F92CDB7DEB709
S11308E089838FE390E02981FC0120830F90DF91BD
S11308F0CF910895CF93DF9300D01F92CDB7DEB789
S11309008A839B83D8DF89838A819B818E589F4DFC
S1130910FC018081282F2F5F8A819B818E589F4DF7
S1130920FC0120838981D7DF2396CDBFDEBFDF9111
S1130930CF9108951F920F9200903F000F921124BF
S11309402F933F934F935F936F937F938F939F93D3
S1130950AF93BF93EF93FF93CF93DF93CDB7DEB7FE
S11309608091222090912320009731F080912220C1
S113097090912320FC010995DF91CF91FF91EF9194
S1130980BF91AF919F918F917F916F915F914F91A3
S11309903F912F910F9000923F000F901F90189558
S11309A01F920F9200903F000F9211242F933F93B8
S11309B04F935F936F937F938F939F93AF93BF9363
S11309C0EF93FF93CF93DF93CDB7DEB780912420CD
S11309D090912520009731F080912420909125203A
S11309E0FC010995DF91CF91FF91EF91BF91AF91F8
S11309F09F918F917F916F915F914F913F912F9133
S1130A000F9000923F000F901F9018951F920F9225
S1130A1000903F000F9211242F933F934F935F93C5
S1130A206F937F938F939F93AF93BF93EF93FF93B2
S1130A30CF93DF93CDB7DEB7809126209091272006
S1130A40009731F08091262090912720FC01099590
S1130A50DF91CF91FF91EF91BF91AF919F918F91D2
S1130A607F916F915F914F913F912F910F900092E1
S1130A703F000F901F9018951F920F9200903F0017
S1130A800F9211242F933F934F935F936F937F9310
S1130A908F939F93AF93BF93EF93FF93CF93DF9382
S1130AA0CDB7DEB78091282090912920009731F0AE
S1130AB08091282090912920FC010995DF91CF9104
S1130AC0FF91EF91BF91AF919F918F917F916F9122
S1130AD05F914F913F912F910F9000923F000F90A3
S1130AE01F9018951F920F9200903F000F921124AF
S1130AF02F933F934F935F936F937F938F939F9322
S1130B00AF93BF93EF93FF93CF93DF93CDB7DEB74C
S1130B1080912A2090912B20009731F080912A20F7
S1130B2090912B20FC010995DF91CF91FF91EF91DA
S1130B30BF91AF919F918F917F916F915F914F91F1
S1130B403F912F910F9000923F000F901F901895A6
S1130B501F920F9200903F000F9211242F933F9306
S1130B604F935F936F937F938F939F93AF93BF93B1
S1130B70EF93FF93CF93DF93CDB7DEB780912C2013
S1130B8090912D20009731F080912C2090912D2070
S1130B90FC010995DF91CF91FF91EF91BF91AF9146
S1130BA09F918F917F916F915F914F913F912F9181
S1130BB00F9000923F000F901F9018951F920F9274
S1130BC000903F000F9211242F933F934F935F9314
S1130BD06F937F938F939F93AF93BF93EF93FF9301
S1130BE0CF93DF93CDB7DEB780912E2090912F2045
S1130BF0009731F080912E2090912F20FC010995CF
S1130C00DF91CF91FF91EF91BF91AF919F918F9120
S1130C107F916F915F914F913F912F910F9000922F
S1130C203F000F901F9018951F920F9200903F0065
S1130C300F9211242F933F934F935F936F937F935E
S1130C408F939F93AF93BF93EF93FF93CF93DF93D0
S1130C50CDB7DEB78091302090913120009731F0EC
S1130C608091302090913120FC010995DF91CF9142
S1130C70FF91EF91BF91AF919F918F917F916F9170
S1130C805F914F913F912F910F9000923F000F90F1
S1130C901F9018951F920F9200903F000F921124FD
S1130CA02F933F934F935F936F937F938F939F9370
S1130CB0AF93BF93EF93FF93CF93DF93CDB7DEB79B
S1130CC08091322090913320009731F0809132202E
S1130CD090913320FC010995DF91CF91FF91EF9121
S1130CE0BF91AF919F918F917F916F915F914F9140
S1130CF03F912F910F9000923F000F901F901895F5
S1130D001F920F9200903F000F9211242F933F9354
S1130D104F935F936F937F938F939F93AF93BF93FF
S1130D20EF93FF93CF93DF93CDB7DEB78091342059
S1130D3090913520009731F08091342090913520A6
S1130D40FC010995DF91CF91FF91EF91BF91AF9194
S1130D509F918F917F916F915F914F913F912F91CF
S1130D600F9000923F000F901F9018951F920F92C2
S1130D7000903F000F9211242F933F934F935F9362
S1130D806F937F938F939F93AF93BF93EF93FF934F
S1130D90CF93DF93CDB7DEB7809136209091372083
S1130DA0009731F08091362090913720FC0109950D
S1130DB0DF91CF91FF91EF91BF91AF919F918F916F
S1130DC07F916F915F914F913F912F910F9000927E
S1130DD03F000F901F9018951F920F9200903F00B4
S1130DE00F9211242F933F934F935F936F937F93AD
S1130DF08F939F93AF93BF93EF93FF93CF93DF931F
S1130E00CDB7DEB78091382090913920009731F02A
S1130E108091382090913920FC010995DF91CF9180
S1130E20FF91EF91BF91AF919F918F917F916F91BE
S1130E305F914F913F912F910F9000923F000F903F
S1130E401F9018951F920F9200903F000F9211244B
S1130E502F933F934F935F936F937F938F939F93BE
S1130E60AF93BF93EF93FF93CF93DF93CDB7DEB7E9
S1130E7080913A2090913B20009731F080913A2064
S1130E8090913B20FC010995DF91CF91FF91EF9167
S1130E90BF91AF919F918F917F916F915F914F918E
S1130EA03F912F910F9000923F000F901F90189543
S1130EB01F920F9200903F000F9211242F933F93A3
S1130EC04F935F936F937F938F939F93AF93BF934E
S1130ED0EF93FF93CF93DF93CDB7DEB780913C20A0
S1130EE090913D20009731F080913C2090913D20DD
S1130EF0FC010995DF91CF91FF91EF91BF91AF91E3
S1130F009F918F917F916F915F914F913F912F911D
S1130F100F9000923F000F901F9018951F920F9210
S1130F2000903F000F9211242F933F934F935F93B0
S1130F306F937F938F939F93AF93BF93EF93FF939D
S1130F40CF93DF93CDB7DEB780913E2090913F20C1
S1130F50009731F080913E2090913F20FC0109954B
S1130F60DF91CF91FF91EF91BF91AF919F918F91BD
S1130F707F916F915F914F913F912F910F900092CC
S1130F803F000F901F9018951F920F9200903F0002
S1130F900F9211242F933F934F935F936F937F93FB
S1130FA08F939F93AF93BF93EF93FF93CF93DF936D
S1130FB0CDB7DEB78091402090914120009731F069
S1130FC08091402090914120FC010995DF91CF91BF
S1130FD0FF91EF91BF91AF919F918F917F916F910D
S1130FE05F914F913F912F910F9000923F000F908E
S1130FF01F9018951F920F9200903F000F9211249A
S11310002F933F934F935F936F937F938F939F930C
S1131010AF93BF93EF93FF93CF93DF93CDB7DEB737
S11310208091422090914320009731F0809142209A
S113103090914320FC010995DF91CF91FF91EF91AD
S1131040BF91AF919F918F917F916F915F914F91DC
S11310503F912F910F9000923F000F901F90189591
S11310601F920F9200903F000F9211242F933F93F1
S11310704F935F936F937F938F939F93AF93BF939C
S1131080EF93FF93CF93DF93CDB7DEB780914420E6
S113109090914520009731F0809144209091452013
S11310A0FC010995DF91CF91FF91EF91BF91AF9131
S11310B09F918F917F916F915F914F913F912F916C
S11310C00F9000923F000F901F9018951F920F925F
S11310D000903F000F9211242F933F934F935F93FF
S11310E06F937F938F939F93AF93BF93EF93FF93EC
S11310F0CF93DF93CDB7DEB7809146209091472000
S1131100009731F08091462090914720FC01099589
S1131110DF91CF91FF91EF91BF91AF919F918F910B
S11311207F916F915F914F913F912F910F9000921A
S11311303F000F901F9018951F920F9200903F0050
S11311400F9211242F933F934F935F936F937F9349
S11311508F939F93AF93BF93EF93FF93CF93DF93BB
S1131160CDB7DEB78091482090914920009731F0A7
S11311708091482090914920FC010995DF91CF91FD
S1131180FF91EF91BF91AF919F918F917F916F915B
S11311905F914F913F912F910F9000923F000F90DC
S11311A01F9018951F920F9200903F000F921124E8
S11311B02F933F934F935F936F937F938F939F935B
S11311C0AF93BF93EF93FF93CF93DF93CDB7DEB786
S11311D080914A2090914B20009731F080914A20D1
S11311E090914B20FC010995DF91CF91FF91EF91F4
S11311F0BF91AF919F918F917F916F915F914F912B
S11312003F912F910F9000923F000F901F901895DF
S11312101F920F9200903F000F9211242F933F933F
S11312204F935F936F937F938F939F93AF93BF93EA
S1131230EF93FF93CF93DF93CDB7DEB780914C202C
S113124090914D20009731F080914C2090914D2049
S1131250FC010995DF91CF91FF91EF91BF91AF917F
S11312609F918F917F916F915F914F913F912F91BA
S11312700F9000923F000F901F9018951F920F92AD
S113128000903F000F9211242F933F934F935F934D
S11312906F937F938F939F93AF93BF93EF93FF933A
S11312A0CF93DF93CDB7DEB780914E2090914F203E
S11312B0009731F080914E2090914F20FC010995C8
S11312C0DF91CF91FF91EF91BF91AF919F918F915A
S11312D07F916F915F914F913F912F910F90009269
S11312E03F000F901F9018951F920F9200903F009F
S11312F00F9211242F933F934F935F936F937F9398
S11313008F939F93AF93BF93EF93FF93CF93DF9309
S1131310CDB7DEB78091502090915120009731F0E5
S11313208091502090915120FC010995DF91CF913B
S1131330FF91EF91BF91AF919F918F917F916F91A9
S11313405F914F913F912F910F9000923F000F902A
S11313501F9018951F920F9200903F000F92112436
S11313602F933F934F935F936F937F938F939F93A9
S1131370AF93BF93EF93FF93CF93DF93CDB7DEB7D4
S11313808091522090915320009731F08091522007
S113139090915320FC010995DF91CF91FF91EF913A
S11313A0BF91AF919F918F917F916F915F914F9179
S11313B03F912F910F9000923F000F901F9018952E
S11313C01F920F9200903F000F9211242F933F938E
S11313D04F935F936F937F938F939F93AF93BF9339
S11313E0EF93FF93CF93DF93CDB7DEB78091542073
S11313F090915520009731F0809154209091552080
S1131400FC010995DF91CF91FF91EF91BF91AF91CD
S11314109F918F917F916F915F914F913F912F9108
S11314200F9000923F000F901F901895CF93DF9379
S113143000D01F92CDB7DEB78A839B833CDA8983C1
S11314408A819B81811528E0920759F461E083E049
S113145090E00E94810164E083E090E00E948101B9
S113146047C08A819B81803428E0920759F462E066
S113147083E090E00E94810164E083E090E00E94B8
S1131480810136C08A819B81811529E0920759F434
S113149061E084E090E00E94810164E084E090E0F7
S11314A00E94810125C08A819B81803429E09207B2
S11314B059F462E084E090E00E94810164E084E0F9
S11314C090E00E94810114C08A819B8181152AE0E9
S11314D0920759F461E085E090E00E94810164E0A4
S11314E085E090E00E94810103C08981F4D905C0A0
S11314F081E090E0FFD98981EED92396CDBFDEBF8C
S1131500DF91CF910895CF93DF9300D000D0CDB772
S1131510DEB789839A836B837C8389819A81811561
S113152028E0920739F48B819C8180932220909348
S1131530232033C089819A81803428E0920739F4CA
S11315408B819C8180932E2090932F2026C08981AB
S11315509A81811529E0920739F48B819C818093CB
S113156036209093372019C089819A81803429E0EC
S1131570920739F48B819C8180934220909343207D
S11315800CC089819A8181152AE0920731F48B81FC
S11315909C8180934A2090934B202496CDBFDEBF3C
S11315A0DF91CF910895CF93DF9300D0CDB7DEB70D
S11315B089839A8389819A81FC018481282F2061FF
S11315C089819A81FC0124830F900F90DF91CF9140
S11315D00895CF93DF93CDB7DEB72797CDBFDEBF96
S11315E089839A836B837C834D835E832F839B8162
S11315F08D81982B8F81882311F088E001C080E0D1
S1131600292F282B89819A81FC0125832796CDBF18
S1131610DEBFDF91CF910895CF93DF9300D0CDB794
S1131620DEB789839A8389819A81FC018481282F7A
S1131630286089819A81FC0124830F900F90DF91A7
S1131640CF910895CF93DF9300D000D0CDB7DEB70C
S113165089839A836B837C8389819A81FC01858148
S1131660982F9F738B81292F282B89819A81FC01C4
S113167025832496CDBFDEBFDF91CF910895CF930C
S1131680DF9300D0CDB7DEB789839A8389819A81AD
S1131690FC018181882F90E08072992721E00097D6
S11316A009F420E0822F0F900F90DF91CF910895DD
S11316B0CF93DF93CDB7DEB780E098E4A8EEB1E036
S11316C0BC01CD01DF91CF910895CF93DF931F9299
S11316D0CDB7DEB71982ECDFDC01CB012981222FE3
S11316E030E0022E04C0B695A795979587950A9485
S11316F0D2F7BC01CD010F90DF91CF910895CF9324
S1131700DF93CDB7DEB7E1DFDC01CB01BC01CD0156
S1131710DF91CF910895CF93DF93CDB7DEB7EFDF9D
S1131720DC01CB01BC01CD01DF91CF910895CF93B2
S1131730DF9300D0CDB7DEB789839A8389819A81FC
S1131740009709F41EC189819A81803C910531F486
S113175060E180E090E00E94810113C189819A8157
S1131760811524E0920731F464E080E090E00E9467
S1131770810107C189819A81803821E0920731F47F
S113178062E080E090E00E948101FBC089819A813F
S1131790811521E0920731F461E080E090E00E943D
S11317A08101EFC089819A81803823E0920731F466
S11317B061E081E090E00E948101E3C089819A8127
S11317C0811522E0920731F462E081E090E00E940A
S11317D08101D7C089819A81803223E0920731F454
S11317E064E082E090E00E948101CBC089819A810B
S11317F0811528E0920731F461E083E090E00E94D3
S11318008101BFC089819A81811529E0920731F451
S113181061E084E090E00E948101B3C089819A81F3
S113182081152AE0920731F461E085E090E00E949E
S11318308101A7C089819A81803428E0920731F41C
S113184062E083E090E00E9481019BC089819A81DB
S1131850803429E0920731F462E084E090E00E9451
S113186081018FC089819A81803928E0920731F4FF
S113187064E083E090E00E94810183C089819A81C1
S1131880803929E0920731F464E084E090E00E941A
S1131890810177C089819A8180392AE0920731F4E5
S11318A064E085E090E00E9481016BC089819A81A7
S11318B0803C28E0920731F468E083E090E00E94E5
S11318C081015FC089819A81803C29E0920731F4CB
S11318D068E084E090E00E94810153C089819A818C
S11318E0803A28E0920731F460E183E090E00E94BE
S11318F0810147C089819A81803A29E0920731F4B5
S113190060E184E090E00E9481013BC089819A817A
S1131910803A2AE0920731F460E185E090E00E9489
S113192081012FC089819A81803B28E0920731F49C
S113193060E283E090E00E94810123C089819A8162
S1131940803B29E0920731F460E284E090E00E9459
S1131950810117C089819A81803824E0920731F48B
S113196060E483E090E00E9481010BC089819A8148
S1131970803A24E0920729F460E485E090E00E9434
S113198081010F900F90DF91CF9108950F931F93D2
S1131990CF93DF93CDB7DEB72597CDBFDEBF8A8364
S11319A09B836C837D838A819B81C1DE8A819B8139
S11319B060E070E047DE8C819D81FC0120858C8194
S11319C09D81FC01468157818C819D81FC0164814C
S11319D075818A819B81FDDD9EDE9B01AC018C813A
S11319E09D81FC0180819181A281B381EA81FB8187
S11319F089019A01AC01BD01CF012FD089838A816D
S1131A009B810ADE8A819B81CEDD89812596CDBFAB
S1131A10DEBFDF91CF911F910F910895CF93DF9394
S1131A2000D01F92CDB7DEB789839A836B83000001
S1131A3089819A8124DE982F81E089278823C1F740
S1131A4089819A812B81FC01208380E090E0239698
S1131A50CDBFDEBFDF91CF910895EF92FF920F9338
S1131A601F93CF93DF93CDB7DEB76F97CDBFDEBFA4
S1131A708E8B9F8B488F598F6A8F7B8F0C8F1D8F16
S1131A802E8F3F8F8C8D9D8DAE8DBF8D689412F8F7
S1131A90B695A795979587951694D1F78E879F87C6
S1131AA0A88BB98B8C8D9D8DAE8DBF8D072E76E165
S1131AB0B695A795979587957A95D1F7702D8A87CE
S1131AC09B87AC87BD878E899F89FC018481882F81
S1131AD090E0847099270097C1F48E859F85A8892A
S1131AE0B989B695A795979587958E879F87A88B73
S1131AF0B98B8A859B85AC85BD85B695A795979549
S1131B0087958A879B87AC87BD87288D398D4A8DB9
S1131B105B8D8E859F85A889B98982179307A40751
S1131B20B50768F0288D398D4A8D5B8D8A859B8534
S1131B30AC85BD85281739074A075B0710F480E098
S1131B403CC18E899F89FC018481882F90E0847038
S1131B509927009761F4888D998DAA8DBB8D880F84
S1131B60991FAA1FBB1F888F998FAA8FBB8F8FEFD6
S1131B7090E0A0E0B0E08E839F83A887B9878C8D26
S1131B809D8DAE8DBF8D288D398D4A8D5B8DBC01A9
S1131B90CD010E944A1A2A8B3B8B4C8B5D8B89EFBB
S1131BA0898328C02A893B894C895D898E819F81DC
S1131BB0A885B985281739074A075B07F8F08E818D
S1131BC09F81A885B985880F991FAA1FBB1F8E8383
S1131BD09F83A887B98789818D3F4CF48E819F812B
S1131BE0A885B98581608E839F83A887B9878981F9
S1131BF08F5F898389818730ACF201C000008981BD
S1131C0088230CF088C0888D998DAA8DBB8D880F90
S1131C10991FAA1FBB1F880F991FAA1FBB1F880FDC
S1131C20991FAA1FBB1F2C8D3D8D4E8D5F8D790191
S1131C308A01E81AF90A0A0B1B0BD801C7018C8F19
S1131C409D8FAE8FBF8F89818E3F84F589819927BF
S1131C5087FD90952DEF3FEF281B390B8C8D9D8DC3
S1131C60AE8DBF8D7C018D0104C0EE0CFF1C001FE6
S1131C70111F2A95D2F7A8019701888D998DAA8DF5
S1131C80BB8DB695A79597958795820F931FA41F33
S1131C90B51F288D398D4A8D5B8DBC01CD010E9405
S1131CA04A1A2A833B834C835D836EC089819927BA
S1131CB087FD90959C012D5F3F4F888D998DAA8D4E
S1131CC0BB8D04C0880F991FAA1FBB1F2A95D2F78A
S1131CD0888F998FAA8FBB8F888D998DAA8DBB8D84
S1131CE09C01AD0156954795379527958C8D9D8D13
S1131CF0AE8DBF8D820F931FA41FB51F288D398D04
S1131D004A8D5B8DBC01CD010E944A1A2A833B8314
S1131D104C835D8339C08981992787FD90959C0107
S1131D202D5F3F4F888D998DAA8DBB8D04C0880F80
S1131D30991FAA1FBB1F2A95D2F7888F998FAA8F44
S1131D40BB8F888D998DAA8DBB8D9C01AD01569555
S1131D504795379527958C8D9D8DAE8DBF8D820FC0
S1131D60931FA41FB51F288D398D4A8D5B8DBC012F
S1131D70CD010E944A1ADA01C9010197A109B109EA
S1131D808A839B83AC83BD838A819B81AC81BD8123
S1131D90892F9A2FAB2FBB27982F9F70898182950B
S1131DA0807F292F282B8E899F89FC0127832A81F4
S1131DB08E899F89FC01268381E06F96CDBFDEBFAB
S1131DC0DF91CF911F910F91FF90EF900895CF93E2
S1131DD0DF931F92CDB7DEB78FE390E0FC018081E3
S1131DE08983F89489810F90DF91CF910895CF93DF
S1131DF0DF931F92CDB7DEB789838FE390E029810B
S1131E00FC0120830F90DF91CF910895CF93DF934E
S1131E1000D0CDB7DEB78A83DADF898380E590E02E
S1131E2020E530E0F90130812A81232BFC01208355
S1131E308981DDDF0F900F90DF91CF910895CF93CB
S1131E40DF931F92CDB7DEB789830F90DF91CF91D7
S1131E500895CF93DF9300D0CDB7DEB78A83B7DF81
S1131E60898380E590E020E530E0F9012081322F7C
S1131E702A8120952323FC0120838981B8DF0F90D8
S1131E800F90DF91CF910895CF93DF931F92CDB739
S1131E90DEB789838981883019F08981B7DF02C070
S1131EA08981CDDF0F90DF91CF910895CF93DF9398
S1131EB01F92CDB7DEB7898380E590E0FC01918164
S1131EC08981982381E0992309F480E00F90DF91C0
S1131ED0CF910895CF93DF931F92CDB7DEB7898357
S1131EE000008981E3DF982F81E089278823C9F7DF
S1131EF00F90DF91CF910895CF93DF93CDB7DEB7E5
S1131F0080E098E4A8EEB1E0BC01CD01DF91CF916F
S1131F100895CF93DF931F92CDB7DEB71982ECDF1C
S1131F20DC01CB012981222F30E0022E04C0B695BA
S1131F30A795979587950A94D2F7BC01CD010F9088
S1131F40DF91CF910895CF93DF93CDB7DEB7E1DF73
S1131F50DC01CB01BC01CD01DF91CF910895CF937A
S1131F60DF93CDB7DEB7EFDFDC01CB01BC01CD01E0
S1131F70DF91CF910895CF93DF93CDB7DEB7EFDF35
S1131F80DC01CB01BC01CD01DF91CF9108956150FB
S1131F90710981099109D9F70895CF93DF93CDB7DA
S1131FA0DEB72B97CDBFDEBF8A876B878A8589838F
S1131FB08B858A8389818B838B818C838C818695A5
S1131FC0869586958D838D81882F90E0880F991F43
S1131FD082959295907F9827807F98279A5F8E8329
S1131FE09F838A818823A9F0898188878885882F9F
S1131FF090E09C012770332781E090E002C0880FB5
S1132000991F2A95E2F7282F8E819F81FC01258351
S113201014C0898189878985882F90E09C01277065
S1132020332781E090E002C0880F991F2A95E2F7D8
S1132030282F8E819F81FC0126832B96CDBFDEBF86
S1132040DF91CF910895CF93DF93CDB7DEB780EAC8
S113205090E027E0FC012283DF91CF910895CF9394
S1132060DF9300D000D0CDB7DEB789839A836B832A
S11320707C8389819A81FC018681282F2C7F898128
S11320809A81FC01268389819A81FC0196818B8146
S1132090292F282B89819A81FC0126832496CDBF80
S11320A0DEBFDF91CF910895CF93DF9300D000D0AE
S11320B0CDB7DEB789839A836B837C8389819A81C8
S11320C0FC018081982F907F8B81292F282B898177
S11320D09A81FC0120832496CDBFDEBFDF91CF918E
S11320E00895CF93DF9300D000D0CDB7DEB78983B6
S11320F09A836B837C8389819A81FC018181982FE7
S1132100987F8B81292F282B89819A81FC01218337
S11321102496CDBFDEBFDF91CF910895CF93DF9397
S113212000D000D0CDB7DEB789839A836B837C83DC
S113213089819A81FC018381982F9F7C8B81829570
S1132140807F292F282B89819A81FC01238324965F
S1132150CDBFDEBFDF91CF9108951F920F92009003
S11321603F000F9211242F938F939F93EF93FF932C
S1132170CF93DF93CDB7DEB7F89480EA99E0FC0102
S1132180808180935C208091592090915A200097FF
S1132190F9F081E090E08093592090935A20809147
S11321A05820882F90E020915C2088519F4DFC019D
S11321B02083809158208F5F8093582010925B2059
S11321C080915C208D30E9F481E080935B2019C01C
S11321D080915C208A33A9F480916F2082708823D7
S11321E059F481E090E08093592090935A20109202
S11321F0582010925B2005C08091702088608093E5
S113220070207894DF91CF91FF91EF919F918F91FE
S11322102F910F9000923F000F901F9018951F92DE
S11322200F9200903F000F9211248F939F93EF938E
S1132230FF93CF93DF93CDB7DEB780EA99E0FC013B
S1132240808180935E20DF91CF91FF91EF919F91E8
S11322508F910F9000923F000F901F9018951F923E
S11322600F9200903F000F9211242F933F934F93AE
S11322705F936F937F938F939F93AF93BF93EF93EA
S1132280FF93CF93DF93CDB7DEB7F89400E00093CC
S11322900008009300090093000A0093400800938B
S11322A04009000080E094E0FC0181818823D1F79B
S11322B080E094E0FC01108280E498E0FC0180A1BD
S11322C091A1CC01A0E0B0E0AC013327222780E04B
S11322D098E0FC0180A191A1CC01A0E0B0E0820FC4
S11322E0931FA41FB51F8093602090936120A09337
S11322F06220B093632080E499E0FC0180A191A165
S1132300CC01A0E0B0E0AC013327222780E099E0C3
S1132310FC0180A191A1CC01A0E0B0E0820F931F49
S1132320A41FB51F8093652090936620A093672017
S1132330B093682080E09AE0FC0180A191A1CC01D7
S1132340A0E0B0E080936A2090936B20A0936C206F
S1132350B0936D2010925F2080915F20482F61E040
S11323608EEF00D17894DF91CF91FF91EF91BF91DF
S1132370AF919F918F917F916F915F914F913F9119
S11323802F910F9000923F000F901F901895CF93BC
S1132390DF93CDB7DEB7809164208F5F8093642094
S11323A0DF91CF910895CF93DF93CDB7DEB78091BE
S11323B069208F5F80936920DF91CF910895CF9337
S11323C0DF93CDB7DEB780916E208F5F80936E2050
S11323D0DF91CF910895CF93DF93CDB7DEB780918E
S11323E0E820882F90E0AA2797FDA095BA2F41E016
S11323F050E025E430E0841B950B2817390708F4D6
S113240049C082509F4FFC010C946C1A8091E620C5
S11324109091E720FC01908180915720492F682FEB
S113242084E1A0D03DC0FDD03BC080910020682F46
S113243081E071D035C02BD133C080D131C011D2ED
S11324402FC0A7D22DC065D12BC006D329C080913F
S11324505620682F88E05FD023C081E048D320C095
S113246082E045D31DC083E042D31AC084E03FD349
S113247017C085E03CD314C086E039D311C087E08F
S113248036D30EC088E033D30BC089E030D308C004
S11324902AD406C08091E820482F61E08FEF62D0F3
S11324A0DF91CF910895CF93DF9300D000D0CDB7C3
S11324B0DEB78A839B836C836AE380EA99E0AEDAB1
S11324C0198210C08981882F90E02A813B81820F74
S11324D0931FFC018081682F80EA99E09FDA89814B
S11324E08F5F898399818C81981760F38C81282F61
S11324F02F5F8A819B81622F65D0682F80EA99E0E3
S11325008DDA6DE080EA99E089DA2496CDBFDEBFEA
S1132510DF91CF910895CF93DF9300D0CDB7DEB78D
S113252089836A836AE380EA99E078DA698180EAD8
S113253099E074DA6A8180EA99E070DA8981982FE7
S113254091958A81292F281B822F682F80EA99E090
S113255065DA6DE080EA99E061DA0F900F90DF911F
S1132560CF910895CF93DF9300D01F92CDB7DEB7FC
S113257089836A834B836AE380EA99E04FDA69814D
S113258080EA99E04BDA6A8180EA99E047DA6B8164
S113259080EA99E043DA8981982F91958A81981B82
S11325A08B81292F281B822F682F80EA99E036DA45
S11325B06DE080EA99E032DA2396CDBFDEBFDF9189
S11325C0CF910895CF93DF93CDB7DEB72597CDBFD5
S11325D0DEBF8B839C836D8319821A8211C08A812A
S11325E0882F90E02B813C81820F931FFC01808116
S11325F09981F92FF81B8F2F89838A818F5F8A83B2
S11326008A81282F30E08D81882F90E00197281748
S113261039072CF389812596CDBFDEBFDF91CF9199
S11326200895CF93DF93CDB7DEB72997CDBFDEBF33
S1132630A2DCDC01CB0189839A83AB83BC8383E076
S11326408D8389818E8389819A81AB81BC81892F15
S11326509A2FAB2FBB278F8389819A81AB81BC8151
S1132660CD01AA27BB27888789819A81AB81BC8148
S11326708B2F9927AA27BB278987CE01059665E06A
S113268012DF2996CDBFDEBFDF91CF910895CF939E
S1132690DF93CDB7DEB72597CDBFDEBF82E0898358
S11326A08091012090910220A0910320B0910420F8
S11326B08A838091012090910220A0910320B091FF
S11326C00420892F9A2FAB2FBB278B838091012065
S11326D090910220A0910320B0910420CD01AA275B
S11326E0BB278C838091012090910220A09103202C
S11326F0B09104208B2F9927AA27BB278D8365E0EF
S1132700CE010196D0DE2596CDBFDEBFDF91CF91FD
S11327100895CF93DF931F92CDB7DEB7F89484E08A
S1132720898361E0CE010196BEDE88E790E021E076
S1132730FC0121830F90DF91CF910895CF93DF9314
S1132740CDB7DEB7F89480915F20823009F480C061
S1132750000080E094E0FC0181818823D1F780E0CF
S113276094E02091EA20222F30E0522F4427209138
S1132770EB20222F30E0240F351FFC012287338702
S113278010926020109261201092622010926320B7
S11327901092652010926620109267201092682093
S11327A010926A2010926B2010926C2010926D206F
S11327B0109264201092692010926E20000080E034
S11327C094E0FC0181818823D1F780E094E0FC014E
S11327D01086118680E098E0FC0110A211A280E42A
S11327E098E0FC0110A211A280E099E0FC0110A283
S11327F011A280E499E0FC0110A211A280E09AE009
S1132800FC0110A211A2000080E094E0FC0181818F
S11328108823D1F708E01AE02CE049E05BE000935C
S11328200008109300092093000A40934008509335
S1132830400980E094E02091E920FC01208380910C
S11328405F20682F8EE167DE82E080935F2005C001
S113285080915F20682F8EE15EDE7894DF91CF91C6
S11328600895CF93DF93CDB7DEB72F97CDBFDEBFEB
S113287080E2898380915F208A8380915F2088230E
S113288009F07DC0809164208B83809160209091B9
S11328906120A0916220B09163208B2F9927AA27F1
S11328A0BB278C838091602090916120A09162204D
S11328B0B0916320CD01AA27BB278D83809160202E
S11328C090916120A0916220B0916320892F9A2F6A
S11328D0AB2FBB278E838091602090916120A091C3
S11328E06220B09163208F838091692088878091D2
S11328F0652090916620A0916720B09168208B2F6D
S11329009927AA27BB278987809165209091662003
S1132910A0916720B0916820CD01AA27BB278A87A0
S11329208091652090916620A0916720B0916820E5
S1132930892F9A2FAB2FBB278B878091652090918D
S11329406620A0916720B09168208C8780916E20CA
S11329508D8780916A2090916B20A0916C20B0911A
S11329606D20892F9A2FAB2FBB278E8780916A20E9
S113297090916B20A0916C20B0916D208F876FE0B7
S1132980CE01019690DD2F96CDBFDEBFDF91CF91B2
S11329900895CF93DF93CDB7DEB780915F20823067
S11329A009F052C0000080E094E0FC01818188239A
S11329B0D1F780E094E0FC01108260E070E080E0F8
S11329C098E072DB60E070E080E099E06DDB60E04D
S11329D070E080E09AE068DB60E070E080E498E01A
S11329E063DB60E070E080E499E05EDB80E098E027
S11329F0FC0110A211A280E498E0FC0110A211A233
S1132A0080E099E0FC0110A211A280E499E0FC01AD
S1132A1010A211A280E09AE0FC0110A211A2000011
S1132A2080E094E0FC0181818823D1F780E094E088
S1132A30FC011086118680915F20682F8FE16BDD89
S1132A4081E080935F2005C080915F20682F8FE133
S1132A5062DDDF91CF910895CF93DF93CDB7DEB7D9
S1132A60DF91CF910895CF93DF93CDB7DEB725974C
S1132A70CDBFDEBF8B836C837D838B81883070F404
S1132A808B81882F90E080589E4F89839A832C8174
S1132A9089819A81FC01208381E001C080E0259630
S1132AA0CDBFDEBFDF91CF910895CF93DF93CDB734
S1132AB0DEB72597CDBFDEBF8B836C837D838B818F
S1132AC0883070F48B81882F90E088579E4F8983DB
S1132AD09A832C8189819A81FC01208381E001C041
S1132AE080E02596CDBFDEBFDF91CF910895CF93CF
S1132AF0DF93CDB7DEB76297CDBFDEBF8A8B81E0AF
S1132B0089831A821B828A89882F90E085309105F7
S1132B1099F1863091058CF482309105F9F0833077
S1132B20910524F481309105A9F040C083309105CA
S1132B30C9F084309105D1F039C08730910539F15D
S1132B4087309105FCF08830910531F18930910589
S1132B5041F12CC0809171208B832DC0809119206C
S1132B608B8329C080911A208B8325C080911B20E0
S1132B708B8381E08A831FC080911C208B8381E03A
S1132B808A8319C080911D208B83198214C080917F
S1132B901E208B8319820FC080911F208B83198282
S1132BA00AC0809120208B83198205C04A8962E083
S1132BB08FEFD8DC92C01C821D828A81882341F168
S1132BC08091E9208B878091EA208C878091EB208B
S1132BD08D87CE010396BC0180EC98E00E942A0305
S1132BE0CE010B9643E050E0BC0180EC98E00E94DB
S1132BF0AB02CE010396BC0180EC98E00E943F0337
S1132C008091E8208E87CE010E9661E04CDC65C091
S1132C108981882329F18091E9208F878091EA2096
S1132C20888BCE010396BC0180EC98E00E942A03B5
S1132C30CE010F9642E050E0BC0180EC98E00E9487
S1132C40AB02CE010396BC0180EC98E00E943F03E6
S1132C508091E820898BCE01419661E024DC3DC05F
S1132C608091E9208E838091EA208F8360E084E163
S1132C7094D9CE01069642E050E0BC0180EC98E085
S1132C800E94AB0261E084E188D9CE010396BC01C5
S1132C9080EC98E00E943F0360E084E17ED9CE019D
S1132CA0049642E050E0BC0180EC98E00E94E90206
S1132CB061E084E172D9CE010396BC0180EC98E016
S1132CC00E942A038091E82088878C8189878D81DE
S1132CD08A87CE01089663E0E6DB6296CDBFDEBF4D
S1132CE0DF91CF910895CF93DF9300D000D0CDB77B
S1132CF0DEB7D8D180914E218F7780934E21809179
S1132D00E920882354F08091E4209091E520FC018F
S1132D108081682F86E4FFDBBFC18091E920882F82
S1132D2090E08072992795958795959587959595C7
S1132D3087959595879595958795898380914E215B
S1132D4085FB882780F9282F30E08981882F90E03F
S1132D502817390729F189818130A9F480914E21FE
S1132D6080748823E9F480914E21806280934E21FF
S1132D7080916F20816080936F2080914E218068C4
S1132D8080934E210DC061E083E107D980914E21EB
S1132D908F7D80934E2180914E21806880934E21B7
S1132DA08091E920882F90E08071992795958795E7
S1132DB09595879595958795959587958983809120
S1132DC04E2182958170282F30E08981882F90E0F0
S1132DD028173907A1F08981813049F461E087E03F
S1132DE0DCD880914E21806880934E2108C060E039
S1132DF087E0D3D880914E21806880934E218091C2
S1132E00E920882F90E08870992795958795959566
S1132E10879595958795898380914E2183FB882793
S1132E2080F9282F30E08981882F90E0281739070E
S1132E30A1F08981813049F461E089E1AED88091C3
S1132E404E21806880934E2108C060E089E1A5D8B6
S1132E5080914E21806880934E218091E920882FB3
S1132E6090E08470992795958795959587958983A2
S1132E7080914E2182FB882780F9282F30E08981B8
S1132E80882F90E028173907A1F08981813049F40F
S1132E9061E08CE182D880914E21806880934E213C
S1132EA008C060E08CE179D880914E2180688093DD
S1132EB04E218091E920882F90E082709927959582
S1132EC08795898380914E2186958170282F30E0E3
S1132ED08981882F90E028173907A1F089818130F2
S1132EE049F461E08DE159D880914E218068809346
S1132EF04E2108C060E08DE150D880914E21806859
S1132F0080934E218091E9208170898380914E21A4
S1132F108170282F30E08981882F90E028173907A5
S1132F20A1F08981813049F461E088E136D880914B
S1132F304E21806880934E2108C060E088E12DD83E
S1132F4080914E21806880934E21ACD08091E42002
S1132F509091E520FC018081682F86E4DCDA809181
S1132F606F208170882309F496C060E083E115D84E
S1132F706BEA72EC82EA90E00AD888E38A831B82C7
S1132F8081E08C836CE170E280EC98E00E942A037B
S1132F906BE170E280EC98E00E942A03CE01029675
S1132FA043E050E0BC0180EC98E00E94AB026CE18D
S1132FB070E280EC98E00E943F036BE170E280ECE9
S1132FC098E00E943F0388E18A838FE78B838CEF2C
S1132FD08C836BE170E280EC98E00E942A036CE140
S1132FE070E280EC98E00E942A03CE01029643E04E
S1132FF050E0BC0180EC98E00E94AB026BE170E20F
S113300080EC98E00E943F036CE170E280EC98E071
S11330100E943F0389E18A836BE170E280EC98E0CF
S11330200E942A03CE01029643E050E0BC0180ECEA
S113303098E00E94AB026BE170E280EC98E00E94A1
S11330403F0380E88A838CE38B8369E170E280EC40
S113305098E00E942A0361E770E280EC98E00E9405
S11330602A03CE01029642E050E0BC0180EC98E0D5
S11330700E94AB0269E170E280EC98E00E943F0399
S113308061E770E280EC98E00E943F0380916F203A
S11330908E7F80936F2000002496CDBFDEBFDF912A
S11330A0CF910895CF93DF93CDB7DEB780E096E05C
S11330B0FC018481881F8827881F81708170829514
S11330C0807F90914E219F7E892B80934E2180E6B4
S11330D096E0FC018481882F90E082709927959571
S11330E0879581708170880F880F880F90914E2189
S11330F0977F892B80934E2180E696E0FC018481A2
S1133100882F90E080719927959587959595879557
S1133110959587959595879581708170880F880F0F
S113312090914E219B7F892B80934E2180E696E0DF
S1133130FC018481882F90E080729927959587956A
S11331409595879595958795959587959595879563
S113315081708170880F90914E219D7F892B80937F
S11331604E2180E696E0FC0184818170817090910B
S11331704E219E7F892B80934E21DF91CF9108951C
S1133180CF93DF9300D0CDB7DEB708EB00934006B2
S1133190009344060FEF19E500930006109304060C
S11331A000E000932006009324060BE310E0009354
S11331B06006109364060BE012E0009380061093FF
S11331C0840600E00093E0070093E40782E00E9495
S11331D0440F82E00E946A0F61E080E490E00E9464
S11331E0540381E00E94290F0E94231080EC98E090
S11331F027E5FC0120830E94990380E490E02DE000
S1133200FC01238380E098E00E94160A80E498E0A1
S11332100E94160A80E099E00E94160A80E499E070
S11332200E94160A80E09AE00E94160A67EC71E197
S113323080E498E00E94830A63ED71E180E499E000
S11332400E94830A6FED71E180E09AE00E94830A94
S113325060E070E080E098E00E94711060E070E04F
S113326080E498E00E94711060E070E080E099E0F2
S11332700E94711060E070E080E499E00E94711097
S113328060E070E080E09AE00E94711060E070E01D
S113329080E098E00E942F1063E070E080E498E002
S11332A00E942F1060E070E080E099E00E942F10EF
S11332B063E070E080E499E00E942F1063E070E026
S11332C080E09AE00E942F1067E070E280EA99E0C3
S11332D00E94C60C62E070E080EA99E00E948E10C1
S11332E060E170E280EA99E00E94C60C62E070E05E
S11332F080EA99E00E948E1080E496E021E0FC01CF
S1133300208B80E496E021E0FC01218B80E496E0B0
S113331021E0FC01228B60E670E080E0A4DB62E047
S113332070E080E0C2DB60EC70E081E09CDB60E098
S113333070E081E0BADB61E670E082E094DB62E099
S113334070E082E0B2DB60ED70E083E08CDB60E093
S113335070E083E0AADB62E670E084E084DB62E094
S113336070E084E0A2DB8EE491E28093E420909309
S1133370E52080E790E28093E6209093E72092DEB8
S113338010925F2080914E21806480934E21809121
S11333904E218F7D80934E217894F89480916F20F4
S11333A08270882309F447C0809158208330C0F18B
S11333B08091582081508093582019821A820FC01E
S11333C08A81882F90E088519F4DFC0180819981EA
S11333D0F92FF81B8F2F89838A818F5F8A838091CD
S11333E058209A81981760F380915D2099819817ED
S11333F049F478940E94EB1180916F208D7F809323
S11334006F2046C0498162E08FEFACD810925920FA
S113341010925A2080916F208D7F80936F2038C046
S11334208091702084608093702080916F208D7FC4
S113343080936F202DC08091592090915A2000973D
S113344039F18091592090915A2001968093592006
S113345090935A202091592030915A208091052030
S1133460909106208217930798F410925920109295
S11334705A2080915B20813031F480916F208260EA
S113348080936F2005C080917020826080937020AB
S1133490789483CFA1E21A2EAA1BBB1BFD010DC099
S11334A0AA1FBB1FEE1FFF1FA217B307E407F507F0
S11334B020F0A21BB30BE40BF50B661F771F881FCC
S11334C0991F1A9469F760957095809590959B0162
S11334D0AC01BD01CF010895EE0FFF1F0590F491DB
S10B34E0E02D0994F894FFCFDC
S11334E871372D3301200300F401000300000001AB
S11334F800F4010003000000010621030401052073
S10535080200BB
S9030000FC
