S01C0000586D65676133324134555F74657374426F6172642E73726563E0
S113000026C1000041C100003FC100003DC1000005
S11300103BC1000039C1000037C1000035C10000F8
S113002033C1000031C100000C94CC1A0C94820B33
S11300302BC1000029C100000C94600C0C94960C98
S11300400C94CC0C0C94020D0C94380D0C946E0D85
S11300500C94A40D0C94DA0D0C94100E0C94460E12
S113006013C1000011C100000FC100000DC1000048
S11300700BC1000009C1000007C1000005C1000058
S113008003C1000001C10000FFC00000FDC000006A
S1130090FBC00000F9C00000F7C00000F5C000007C
S11300A0F3C00000F1C00000EFC00000EDC000008C
S11300B0EBC00000E9C00000E7C000000C949810F9
S11300C00C94CE100C9404110C943A110C947011ED
S11300D00C94A611D9C00000D7C00000D5C0000000
S11300E0D3C00000D1C000000C942E19CDC0000074
S11300F0CBC00000C9C00000C7C00000C5C00000DC
S1130100C3C00000C1C00000BFC00000BDC00000EB
S1130110BBC00000B9C00000B7C00000B5C00000FB
S1130120B3C00000B1C00000AFC00000ADC000000B
S1130130ABC000000C947C0E0C94B20E0C94E80E30
S11301400C941E0F0C94540F0C948A0F0C94C00F33
S11301500C94F60F0C942C100C94621095C00000B3
S113016093C0000091C000008FC000008DC000004B
S11301708BC0000089C0000087C0000085C000005B
S113018083C0000081C000007FC000007DC000006B
S11301907BC0000079C0000077C0000075C000007B
S11301A073C0000071C000006FC000006DC000008B
S11301B06BC0000069C0000067C0000065C000009B
S11301C063C0000061C000005FC000005DC00000AB
S11301D05BC0000059C0000057C0000055C00000BB
S11301E053C0000051C000004FC000004DC00000CB
S11301F04BC0000049C0000047C000009B19A11972
S11302009919B919CE19CE19CE19CE19CE19951935
S1130210CA19CE19CE19CE19CE19CE19CE19CE19A6
S1130220CE198F19CE19CE19CE19CE19CE19CE19D1
S1130230CE19CE19CE19AD19AB19B519B719B11913
S1130240C419BC19C019CE19CE19A319A7191124A0
S11302501FBECFEFDFE2DEBFCDBF10E2A0E0B0E211
S1130260ECE1F4E702C005900D92AE31B107D9F785
S113027020E2AEE1B0E201C01D92AC37B207E1F773
S11302800E94E1220C940C3ABBCEA0E0B0E0EBE477
S1130290F1E00C94C3396B017C0120E030E040E8CC
S11302A05FE3EBD287FD80C020E030E040E85FE40C
S11302B0C701B601E2D287FF09C0C701B601D9D38D
S11302C04B015C01C12CD12C760187C020E030E0C9
S11302D040E85FE5C701B601D0D287FF6EC020E0D9
S11302E030E040E85FE2C701B60119D18B01D82F95
S11302F0C92F95E0292E312C20E1C22ED12CE12CDE
S1130300F12C812C912C540161E070E080E090E0AC
S11303100C2C04C0660F771F881F991F0A94D2F70C
S113032033D32B013C01762F272F352D462D572D06
S1130330FE01602F712F8F2F9C2F73D287FD11C068
S11303408C289D28AE28BF28242D352D462D572DC9
S1130350FE01602F712F8F2F9C2FC3D18B01D82FBB
S1130360C92FF694E794D794C79481E0281A3108EA
S113037059F620E030E040E85FE4FE01602F712F81
S11303808F2F9C2FCCD075D3DC01CB019C01AD0108
S113039060E070E080E090E0082D0E948939490116
S11303A05A016B017C0119C0812C912CA12CB12C18
S11303B0C12CD12CE12CF12C10C088248A949924CE
S11303C09A94AA24AA94BB24BA94CC24CA94DD2473
S11303D0DA94EE24EA94FF24FA949401A501B60178
S11303E0C701CDB7DEB7E2E10C94DC392F923F921E
S11303F04F925F926F927F928F929F92AF92BF9231
S1130400CF92DF92EF92FF920F931F93CF93190134
S11304102A013B014C0160E070E080E090E0510172
S11304206201730184010E94033A21F4B101C20103
S1130430ABD263C09101A201B301C40100E20E94E6
S1130440F439B901CA010E94AA39AA2797FDA095D7
S1130450BA2F20E2C22ED12CE12CF12CC81AD90AD1
S1130460EA0AFB0ACC2D9101A201B301C4010C2DAF
S11304700E94F43960E270E06C197D0904C0220C1A
S1130480331C441C551C6A95D2F7622F2328242858
S1130490252809F401C06160732FCA0175D23B019C
S11304A04C0180E2C816D104E104F104A1F09FE1FB
S11304B0C916D104E104F10491F061E070E080E038
S11304C090E004C0660F771F881F991FCA95D2F762
S11304D000D2272F08C060E020E080E803C060E07D
S11304E020E080E09FE4F22F262F3F2F482F592F42
S11304F0662D772D882D992D12D0CF911F910F91B4
S1130500FF90EF90DF90CF90BF90AF909F908F902F
S11305107F906F905F904F903F902F900895A0E24E
S1130520B0E0E5E9F2E00C94C5396D8F7E8F8F8FD2
S113053098A3298F3A8F4B8F5C8FBE016F5E7F4FDC
S1130540CE014D9689D3BE01675F7F4FCE01499698
S113055083D39989923008F412C08985823008F4D3
S11305601AC0943021F4823009F4B4C008C0843035
S113057021F4923009F4AEC00EC0923051F481E0FF
S11305802A899A85291301C080E08A8BCE0141967D
S1130590A3C0823051F481E02A899A85291301C0CD
S11305A080E08A87CE01099697C08D889E88AF889F
S11305B0B88C0D851E852F853889E0E2F0E080E057
S11305C090E0DC01C12CD12C760140E050E0BA016E
S11305D080FE18C0400F511F621F731F8C0D9D1D9C
S11305E0AE1DBF1D412C512C3201439440175107BD
S11305F06207730718F0412C512C3201840D951DAC
S1130600A61DB71DCC0CDD1CEE1CFF1C37FF02C061
S11306106894C0F8000F111F221F331FB694A794CB
S1130620979487943197A1F62B893C89EB85FC85B7
S11306302E0F3F1F2E5F3F4F2B833C8321E0EA891F
S11306403A85E31301C020E02A83EB81FC810CC0CE
S113065080FF05C076956795579547957068B69560
S1130660A795979587953196B7FDF2CF9F010CC05A
S1130670880F991FAA1FBB1F77FD8160440F551F68
S1130680661F771F215031090097A105E0E4BE07DA
S113069078F32B833C838C019D010F77112722274C
S11306A03327003411052105310559F487FD09C0AC
S11306B0452B462B472B29F0805C9F4FAF4FBF4FF4
S11306C080788D839E83AF83B88783E08983CE014E
S11306D0019602C085E190E2F5D1A096E0E10C9488
S11306E0DE39A8E1B0E0E7E7F3E00C94CD396D8B97
S11306F07E8B8F8B988F298B3A8B4B8B5C8BBE01B7
S1130700675F7F4FCE014596A7D2BE016F5F7F4FD3
S1130710CE014196A1D29985923008F475C08981A1
S1130720823008F474C02A853A8123272A879430BA
S113073011F0923019F4981367C06CC0843039F406
S11307401D861E861F86188A1B861C8604C082305E
S113075029F484E08987CE0109965EC08B859C8547
S11307602B813C81821B930B8B879C874D855E85F7
S11307706F857889CD80DE80EF80F8844C155D0527
S11307806E057F0538F4440F551F661F771F0197C8
S11307908B879C87EFE1F0E000E010E020E030E49C
S11307A080E090E0DC014C155D056E057F0540F0AE
S11307B0802B912BA22BB32B4C195D096E097F0959
S11307C03695279517950795440F551F661F771F74
S11307D0319749F78C019D010F7711272227332781
S11307E0003411052105310559F487FD09C0452B55
S11307F0462B472B29F0805C9F4FAF4FBF4F80782B
S11308008D879E87AF87B88BCE01099605C0CE0130
S1130810019602C085E190E255D16896E8E00C9417
S1130820E639A8E1B0E0E7E1F4E00C94D3396D8B4C
S11308307E8B8F8B988F298B3A8B4B8B5C8BBE0175
S1130840675F7F4FCE01459607D2BE016F5F7F4F32
S1130850CE01419601D28985823050F0898182305F
S113086038F0BE016F5F7F4FCE01099614D401C0EA
S11308708FEF6896E2E00C94EC39A8E1B0E0E3E491
S1130880F4E00C94D3396D8B7E8B8F8B988F298BEE
S11308903A8B4B8B5C8BBE01675F7F4FCE014596D5
S11308A0DBD1BE016F5F7F4FCE014196D5D18985E3
S11308B0823050F08981823038F0BE016F5F7F4F03
S11308C0CE010996E8D301C081E06896E2E00C9479
S11308D0EC39A8E0B0E0EFE6F4E00C94D13923E081
S11308E029838B019C01002737FD039511272227BB
S11308F03327402F0A83611571058105910519F489
S113090082E0898335C02EE130E02B833C8344238D
S113091071F061157105810520E8920769F10027DE
S113092011279801061B170B280B390B02C08B01EA
S11309309C01C901B8010E94AA3901971816190629
S11309402CF00D831E832F83388712C0082E04C019
S1130950000F111F221F331F0A94D2F70D831E8329
S11309602F8338872EE130E0281B390B2B833C83FF
S1130970CE010196A7D004C060E070E080E09FEC57
S11309802896E4E00C94EA39A8E0B0E0EAECF4E05C
S11309900C94CD398B019C011A8261157105810576
S11309A0910519F482E089835DC083E089834EE177
S11309B050E04B835C83C901B8010E94AA390197B6
S11309C097FF39C0EE27FF27E81BF90B41E050E001
S11309D060E070E00E2E04C0440F551F661F771FA1
S11309E00A94D2F7415051096109710940235123F6
S11309F062237323C12CD12C7601C394452B462B3F
S1130A00472B19F4C12CD12C760104C036952795B7
S1130A1017950795EA95D2F70C291D292E293F2908
S1130A200D831E832F8338872EE130E0281B390B7A
S1130A302B833C8317C0009729F40D831E832F83D7
S1130A40388710C0082E04C0000F111F221F331F47
S1130A500A94D2F70D831E832F833887481B590BC2
S1130A604B835C83CE0101962DD02896E8E00C944C
S1130A70E639CF92DF92EF92FF920F931F936B01AF
S1130A807C0120E030E040E05FE4CBDE87FD0CC079
S1130A9020E030E040E05FE4C701B601D0D25CD38F
S1130AA08B019C01305805C0C701B60155D38B0199
S1130AB09C01B801C9011F910F91FF90EF90DF9045
S1130AC0CF9008950F931F93CF93DF93DC01149677
S1130AD04D915D916D917C9117971196EC911197C1
S1130AE08C91823020F460618FEF90E0A6C0843056
S1130AF009F49EC0823009F495C041155105610581
S1130B00710509F492C012962D913C9113972238E5
S1130B108FEF38070CF058C0C2E8DFEFC21BD30BCD
S1130B20CA31D1056CF58A019B010C2E04C036959F
S1130B302795179507950A94D2F781E090E0A0E0F5
S1130B40B0E00C2E04C0880F991FAA1FBB1F0A9483
S1130B50D2F70197A109B10984239523A623B723CA
S1130B6041E050E060E070E0892B8A2B8B2B19F474
S1130B7040E050E0BA01402B512B622B732B03C091
S1130B8040E050E0BA01DB01CA018F779927AA2718
S1130B90BB2780349105A105B10539F447FF09C08D
S1130BA0405C5F4F6F4F7F4F04C0415C5F4F6F4F9E
S1130BB07F4F81E090E041155105610520E4720703
S1130BC048F580E090E026C0203831058CF5DB0143
S1130BD0CA018F779927AA27BB2780349105A105DD
S1130BE0B10539F447FF09C0405C5F4F6F4F7F4F39
S1130BF004C0415C5F4F6F4F7F4F77FD04C0C90154
S1130C0081589F4F07C07695679557954795C901B9
S1130C1080589F4F97E076956795579547959A9595
S1130C20D1F70BC080E090E005C080E090E005C003
S1130C308FEF90E040E050E0BA01982F9695E0FBEA
S1130C4097F9362F80FB37F9642F752F832FDF91A7
S1130C50CF911F910F910895CF92DF92EF92DC0113
S1130C60FB01CC901196DC90119712968C911297FF
S1130C703FE7E32EE8226E2DA60170E0982F991F1E
S1130C809927991F13962C91822F880F892B90E016
S1130C9027FB222720F92183009729F541155105C7
S1130CA06105710511F482E027C082E89FEF828319
S1130CB0938327E0440F551F661F771F2A95D1F7AA
S1130CC083E0808309C0440F551F661F771F82810C
S1130CD0938101978283938341155105610580E4D3
S1130CE0780788F320C08F3F910579F441155105A9
S1130CF06105710519F484E0808319C0E4FE03C022
S1130D0081E0808310C010820EC08F5791098283C6
S1130D10938383E0808387E0440F551F661F771F0A
S1130D208A95D1F770644483558366837783EF9003
S1130D30DF90CF900895A4E0B0E0E1EAF6E00C94EF
S1130D40C5397C016A01FC018081823008F44AC102
S1130D50FB019081923008F442C1843079F49430DC
S1130D6009F040C1F7019181FB018181981709F4D1
S1130D7039C1A5E1EA2EA0E2FA2E34C1943009F477
S1130D802EC1923091F4823009F02CC188E0F70131
S1130D90DA0101900D928A95E1F7FB018181F70157
S1130DA091818923FA0181831CC1823009F417C11E
S1130DB0F70182819381FB01A281B381F701048150
S1130DC0158126813781FB0184809580A680B780B8
S1130DD0FC01EA1BFB0BAF01F7FF04C044275527B6
S1130DE04E1B5F0B403251050CF074C01E161F06DB
S1130DF0B4F524013501042E04C076946794579405
S1130E0047940A94D2F749825A826B827C82412C9D
S1130E10512C3201439404C0440C551C661C771CAD
S1130E204A95D2F741E0441A5108610871084820F4
S1130E3059206A207B20812C912C540183944528CD
S1130E404628472819F4812C912C540149805A8052
S1130E506B807C8084289528A628B72846C0EF2B71
S1130E6009F443C0840F951F28013901042E04C0DE
S1130E7076946794579447940A94D2F749825A8295
S1130E806B827C82412C512C3201439404C0440C6B
S1130E90551C661C771C4A95D2F741E0441A510848
S1130EA061087108402251226222732201E010E09D
S1130EB020E030E045284628472819F400E010E0F7
S1130EC0980149805A806B807C8004291529262941
S1130ED037290BC0A817B90724F4812C912C54018D
S1130EE004C0CD0100E010E09801F7014181FB014D
S1130EF05181451709F446C0442349F024013501C2
S1130F00401A510A620A730A9301820104C0081943
S1130F1019092A093B0937FD05C0F60111828283AC
S1130F2093830CC041E0F60141838283938330951F
S1130F302095109501951F4F2F4F3F4F0483158324
S1130F40268337830EC0880F991FAA1FBB1FF60183
S1130F5084839583A683B783828193810197828357
S1130F609383F60184819581A681B781AC01BD018B
S1130F7041505109610971094F3F5F4F6F4F7F43E2
S1130F8010F30CC0F601418382839383080D191D6D
S1130F902A1D3B1D048315832683378383E0F601D2
S1130FA08083448155816681778177FF1AC0DB0194
S1130FB0CA0181709927AA27BB277695679557950B
S1130FC04795842B952BA62BB72B84839583A683D7
S1130FD0B7838281938101968283938302C07B01CC
S1130FE001C07601C7012496E0E10C94DE39A0E249
S1130FF0B0E0EDEFF7E00C94D3396D8F7E8F8F8FD7
S113100098A3298F3A8F4B8F5C8FBE016F5E7F4F01
S1131010CE014D9621DEBE01675F7F4FCE0149961A
S11310201BDEAE014F5F5F4FBE01675F7F4FCE0196
S1131030419681DE47DDA096E2E00C94EC39A0E213
S1131040B0E0E5E2F8E00C94D3396D8F7E8F8F8F9A
S113105098A3298F3A8F4B8F5C8FBE016F5E7F4FB1
S1131060CE014D96F9DDBE01675F7F4FCE014996F3
S1131070F3DD8A8591E089278A87AE014F5F5F4F50
S1131080BE01675F7F4FCE01419655DE1BDDA09602
S1131090E2E00C94EC39CF93FC01DB0190819230B7
S11310A008F452C08C91823008F44EC0943071F42C
S11310B0843039F411962C9130E08181281B310958
S11310C048C08181882309F43FC03BC0843029F49F
S11310D011968C91811138C034C0923019F4823049
S11310E0B9F735C0823069F3C18111968C9111979B
S11310F0C8131DC02281338112968D919C91139740
S1131100821793070CF413C0281739070CF417C07F
S1131110448155816681778114968D919D910D90BE
S1131120BC91A02D84179507A607B70718F4C11121
S113113008C00AC0481759076A077B0740F4C11161
S113114003C02FEF3FEF05C021E030E002C020E0F4
S113115030E0C901CF910895ACE0B0E0E2EBF8E0F3
S11311600C94D13969877A878B879C87BE016F5F1E
S11311707F4FCE01099670DD8981823091F18230F2
S113118080F1843041F48A81882331F100E010E059
S113119020E030E829C02B813C8137FD22C02F316B
S11311A031058CF78EE190E0821B930B0D811E813B
S11311B02F81388504C036952795179507958A950C
S11311C0D2F78A81882381F0309520951095019576
S11311D01F4F2F4F3F4F08C00FEF1FEF2FEF3FE779
S11311E003C000E010E09801B801C9012C96E4E0C6
S11311F00C94EA39CF93DF931F92CDB7DEB78FE318
S113120090E0FC0180818983F89489810F90DF91BB
S1131210CF910895CF93DF931F92CDB7DEB7898323
S11312208FE390E02981FC0120830F90DF91CF911F
S11312300895CF93DF9300D000D0CDB7DEB78A8373
S11312409B836C83D7DF89838A819B8180599F4FDD
S11312502A813B8120593F4FF9012081322F2C8173
S113126020952323FC0120838981D4DF2496CDBFDC
S1131270DEBFDF91CF910895CF93DF93CDB7DEB773
S11312802697CDBFDEBF8A839B836C834D835E83A9
S1131290198221C08C81882F90E02981222F30E08F
S11312A0022E02C0959587950A94E2F781709927DA
S11312B0009771F08981882F90E040962A813B81C4
S11312C0820F931F2D813E81232F3327FC0120831E
S11312D089818F5F898389818830E0F28D819E8145
S11312E0817099270097D1F08D819E818270992712
S11312F0009739F08A819B8105962C81FC0120831B
S113130006C08A819B8106962C81FC0120838A81F8
S11313109B8101962C81FC01208306C08A819B81DC
S113132002962C81FC0120832696CDBFDEBFDF917F
S1131330CF910895CF93DF93CDB7DEB72A97CDBF72
S1131340DEBF8A878A8589831A8289818B838B8110
S11313508C838C818695869586958D838D81882F47
S113136090E0880F991F82959295907F9827807FAF
S113137098279A5F8E839F838A818823A9F0898125
S113138088878885882F90E09C012770332781E027
S113139090E002C0880F991F2A95E2F7282F8E81CA
S11313A09F81FC01258314C0898189878985882FC1
S11313B090E09C012770332781E090E002C0880F01
S11313C0991F2A95E2F7282F8E819F81FC0126839D
S11313D02A96CDBFDEBFDF91CF910895CF93DF93DF
S11313E0CDB7DEB72A97CDBFDEBF8A878A858983CA
S11313F081E08A8389818B838B818C838C81869520
S1131400869586958D838D81882F90E0880F991F0E
S113141082959295907F9827807F98279A5F8E83F4
S11314209F838A818823A9F0898188878885882F6A
S113143090E09C012770332781E090E002C0880F80
S1131440991F2A95E2F7282F8E819F81FC0125831D
S113145014C0898189878985882F90E09C01277031
S1131460332781E090E002C0880F991F2A95E2F7A4
S1131470282F8E819F81FC0126832A96CDBFDEBF53
S1131480DF91CF910895CF93DF9300D01F92CDB712
S1131490DEB789839A836B8389819A812B81FC01CE
S11314A023832396CDBFDEBFDF91CF910895CF93E1
S11314B0DF9300D0CDB7DEB789839A8389819A817F
S11314C0FC018281881F8827881F0F900F90DF916D
S11314D0CF910895CF93DF9300D0CDB7DEB7898342
S11314E09A8389819A81FC018081282F20618981D6
S11314F09A81FC0120830F900F90DF91CF91089582
S1131500CF93DF9300D0CDB7DEB789839A838981E7
S11315109A81CDDF0F900F90DF91CF910895CF93F3
S1131520DF9300D0CDB7DEB789839A8389819A810E
S1131530803C28E0920721F468E083E090E079DEC3
S113154089819A81803C29E0920721F468E084E053
S113155090E06FDE89819A81BDDF0F900F90DF915B
S1131560CF910895CF93DF93CDB7DEB72997CDBF41
S1131570DEBF8C839D836E837F83488759871BC01E
S11315808E819F81FC0120818E819F8101968E83B3
S11315909F838C819D8189839A832B8389819A81FE
S11315A06B8171DF00008C819D81AADF982F81E01F
S11315B089278823C1F721E088859985009709F454
S11315C020E0888599850197888799872223C1F629
S11315D080E090E02996CDBFDEBFDF91CF910895E2
S11315E0CF93DF9300D000D0CDB7DEB789839A8341
S11315F06B837C838B819C81FC0180819BDE2496A0
S1131600CDBFDEBFDF91CF910895CF93DF9300D09C
S113161000D0CDB7DEB789839A836B837C838B81BB
S11316209C81FC018081DADE2496CDBFDEBFDF9190
S1131630CF9108951BBEFC0128ED24BF608308955B
S1131640CF93DF931F92CDB7DEB78FE390E0FC0119
S113165080818983F89489810F90DF91CF910895D7
S1131660CF93DF931F92CDB7DEB789838FE390E0EA
S11316702981FC0120830F90DF91CF910895CF93AE
S1131680DF9300D01F92CDB7DEB78A839B83D8DF68
S113169089838A819B8182599F4DFC018081282FF7
S11316A02F5F8A819B8182599F4DFC012083898110
S11316B0D7DF2396CDBFDEBFDF91CF910895CF93BF
S11316C0DF93CDB7DEB764E080E090E0B2DD80E088
S11316D094E02FEF3FEFFC012287338780E094E012
S11316E0FC011086118683E090E0C9DF80E094E07D
S11316F023E0FC01228380E094E0FC011082DF916E
S1131700CF9108951F920F9200903F000F921124E1
S11317102F933F934F935F936F937F938F939F93F5
S1131720AF93BF93EF93FF93CF93DF93CDB7DEB720
S11317302897CDBFDEBF2091742030917520809111
S11317407620909177202817390708F463C080E049
S113175094E023E0FC01228380917A2090917B2005
S1131760009709F457C08091742090917520CC01A2
S1131770A0E0B0E0AC013327222780E094E0FC0134
S113178080859185CC01A0E0B0E0822B932BA42B23
S1131790B52B89839A83AB83BC8380917620909107
S11317A07720CC01A0E0B0E0AC0133272227809160
S11317B0782090917920CC01A0E0B0E0822B932B8B
S11317C0A42BB52B8D839E83AF83B8872D813E8157
S11317D04F81588589819A81AB81BC81281739074B
S11317E04A075B0758F08D819E81AF81B8850196C9
S11317F0A11DB11D89839A83AB83BC8320917A2078
S113180030917B2089819A81AB81BC81BC01CD015F
S1131810F90109952896CDBFDEBFDF91CF91FF91E5
S1131820EF91BF91AF919F918F917F916F915F9154
S11318304F913F912F910F9000923F000F901F9076
S11318401895CF93DF931F92CDB7DEB78FE390E067
S1131850FC0180818983F89489810F90DF91CF9175
S11318600895CF93DF931F92CDB7DEB789838FE3BB
S113187090E02981FC0120830F90DF91CF9108959E
S1131880CF93DF9300D01F92CDB7DEB78A839B83BB
S1131890D8DF89838A819B8182599F4DFC01808195
S11318A0282F2F5F8A819B8182599F4DFC012083C1
S11318B08981D7DF2396CDBFDEBFDF91CF91089515
S11318C01F920F9200903F000F9211242F933F9389
S11318D04F935F936F937F938F939F93AF93BF9334
S11318E0EF93FF93CF93DF93CDB7DEB780911E20A4
S11318F090911F20009731F080911E2090911F201D
S1131900FC010995DF91CF91FF91EF91BF91AF91C8
S11319109F918F917F916F915F914F913F912F9103
S11319200F9000923F000F901F9018951F920F92F6
S113193000903F000F9211242F933F934F935F9396
S11319406F937F938F939F93AF93BF93EF93FF9383
S1131950CF93DF93CDB7DEB78091202090912120E3
S1131960009731F08091202090912120FC0109956D
S1131970DF91CF91FF91EF91BF91AF919F918F91A3
S11319807F916F915F914F913F912F910F900092B2
S11319903F000F901F9018951F920F9200903F00E8
S11319A00F9211242F933F934F935F936F937F93E1
S11319B08F939F93AF93BF93EF93FF93CF93DF9353
S11319C0CDB7DEB78091222090912320009731F08B
S11319D08091222090912320FC010995DF91CF91E1
S11319E0FF91EF91BF91AF919F918F917F916F91F3
S11319F05F914F913F912F910F9000923F000F9074
S1131A001F9018951F920F9200903F000F9211247F
S1131A102F933F934F935F936F937F938F939F93F2
S1131A20AF93BF93EF93FF93CF93DF93CDB7DEB71D
S1131A308091242090912520009731F080912420DA
S1131A4090912520FC010995DF91CF91FF91EF91B1
S1131A50BF91AF919F918F917F916F915F914F91C2
S1131A603F912F910F9000923F000F901F90189577
S1131A701F920F9200903F000F9211242F933F93D7
S1131A804F935F936F937F938F939F93AF93BF9382
S1131A90EF93FF93CF93DF93CDB7DEB780912620EA
S1131AA090912720009731F0809126209091272053
S1131AB0FC010995DF91CF91FF91EF91BF91AF9117
S1131AC09F918F917F916F915F914F913F912F9152
S1131AD00F9000923F000F901F9018951F920F9245
S1131AE000903F000F9211242F933F934F935F93E5
S1131AF06F937F938F939F93AF93BF93EF93FF93D2
S1131B00CF93DF93CDB7DEB7809128209091292021
S1131B10009731F08091282090912920FC010995AB
S1131B20DF91CF91FF91EF91BF91AF919F918F91F1
S1131B307F916F915F914F913F912F910F90009200
S1131B403F000F901F9018951F920F9200903F0036
S1131B500F9211242F933F934F935F936F937F932F
S1131B608F939F93AF93BF93EF93FF93CF93DF93A1
S1131B70CDB7DEB780912A2090912B20009731F0C9
S1131B8080912A2090912B20FC010995DF91CF911F
S1131B90FF91EF91BF91AF919F918F917F916F9141
S1131BA05F914F913F912F910F9000923F000F90C2
S1131BB01F9018951F920F9200903F000F921124CE
S1131BC02F933F934F935F936F937F938F939F9341
S1131BD0AF93BF93EF93FF93CF93DF93CDB7DEB76C
S1131BE080912C2090912D20009731F080912C2011
S1131BF090912D20FC010995DF91CF91FF91EF91F8
S1131C00BF91AF919F918F917F916F915F914F9110
S1131C103F912F910F9000923F000F901F901895C5
S1131C201F920F9200903F000F9211242F933F9325
S1131C304F935F936F937F938F939F93AF93BF93D0
S1131C40EF93FF93CF93DF93CDB7DEB780912E2030
S1131C5090912F20009731F080912E2090912F2089
S1131C60FC010995DF91CF91FF91EF91BF91AF9165
S1131C709F918F917F916F915F914F913F912F91A0
S1131C800F9000923F000F901F9018951F920F9293
S1131C9000903F000F9211242F933F934F935F9333
S1131CA06F937F938F939F93AF93BF93EF93FF9320
S1131CB0CF93DF93CDB7DEB7809130209091312060
S1131CC0009731F08091302090913120FC010995EA
S1131CD0DF91CF91FF91EF91BF91AF919F918F9140
S1131CE07F916F915F914F913F912F910F9000924F
S1131CF03F000F901F9018951F920F9200903F0085
S1131D000F9211242F933F934F935F936F937F937D
S1131D108F939F93AF93BF93EF93FF93CF93DF93EF
S1131D20CDB7DEB78091322090913320009731F007
S1131D308091322090913320FC010995DF91CF915D
S1131D40FF91EF91BF91AF919F918F917F916F918F
S1131D505F914F913F912F910F9000923F000F9010
S1131D601F9018951F920F9200903F000F9211241C
S1131D702F933F934F935F936F937F938F939F938F
S1131D80AF93BF93EF93FF93CF93DF93CDB7DEB7BA
S1131D908091342090913520009731F08091342047
S1131DA090913520FC010995DF91CF91FF91EF913E
S1131DB0BF91AF919F918F917F916F915F914F915F
S1131DC03F912F910F9000923F000F901F90189514
S1131DD01F920F9200903F000F9211242F933F9374
S1131DE04F935F936F937F938F939F93AF93BF931F
S1131DF0EF93FF93CF93DF93CDB7DEB78091362077
S1131E0090913720009731F08091362090913720BF
S1131E10FC010995DF91CF91FF91EF91BF91AF91B3
S1131E209F918F917F916F915F914F913F912F91EE
S1131E300F9000923F000F901F9018951F920F92E1
S1131E4000903F000F9211242F933F934F935F9381
S1131E506F937F938F939F93AF93BF93EF93FF936E
S1131E60CF93DF93CDB7DEB780913820909139209E
S1131E70009731F08091382090913920FC01099528
S1131E80DF91CF91FF91EF91BF91AF919F918F918E
S1131E907F916F915F914F913F912F910F9000929D
S1131EA03F000F901F9018951F920F9200903F00D3
S1131EB00F9211242F933F934F935F936F937F93CC
S1131EC08F939F93AF93BF93EF93FF93CF93DF933E
S1131ED0CDB7DEB780913A2090913B20009731F046
S1131EE080913A2090913B20FC010995DF91CF919C
S1131EF0FF91EF91BF91AF919F918F917F916F91DE
S1131F005F914F913F912F910F9000923F000F905E
S1131F101F9018951F920F9200903F000F9211246A
S1131F202F933F934F935F936F937F938F939F93DD
S1131F30AF93BF93EF93FF93CF93DF93CDB7DEB708
S1131F4080913C2090913D20009731F080913C207D
S1131F5090913D20FC010995DF91CF91FF91EF9184
S1131F60BF91AF919F918F917F916F915F914F91AD
S1131F703F912F910F9000923F000F901F90189562
S1131F801F920F9200903F000F9211242F933F93C2
S1131F904F935F936F937F938F939F93AF93BF936D
S1131FA0EF93FF93CF93DF93CDB7DEB780913E20BD
S1131FB090913F20009731F080913E2090913F20F6
S1131FC0FC010995DF91CF91FF91EF91BF91AF9102
S1131FD09F918F917F916F915F914F913F912F913D
S1131FE00F9000923F000F901F9018951F920F9230
S1131FF000903F000F9211242F933F934F935F93D0
S11320006F937F938F939F93AF93BF93EF93FF93BC
S1132010CF93DF93CDB7DEB78091402090914120DC
S1132020009731F08091402090914120FC01099566
S1132030DF91CF91FF91EF91BF91AF919F918F91DC
S11320407F916F915F914F913F912F910F900092EB
S11320503F000F901F9018951F920F9200903F0021
S11320600F9211242F933F934F935F936F937F931A
S11320708F939F93AF93BF93EF93FF93CF93DF938C
S1132080CDB7DEB78091422090914320009731F084
S11320908091422090914320FC010995DF91CF91DA
S11320A0FF91EF91BF91AF919F918F917F916F912C
S11320B05F914F913F912F910F9000923F000F90AD
S11320C01F9018951F920F9200903F000F921124B9
S11320D02F933F934F935F936F937F938F939F932C
S11320E0AF93BF93EF93FF93CF93DF93CDB7DEB757
S11320F08091442090914520009731F080914420B4
S113210090914520FC010995DF91CF91FF91EF91CA
S1132110BF91AF919F918F917F916F915F914F91FB
S11321203F912F910F9000923F000F901F901895B0
S11321301F920F9200903F000F9211242F933F9310
S11321404F935F936F937F938F939F93AF93BF93BB
S1132150EF93FF93CF93DF93CDB7DEB78091462003
S113216090914720009731F080914620909147202C
S1132170FC010995DF91CF91FF91EF91BF91AF9150
S11321809F918F917F916F915F914F913F912F918B
S11321900F9000923F000F901F9018951F920F927E
S11321A000903F000F9211242F933F934F935F931E
S11321B06F937F938F939F93AF93BF93EF93FF930B
S11321C0CF93DF93CDB7DEB780914820909149201B
S11321D0009731F08091482090914920FC010995A5
S11321E0DF91CF91FF91EF91BF91AF919F918F912B
S11321F07F916F915F914F913F912F910F9000923A
S11322003F000F901F9018951F920F9200903F006F
S11322100F9211242F933F934F935F936F937F9368
S11322208F939F93AF93BF93EF93FF93CF93DF93DA
S1132230CDB7DEB780914A2090914B20009731F0C2
S113224080914A2090914B20FC010995DF91CF9118
S1132250FF91EF91BF91AF919F918F917F916F917A
S11322605F914F913F912F910F9000923F000F90FB
S11322701F9018951F920F9200903F000F92112407
S11322802F933F934F935F936F937F938F939F937A
S1132290AF93BF93EF93FF93CF93DF93CDB7DEB7A5
S11322A080914C2090914D20009731F080914C20EA
S11322B090914D20FC010995DF91CF91FF91EF9111
S11322C0BF91AF919F918F917F916F915F914F914A
S11322D03F912F910F9000923F000F901F901895FF
S11322E01F920F9200903F000F9211242F933F935F
S11322F04F935F936F937F938F939F93AF93BF930A
S1132300EF93FF93CF93DF93CDB7DEB780914E2049
S113231090914F20009731F080914E2090914F2062
S1132320FC010995DF91CF91FF91EF91BF91AF919E
S11323309F918F917F916F915F914F913F912F91D9
S11323400F9000923F000F901F9018951F920F92CC
S113235000903F000F9211242F933F934F935F936C
S11323606F937F938F939F93AF93BF93EF93FF9359
S1132370CF93DF93CDB7DEB7809150209091512059
S1132380009731F08091502090915120FC010995E3
S1132390DF91CF91FF91EF91BF91AF919F918F9179
S11323A07F916F915F914F913F912F910F90009288
S11323B03F000F901F901895CF93DF9300D01F928A
S11323C0CDB7DEB78A839B833CDA89838A819B817C
S11323D0811528E0920759F461E083E090E00E94BF
S11323E0190964E083E090E00E94190947C08A81DA
S11323F09B81803428E0920759F462E083E090E006
S11324000E94190964E083E090E00E94190936C033
S11324108A819B81811529E0920759F461E084E067
S113242090E00E94190964E084E090E00E94190998
S113243025C08A819B81803429E0920759F462E0A7
S113244084E090E00E94190964E084E090E00E9436
S1132450190914C08A819B8181152AE0920759F4D5
S113246061E085E090E00E94190964E085E090E075
S11324700E94190903C08981F4D905C081E090E064
S1132480FFD98981EED92396CDBFDEBFDF91CF91ED
S11324900895CF93DF9300D000D0CDB7DEB7898302
S11324A09A836B837C8389819A81811528E09207C2
S11324B039F48B819C8180931E2090931F2033C01C
S11324C089819A81803428E0920739F48B819C8138
S11324D080932A2090932B2026C089819A8181158C
S11324E029E0920739F48B819C8180933220909368
S11324F0332019C089819A81803429E0920739F404
S11325008B819C8180933E2090933F200CC08981D5
S11325109A8181152AE0920731F48B819C81809302
S11325204620909347202496CDBFDEBFDF91CF9104
S11325300895CF93DF9300D0CDB7DEB789839A8314
S113254089819A81FC018481282F206189819A8163
S1132550FC0124830F900F90DF91CF910895CF93C6
S1132560DF93CDB7DEB72797CDBFDEBF89839A83CC
S11325706B837C834D835E832F839B818D81982B1A
S11325808F81882311F088E001C080E0292F282B57
S113259089819A81FC0125832796CDBFDEBFDF9117
S11325A0CF910895CF93DF9300D0CDB7DEB7898361
S11325B09A8389819A81FC018481282F28608981EA
S11325C09A81FC0124830F900F90DF91CF9108959D
S11325D0CF93DF9300D000D0CDB7DEB789839A8341
S11325E06B837C8389819A81FC018581982F9F73F9
S11325F08B81292F282B89819A81FC01258324969C
S1132600CDBFDEBFDF91CF910895CF93DF9300D08C
S1132610CDB7DEB789839A8389819A81FC01818150
S1132620882F90E08072992721E0009709F420E038
S1132630822F0F900F90DF91CF910895CF93DF9366
S113264000D0CDB7DEB789839A8389819A81FC0152
S11326508181882F90E08078992721E0009709F400
S113266020E0822F0F900F90DF91CF910895CF93A8
S1132670DF93CDB7DEB780E098E4A8EEB1E0BC010B
S1132680CD01DF91CF910895CF93DF931F92CDB702
S1132690DEB71982ECDFDC01CB012981222F30E087
S11326A0022E04C0B695A795979587950A94D2F7FC
S11326B0BC01CD010F90DF91CF910895CF93DF93AB
S11326C0CDB7DEB7E1DFDC01CB01BC01CD01DF9189
S11326D0CF910895CF93DF93CDB7DEB7EFDFDC0161
S11326E0CB01BC01CD01DF91CF910895CF93DF934E
S11326F000D0CDB7DEB789839A8389819A81009708
S113270009F41EC189819A81803C910531F460E10C
S113271080E090E00E94190913C189819A81811592
S113272024E0920731F464E080E090E00E9419090B
S113273007C189819A81803821E0920731F462E0EF
S113274080E090E00E941909FBC089819A8181157B
S113275021E0920731F461E080E090E00E941909E1
S1132760EFC089819A81803823E0920731F461E0D7
S113277081E090E00E941909E3C089819A81811562
S113278022E0920731F462E081E090E00E941909AE
S1132790D7C089819A81803223E0920731F464E0C2
S11327A082E090E00E941909CBC089819A81811549
S11327B028E0920731F461E083E090E00E94190977
S11327C0BFC089819A81811529E0920731F461E0C3
S11327D084E090E00E941909B3C089819A8181152F
S11327E02AE0920731F461E085E090E00E94190943
S11327F0A7C089819A81803428E0920731F462E08D
S113280083E090E00E9419099BC089819A818034F9
S113281029E0920731F462E084E090E00E94190913
S11328208FC089819A81803928E0920731F464E06D
S113283083E090E00E94190983C089819A818039DC
S113284029E0920731F464E084E090E00E941909E1
S113285077C089819A8180392AE0920731F464E053
S113286085E090E00E9419096BC089819A81803CBF
S113287028E0920731F468E083E090E00E941909AF
S11328805FC089819A81803C29E0920731F468E035
S113289084E090E00E94190953C089819A81803AAA
S11328A028E0920731F460E183E090E00E94190986
S11328B047C089819A81803A29E0920731F460E126
S11328C084E090E00E9419093BC089819A81803A92
S11328D02AE0920731F460E185E090E00E94190952
S11328E02FC089819A81803B28E0920731F460E20D
S11328F083E090E00E94190923C089819A81803B7A
S113290029E0920731F460E284E090E00E94190922
S113291017C089819A81803824E0920731F460E4F9
S113292083E090E00E9419090BC089819A81803A62
S113293024E0920729F460E485E090E00E941909FC
S11329400F900F90DF91CF9108950F931F93CF9322
S1132950DF93CDB7DEB72597CDBFDEBF8A839B83D8
S11329606C837D838A819B81C1DE8A819B8160E047
S113297070E02EDE8C819D81FC0120858C819D81FF
S1132980FC01468157818C819D81FC0164817581A4
S11329908A819B81E4DD9EDE9B01AC018C819D815B
S11329A0FC0180819181A281B381EA81FB8189014B
S11329B09A01AC01BD01CF0148D089838A819B81F2
S11329C0F1DD8A819B81B5DD89812596CDBFDEBF8E
S11329D0DF91CF911F910F910895CF93DF9300D092
S11329E01F92CDB7DEB789839A836B8300008981F8
S11329F09A810BDE982F81E089278823C1F789818A
S1132A009A812B81FC01208380E090E02396CDBF46
S1132A10DEBFDF91CF910895CF93DF9300D0CDB780
S1132A20DEB789839A83000089819A8107DE982F13
S1132A3081E089278823C1F789819A81FC018081FB
S1132A400F900F90DF91CF910895EF92FF920F9323
S1132A501F93CF93DF93CDB7DEB76F97CDBFDEBFA4
S1132A608E8B9F8B488F598F6A8F7B8F0C8F1D8F16
S1132A702E8F3F8F8C8D9D8DAE8DBF8D689412F8F7
S1132A80B695A795979587951694D1F78E879F87C6
S1132A90A88BB98B8C8D9D8DAE8DBF8D072E76E165
S1132AA0B695A795979587957A95D1F7702D8A87CE
S1132AB09B87AC87BD878E899F89FC018481882F81
S1132AC090E0847099270097C1F48E859F85A8892A
S1132AD0B989B695A795979587958E879F87A88B73
S1132AE0B98B8A859B85AC85BD85B695A795979549
S1132AF087958A879B87AC87BD87288D398D4A8DBA
S1132B005B8D8E859F85A889B98982179307A40751
S1132B10B50768F0288D398D4A8D5B8D8A859B8534
S1132B20AC85BD85281739074A075B0710F480E098
S1132B303CC18E899F89FC018481882F90E0847038
S1132B409927009761F4888D998DAA8DBB8D880F84
S1132B50991FAA1FBB1F888F998FAA8FBB8F8FEFD6
S1132B6090E0A0E0B0E08E839F83A887B9878C8D26
S1132B709D8DAE8DBF8D288D398D4A8D5B8DBC01A9
S1132B80CD010E9461392A8B3B8B4C8B5D8B89EF85
S1132B90898328C02A893B894C895D898E819F81DC
S1132BA0A885B985281739074A075B07F8F08E818D
S1132BB09F81A885B985880F991FAA1FBB1F8E8383
S1132BC09F83A887B98789818D3F4CF48E819F812B
S1132BD0A885B98581608E839F83A887B9878981F9
S1132BE08F5F898389818730ACF201C000008981BD
S1132BF088230CF088C0888D998DAA8DBB8D880F91
S1132C00991FAA1FBB1F880F991FAA1FBB1F880FDC
S1132C10991FAA1FBB1F2C8D3D8D4E8D5F8D790191
S1132C208A01E81AF90A0A0B1B0BD801C7018C8F19
S1132C309D8FAE8FBF8F89818E3F84F589819927BF
S1132C4087FD90952DEF3FEF281B390B8C8D9D8DC3
S1132C50AE8DBF8D7C018D0104C0EE0CFF1C001FE6
S1132C60111F2A95D2F7A8019701888D998DAA8DF5
S1132C70BB8DB695A79597958795820F931FA41F33
S1132C80B51F288D398D4A8D5B8DBC01CD010E9405
S1132C9061392A833B834C835D836EC08981992784
S1132CA087FD90959C012D5F3F4F888D998DAA8D4E
S1132CB0BB8D04C0880F991FAA1FBB1F2A95D2F78A
S1132CC0888F998FAA8FBB8F888D998DAA8DBB8D84
S1132CD09C01AD0156954795379527958C8D9D8D13
S1132CE0AE8DBF8D820F931FA41FB51F288D398D04
S1132CF04A8D5B8DBC01CD010E9461392A833B83DF
S1132D004C835D8339C08981992787FD90959C0107
S1132D102D5F3F4F888D998DAA8DBB8D04C0880F80
S1132D20991FAA1FBB1F2A95D2F7888F998FAA8F44
S1132D30BB8F888D998DAA8DBB8D9C01AD01569555
S1132D404795379527958C8D9D8DAE8DBF8D820FC0
S1132D50931FA41FB51F288D398D4A8D5B8DBC012F
S1132D60CD010E946139DA01C9010197A109B109B4
S1132D708A839B83AC83BD838A819B81AC81BD8123
S1132D80892F9A2FAB2FBB27982F9F70898182950B
S1132D90807F292F282B8E899F89FC0127832A81F4
S1132DA08E899F89FC01268381E06F96CDBFDEBFAB
S1132DB0DF91CF911F910F91FF90EF900895CF93E2
S1132DC0DF931F92CDB7DEB78FE390E0FC018081E3
S1132DD08983F89489810F90DF91CF910895CF93DF
S1132DE0DF931F92CDB7DEB789838FE390E029810B
S1132DF0FC0120830F90DF91CF910895CF93DF934F
S1132E0000D0CDB7DEB78A83DADF898380E590E02E
S1132E1020E530E0F90130812A81232BFC01208355
S1132E208981DDDF0F900F90DF91CF910895CF93CB
S1132E30DF931F92CDB7DEB789830F90DF91CF91D7
S1132E400895CF93DF9300D0CDB7DEB78A83B7DF81
S1132E50898380E590E020E530E0F9012081322F7C
S1132E602A8120952323FC0120838981B8DF0F90D8
S1132E700F90DF91CF910895CF93DF931F92CDB739
S1132E80DEB789838981883019F08981B7DF02C070
S1132E908981CDDF0F90DF91CF910895CF93DF9398
S1132EA01F92CDB7DEB7898380E590E0FC01918164
S1132EB08981982381E0992309F480E00F90DF91C0
S1132EC0CF910895CF93DF931F92CDB7DEB7898357
S1132ED000008981E3DF982F81E089278823C9F7DF
S1132EE00F90DF91CF910895CF93DF93CDB7DEB7E5
S1132EF080E098E4A8EEB1E0BC01CD01DF91CF9170
S1132F000895CF93DF931F92CDB7DEB71982ECDF1C
S1132F10DC01CB012981222F30E0022E04C0B695BA
S1132F20A795979587950A94D2F7BC01CD010F9088
S1132F30DF91CF910895CF93DF93CDB7DEB7E1DF73
S1132F40DC01CB01BC01CD01DF91CF910895CF937A
S1132F50DF93CDB7DEB7EFDFDC01CB01BC01CD01E0
S1132F60DF91CF910895CF93DF93CDB7DEB7EFDF35
S1132F70DC01CB01BC01CD01DF91CF9108956150FB
S1132F80710981099109D9F70895CF93DF93CDB7DA
S1132F90DEB72B97CDBFDEBF8A876B878A8589838F
S1132FA08B858A8389818B838B818C838C818695A5
S1132FB0869586958D838D81882F90E0880F991F43
S1132FC082959295907F9827807F98279A5F8E8329
S1132FD09F838A818823A9F0898188878885882F9F
S1132FE090E09C012770332781E090E002C0880FB5
S1132FF0991F2A95E2F7282F8E819F81FC01258352
S113300014C0898189878985882F90E09C01277065
S1133010332781E090E002C0880F991F2A95E2F7D8
S1133020282F8E819F81FC0126832B96CDBFDEBF86
S1133030DF91CF910895CF93DF93CDB7DEB7289773
S1133040CDBFDEBF88878885898389818A838A8109
S11330508B838B818695869586958C838C81882F2E
S113306090E0880F991F82959295907F9827807F92
S113307098279A5F8D839E8389818F838F81882F80
S113308090E09C012770332781E090E002C0880F14
S1133090991F2A95E2F7282F8D819E81FC012783B1
S11330A02896CDBFDEBFDF91CF910895CF93DF93F4
S11330B0CDB7DEB780EA90E027E0FC012283DF9100
S11330C0CF910895CF93DF9300D0CDB7DEB7898336
S11330D09A8389819A81FC018081282F20648981C7
S11330E09A81FC0120830F900F90DF91CF91089576
S11330F0CF93DF9300D01F92CDB7DEB789839A8335
S11331006B8389819A812B81FC0123832396CDBF14
S1133110DEBFDF91CF910895CF93DF9300D0CDB779
S1133120DEB789839A8389819A81FC0183810F9018
S11331300F90DF91CF910895CF93DF9300D000D00B
S1133140CDB7DEB789839A836B837C8389819A8127
S1133150FC018681282F2C7F89819A81FC0126839A
S113316089819A81FC0196818B81292F282B898161
S11331709A81FC0126832496CDBFDEBFDF91CF91D7
S11331800895CF93DF9300D000D0CDB7DEB7898305
S11331909A836B837C8389819A81FC018081982F37
S11331A0907F8B81292F282B89819A81FC01208390
S11331B02496CDBFDEBFDF91CF910895CF93DF93E7
S11331C000D000D0CDB7DEB789839A836B837C832C
S11331D089819A81FC018181982F987F8B81292F85
S11331E0282B89819A81FC0121832496CDBFDEBFDF
S11331F0DF91CF910895CF93DF9300D000D0CDB766
S1133200DEB789839A836B837C8389819A81FC01ED
S11332108381982F9F7C8B818295807F292F282BF7
S113322089819A81FC0123832496CDBFDEBFDF917F
S1133230CF910895CF93DF9300D01F92CDB7DEB71F
S113324089839A836B8389819A812B81FC012083F2
S11332502396CDBFDEBFDF91CF9108951F920F92C9
S113326000903F000F9211248F929F92AF92BF92D1
S1133270CF92DF92EF92FF920F931F932F933F937E
S11332804F935F936F937F938F939F93AF93BF936A
S1133290EF93FF93CF93DF93CDB7DEB76B97CDBF9B
S11332A0DEBF80EA9AE0B8DB8093542080915520F9
S11332B0882309F449C1809154208D3081F0809194
S11332C06020882F90E0209154208A5A9F4DFC0161
S11332D02083809160208F5F809360203CC1809127
S11332E06020682F86E590E20DD6882309F41DC17D
S11332F080915620882F90E0AA2797FDA095BA2F99
S113330041E050E028E230E0841B950B2817390790
S113331008F444C082509F4FFC010C94833980917F
S11333205220682F84E150D40AC180915720CED115
S113333006C155D604C180910020682F81E044D491
S1133340FEC084D6FCC086E590E24BD2F8C086E588
S113335090E27BD2F4C084D7F2C086E590E20FD726
S1133360EEC086E590E2EDD7EAC0B2D6E8C0B6D7A3
S1133370E6C00E948822E3C08091572033D7DFC083
S113338086E590E243D7DBC080916B20682F83E20F
S11333901BD4D5C086E590E2EED7D1C08FEF96D18D
S11333A0E2DDDC01CB019C01AD0160E070E0CB010A
S11333B0822E932EA42EB52EC62ED72EE82EF92EAD
S11333C0282D392D4A2D5B2D6C2D7D2D8E2D9F2D75
S11333D001E00E9489392C833D834E835F83688793
S11333E079878A879B878C809D80AE80BF80C884C4
S11333F0D984EA84FB84282D392D4A2D5B2D6C2D2C
S11334007D2D8E2D9F2D02E00E9489392C873D87CA
S11334104E875F87688B798B8A8B9B8B282D392D00
S11334204A2D5B2D6C2D7D2D8E2D9F2DAC84BD845E
S1133430CE84DF84E888F9880A891B890E94983938
S1133440822E932EA42EB52EC62ED72EE82EF92E1C
S1133450282D392D4A2D5B2D6C2D7D2D8E2D9F2DE4
S113346002E00E9489392C8B3D8B4E8B5F8B688FD9
S1133470798F8A8F9B8F282D392D4A2D5B2D6C2DAA
S11334807D2D8E2D9F2DAC88BD88CE88DF88E88C5D
S1133490F98C0A8D1B8D0E949839A22EB32EC42E4E
S11334A0D52EE62EF72E082F192F2A2D3B2D4C2D25
S11334B05D2D6E2D7F2D802F912F29513C4F4F4F25
S11334C05F4F6F4F7F4F8F4F9F4FA22EB32EC42E4F
S11334D0D52EE62EF72E082F192F2A2D3B2D4C2DF5
S11334E05D2D6E2D7F2D802F912F0E94F601DC0122
S11334F0CB0120E030E84BEB55E4BC01CD010E9448
S11335007103DC01CB01BC01CD010E944501A22E57
S1133510B32EC42ED52EE62EF72E082F192FD60142
S1133520C501BC01CD012BDD39CF198281E08A832D
S1133530809156208B8363E0CE010196DED11092F8
S113354055201092602007C0809154208A3319F4CA
S113355081E0809355206B96CDBFDEBFDF91CF9184
S1133560FF91EF91BF91AF919F918F917F916F9157
S11335705F914F913F912F911F910F91FF90EF9089
S1133580DF90CF90BF90AF909F908F900F9000925C
S11335903F000F901F9018951F920F9200903F00CC
S11335A00F9211242F933F934F935F936F937F93C5
S11335B08F939F93AF93BF93EF93FF93CF93DF9337
S11335C0CDB7DEB741D0DF91CF91FF91EF91BF919D
S11335D0AF919F918F917F916F915F914F913F91A7
S11335E02F910F9000923F000F901F901895CF934A
S11335F0DF93CDB7DEB780916B208F5F80936B2014
S113360060E070E080E099E0BCDD60E070E080E4C0
S113361099E0B7DD80E094E0FC01108280E094E062
S1133620FC011086118680E099E02FEF3FEFFC014A
S113363020A331A380E499E02FEF3FEFFC0120A306
S113364031A3DF91CF910895CF93DF93CDB7DEB748
S113365060E070E080E099E094DD60E070E080E498
S113366099E08FDD80E499E0FC0180A191A1CC0177
S1133670A0E0B0E0AC013327222780E099E0FC0110
S113368080A191A1CC01A0E0B0E0820F931FA41F00
S1133690B51F8093632090936420A0936520B0931A
S11336A0662080E094E0FC01108280E094E0FC015C
S11336B01086118680916B20823011F410926B2059
S11336C084E080935220DF91CF910895CF93DF93CC
S11336D0CDB7DEB72B97CDBFDEBF8B8728E0CE01F9
S11336E00396FC01322F11923A95E9F719821A8256
S11336F01DC08B85882F90E0098002C09595879521
S11337000A94E2F78170992741E0009709F440E0B8
S11337109E012D5F3F4F89819A81820F931FFC0187
S1133720408389819A81019689839A8389819A81C8
S113373088309105F4F28B81882321F061E088E0E0
S113374024DC03C060E088E020DC8C81882321F045
S113375061E08AE01ADC03C060E08AE016DC8D8157
S1133760882321F061E08BE010DC03C060E08BE093
S11337700CDC8E81882321F061E088E106DC03C043
S113378060E088E102DC8F81882321F061E089E137
S1133790FCDB03C060E089E1F8DB8885882321F045
S11337A061E08AE1F2DB03C060E08AE1EEDB898557
S11337B0882321F061E08BE1E8DB03C060E08BE16A
S11337C0E4DB8A85882321F061E08CE1DEDB03C041
S11337D060E08CE1DADB2B96CDBFDEBFDF91CF91C9
S11337E00895CF93DF93CDB7DEB72597CDBFDEBF66
S11337F08C839D838C819D81FC01818189838C8153
S11338009D81FC0182818A8363E170E280EC98E00F
S11338100E94F00A42E050E0CE010196BC0180EC27
S113382098E00E94B20A63E170E280EC98E00E94A2
S1133830050B88E28B83CE01039661E05ED025966A
S1133840CDBFDEBFDF91CF910895CF93DF93CDB786
S1133850DEB72797CDBFDEBF8E839F838E819F8186
S1133860FC01818189838E819F81FC0182818A830D
S113387064E170E280EC98E00E94F00A42E050E0DB
S1133880CE010196BC0180EC98E00E94B20A64E18A
S113389070E280EC98E00E94050B64E170E280EC39
S11338A098E00E94F00A60E080EC98E021DC80EC73
S11338B098E032DC8093612060E080EC98E018DCD2
S11338C080EC98E029DC8093622064E170E280EC73
S11338D098E00E94050B89E28B83809161208C83A0
S11338E0809162208D83CE01039663E006D02796F3
S11338F0CDBFDEBFDF91CF910895AF92BF92CF923B
S1133900DF92EF92FF920F931F93CF93DF9300D038
S113391000D0CDB7DEB78A839B836C8324DBDC01C4
S1133920CB015C016D01E12CF12C87012A2D3B2D8B
S11339304C2D5D2D6E2D7F2D802F912F215C3D4BC5
S1133940404F5F4F6F4F7F4F8F4F9F4FA22EB32E2D
S1133950C42ED52EE62EF72E082F192F2A2D3B2DF7
S11339604C2D5D2D6E2D7F2D802F912F0E94F60101
S1133970DC01CB0120E03BE147EB5AE4BC01CD0183
S11339800E947103DC01CB01BC01CD010E94450101
S1133990A22EB32EC42ED52EE62EF72E082F192FC5
S11339A0D601C501BC01CD01EADA6AE380EA9AE0F6
S11339B014D8D9DADC01CB015C016D01E12CF12CC6
S11339C087012A2D3B2D4C2D5D2D6E2D7F2D802FB3
S11339D0912F215C3D4B404F5F4F6F4F7F4F8F4F77
S11339E09F4FA22EB32EC42ED52EE62EF72E082FCF
S11339F0192F2A2D3B2D4C2D5D2D6E2D7F2D802FC3
S1133A00912F0E94F601DC01CB0120E03BE147EB62
S1133A105AE4BC01CD010E947103DC01CB01BC015D
S1133A20CD010E944501A22EB32EC42ED52EE62E22
S1133A30F72E082F192FD601C501BC01CD019FDA3D
S1133A40198258C08981882F90E02A813B81820F96
S1133A50931FFC018081682F80EA9AE00E94ED1494
S1133A6082DADC01CB015C016D01E12CF12C8701D0
S1133A702A2D3B2D4C2D5D2D6E2D7F2D802F912FCA
S1133A80215C3D4B404F5F4F6F4F7F4F8F4F9F4F98
S1133A90A22EB32EC42ED52EE62EF72E082F192FC4
S1133AA02A2D3B2D4C2D5D2D6E2D7F2D802F912F9A
S1133AB00E94F601DC01CB0120E03BE147EB5AE434
S1133AC0BC01CD010E947103DC01CB01BC01CD011D
S1133AD00E944501A22EB32EC42ED52EE62EF72E1B
S1133AE0082F192FD601C501BC01CD0148DA8981FF
S1133AF08F5F898399818C81981708F4A3CF8C8177
S1133B00282F2F5F8A819B81622F3AD2682F80EA07
S1133B109AE00E94ED1427DADC01CB015C016D010F
S1133B20E12CF12C87012A2D3B2D4C2D5D2D6E2D82
S1133B307F2D802F912F215C3D4B404F5F4F6F4F66
S1133B407F4F8F4F9F4FA22EB32EC42ED52EE62E1D
S1133B50F72E082F192F2A2D3B2D4C2D5D2D6E2D60
S1133B607F2D802F912F0E94F601DC01CB0120E0F4
S1133B703BE147EB5AE4BC01CD010E947103DC0137
S1133B80CB01BC01CD010E944501A22EB32EC42E4F
S1133B90D52EE62EF72E082F192FD601C501BC010C
S1133BA0CD01EDD96DE080EA9AE044DB2496CDBFE7
S1133BB0DEBFDF91CF911F910F91FF90EF90DF90C7
S1133BC0CF90BF90AF900895AF92BF92CF92DF9203
S1133BD0EF92FF920F931F93CF93DF9300D0CDB753
S1133BE0DEB789836A83BFD9DC01CB015C016D0137
S1133BF0E12CF12C87012A2D3B2D4C2D5D2D6E2DB2
S1133C007F2D802F912F215C3D4B404F5F4F6F4F95
S1133C107F4F8F4F9F4FA22EB32EC42ED52EE62E4C
S1133C20F72E082F192F2A2D3B2D4C2D5D2D6E2D8F
S1133C307F2D802F912F0E94F601DC01CB0120E023
S1133C403BE147EB5AE4BC01CD010E947103DC0166
S1133C50CB01BC01CD010E944501A22EB32EC42E7E
S1133C60D52EE62EF72E082F192FD601C501BC013B
S1133C70CD0185D96AE380EA9AE00E94ED1473D9F4
S1133C80DC01CB015C016D01E12CF12C87012A2DB3
S1133C903B2D4C2D5D2D6E2D7F2D802F912F215C82
S1133CA03D4B404F5F4F6F4F7F4F8F4F9F4FA22E23
S1133CB0B32EC42ED52EE62EF72E082F192F2A2D1B
S1133CC03B2D4C2D5D2D6E2D7F2D802F912F0E942D
S1133CD0F601DC01CB0120E03BE147EB5AE4BC01F7
S1133CE0CD010E947103DC01CB01BC01CD010E9416
S1133CF04501A22EB32EC42ED52EE62EF72E082F64
S1133D00192FD601C501BC01CD0139D9698180EAD9
S1133D109AE00E94ED1427D9DC01CB015C016D010E
S1133D20E12CF12C87012A2D3B2D4C2D5D2D6E2D80
S1133D307F2D802F912F215C3D4B404F5F4F6F4F64
S1133D407F4F8F4F9F4FA22EB32EC42ED52EE62E1B
S1133D50F72E082F192F2A2D3B2D4C2D5D2D6E2D5E
S1133D607F2D802F912F0E94F601DC01CB0120E0F2
S1133D703BE147EB5AE4BC01CD010E947103DC0135
S1133D80CB01BC01CD010E944501A22EB32EC42E4D
S1133D90D52EE62EF72E082F192FD601C501BC010A
S1133DA0CD01EDD86A8180EA9AE00E94ED14DBD857
S1133DB0DC01CB015C016D01E12CF12C87012A2D82
S1133DC03B2D4C2D5D2D6E2D7F2D802F912F215C51
S1133DD03D4B404F5F4F6F4F7F4F8F4F9F4FA22EF2
S1133DE0B32EC42ED52EE62EF72E082F192F2A2DEA
S1133DF03B2D4C2D5D2D6E2D7F2D802F912F0E94FC
S1133E00F601DC01CB0120E03BE147EB5AE4BC01C5
S1133E10CD010E947103DC01CB01BC01CD010E94E4
S1133E204501A22EB32EC42ED52EE62EF72E082F32
S1133E30192FD601C501BC01CD01A1D88981982FC4
S1133E4091958A81292F281B822F682F80EA9AE076
S1133E500E94ED1488D8DC01CB015C016D01E12CDA
S1133E60F12C87012A2D3B2D4C2D5D2D6E2D7F2DA0
S1133E70802F912F215C3D4B404F5F4F6F4F7F4F01
S1133E808F4F9F4FA22EB32EC42ED52EE62EF72E83
S1133E90082F192F2A2D3B2D4C2D5D2D6E2D7F2D96
S1133EA0802F912F0E94F601DC01CB0120E03BE141
S1133EB047EB5AE4BC01CD010E947103DC01CB0144
S1133EC0BC01CD010E944501A22EB32EC42ED52ED5
S1133ED0E62EF72E082F192FD601C501BC01CD01FE
S1133EE04ED86DE080EA9AE0A5D90F900F90DF914B
S1133EF0CF911F910F91FF90EF90DF90CF90BF90E3
S1133F00AF900895CF93DF93CDB7DEB72597CDBF9C
S1133F10DEBF8B839C836D8319821A8211C08A81D0
S1133F20882F90E02B813C81820F931FFC018081BC
S1133F309981F92FF81B8F2F89838A818F5F8A8358
S1133F408A81282F30E08D81882F90E001972817EF
S1133F5039072CF38D81882F90E001972B813C81C8
S1133F60820F931FFC0190818981981711F481E0DD
S1133F7001C080E02596CDBFDEBFDF91CF910895CB
S1133F80CF93DF93CDB7DEB72597CDBFDEBF8B834D
S1133F909C836D8319821A8211C08A81882F90E0D4
S1133FA02B813C81820F931FFC0180819981F92F21
S1133FB0F81B8F2F89838A818F5F8A838A81282FB8
S1133FC030E08D81882F90E00197281739072CF372
S1133FD089812596CDBFDEBFDF91CF910895CF9320
S1133FE0DF93CDB7DEB72997CDBFDEBF0E94B317ED
S1133FF0DC01CB0189839A83AB83BC8383E08D830B
S113400089818E8389819A81AB81BC81892F9A2F82
S1134010AB2FBB278F8389819A81AB81BC81CD0172
S1134020AA27BB27888789819A81AB81BC818B2F82
S11340309927AA27BB278987CE01059665E05DDC11
S11340402996CDBFDEBFDF91CF910895CF93DF9343
S1134050CDB7DEB72597CDBFDEBF82E089838091DF
S1134060012090910220A0910320B09104208A8322
S11340708091012090910220A0910320B09104200E
S1134080892F9A2FAB2FBB278B838091012090918E
S11340900220A0910320B0910420CD01AA27BB27C0
S11340A08C838091012090910220A0910320B091F3
S11340B004208B2F9927AA27BB278D8365E0CE0187
S11340C001961BDC2596CDBFDEBFDF91CF9108950D
S11340D0CF93DF93CDB7DEB72697CDBFDEBF80E2A7
S11340E0898380916B208A831B821C821D821E829D
S11340F080916B20882F90E001978230910528F4FD
S113410062E0CE010196F9DB34C080916320909186
S11341106420A0916520B09166208B2F9927AA274F
S1134120BB278B838091632090916420A0916520AC
S1134130B0916620CD01AA27BB278C838091632090
S113414090916420A0916520B0916620892F9A2FC8
S1134150AB2FBB278D838091632090916420A09125
S11341606520B09166208E8366E0CE010196C5DBA2
S113417000002696CDBFDEBFDF91CF910895CF9387
S1134180DF9300D01F92CDB7DEB78A839B838A81E9
S11341909B810196FC018081882F90E0382F222793
S11341A08A819B810296FC018081882F90E0820F96
S11341B0931F809305209093062080E094E0209143
S11341C0052030910620FC01228733878EE1898304
S11341D061E0CE01019691DB2396CDBFDEBFDF9176
S11341E0CF910895CF93DF9300D0CDB7DEB78A8304
S11341F08A818093072084E2898361E0CE0101965D
S11342007CDB0F900F90DF91CF910895CF93DF93D4
S113421000D01F92CDB7DEB78A839B838A819B81AE
S11342200196FC018081882F90E0382F22278A8113
S11342309B810296FC018081882F90E0820F931F5E
S1134240809308209093092085E2898361E0CE0160
S1134250019653DB2396CDBFDEBFDF91CF91089546
S1134260CF93DF9300D0CDB7DEB780916B2082303F
S113427021F180E099E0FC0110A211A280E499E010
S1134280FC0110A211A280E094E0FC0110861186CA
S113429081E080936C2069E070E080E499E00E9402
S11342A0C11880E094E020916D20FC01208368E037
S11342B070E080E099E00E94C1188FE189838091C9
S11342C06B208A8362E0CE01019617DB82E0809343
S11342D06B200F900F90DF91CF910895CF93DF93D0
S11342E01F92CDB7DEB760E070E080E099E00E94F5
S11342F0C11860E070E080E499E00E94C11880E099
S113430094E0FC01108280E094E0FC0110861186A8
S113431080E099E0FC0110A211A280E499E0FC0184
S113432010A211A210926C2081E080936B2081E294
S1134330898361E0CE010196E0DA0F90DF91CF919D
S11343400895CF93DF9300D01F92CDB7DEB78A8351
S11343509B838A819B81FC01818180936D2082E211
S1134360898361E0CE010196C8DA2396CDBFDEBF12
S1134370DF91CF910895AF92BF92CF92DF92EF92E7
S1134380FF920F931F93CF93DF9300D01F92CDB76B
S1134390DEB78A839B830E94B317DC01CB015C01E7
S11343A06D01E12CF12C87012A2D3B2D4C2D5D2D27
S11343B06E2D7F2D802F912F215C3D4B404F5F4F01
S11343C06F4F7F4F8F4F9F4FA22EB32EC42ED52EEB
S11343D0E62EF72E082F192F2A2D3B2D4C2D5D2D5F
S11343E06E2D7F2D802F912F0E94F601DC01CB01D1
S11343F020E03BE147EB5AE4BC01CD010E9471038C
S1134400DC01CB01BC01CD010E944501A22EB32EDB
S1134410C42ED52EE62EF72E082F192FD601C5014E
S1134420BC01CD010E94BF1782E089835AC08981F3
S1134430882F90E02A813B81820F931FFC018081A9
S1134440682F80EA9AE00E94ED140E94B317DC0101
S1134450CB015C016D01E12CF12C87012A2D3B2D50
S11344604C2D5D2D6E2D7F2D802F912F215C3D4B8A
S1134470404F5F4F6F4F7F4F8F4F9F4FA22EB32EF2
S1134480C42ED52EE62EF72E082F192F2A2D3B2DBC
S11344904C2D5D2D6E2D7F2D802F912F0E94F601C6
S11344A0DC01CB0120E03BE147EB5AE4BC01CD0148
S11344B00E947103DC01CB01BC01CD010E944501C6
S11344C0A22EB32EC42ED52EE62EF72E082F192F8A
S11344D0D601C501BC01CD010E94BF1789818F5F40
S11344E089838A819B810196FC0190818981891746
S11344F008F49DCF2396CDBFDEBFDF91CF911F91EE
S11345000F91FF90EF90DF90CF90BF90AF90089500
S1134510CF93DF931F92CDB7DEB7F89484E08983FD
S113452061E0CE010196E9D988E790E021E0FC0141
S113453021830F90DF91CF910895CF93DF93CDB76F
S1134540DEB72597CDBFDEBF8B836C837D838B81E4
S1134550883070F48B81882F90E080589E4F898337
S11345609A832C8189819A81FC01208381E001C096
S113457080E02596CDBFDEBFDF91CF910895CF9324
S1134580DF93CDB7DEB72597CDBFDEBF8B836C83BA
S11345907D838B81883070F48B81882F90E08857DD
S11345A09E4F89839A832C8189819A81FC0120837F
S11345B081E001C080E02596CDBFDEBFDF91CF91C1
S11345C008952F923F924F925F926F927F928F92B3
S11345D09F92AF92BF92CF92DF92EF92FF920F938E
S11345E01F93CF93DF93CDB7DEB7C551D140CDBF75
S11345F0DEBF0E94BC3882E00E943C1782E00E9429
S1134600621761E080E490E00E941A0B81E00E944E
S113461021170E94561880EC98E00E948F0A80ECC3
S113462098E00E9462180E945F0B80E490E02DE005
S1134630FC01238380E499E00E94DC1167EF7AE1B6
S113464080E499E00E94491260E070E080E499E01F
S11346500E94DE1861E070E080E499E00E949C18FA
S11346606AE070E280EA9AE00E94A51462E070E0D9
S113467080EA9AE00E94FB1880E696E021E0FC01C3
S1134680258B6DE670E080E058DF62E070E080E04A
S113469076DF60ED70E081E050DF60E070E081E0A3
S11346A06EDF81E090E089839A8331C10E94B31761
S11346B0DC01CB019C01AD0160E070E0CB01822EF6
S11346C0932EA42EB52EC62ED72EE82EF92E282DE5
S11346D0392D4A2D5B2D6C2D7D2D8E2D9F2D01E0C6
S11346E00E94893927962FAF279728963FAF28979E
S11346F029964FAF29972A965FAF2A972B966FAFCB
S11347002B972C967FAF2C972D968FAF2D972E96A7
S11347109FAF2E9727968FAC279728969FAC289704
S11347202996AFAC29972A96BFAC2A972B96CFAC83
S11347302B972C96DFAC2C972D96EFAC2D972E96BD
S1134740FFAC2E97282D392D4A2D5B2D6C2D7D2DF8
S11347508E2D9F2D02E00E9489392F962FAF2F971F
S113476060963FAF609761964FAF619762965FAF77
S1134770629763966FAF639764967FAF649765960D
S11347808FAF659766969FAF6697282D392D4A2D72
S11347905B2D6C2D7D2D8E2D9F2D2F96AFAC2F97DD
S11347A06096BFAC60976196CFAC61976296DFACC0
S11347B062976396EFAC63976496FFAC64976596D3
S11347C00FAD659766961FAD66970E949839822E45
S11347D0932EA42EB52EC62ED72EE82EF92E282DD4
S11347E0392D4A2D5B2D6C2D7D2D8E2D9F2D02E0B4
S11347F00E94893967962FAF679768963FAF68978D
S113480069964FAF69976A965FAF6A976B966FAF79
S11348106B976C967FAF6C976D968FAF6D976E9616
S11348209FAF6E97282D392D4A2D5B2D6C2D7D2D34
S11348308E2D9F2D6796AFAC67976896BFAC68972F
S11348406996CFAC69976A96DFAC6A976B96EFACC2
S11348506B976C96FFAC6C976D960FAD6D976E96DB
S11348601FAD6E970E949839A22EB32EC42ED52E5A
S1134870E62EF72E082F192F2A2D3B2D4C2D5D2DBA
S11348806E2D7F2D802F912F29513C4F4F4F5F4F1D
S11348906F4F7F4F8F4F9F4FA22EB32EC42ED52E16
S11348A0E62EF72E082F192F2A2D3B2D4C2D5D2D8A
S11348B06E2D7F2D802F912F0E94F601DC01CB01FC
S11348C020E030E84BEB55E4BC01CD010E947103BC
S11348D0DC01CB01BC01CD010E944501A22EB32E07
S11348E0C42ED52EE62EF72E082F192FD601C5017A
S11348F0BC01CD010E94BF1789810E94661B2981DA
S11349003A8189819A81820F931F89839A8389814D
S11349109A818138910508F4C9CE80E890E08B83B0
S11349209C8335C10E94B317DC01CB019C01AD010E
S113493060E070E0CB01822E932EA42EB52EC62EFD
S1134940D72EE82EF92E282D392D4A2D5B2D6C2DCE
S11349507D2D8E2D9F2D01E00E9489396F962FAFFA
S11349606F97A0963FAFA097A1964FAFA197A2963D
S11349705FAFA297A3966FAFA397A4967FAFA497B8
S1134980A5968FAFA597A6969FAFA6976F968FAC67
S11349906F97A0969FACA097A196AFACA197A29653
S11349A0BFACA297A396CFACA397A496DFACA49771
S11349B0A596EFACA597A696FFACA697282D392D02
S11349C04A2D5B2D6C2D7D2D8E2D9F2D02E00E9496
S11349D08939A7962FAFA797A8963FAFA897A9960E
S11349E04FAFA997AA965FAFAA97AB966FAFAB9755
S11349F0AC967FAFAC97AD968FAFAD97AE969FAFA9
S1134A00AE97282D392D4A2D5B2D6C2D7D2D8E2DA5
S1134A109F2DA796AFACA797A896BFACA897A996C9
S1134A20CFACA997AA96DFACAA97AB96EFACAB979D
S1134A30AC96FFACAC97AD960FADAD97AE961FADEF
S1134A40AE970E949839822E932EA42EB52EC62E90
S1134A50D72EE82EF92E282D392D4A2D5B2D6C2DBD
S1134A607D2D8E2D9F2D02E00E948939AF962FAFA8
S1134A70AF97E0963FAFE097E1964FAFE197E296AC
S1134A805FAFE297E3966FAFE397E4967FAFE49767
S1134A90E5968FAFE597E6969FAFE697282D392DDB
S1134AA04A2D5B2D6C2D7D2D8E2D9F2DAF96AFAC99
S1134AB0AF97E096BFACE097E196CFACE197E29672
S1134AC0DFACE297E396EFACE397E496FFACE497B0
S1134AD0E5960FADE597E6961FADE6970E949839E7
S1134AE0A22EB32EC42ED52EE62EF72E082F192F64
S1134AF02A2D3B2D4C2D5D2D6E2D7F2D802F912F3A
S1134B0029513C4F4F4F5F4F6F4F7F4F8F4F9F4FF8
S1134B10A22EB32EC42ED52EE62EF72E082F192F33
S1134B202A2D3B2D4C2D5D2D6E2D7F2D802F912F09
S1134B300E94F601DC01CB0120E030E84BEB55E4A8
S1134B40BC01CD010E947103DC01CB01BC01CD018C
S1134B500E944501A22EB32EC42ED52EE62EF72E8A
S1134B60082F192FD601C501BC01CD010E94BF1722
S1134B708B810E94661B8B819C81969587952B81E6
S1134B803C818901081B190BC8018B839C838B8191
S1134B909C818230910508F0C5CE0E94B317DC01D8
S1134BA0CB019C01AD0160E070E0CB01822E932E1D
S1134BB0A42EB52EC62ED72EE82EF92E282D392D4B
S1134BC04A2D5B2D6C2D7D2D8E2D9F2D01E00E9495
S1134BD08939E7962FAFE797E8963FAFE897E996CC
S1134BE04FAFE997EA965FAFEA97EB966FAFEB9713
S1134BF0EC967FAFEC97ED968FAFED97EE969FAF67
S1134C00EE97E7968FACE797E8969FACE897E9961E
S1134C10AFACE997EA96BFACEA97EB96CFACEB97CB
S1134C20EC96DFACEC97ED96EFACED97EE96FFAC1F
S1134C30EE97282D392D4A2D5B2D6C2D7D2D8E2D33
S1134C409F2D02E00E948939EF962FAFEF97C1584C
S1134C50DF4F3883CF57D040C058DF4F4883C05808
S1134C60D040CF57DF4F5883C158D040CE57DF4F85
S1134C706883C258D040CD57DF4F7883C358D040A3
S1134C80CC57DF4F8883C458D040CB57DF4F98832D
S1134C90C558D040282D392D4A2D5B2D6C2D7D2DE6
S1134CA08E2D9F2DEF96AFACEF97C158DF4FB88094
S1134CB0CF57D040C058DF4FC880C058D040CF57DE
S1134CC0DF4FD880C158D040CE57DF4FE880C2585C
S1134CD0D040CD57DF4FF880C358D040CC57DF4F7A
S1134CE00881C458D040CB57DF4F1881C558D040F5
S1134CF00E949839822E932EA42EB52EC62ED72E1E
S1134D00E82EF92E282D392D4A2D5B2D6C2D7D2D65
S1134D108E2D9F2D02E00E948939CA57DF4F2883C8
S1134D20C658D040C957DF4F3883C758D040C857FA
S1134D30DF4F4883C858D040C757DF4F5883C958FE
S1134D40D040C657DF4F6883CA58D040C557DF4F9D
S1134D507883CB58D040C457DF4F8883CC58D04099
S1134D60C357DF4F9883CD58D040282D392D4A2D75
S1134D705B2D6C2D7D2D8E2D9F2DCA57DF4FA88066
S1134D80C658D040C957DF4FB880C758D040C8571D
S1134D90DF4FC880C858D040C757DF4FD880C958A4
S1134DA0D040C657DF4FE880CA58D040C557DF4FC0
S1134DB0F880CB58D040C457DF4F0881CC58D0403E
S1134DC0C357DF4F1881CD58D0400E949839A22E86
S1134DD0B32EC42ED52EE62EF72E082F192F2A2DEA
S1134DE03B2D4C2D5D2D6E2D7F2D802F912F295124
S1134DF03C4F4F4F5F4F6F4F7F4F8F4F9F4FA22EB0
S1134E00B32EC42ED52EE62EF72E082F192F2A2DB9
S1134E103B2D4C2D5D2D6E2D7F2D802F912F0E94CB
S1134E20F601DC01CB0120E030E84BEB55E4BC019A
S1134E30CD010E947103DC01CB01BC01CD010E94B4
S1134E404501A22EB32EC42ED52EE62EF72E082F02
S1134E50192FD601C501BC01CD010E94BF1782E004
S1134E600E94661B0E94B317DC01CB019C01AD01BB
S1134E7060E070E0CB01822E932EA42EB52EC62EB8
S1134E80D72EE82EF92E282D392D4A2D5B2D6C2D89
S1134E907D2D8E2D9F2D01E00E948939C257DF4F51
S1134EA02883CE58D040C157DF4F3883CF58D040E5
S1134EB0C057DF4F4883C059D040CF56DF4F588387
S1134EC0C159D040CE56DF4F6883C259D040CD5629
S1134ED0DF4F7883C359D040CC56DF4F8883C45901
S1134EE0D040CB56DF4F9883C559D040C257DF4FCF
S1134EF08880CE58D040C157DF4F9880CF58D040DB
S1134F00C057DF4FA880C059D040CF56DF4FB8807C
S1134F10C159D040CE56DF4FC880C259D040CD567B
S1134F20DF4FD880C359D040CC56DF4FE880C459F6
S1134F30D040CB56DF4FF880C559D040282D392DAD
S1134F404A2D5B2D6C2D7D2D8E2D9F2D02E00E9410
S1134F508939CA56DF4F2883C659D040C956DF4F16
S1134F603883C759D040C856DF4F4883C859D0400A
S1134F70C756DF4F5883C959D040C656DF4F6883A0
S1134F80CA59D040C556DF4F7883CB59D040C45658
S1134F90DF4F8883CC59D040C356DF4F9883CD5917
S1134FA0D040282D392D4A2D5B2D6C2D7D2D8E2D35
S1134FB09F2DCA56DF4FA880C659D040C956DF4F2F
S1134FC0B880C759D040C856DF4FC880C859D040B0
S1134FD0C756DF4FD880C959D040C656DF4FE88046
S1134FE0CA59D040C556DF4FF880CB59D040C4567B
S1134FF0DF4F0881CC59D040C356DF4F1881CD59BB
S1135000D0400E949839822E932EA42EB52EC62EFF
S1135010D72EE82EF92E282D392D4A2D5B2D6C2DF7
S11350207D2D8E2D9F2D02E00E948939C256DF4FBF
S11350302883CE59D040C156DF4F3883CF59D04052
S1135040C056DF4F4883C05AD040CF55DF4F5883F6
S1135050C15AD040CE55DF4F6883C25AD040CD5597
S1135060DF4F7883C35AD040CC55DF4F8883C45A6E
S1135070D040CB55DF4F9883C55AD040282D392DC9
S11350804A2D5B2D6C2D7D2D8E2D9F2DC256DF4F0D
S1135090A880CE59D040C156DF4FB880CF59D040F8
S11350A0C056DF4FC880C05AD040CF55DF4FD8809C
S11350B0C15AD040CE55DF4FE880C25AD040CD55BA
S11350C0DF4FF880C35AD040CC55DF4F0881C45A13
S11350D0D040CB55DF4F1881C55AD0400E94983933
S11350E0A22EB32EC42ED52EE62EF72E082F192F5E
S11350F02A2D3B2D4C2D5D2D6E2D7F2D802F912F34
S113510029513C4F4F4F5F4F6F4F7F4F8F4F9F4FF2
S1135110A22EB32EC42ED52EE62EF72E082F192F2D
S11351202A2D3B2D4C2D5D2D6E2D7F2D802F912F03
S11351300E94F601DC01CB0120E030E84BEB55E4A2
S1135140BC01CD010E947103DC01CB01BC01CD0186
S11351500E944501A22EB32EC42ED52EE62EF72E84
S1135160082F192FD601C501BC01CD010E94BF171C
S113517081E00E94661B0E94B317DC01CB019C01F5
S1135180AD0160E070E0CB01822E932EA42EB52EEB
S1135190C62ED72EE82EF92E282D392D4A2D5B2D1B
S11351A06C2D7D2D8E2D9F2D01E00E948939CA55CD
S11351B0DF4F2883C65AD040C955DF4F3883C75ABA
S11351C0D040C855DF4F4883C85AD040C755DF4F39
S11351D05883C95AD040C655DF4F6883CA5AD04055
S11351E0C555DF4F7883CB5AD040C455DF4F8883F1
S11351F0CC5AD040C355DF4F9883CD5AD040CA55BE
S1135200DF4F8880C65AD040C955DF4F9880C75AAF
S1135210D040C855DF4FA880C85AD040C755DF4F8B
S1135220B880C95AD040C655DF4FC880CA5AD0404A
S1135230C555DF4FD880CB5AD040C455DF4FE880E6
S1135240CC5AD040C355DF4FF880CD5AD040282DDA
S1135250392D4A2D5B2D6C2D7D2D8E2D9F2D02E039
S11352600E948939C255DF4F2883CE5AD040C15598
S1135270DF4F3883CF5AD040C055DF4F4883C05BDF
S1135280D040CF54DF4F5883C15BD040CE54DF4F62
S11352906883C25BD040CD54DF4F7883C35BD0407A
S11352A0CC54DF4F8883C45BD040CB54DF4F98830A
S11352B0C55BD040282D392D4A2D5B2D6C2D7D2DBD
S11352C08E2D9F2DC255DF4FA880CE5AD040C15598
S11352D0DF4FB880CF5AD040C055DF4FC880C05B85
S11352E0D040CF54DF4FD880C15BD040CE54DF4F85
S11352F0E880C25BD040CD54DF4FF880C35BD04020
S1135300CC54DF4F0881C45BD040CB54DF4F1881AD
S1135310C55BD0400E949839822E932EA42EB52EC0
S1135320C62ED72EE82EF92E282D392D4A2D5B2D89
S11353306C2D7D2D8E2D9F2D02E00E948939CA543B
S1135340DF4F2883C65BD040C954DF4F3883C75B27
S1135350D040C854DF4F4883C85BD040C754DF4FA8
S11353605883C95BD040C654DF4F6883CA5BD040C2
S1135370C554DF4F7883CB5BD040C454DF4F888360
S1135380CC5BD040C354DF4F9883CD5BD040282DF5
S1135390392D4A2D5B2D6C2D7D2D8E2D9F2DCA54BC
S11353A0DF4FA880C65BD040C954DF4FB880C75BCD
S11353B0D040C854DF4FC880C85BD040C754DF4FCB
S11353C0D880C95BD040C654DF4FE880CA5BD04068
S11353D0C554DF4FF880CB5BD040C454DF4F088105
S11353E0CC5BD040C354DF4F1881CD5BD0400E94CA
S11353F09839A22EB32EC42ED52EE62EF72E082FC2
S1135400192F2A2D3B2D4C2D5D2D6E2D7F2D802F98
S1135410912F29513C4F4F4F5F4F6F4F7F4F8F4F0D
S11354209F4FA22EB32EC42ED52EE62EF72E082F74
S1135430192F2A2D3B2D4C2D5D2D6E2D7F2D802F68
S1135440912F0E94F601DC01CB0120E030E84BEB08
S113545055E4BC01CD010E947103DC01CB01BC0108
S1135460CD010E944501A22EB32EC42ED52EE62EC8
S1135470F72E082F192FD601C501BC01CD010E94BA
S1135480BF1780E00E94661B10926B2081E080931E
S1135490522081E080935320789480915220882F69
S11354A090E08230910511F40C947D38833091059D
S11354B02CF48130910569F00C9480388330910587
S11354C011F40C947F388430910509F48DC10C9447
S11354D080380E94B317DC01CB018C019D0140E0B0
S11354E050E0BA010E831F83288739874A875B8778
S11354F06C877D871E81C254DF4F1883CE5BD040FA
S11355002F81C154DF4F2883CF5BD0403885C054EE
S1135510DF4F3883C05CD0404985CF53DF4F488389
S1135520C15CD0405A85CE53DF4F5883C25CD04013
S11355306B85CD53DF4F6883C35CD0407C85CC53EF
S1135540DF4F7883C45CD0408D85CB53DF4F888395
S1135550C55CD040C254DF4F2881CE5BD040C154DB
S1135560DF4F3881CF5BD040C054DF4F4881C05CEF
S1135570D040CF53DF4F5881C15CD040CE53DF4F72
S11355806881C25CD040CD53DF4F7881C35CD0408A
S1135590CC53DF4F8881C45CD040CB53DF4F98811C
S11355A0C55CD04002E00E948939A22EB32EC42EDD
S11355B0D52EE62EF72E082F192FC254DF4FA882BE
S11355C0CE5BD040C154DF4FB882CF5BD040C054D3
S11355D0DF4FC882C05CD040CF53DF4FD882C15C5C
S11355E0D040CE53DF4FE882C25CD040CD53DF4F72
S11355F0F882C35CD040CC53DF4F0883C45CD040F6
S1135600CB53DF4F1883C55CD040C254DF4F288191
S1135610CE5BD040C154DF4F3881CF5BD040C05403
S1135620DF4F4881C05CD040CF53DF4F5881C15C0D
S1135630D040CE53DF4F6881C25CD040CD53DF4FA2
S11356407881C35CD040CC53DF4F8881C45CD040A8
S1135650CB53DF4F9881C55CD04005E00E94893967
S1135660222E332E442E552E662E772E882E992EDA
S1135670222D332D442D552D662D772D882D992DD2
S1135680C254DF4FA880CE5BD040C154DF4FB880F6
S1135690CF5BD040C054DF4FC880C05CD040CF53F4
S11356A0DF4FD880C15CD040CE53DF4FE880C25C6E
S11356B0D040CD53DF4FF880C35CD040CC53DF4F94
S11356C00881C45CD040CB53DF4F1881C55CD04007
S11356D00E94A139222E332E442E552E662E772E6B
S11356E0882E992E222D332D442D552D662D772D60
S11356F0882D992DAE80BF80C884D984EA84FB8428
S11357000C851D850E949839222E332E442E552E49
S1135710662E772E882E992E222D332D442D552D2D
S1135720662D772D882D992D03E00E948939A22EAC
S1135730B32EC42ED52EE62EF72E082F192F2A2C81
S11357403B2C4C2C5D2C6E2C7F2C802E912EA22C6D
S1135750B32CC42CD52CE62CF72C082D192D2A2D6E
S11357603B2D4C2D5D2D6E2D7F2D802F912F29519A
S11357703C4F4F4F5F4F6F4F7F4F8F4F9F4FA22E26
S1135780B32EC42ED52EE62EF72E082F192F2A2D30
S11357903B2D4C2D5D2D6E2D7F2D802F912F0E9442
S11357A0F601DC01CB0120E030E84BEB55E4BC0111
S11357B0CD010E947103DC01CB01BC01CD010E942B
S11357C04501A22EB32EC42ED52EE62EF72E082F79
S11357D0192FD601C501BC01CD010E94BF1788E075
S11357E00E941B180C94803880E00E94661B1D8266
S11357F08CC188E00E941B180E94B317DC01CB0106
S11358009C01AD0160E070E0CB01822E932EA42EAA
S1135810B52EC62ED72EE82EF92E282D392D4A2D39
S11358205B2D6C2D7D2D8E2D9F2D01E00E948939DD
S1135830CA53DF4F2883C65CD040C953DF4F388337
S1135840C75CD040C853DF4F4883C85CD040C753BF
S1135850DF4F5883C95CD040C653DF4F6883CA5CAE
S1135860D040C553DF4F7883CB5CD040C453DF4F67
S11358708883CC5CD040C353DF4F9883CD5CD04049
S1135880CA53DF4F8880C65CD040C953DF4F98802D
S1135890C75CD040C853DF4FA880C85CD040C75312
S11358A0DF4FB880C95CD040C653DF4FC880CA5CA4
S11358B0D040C553DF4FD880CB5CD040C453DF4FBA
S11358C0E880CC5CD040C353DF4FF880CD5CD0403F
S11358D0282D392D4A2D5B2D6C2D7D2D8E2D9F2D40
S11358E002E00E948939C253DF4F2883CE5CD04046
S11358F0C153DF4F3883CF5CD040C053DF4F488360
S1135900C05DD040CF52DF4F5883C15DD040CE52EE
S1135910DF4F6883C25DD040CD52DF4F7883C35DD3
S1135920D040CC52DF4F8883C45DD040CB52DF4F90
S11359309883C55DD040282D392D4A2D5B2D6C2DC3
S11359407D2D8E2D9F2DC253DF4FA880CE5CD0407D
S1135950C153DF4FB880CF5CD040C053DF4FC88005
S1135960C05DD040CF52DF4FD880C15DD040CE5211
S1135970DF4FE880C25DD040CD52DF4FF880C35D79
S1135980D040CC52DF4F0881C45DD040CB52DF4FB2
S11359901881C55DD0400E949839822E932EA42E82
S11359A0B52EC62ED72EE82EF92E282D392D4A2DA8
S11359B05B2D6C2D7D2D8E2D9F2D02E00E9489394B
S11359C0CA52DF4F2883C65DD040C952DF4F3883A7
S11359D0C75DD040C852DF4F4883C85DD040C7522E
S11359E0DF4F5883C95DD040C652DF4F6883CA5D1C
S11359F0D040C552DF4F7883CB5DD040C452DF4FD7
S1135A008883CC5DD040C352DF4F9883CD5DD040B6
S1135A10282D392D4A2D5B2D6C2D7D2D8E2D9F2DFE
S1135A20CA52DF4FA880C65DD040C952DF4FB8804C
S1135A30C75DD040C852DF4FC880C85DD040C75250
S1135A40DF4FD880C95DD040C652DF4FE880CA5DC1
S1135A50D040C552DF4FF880CB5DD040C452DF4FF9
S1135A600881CC5DD040C352DF4F1881CD5DD0405A
S1135A700E949839A22EB32EC42ED52EE62EF72ED0
S1135A80082F192F2A2D3B2D4C2D5D2D6E2D7F2D8A
S1135A90802F912F29513C4F4F4F5F4F6F4F7F4FB6
S1135AA08F4F9F4FA22EB32EC42ED52EE62EF72E47
S1135AB0082F192F2A2D3B2D4C2D5D2D6E2D7F2D5A
S1135AC0802F912F0E94F601DC01CB0120E030E809
S1135AD04BEB55E4BC01CD010E947103DC01CB0109
S1135AE0BC01CD010E944501A22EB32EC42ED52E99
S1135AF0E62EF72E082F192FD601C501BC01CD01C2
S1135B000E94BF178D818F5F8D838D81843108F44E
S1135B1070CE8091632090916420A0916520B09113
S1135B2066208B2F9927AA27BB270E94661B0E94F9
S1135B30B317DC01CB018C019D0140E050E0BA01B8
S1135B400E871F87288B398B4A8B5B8B6C8B7D8BE5
S1135B501E85C252DF4F1883CE5DD0402F85C152BF
S1135B60DF4F2883CF5DD0403889C052DF4F388360
S1135B70C05ED0404989CF51DF4F4883C15ED040D9
S1135B805A89CE51DF4F5883C25ED0406B89CD51C4
S1135B90DF4F6883C35ED0407C89CC51DF4F78836C
S1135BA0C45ED0408D89CB51DF4F8883C55ED04021
S1135BB0C252DF4F2881CE5DD040C152DF4F3881C1
S1135BC0CF5DD040C052DF4F4881C05ED040CF513E
S1135BD0DF4F5881C15ED040CE51DF4F6881C25E35
S1135BE0D040CD51DF4F7881C35ED040CC51DF4FE0
S1135BF08881C45ED040CB51DF4F9881C55ED040D0
S1135C0002E00E948939A22EB32EC42ED52EE62E90
S1135C10F72E082F192FC252DF4FA882CE5DD04035
S1135C20C152DF4FB882CF5DD040C052DF4FC8822F
S1135C30C05ED040CF51DF4FD882C15ED040CE513C
S1135C40DF4FE882C25ED040CD51DF4FF882C35EA1
S1135C50D040CC51DF4F0883C45ED040CB51DF4FDE
S1135C601883C55ED040C252DF4F2881CE5DD0403C
S1135C70C152DF4F3881CF5DD040C052DF4F4881E1
S1135C80C05ED040CF51DF4F5881C15ED040CE516D
S1135C90DF4F6881C25ED040CD51DF4F7881C35E53
S1135CA0D040CC51DF4F8881C45ED040CB51DF4F10
S1135CB09881C55ED04005E00E948939222E332E9A
S1135CC0442E552E662E772E882E992E222D332D76
S1135CD0442D552D662D772D882D992DC252DF4FD9
