S01C0000586D65676133324134555F74657374426F6172642E73726563E0
S1130000FDC0000018C1000016C1000014C10000AA
S113001012C1000010C100000EC100000CC100009C
S11300200AC1000008C100000C947B180C94590B01
S113003002C1000000C100000C94F80B0C942E0CBB
S11300400C94640C0C949A0C0C94D00C0C94060D27
S11300500C943C0D0C94720D0C94A80D0C94DE0DB4
S1130060EAC00000E8C00000E6C00000E4C00000F0
S1130070E2C00000E0C00000DEC00000DCC0000000
S1130080DAC00000D8C00000D6C00000D4C0000010
S1130090D2C00000D0C00000CEC00000CCC0000020
S11300A0CAC00000C8C00000C6C00000C4C0000030
S11300B0C2C00000C0C00000BEC000000C94C40F49
S11300C00C94FA0F0C9430100C9466100C949C1041
S11300D00C94D210B0C00000AEC00000ACC0000050
S11300E0AAC00000A8C000000C948017A4C000009F
S11300F0A2C00000A0C000009EC000009CC0000080
S11301009AC0000098C0000096C0000094C000008F
S113011092C0000090C000008EC000008CC000009F
S11301208AC0000088C0000086C0000084C00000AF
S113013082C0000080C000000C94140E0C944A0E7F
S11301400C94800E0C94B60E0C94EC0E0C94D618F1
S11301500C94220F0C94580F0C948E0F6CC000005A
S11301606AC0000068C0000066C0000064C00000EF
S113017062C0000060C000005EC000005CC00000FF
S11301805AC0000058C0000056C0000054C000000F
S113019052C0000050C000004EC000004CC000001F
S11301A04AC0000048C0000046C0000044C000002F
S11301B042C0000040C000003EC000003CC000003F
S11301C03AC0000038C0000036C0000034C000004F
S11301D032C0000030C000002EC000002CC000005F
S11301E02AC0000028C0000026C0000024C000006F
S11301F022C0000020C000001EC0000011241FBE49
S1130200CFEFDFE2DEBFCDBF10E2A0E0B0E2ECEC66
S1130210FFE502C005900D92AC31B107D9F720E299
S1130220ACE1B0E201C01D92AF36B207E1F70E9423
S1130230EB210C94E42FE4CEA0E0B0E0E2E2F1E0A4
S11302400C949B2F6B017C0120E030E040E85FE3DD
S1130250EBD287FD80C020E030E040E85FE4C701D6
S1130260B601E2D287FF09C0C701B601D9D34B0159
S11302705C01C12CD12C760187C020E030E040E83D
S11302805FE5C701B601D0D287FF6EC020E030E041
S113029040E85FE2C701B60119D18B01D82FC92FFD
S11302A095E0292E312C20E1C22ED12CE12CF12C09
S11302B0812C912C540161E070E080E090E00C2CE2
S11302C004C0660F771F881F991F0A94D2F733D38F
S11302D02B013C01762F272F352D462D572DFE015E
S11302E0602F712F8F2F9C2F73D287FD11C08C2804
S11302F09D28AE28BF28242D352D462D572DFE01CF
S1130300602F712F8F2F9C2FC3D18B01D82FC92F12
S1130310F694E794D794C79481E0281A310859F6E3
S113032020E030E040E85FE4FE01602F712F8F2F62
S11303309C2FCCD075D3DC01CB019C01AD0160E0D6
S113034070E080E090E0082D0E94612F49015A017D
S11303506B017C0119C0812C912CA12CB12CC12CD6
S1130360D12CE12CF12C10C088248A9499249A94DD
S1130370AA24AA94BB24BA94CC24CA94DD24DA9483
S1130380EE24EA94FF24FA949401A501B601C7016E
S1130390CDB7DEB7E2E10C94B42F2F923F924F9287
S11303A05F926F927F928F929F92AF92BF92CF9201
S11303B0DF92EF92FF920F931F93CF9319012A01BB
S11303C03B014C0160E070E080E090E0510162018B
S11303D0730184010E94DB2F21F4B101C201ABD26D
S11303E063C09101A201B301C40100E20E94CC2FB9
S11303F0B901CA010E94822FAA2797FDA095BA2F9E
S113040020E2C22ED12CE12CF12CC81AD90AEA0A16
S1130410FB0ACC2D9101A201B301C4010C2D0E9451
S1130420CC2F60E270E06C197D0904C0220C331CEF
S1130430441C551C6A95D2F7622F232824282528AA
S113044009F401C06160732FCA0175D23B014C01EC
S113045080E2C816D104E104F104A1F09FE1C916B9
S1130460D104E104F10491F061E070E080E090E0F7
S113047004C0660F771F881F991FCA95D2F700D250
S1130480272F08C060E020E080E803C060E020E09F
S113049080E09FE4F22F262F3F2F482F592F662DFF
S11304A0772D882D992D12D0CF911F910F91FF9008
S11304B0EF90DF90CF90BF90AF909F908F907F9000
S11304C06F905F904F903F902F900895A0E2B0E01E
S11304D0ECE6F2E00C949D2F6D8F7E8F8F8F98A3A6
S11304E0298F3A8F4B8F5C8FBE016F5E7F4FCE0199
S11304F04D9689D3BE01675F7F4FCE01499683D362
S11305009989923008F412C08985823008F41AC09F
S1130510943021F4823009F4B4C008C0843021F44A
S1130520923009F4AEC00EC0923051F481E02A89B1
S11305309A85291301C080E08A8BCE014196A3C01D
S1130540823051F481E02A899A85291301C080E020
S11305508A87CE01099697C08D889E88AF88B88C0B
S11305600D851E852F853889E0E2F0E080E090E07B
S1130570DC01C12CD12C760140E050E0BA0180FEB0
S113058018C0400F511F621F731F8C0D9D1DAE1D9F
S1130590BF1D412C512C320143944017510762076F
S11305A0730718F0412C512C3201840D951DA61DA2
S11305B0B71DCC0CDD1CEE1CFF1C37FF02C0689479
S11305C0C0F8000F111F221F331FB694A7949794ED
S11305D087943197A1F62B893C89EB85FC852E0FF6
S11305E03F1F2E5F3F4F2B833C8321E0EA893A85EE
S11305F0E31301C020E02A83EB81FC810CC080FF5F
S113060005C076956795579547957068B695A795F3
S1130610979587953196B7FDF2CF9F010CC0880F4F
S1130620991FAA1FBB1F77FD8160440F551F661FCA
S1130630771F215031090097A105E0E4BE0778F344
S11306402B833C838C019D010F77112722273327AD
S1130650003411052105310559F487FD09C0452BE6
S1130660462B472B29F0805C9F4FAF4FBF4F8078BC
S11306708D839E83AF83B88783E08983CE010196FF
S113068002C083E190E2F5D1A096E0E10C94B62F8C
S1130690A8E1B0E0EEE4F3E00C94A52F6D8B7E8B23
S11306A08F8B988F298B3A8B4B8B5C8BBE01675F4A
S11306B07F4FCE014596A7D2BE016F5F7F4FCE011B
S11306C04196A1D29985923008F475C0898182300F
S11306D008F474C02A853A8123272A87943011F0BC
S11306E0923019F4981367C06CC0843039F41D86B5
S11306F01E861F86188A1B861C8604C0823029F435
S113070084E08987CE0109965EC08B859C852B8108
S11307103C81821B930B8B879C874D855E856F85FF
S11307207889CD80DE80EF80F8844C155D056E05F8
S11307307F0538F4440F551F661F771F01978B8779
S11307409C87EFE1F0E000E010E020E030E480E09E
S113075090E0DC014C155D056E057F0540F0802BB3
S1130760912BA22BB32B4C195D096E097F09369589
S1130770279517950795440F551F661F771F3197C7
S113078049F78C019D010F77112722273327003465
S113079011052105310559F487FD09C0452B462B68
S11307A0472B29F0805C9F4FAF4FBF4F80788D87D8
S11307B09E87AF87B88BCE01099605C0CE010196FE
S11307C002C083E190E255D16896E8E00C94BE2F14
S11307D0A8E1B0E0EEEEF3E00C94AB2F6D8B7E8BD2
S11307E08F8B988F298B3A8B4B8B5C8BBE01675F09
S11307F07F4FCE01459607D2BE016F5F7F4FCE017A
S1130800419601D28985823050F08981823038F056
S1130810BE016F5F7F4FCE01099614D401C08FEFE4
S11308206896E2E00C94C42FA8E1B0E0EAE1F4E0B9
S11308300C94AB2F6D8B7E8B8F8B988F298B3A8B7F
S11308404B8B5C8BBE01675F7F4FCE014596DBD13E
S1130850BE016F5F7F4FCE014196D5D1898582302D
S113086050F08981823038F0BE016F5F7F4FCE0136
S11308700996E8D301C081E06896E2E00C94C42FA5
S1130880A8E0B0E0E6E4F4E00C94A92F23E0298387
S11308908B019C01002737FD03951127222733275D
S11308A0402F0A83611571058105910519F482E0D1
S11308B0898335C02EE130E02B833C83442371F0DF
S11308C061157105810520E8920769F10027112758
S11308D09801061B170B280B390B02C08B019C01D6
S11308E0C901B8010E94822F0197181619062CF02D
S11308F00D831E832F83388712C0082E04C0000F77
S1130900111F221F331F0A94D2F70D831E832F83D6
S113091038872EE130E0281B390B2B833C83CE0132
S11309200196A7D004C060E070E080E09FEC2896B8
S1130930E4E00C94C22FA8E0B0E0E1EAF4E00C9407
S1130940A52F8B019C011A82611571058105910502
S113095019F482E089835DC083E089834EE150E02D
S11309604B835C83C901B8010E94822F019797FFD2
S113097039C0EE27FF27E81BF90B41E050E060E0A7
S113098070E00E2E04C0440F551F661F771F0A9493
S1130990D2F741505109610971094023512362235F
S11309A07323C12CD12C7601C394452B462B472BA2
S11309B019F4C12CD12C760104C0369527951795CE
S11309C00795EA95D2F70C291D292E293F290D8375
S11309D01E832F8338872EE130E0281B390B2B83AD
S11309E03C8317C0009729F40D831E832F83388717
S11309F010C0082E04C0000F111F221F331F0A94B9
S1130A00D2F70D831E832F833887481B590B4B83E2
S1130A105C83CE0101962DD02896E8E00C94BE2F7D
S1130A20CF92DF92EF92FF920F931F936B017C01A1
S1130A3020E030E040E05FE4CBDE87FD0CC020E046
S1130A4030E040E05FE4C701B601D0D25CD38B0153
S1130A509C01305805C0C701B60155D38B019C01D8
S1130A60B801C9011F910F91FF90EF90DF90CF90D3
S1130A7008950F931F93CF93DF93DC0114964D9148
S1130A805D916D917C9117971196EC9111978C91D2
S1130A90823020F460618FEF90E0A6C0843009F4C6
S1130AA09EC0823009F495C0411551056105710558
S1130AB009F492C012962D913C91139722388FEF2E
S1130AC038070CF058C0C2E8DFEFC21BD30BCA31A1
S1130AD0D1056CF58A019B010C2E04C0369527952F
S1130AE0179507950A94D2F781E090E0A0E0B0E072
S1130AF00C2E04C0880F991FAA1FBB1F0A94D2F79B
S1130B000197A109B10984239523A623B72341E0C2
S1130B1050E060E070E0892B8A2B8B2B19F440E0C5
S1130B2050E0BA01402B512B622B732B03C040E0E1
S1130B3050E0BA01DB01CA018F779927AA27BB27A6
S1130B4080349105A105B10539F447FF09C0405C23
S1130B505F4F6F4F7F4F04C0415C5F4F6F4F7F4FBC
S1130B6081E090E041155105610520E4720748F5E4
S1130B7080E090E026C0203831058CF5DB01CA0105
S1130B808F779927AA27BB2780349105A105B10542
S1130B9039F447FF09C0405C5F4F6F4F7F4F04C07B
S1130BA0415C5F4F6F4F7F4F77FD04C0C90181588F
S1130BB09F4F07C07695679557954795C90180580B
S1130BC09F4F97E076956795579547959A95D1F7F6
S1130BD00BC080E090E005C080E090E005C08FEF9E
S1130BE090E040E050E0BA01982F9695E0FB97F929
S1130BF0362F80FB37F9642F752F832FDF91CF9128
S1130C001F910F910895CF92DF92EF92DC01FB01C7
S1130C10CC901196DC90119712968C9112973FE725
S1130C20E32EE8226E2DA60170E0982F991F9927D4
S1130C30991F13962C91822F880F892B90E027FB04
S1130C40222720F92183009729F5411551056105D3
S1130C50710511F482E027C082E89FEF82839383B9
S1130C6027E0440F551F661F771F2A95D1F783E0AD
S1130C70808309C0440F551F661F771F82819381AB
S1130C8001978283938341155105610580E47807B8
S1130C9088F320C08F3F910579F441155105610512
S1130CA0710519F484E0808319C0E4FE03C081E077
S1130CB0808310C010820EC08F5791098283938362
S1130CC083E0808387E0440F551F661F771F8A9552
S1130CD0D1F770644483558366837783EF90DF9004
S1130CE0CF900895A4E0B0E0E8E7F6E00C949D2FDF
S1130CF07C016A01FC018081823008F44AC1FB0155
S1130D009081923008F442C1843079F4943009F02F
S1130D1040C1F7019181FB018181981709F439C120
S1130D20A3E1EA2EA0E2FA2E34C1943009F42EC1D4
S1130D30923091F4823009F02CC188E0F701DA0195
S1130D4001900D928A95E1F7FB018181F701918170
S1130D508923FA0181831CC1823009F417C1F70188
S1130D6082819381FB01A281B381F7010481158102
S1130D7026813781FB0184809580A680B780FC01A1
S1130D80EA1BFB0BAF01F7FF04C0442755274E1B9A
S1130D905F0B403251050CF074C01E161F06B4F5EB
S1130DA024013501042E04C0769467945794479423
S1130DB00A94D2F749825A826B827C82412C512C4C
S1130DC03201439404C0440C551C661C771C4A959C
S1130DD0D2F741E0441A51086108710848205920AB
S1130DE06A207B20812C912C540183944528462829
S1130DF0472819F4812C912C540149805A806B8026
S1130E007C8084289528A628B72846C0EF2B09F4AF
S1130E1043C0840F951F28013901042E04C0769421
S1130E206794579447940A94D2F749825A826B8202
S1130E307C82412C512C3201439404C0440C551C37
S1130E40661C771C4A95D2F741E0441A51086108A0
S1130E507108402251226222732201E010E020E056
S1130E6030E045284628472819F400E010E09801AE
S1130E7049805A806B807C800429152926293729CA
S1130E800BC0A817B90724F4812C912C540104C079
S1130E90CD0100E010E09801F7014181FB0151818F
S1130EA0451709F446C0442349F024013501401A8A
S1130EB0510A620A730A9301820104C008191909CC
S1130EC02A093B0937FD05C0F60111828283938309
S1130ED00CC041E0F60141838283938330952095D1
S1130EE0109501951F4F2F4F3F4F04831583268381
S1130EF037830EC0880F991FAA1FBB1FF601848376
S1130F009583A683B7838281938101978283938398
S1130F10F60184819581A681B781AC01BD01415060
S1130F205109610971094F3F5F4F6F4F7F4310F3C0
S1130F300CC0F601418382839383080D191D2A1D79
S1130F403B1D048315832683378383E0F601808366
S1130F50448155816681778177FF1AC0DB01CA011C
S1130F6081709927AA27BB2776956795579547954A
S1130F70842B952BA62BB72B84839583A683B783C9
S1130F808281938101968283938302C07B0101C095
S1130F907601C7012496E0E10C94B62FA0E2B0E0FC
S1130FA0E4EDF7E00C94AB2F6D8F7E8F8F8F98A3B9
S1130FB0298F3A8F4B8F5C8FBE016F5E7F4FCE01BE
S1130FC04D9621DEBE01675F7F4FCE0149961BDE41
S1130FD0AE014F5F5F4FBE01675F7F4FCE01419609
S1130FE081DE47DDA096E2E00C94C42FA0E2B0E0DD
S1130FF0ECEFF7E00C94AB2F6D8F7E8F8F8F98A35F
S1131000298F3A8F4B8F5C8FBE016F5E7F4FCE016D
S11310104D96F9DDBE01675F7F4FCE014996F3DD42
S11310208A8591E089278A87AE014F5F5F4FBE01B1
S1131030675F7F4FCE01419655DE1BDDA096E2E04F
S11310400C94C42FCF93FC01DB019081923008F4FF
S113105052C08C91823008F44EC0943071F48430C4
S113106039F411962C9130E08181281B310948C054
S11310708181882309F43FC03BC0843029F4119650
S11310808C91811138C034C0923019F48230B9F790
S113109035C0823069F3C18111968C911197C813C0
S11310A01DC02281338112968D919C9113978217D2
S11310B093070CF413C0281739070CF417C04481A4
S11310C055816681778114968D919D910D90BC9187
S11310D0A02D84179507A607B70718F4C11108C0F7
S11310E00AC0481759076A077B0740F4C11103C0B7
S11310F02FEF3FEF05C021E030E002C020E030E0F8
S1131100C901CF910895ACE0B0E0E9E8F8E00C94AF
S1131110A92F69877A878B879C87BE016F5F7F4F72
S1131120CE01099670DD8981823091F1823080F19F
S1131130843041F48A81882331F100E010E020E01A
S113114030E829C02B813C8137FD22C02F31310585
S11311508CF78EE190E0821B930B0D811E812F8111
S1131160388504C036952795179507958A95D2F743
S11311708A81882381F030952095109501951F4F21
S11311802F4F3F4F08C00FEF1FEF2FEF3FE703C074
S113119000E010E09801B801C9012C96E4E00C9439
S11311A0C22FCF93DF931F92CDB7DEB78FE390E0CA
S11311B0FC0180818983F89489810F90DF91CF911C
S11311C00895CF93DF931F92CDB7DEB789838FE362
S11311D090E02981FC0120830F90DF91CF91089545
S11311E0CF93DF9300D000D0CDB7DEB78A839B8343
S11311F06C83D7DF89838A819B8180599F4F2A81A1
S11312003B8120593F4FF9012081322F2C812095B9
S11312102323FC0120838981D4DF2496CDBFDEBF44
S1131220DF91CF910895CF93DF93CDB7DEB72697A3
S1131230CDBFDEBF8A839B836C834D835E8319821B
S113124021C08C81882F90E02981222F30E0022E4A
S113125002C0959587950A94E2F7817099270097C3
S113126071F08981882F90E040962A813B81820F1A
S1131270931F2D813E81232F3327FC0120838981F5
S11312808F5F898389818830E0F28D819E818170AE
S113129099270097D1F08D819E81827099270097BC
S11312A039F08A819B8105962C81FC01208306C03C
S11312B08A819B8106962C81FC0120838A819B81F3
S11312C001962C81FC01208306C08A819B810296B1
S11312D02C81FC0120832696CDBFDEBFDF91CF9108
S11312E00895CF93DF93CDB7DEB72A97CDBFDEBF86
S11312F08A878A8589831A8289818B838B818C83EF
S11313008C818695869586958D838D81882F90E036
S1131310880F991F82959295907F9827807F9827B0
S11313209A5F8E839F838A818823A9F08981888725
S11313308885882F90E09C012770332781E090E016
S113134002C0880F991F2A95E2F7282F8E819F816A
S1131350FC01258314C0898189878985882F90E0C1
S11313609C012770332781E090E002C0880F991F09
S11313702A95E2F7282F8E819F81FC0126832A96E5
S1131380CDBFDEBFDF91CF910895CF93DF93CDB76B
S1131390DEB72A97CDBFDEBF8A878A85898381E03D
S11313A08A8389818B838B818C838C8186958695B6
S11313B086958D838D81882F90E0880F991F829563
S11313C09295907F9827807F98279A5F8E839F833A
S11313D08A818823A9F0898188878885882F90E06D
S11313E09C012770332781E090E002C0880F991F89
S11313F02A95E2F7282F8E819F81FC01258314C052
S1131400898189878985882F90E09C0127703327FB
S113141081E090E002C0880F991F2A95E2F7282FF7
S11314208E819F81FC0126832A96CDBFDEBFDF918A
S1131430CF910895CF93DF9300D01F92CDB7DEB73D
S113144089839A836B8389819A812B81FC0123830D
S11314502396CDBFDEBFDF91CF910895CF93DF9365
S113146000D0CDB7DEB789839A8389819A81FC0144
S11314708281881F8827881F0F900F90DF91CF915A
S11314800895CF93DF9300D0CDB7DEB789839A83D5
S113149089819A81FC018081282F206189819A8128
S11314A0FC0120830F900F90DF91CF910895CF938B
S11314B0DF9300D0CDB7DEB789839A8389819A817F
S11314C0CDDF0F900F90DF91CF910895CF93DF93ED
S11314D000D0CDB7DEB789839A8389819A81803C15
S11314E028E0920721F468E083E090E079DE8981C6
S11314F09A81803C29E0920721F468E084E090E03E
S11315006FDE89819A81BDDF0F900F90DF91CF91BB
S11315100895CF93DF93CDB7DEB72997CDBFDEBF54
S11315208C839D836E837F83488759871BC08E81FC
S11315309F81FC0120818E819F8101968E839F83F0
S11315408C819D8189839A832B8389819A816B8184
S113155071DF00008C819D81AADF982F81E08927AB
S11315608823C1F721E088859985009709F420E054
S1131570888599850197888799872223C1F680E019
S113158090E02996CDBFDEBFDF91CF910895CF9330
S1131590DF9300D000D0CDB7DEB789839A836B8305
S11315A07C838B819C81FC0180819BDE2496CDBF52
S11315B0DEBFDF91CF910895CF93DF9300D000D0A9
S11315C0CDB7DEB789839A836B837C838B819C81BF
S11315D0FC018081DADE2496CDBFDEBFDF91CF919E
S11315E008951BBEFC0128ED24BF60830895CF93AA
S11315F0DF931F92CDB7DEB78FE390E0FC018081CB
S11316008983F89489810F90DF91CF910895CF93C6
S1131610DF931F92CDB7DEB789838FE390E02981F2
S1131620FC0120830F90DF91CF910895CF93DF9336
S113163000D01F92CDB7DEB78A839B83D8DF89831E
S11316408A819B818F599F4DFC018081282F2F5FB8
S11316508A819B818F599F4DFC0120838981D7DF2B
S11316602396CDBFDEBFDF91CF910895CF93DF9353
S1131670CDB7DEB764E080E090E0B2DD80E094E0D6
S11316802FEF3FEFFC012287338780E094E0FC01D9
S11316901086118683E090E0C9DF80E094E023E0C7
S11316A0FC01228380E094E0FC011082DF91CF9161
S11316B008951F920F9200903F000F9211242F93D0
S11316C03F934F935F936F937F938F939F93AF93C6
S11316D0BF93EF93FF93CF93DF93CDB7DEB72897F4
S11316E0CDBFDEBF209167203091682080916920B2
S11316F090916A202817390708F463C080E094E0C9
S113170023E0FC01228380916D2090916E2000974C
S113171009F457C08091672090916820CC01A0E023
S1131720B0E0AC013327222780E094E0FC018085FF
S11317309185CC01A0E0B0E0822B932BA42BB52B98
S113174089839A83AB83BC838091692090916A20BA
S1131750CC01A0E0B0E0AC013327222780916B20BC
S113176090916C20CC01A0E0B0E0822B932BA42BB1
S1131770B52B8D839E83AF83B8872D813E814F81A6
S1131780588589819A81AB81BC81281739074A071A
S11317905B0758F08D819E81AF81B8850196A11DAC
S11317A0B11D89839A83AB83BC8320916D203091D2
S11317B06E2089819A81AB81BC81BC01CD01F90184
S11317C009952896CDBFDEBFDF91CF91FF91EF91B0
S11317D0BF91AF919F918F917F916F915F914F9145
S11317E03F912F910F9000923F000F901F901895FA
S11317F01F920F9200903F000F9211242F933F935A
S11318004F935F936F937F938F939F93AF93BF9304
S1131810EF93FF93CF93DF93CDB7DEB780911C2076
S113182090911D20009731F080911C2090911D20F3
S1131830FC010995DF91CF91FF91EF91BF91AF9199
S11318409F918F917F916F915F914F913F912F91D4
S11318500F9000923F000F901F9018951F920F92C7
S113186000903F000F9211242F933F934F935F9367
S11318706F937F938F939F93AF93BF93EF93FF9354
S1131880CF93DF93CDB7DEB780911E2090911F20B8
S1131890009731F080911E2090911F20FC01099542
S11318A0DF91CF91FF91EF91BF91AF919F918F9174
S11318B07F916F915F914F913F912F910F90009283
S11318C03F000F901F9018951F920F9200903F00B9
S11318D00F9211242F933F934F935F936F937F93B2
S11318E08F939F93AF93BF93EF93FF93CF93DF9324
S11318F0CDB7DEB78091202090912120009731F060
S11319008091202090912120FC010995DF91CF91B5
S1131910FF91EF91BF91AF919F918F917F916F91C3
S11319205F914F913F912F910F9000923F000F9044
S11319301F9018951F920F9200903F000F92112450
S11319402F933F934F935F936F937F938F939F93C3
S1131950AF93BF93EF93FF93CF93DF93CDB7DEB7EE
S11319608091222090912320009731F080912220B1
S113197090912320FC010995DF91CF91FF91EF9184
S1131980BF91AF919F918F917F916F915F914F9193
S11319903F912F910F9000923F000F901F90189548
S11319A01F920F9200903F000F9211242F933F93A8
S11319B04F935F936F937F938F939F93AF93BF9353
S11319C0EF93FF93CF93DF93CDB7DEB780912420BD
S11319D090912520009731F080912420909125202A
S11319E0FC010995DF91CF91FF91EF91BF91AF91E8
S11319F09F918F917F916F915F914F913F912F9123
S1131A000F9000923F000F901F9018951F920F9215
S1131A1000903F000F9211242F933F934F935F93B5
S1131A206F937F938F939F93AF93BF93EF93FF93A2
S1131A30CF93DF93CDB7DEB78091262090912720F6
S1131A40009731F08091262090912720FC01099580
S1131A50DF91CF91FF91EF91BF91AF919F918F91C2
S1131A607F916F915F914F913F912F910F900092D1
S1131A703F000F901F9018951F920F9200903F0007
S1131A800F9211242F933F934F935F936F937F9300
S1131A908F939F93AF93BF93EF93FF93CF93DF9372
S1131AA0CDB7DEB78091282090912920009731F09E
S1131AB08091282090912920FC010995DF91CF91F4
S1131AC0FF91EF91BF91AF919F918F917F916F9112
S1131AD05F914F913F912F910F9000923F000F9093
S1131AE01F9018951F920F9200903F000F9211249F
S1131AF02F933F934F935F936F937F938F939F9312
S1131B00AF93BF93EF93FF93CF93DF93CDB7DEB73C
S1131B1080912A2090912B20009731F080912A20E7
S1131B2090912B20FC010995DF91CF91FF91EF91CA
S1131B30BF91AF919F918F917F916F915F914F91E1
S1131B403F912F910F9000923F000F901F90189596
S1131B501F920F9200903F000F9211242F933F93F6
S1131B604F935F936F937F938F939F93AF93BF93A1
S1131B70EF93FF93CF93DF93CDB7DEB780912C2003
S1131B8090912D20009731F080912C2090912D2060
S1131B90FC010995DF91CF91FF91EF91BF91AF9136
S1131BA09F918F917F916F915F914F913F912F9171
S1131BB00F9000923F000F901F9018951F920F9264
S1131BC000903F000F9211242F933F934F935F9304
S1131BD06F937F938F939F93AF93BF93EF93FF93F1
S1131BE0CF93DF93CDB7DEB780912E2090912F2035
S1131BF0009731F080912E2090912F20FC010995BF
S1131C00DF91CF91FF91EF91BF91AF919F918F9110
S1131C107F916F915F914F913F912F910F9000921F
S1131C203F000F901F9018951F920F9200903F0055
S1131C300F9211242F933F934F935F936F937F934E
S1131C408F939F93AF93BF93EF93FF93CF93DF93C0
S1131C50CDB7DEB78091302090913120009731F0DC
S1131C608091302090913120FC010995DF91CF9132
S1131C70FF91EF91BF91AF919F918F917F916F9160
S1131C805F914F913F912F910F9000923F000F90E1
S1131C901F9018951F920F9200903F000F921124ED
S1131CA02F933F934F935F936F937F938F939F9360
S1131CB0AF93BF93EF93FF93CF93DF93CDB7DEB78B
S1131CC08091322090913320009731F0809132201E
S1131CD090913320FC010995DF91CF91FF91EF9111
S1131CE0BF91AF919F918F917F916F915F914F9130
S1131CF03F912F910F9000923F000F901F901895E5
S1131D001F920F9200903F000F9211242F933F9344
S1131D104F935F936F937F938F939F93AF93BF93EF
S1131D20EF93FF93CF93DF93CDB7DEB78091342049
S1131D3090913520009731F0809134209091352096
S1131D40FC010995DF91CF91FF91EF91BF91AF9184
S1131D509F918F917F916F915F914F913F912F91BF
S1131D600F9000923F000F901F9018951F920F92B2
S1131D7000903F000F9211242F933F934F935F9352
S1131D806F937F938F939F93AF93BF93EF93FF933F
S1131D90CF93DF93CDB7DEB7809136209091372073
S1131DA0009731F08091362090913720FC010995FD
S1131DB0DF91CF91FF91EF91BF91AF919F918F915F
S1131DC07F916F915F914F913F912F910F9000926E
S1131DD03F000F901F9018951F920F9200903F00A4
S1131DE00F9211242F933F934F935F936F937F939D
S1131DF08F939F93AF93BF93EF93FF93CF93DF930F
S1131E00CDB7DEB78091382090913920009731F01A
S1131E108091382090913920FC010995DF91CF9170
S1131E20FF91EF91BF91AF919F918F917F916F91AE
S1131E305F914F913F912F910F9000923F000F902F
S1131E401F9018951F920F9200903F000F9211243B
S1131E502F933F934F935F936F937F938F939F93AE
S1131E60AF93BF93EF93FF93CF93DF93CDB7DEB7D9
S1131E7080913A2090913B20009731F080913A2054
S1131E8090913B20FC010995DF91CF91FF91EF9157
S1131E90BF91AF919F918F917F916F915F914F917E
S1131EA03F912F910F9000923F000F901F90189533
S1131EB01F920F9200903F000F9211242F933F9393
S1131EC04F935F936F937F938F939F93AF93BF933E
S1131ED0EF93FF93CF93DF93CDB7DEB780913C2090
S1131EE090913D20009731F080913C2090913D20CD
S1131EF0FC010995DF91CF91FF91EF91BF91AF91D3
S1131F009F918F917F916F915F914F913F912F910D
S1131F100F9000923F000F901F9018951F920F9200
S1131F2000903F000F9211242F933F934F935F93A0
S1131F306F937F938F939F93AF93BF93EF93FF938D
S1131F40CF93DF93CDB7DEB780913E2090913F20B1
S1131F50009731F080913E2090913F20FC0109953B
S1131F60DF91CF91FF91EF91BF91AF919F918F91AD
S1131F707F916F915F914F913F912F910F900092BC
S1131F803F000F901F9018951F920F9200903F00F2
S1131F900F9211242F933F934F935F936F937F93EB
S1131FA08F939F93AF93BF93EF93FF93CF93DF935D
S1131FB0CDB7DEB78091402090914120009731F059
S1131FC08091402090914120FC010995DF91CF91AF
S1131FD0FF91EF91BF91AF919F918F917F916F91FD
S1131FE05F914F913F912F910F9000923F000F907E
S1131FF01F9018951F920F9200903F000F9211248A
S11320002F933F934F935F936F937F938F939F93FC
S1132010AF93BF93EF93FF93CF93DF93CDB7DEB727
S11320208091422090914320009731F0809142208A
S113203090914320FC010995DF91CF91FF91EF919D
S1132040BF91AF919F918F917F916F915F914F91CC
S11320503F912F910F9000923F000F901F90189581
S11320601F920F9200903F000F9211242F933F93E1
S11320704F935F936F937F938F939F93AF93BF938C
S1132080EF93FF93CF93DF93CDB7DEB780914420D6
S113209090914520009731F0809144209091452003
S11320A0FC010995DF91CF91FF91EF91BF91AF9121
S11320B09F918F917F916F915F914F913F912F915C
S11320C00F9000923F000F901F9018951F920F924F
S11320D000903F000F9211242F933F934F935F93EF
S11320E06F937F938F939F93AF93BF93EF93FF93DC
S11320F0CF93DF93CDB7DEB78091462090914720F0
S1132100009731F08091462090914720FC01099579
S1132110DF91CF91FF91EF91BF91AF919F918F91FB
S11321207F916F915F914F913F912F910F9000920A
S11321303F000F901F9018951F920F9200903F0040
S11321400F9211242F933F934F935F936F937F9339
S11321508F939F93AF93BF93EF93FF93CF93DF93AB
S1132160CDB7DEB78091482090914920009731F097
S11321708091482090914920FC010995DF91CF91ED
S1132180FF91EF91BF91AF919F918F917F916F914B
S11321905F914F913F912F910F9000923F000F90CC
S11321A01F9018951F920F9200903F000F921124D8
S11321B02F933F934F935F936F937F938F939F934B
S11321C0AF93BF93EF93FF93CF93DF93CDB7DEB776
S11321D080914A2090914B20009731F080914A20C1
S11321E090914B20FC010995DF91CF91FF91EF91E4
S11321F0BF91AF919F918F917F916F915F914F911B
S11322003F912F910F9000923F000F901F901895CF
S1132210CF93DF9300D0CDB7DEB789839A838981CA
S11322209A81FC018481282F206189819A81FC0193
S113223024830F900F90DF91CF910895CF93DF9374
S1132240CDB7DEB72797CDBFDEBF89839A836B8373
S11322507C834D835E832F839B818D81982B8F811B
S1132260882311F088E001C080E0292F282B898180
S11322709A81FC0125832796CDBFDEBFDF91CF91E4
S11322800895CF93DF9300D0CDB7DEB789839A83C7
S113229089819A81FC018481282F286089819A810F
S11322A0FC0124830F900F90DF91CF910895CF9379
S11322B0DF9300D000D0CDB7DEB789839A836B83D8
S11322C07C8389819A81FC018581982F9F738B81FE
S11322D0292F282B89819A81FC0125832496CDBF3F
S11322E0DEBFDF91CF910895CF93DF9300D0CDB7B8
S11322F0DEB789839A8389819A81FC018181882F41
S113230090E08072992721E0009709F420E0822F61
S11323100F900F90DF91CF910895CF93DF9300D06A
S1132320CDB7DEB789839A8389819A81FC01818143
S1132330882F90E08078992721E0009709F420E025
S1132340822F0F900F90DF91CF910895CF93DF9359
S1132350CDB7DEB780E098E4A8EEB1E0BC01CD01D2
S1132360DF91CF910895CF93DF931F92CDB7DEB75E
S11323701982ECDFDC01CB012981222F30E0022E0F
S113238004C0B695A795979587950A94D2F7BC0192
S1132390CD010F90DF91CF910895CF93DF93CDB707
S11323A0DEB7E1DFDC01CB01BC01CD01DF91CF91D0
S11323B00895CF93DF93CDB7DEB7EFDFDC01CB0118
S11323C0BC01CD01DF91CF910895CF93DF9300D06D
S11323D0CDB7DEB789839A8389819A81009709F4FE
S11323E01EC189819A81803C910531F460E180E0CD
S11323F090E00E94F00813C189819A81811524E03C
S1132400920731F464E080E090E00E94F00807C194
S113241089819A81803821E0920731F462E080E07A
S113242090E00E94F008FBC089819A81811521E027
S1132430920731F461E080E090E00E94F008EFC080
S113244089819A81803823E0920731F461E081E048
S113245090E00E94F008E3C089819A81811522E00E
S1132460920731F462E081E090E00E94F008D7C066
S113247089819A81803223E0920731F464E082E01A
S113248090E00E94F008CBC089819A81811528E0F0
S1132490920731F461E083E090E00E94F008BFC04D
S11324A089819A81811529E0920731F461E084E001
S11324B090E00E94F008B3C089819A8181152AE0D6
S11324C0920731F461E085E090E00E94F008A7C033
S11324D089819A81803428E0920731F462E083E0B4
S11324E090E00E94F0089BC089819A81803429E0A1
S11324F0920731F462E084E090E00E94F0088FC01B
S113250089819A81803928E0920731F464E083E07C
S113251090E00E94F00883C089819A81803929E083
S1132520920731F464E084E090E00E94F00877C000
S113253089819A8180392AE0920731F464E085E048
S113254090E00E94F0086BC089819A81803C28E069
S1132550920731F468E083E090E00E94F0085FC0E5
S113256089819A81803C29E0920731F468E084E013
S113257090E00E94F00853C089819A81803A28E053
S1132580920731F460E183E090E00E94F00847C0D4
S113259089819A81803A29E0920731F460E184E0EC
S11325A090E00E94F0083BC089819A81803A2AE039
S11325B0920731F460E185E090E00E94F0082FC0BA
S11325C089819A81803B28E0920731F460E283E0BC
S11325D090E00E94F00823C089819A81803B29E021
S11325E0920731F460E284E090E00E94F00817C0A2
S11325F089819A81803824E0920731F460E483E091
S113260090E00E94F0080BC089819A81803A24E00E
S1132610920729F460E485E090E00E94F0080F90AE
S11326200F90DF91CF9108950F931F93CF93DF9372
S1132630CDB7DEB72597CDBFDEBF8A839B836C837E
S11326407D838A819B81C1DE8A819B8160E070E009
S11326502EDE8C819D81FC0120858C819D81FC0175
S1132660468157818C819D81FC01648175818A81B9
S11326709B81E4DD9EDE9B01AC018C819D81FC018C
S113268080819181A281B381EA81FB8189019A01D0
S1132690AC01BD01CF0148D089838A819B81F1DDE2
S11326A08A819B81B5DD89812596CDBFDEBFDF910F
S11326B0CF911F910F910895CF93DF9300D01F9274
S11326C0CDB7DEB789839A836B83000089819A81B1
S11326D00BDE982F81E089278823C1F789819A81AD
S11326E02B81FC01208380E090E02396CDBFDEBFE8
S11326F0DF91CF910895CF93DF9300D0CDB7DEB7AC
S113270089839A83000089819A8107DE982F81E06A
S113271089278823C1F789819A81FC0180810F90E0
S11327200F90DF91CF910895EF92FF920F931F9333
S1132730CF93DF93CDB7DEB76F97CDBFDEBF8E8B60
S11327409F8B488F598F6A8F7B8F0C8F1D8F2E8F95
S11327503F8F8C8D9D8DAE8DBF8D689412F8B6958C
S1132760A795979587951694D1F78E879F87A88B01
S1132770B98B8C8D9D8DAE8DBF8D072E76E1B69570
S1132780A795979587957A95D1F7702D8A879B871A
S1132790AC87BD878E899F89FC018481882F90E056
S11327A0847099270097C1F48E859F85A889B9897B
S11327B0B695A795979587958E879F87A88BB98B94
S11327C08A859B85AC85BD85B695A7959795879594
S11327D08A879B87AC87BD87288D398D4A8D5B8D11
S11327E08E859F85A889B98982179307A407B507A1
S11327F068F0288D398D4A8D5B8D8A859B85AC85E3
S1132800BD85281739074A075B0710F480E03CC1EF
S11328108E899F89FC018481882F90E08470992798
S1132820009761F4888D998DAA8DBB8D880F991FAF
S1132830AA1FBB1F888F998FAA8FBB8F8FEF90E041
S1132840A0E0B0E08E839F83A887B9878C8D9D8D8F
S1132850AE8DBF8D288D398D4A8D5B8DBC01CD0128
S11328600E943F2F2A8B3B8B4C8B5D8B89EF898396
S113287028C02A893B894C895D898E819F81A885DE
S1132880B985281739074A075B07F8F08E819F81BD
S1132890A885B985880F991FAA1FBB1F8E839F83A4
S11328A0A887B98789818D3F4CF48E819F81A88543
S11328B0B98581608E839F83A887B98789818F5F5B
S11328C0898389818730ACF201C000008981882323
S11328D00CF088C0888D998DAA8DBB8D880F991FA7
S11328E0AA1FBB1F880F991FAA1FBB1F880F991F00
S11328F0AA1FBB1F2C8D3D8D4E8D5F8D79018A01E2
S1132900E81AF90A0A0B1B0BD801C7018C8F9D8F9B
S1132910AE8FBF8F89818E3F84F58981992787FD8A
S113292090952DEF3FEF281B390B8C8D9D8DAE8D2F
S1132930BF8D7C018D0104C0EE0CFF1C001F111F14
S11329402A95D2F7A8019701888D998DAA8DBB8D00
S1132950B695A79597958795820F931FA41FB51FCA
S1132960288D398D4A8D5B8DBC01CD010E943F2F8E
S11329702A833B834C835D836EC08981992787FDBD
S113298090959C012D5F3F4F888D998DAA8DBB8DAD
S113299004C0880F991FAA1FBB1F2A95D2F7888FDE
S11329A0998FAA8FBB8F888D998DAA8DBB8D9C0121
S11329B0AD0156954795379527958C8D9D8DAE8D98
S11329C0BF8D820F931FA41FB51F288D398D4A8D8B
S11329D05B8DBC01CD010E943F2F2A833B834C8336
S11329E05D8339C08981992787FD90959C012D5F6E
S11329F03F4F888D998DAA8DBB8D04C0880F991F78
S1132A00AA1FBB1F2A95D2F7888F998FAA8FBB8FD5
S1132A10888D998DAA8DBB8D9C01AD0156954795E6
S1132A20379527958C8D9D8DAE8DBF8D820F931F0D
S1132A30A41FB51F288D398D4A8D5B8DBC01CD0136
S1132A400E943F2FDA01C9010197A109B1098A83C4
S1132A509B83AC83BD838A819B81AC81BD81892F9B
S1132A609A2FAB2FBB27982F9F7089818295807FE7
S1132A70292F282B8E899F89FC0127832A818E89FF
S1132A809F89FC01268381E06F96CDBFDEBFDF9175
S1132A90CF911F910F91FF90EF900895CF93DF9303
S1132AA01F92CDB7DEB78FE390E0FC01808189836C
S1132AB0F89489810F90DF91CF910895CF93DF939C
S1132AC01F92CDB7DEB789838FE390E02981FC01A3
S1132AD020830F90DF91CF910895CF93DF9300D09F
S1132AE0CDB7DEB78A83DADF898380E590E020E51D
S1132AF030E0F90130812A81232BFC012083898174
S1132B00DDDF0F900F90DF91CF910895CF93DF9386
S1132B101F92CDB7DEB789830F90DF91CF910895CF
S1132B20CF93DF9300D0CDB7DEB78A83B7DF898335
S1132B3080E590E020E530E0F9012081322F2A8100
S1132B4020952323FC0120838981B8DF0F900F9007
S1132B50DF91CF910895CF93DF931F92CDB7DEB766
S1132B6089838981883019F08981B7DF02C089811E
S1132B70CDDF0F90DF91CF910895CF93DF931F9214
S1132B80CDB7DEB7898380E590E0FC01918189812E
S1132B90982381E0992309F480E00F90DF91CF918D
S1132BA00895CF93DF931F92CDB7DEB789830000DA
S1132BB08981E3DF982F81E089278823C9F70F9063
S1132BC0DF91CF910895CF93DF93CDB7DEB780E047
S1132BD098E4A8EEB1E0BC01CD01DF91CF91089556
S1132BE0CF93DF931F92CDB7DEB71982ECDFDC0100
S1132BF0CB012981222F30E0022E04C0B695A7957F
S1132C00979587950A94D2F7BC01CD010F90DF9177
S1132C10CF910895CF93DF93CDB7DEB7E1DFDC0129
S1132C20CB01BC01CD01DF91CF910895CF93DF9308
S1132C30CDB7DEB7EFDFDC01CB01BC01CD01DF9105
S1132C40CF910895CF93DF93CDB7DEB7EFDFDC01EB
S1132C50CB01BC01CD01DF91CF9108956150710981
S1132C6081099109D9F70895CF93DF93CDB7DEB7E2
S1132C702B97CDBFDEBF8A876B878A8589838B8537
S1132C808A8389818B838B818C838C8186958695BD
S1132C9086958D838D81882F90E0880F991F82956A
S1132CA09295907F9827807F98279A5F8E839F8341
S1132CB08A818823A9F0898188878885882F90E074
S1132CC09C012770332781E090E002C0880F991F90
S1132CD02A95E2F7282F8E819F81FC01258314C059
S1132CE0898189878985882F90E09C012770332703
S1132CF081E090E002C0880F991F2A95E2F7282FFF
S1132D008E819F81FC0126832B96CDBFDEBFDF9190
S1132D10CF910895CF93DF93CDB7DEB72897CDBF7A
S1132D20DEBF88878885898389818A838A818B83AA
S1132D308B818695869586958C838C81882F90E0EF
S1132D40880F991F82959295907F9827807F982766
S1132D509A5F8D839E8389818F838F81882F90E0F2
S1132D609C012770332781E090E002C0880F991FEF
S1132D702A95E2F7282F8D819E81FC0127832896CE
S1132D80CDBFDEBFDF91CF910895CF93DF93CDB751
S1132D90DEB780EA90E027E0FC012283DF91CF9147
S1132DA00895CF93DF9300D0CDB7DEB789839A839C
S1132DB089819A81FC018081282F206489819A81EC
S1132DC0FC0120830F900F90DF91CF910895CF9352
S1132DD0DF9300D01F92CDB7DEB789839A836B83CC
S1132DE089819A812B81FC0123832396CDBFDEBF89
S1132DF0DF91CF910895CF93DF9300D0CDB7DEB7A5
S1132E0089839A8389819A81FC0183810F900F9031
S1132E10DF91CF910895CF93DF9300D000D0CDB749
S1132E20DEB789839A836B837C8389819A81FC01D1
S1132E308681282F2C7F89819A81FC0126838981B0
S1132E409A81FC0196818B81292F282B89819A8173
S1132E50FC0126832496CDBFDEBFDF91CF91089578
S1132E60CF93DF9300D000D0CDB7DEB789839A83A8
S1132E706B837C8389819A81FC018081982F907F68
S1132E808B81292F282B89819A81FC012083249608
S1132E90CDBFDEBFDF91CF910895CF93DF9300D0F4
S1132EA000D0CDB7DEB789839A836B837C83898115
S1132EB09A81FC018381982F9F7C8B818295807FEE
S1132EC0292F282B89819A81FC0123832496CDBF45
S1132ED0DEBFDF91CF910895CF93DF9300D01F928F
S1132EE0CDB7DEB789839A836B8389819A812B81DD
S1132EF0FC0120832396CDBFDEBFDF91CF910895DF
S1132F001F920F9200903F000F9211242F933F9332
S1132F104F935F936F937F938F939F93AF93BF93DD
S1132F20EF93FF93CF93DF93CDB7DEB780EA9AE0B8
S1132F30E2DB8093582080915920882309F073C0E4
S1132F4080915820882F90E08A309105D1F18B3000
S1132F509105DCF48330910509F454C08430910563
S1132F604CF48130910509F44FC08230910509F485
S1132F704DC052C086309105B9F18730910581F179
S1132F808530910509F444C047C08032910529F188
S1132F908132910554F48E31910551F18F319105AF
S1132FA05CF58431910559F037C08832910569F098
S1132FB08932910571F08132910509F12DC063D3F5
S1132FC02DC081E08093592029C082E0809359204C
S1132FD025C082E08093592021C00E9424201EC075
S1132FE082E080934C201AC083E080934C2016C06A
S1132FF082E08093592012C00E9498210FC00E9441
S1133000CC210CC0F0D30AC0A5D508C055D606C043
S113301081E080934C2002C082E085D280915820C8
S113302080934E2054C080915920813009F03AC0D9
S113303080914E20882F90E08E31910521F18F31BF
S1133040910524F48A30910541F025C08832910518
S113305041F08932910571F01EC080915820BFD093
S11330601CC09091582080915020492F682F81E0F6
S113307041D113C09091582080915020492F682F3E
S113308082E038D10AC09091582080915020692F55
S11330900E94752102C083E046D2109259201092FA
S11330A04F2015C080914F20882F90E001962091E9
S11330B05820815B9F4DFC01208380914F208F5FBE
S11330C080934F2080915920815080935920DF9123
S11330D0CF91FF91EF91BF91AF919F918F917F918C
S11330E06F915F914F913F912F910F9000923F000C
S11330F00F901F9018951F920F9200903F000F920F
S113310011242F933F934F935F936F937F938F93E8
S11331109F93AF93BF93EF93FF93CF93DF93CDB779
S1133120DEB760E082E0A0DD60E070E080E099E07E
S113313097DE60E070E080E499E092DE60E083E096
S113314093DD80E099E0FC0180A191A180935C2053
S113315090935D2080E499E0FC0180A191A180938B
S11331605E2090935F2080E094E0FC01108280E078
S113317094E0FC011086118687E08093072084E0A8
S113318080934C20DF91CF91FF91EF91BF91AF914C
S11331909F918F917F916F915F914F913F912F916B
S11331A00F9000923F000F901F9018951F920F925E
S11331B000903F000F9211248F93CF93DF93CDB7EC
S11331C0DEB7809160208F5F80936020DF91CF9184
S11331D08F910F9000923F000F901F901895CF93FE
S11331E0DF93CDB7DEB72B97CDBFDEBF8B8728E04B
S11331F0CE010396FC01322F11923A95E9F7198218
S11332001A821DC08B85882F90E0098002C0959595
S113321087950A94E2F78170992741E0009709F4B1
S113322040E09E012D5F3F4F89819A81820F931F59
S1133230FC01408389819A81019689839A838981DB
S11332409A8188309105F4F28B81882321F061E022
S113325088E00ADD03C060E088E006DD8C81882315
S113326021F061E08AE000DD03C060E08AE0FCDC7C
S11332708D81882321F061E08BE0F6DC03C060E0FF
S11332808BE0F2DC8E81882321F061E088E1ECDCC4
S113329003C060E088E1E8DC8F81882321F061E0ED
S11332A089E1E2DC03C060E089E1DEDC8885882313
S11332B021F061E08AE1D8DC03C060E08AE1D4DC7B
S11332C08985882321F061E08BE1CEDC03C060E0D6
S11332D08BE1CADC8A85882321F061E08CE1C4DCBF
S11332E003C060E08CE1C0DC2B96CDBFDEBFDF9174
S11332F0CF910895AF92BF92CF92DF92EF92FF9257
S11333000F931F93CF93DF93CDB7DEB72797CDBF2E
S1133310DEBF8D836E834F8319821A828D81882F3D
S113332090E08130910521F08230910529F00AC0A6
S1133330809111208A830AC0809112208A8381E0BF
S1133340898304C084E080934D20000080914D2047
S1133350843009F4D7C08E818B838F818C83CE0116
S11333600296BC0180EC98E00E94C70ACE01039645
S113337042E050E0BC0180EC98E00E94890ACE0152
S11333800296BC0180EC98E00E94DC0A89818823C3
S113339009F4B8C062E170E280EC98E00E94C70AC8
S11333A060E080EC98E013DD80EC98E024DD80930D
S11333B05A2060E080EC98E00ADD80EC98E01BDDA8
S11333C080935B2062E170E280EC98E00E94DC0A6A
S11333D039DCDC01CB015C016D01E12CF12C8701AE
S11333E02A2D3B2D4C2D5D2D6E2D7F2D802F912F61
S11333F0215C3D4B404F5F4F6F4F7F4F8F4F9F4F2F
S1133400A22EB32EC42ED52EE62EF72E082F192F5A
S11334102A2D3B2D4C2D5D2D6E2D7F2D802F912F30
S11334200E94CD01DC01CB0120E03BE147EB5AE4F3
S1133430BC01CD010E944803DC01CB01BC01CD01DC
S11334400E941C01A22EB32EC42ED52EE62EF72EDA
S1133450082F192FD601C501BC01CD01FFDB8091D6
S11334605A20682F80EA9AE037DDECDBDC01CB01DF
S11334705C016D01E12CF12C87012A2D3B2D4C2D93
S11334805D2D6E2D7F2D802F912F215C3D4B404F64
S11334905F4F6F4F7F4F8F4F9F4FA22EB32EC42E7F
S11334A0D52EE62EF72E082F192F2A2D3B2D4C2D25
S11334B05D2D6E2D7F2D802F912F0E94CD01DC017B
S11334C0CB0120E03BE147EB5AE4BC01CD010E9473
S11334D04803DC01CB01BC01CD010E941C01A22EDA
S11334E0B32EC42ED52EE62EF72E082F192FD60173
S11334F0C501BC01CD01B2DB80915B20682F80EA5D
S11335009AE0EADC80914D200ED02796CDBFDEBF35
S1133510DF91CF911F910F91FF90EF90DF90CF90AB
S1133520BF90AF900895AF92BF92CF92DF92EF9287
S1133530FF920F931F93CF93DF931F92CDB7DEB704
S1133540898380DBDC01CB015C016D01E12CF12C72
S113355087012A2D3B2D4C2D5D2D6E2D7F2D802F27
S1133560912F215C3D4B404F5F4F6F4F7F4F8F4FEB
S11335709F4FA22EB32EC42ED52EE62EF72E082F43
S1133580192F2A2D3B2D4C2D5D2D6E2D7F2D802F37
S1133590912F0E94CD01DC01CB0120E03BE147EB00
S11335A05AE4BC01CD010E944803DC01CB01BC01FB
S11335B0CD010E941C01A22EB32EC42ED52EE62EC0
S11335C0F72E082F192FD601C501BC01CD0146DB0A
S11335D062E080EA9AE080DC35DBDC01CB015C014F
S11335E06D01E12CF12C87012A2D3B2D4C2D5D2DF5
S11335F06E2D7F2D802F912F215C3D4B404F5F4FCF
S11336006F4F7F4F8F4F9F4FA22EB32EC42ED52EB8
S1133610E62EF72E082F192F2A2D3B2D4C2D5D2D2C
S11336206E2D7F2D802F912F0E94CD01DC01CB01C7
S113363020E03BE147EB5AE4BC01CD010E94480382
S1133640DC01CB01BC01CD010E941C01A22EB32ED2
S1133650C42ED52EE62EF72E082F192FD601C5011C
S1133660BC01CD01FBDA698180EA9AE025D80F908C
S1133670DF91CF911F910F91FF90EF90DF90CF904A
S1133680BF90AF900895AF92BF92CF92DF92EF9226
S1133690FF920F931F93CF93DF93CDB7DEB7D2DAA8
S11336A0DC01CB015C016D01E12CF12C87012A2D99
S11336B03B2D4C2D5D2D6E2D7F2D802F912F215C68
S11336C03D4B404F5F4F6F4F7F4F8F4F9F4FA22E09
S11336D0B32EC42ED52EE62EF72E082F192F2A2D01
S11336E03B2D4C2D5D2D6E2D7F2D802F912F0E9413
S11336F0CD01DC01CB0120E03BE147EB5AE4BC0106
S1133700CD010E944803DC01CB01BC01CD010E9424
S11337101C01A22EB32EC42ED52EE62EF72E082F72
S1133720192FD601C501BC01CD0198DA61E080EA08
S11337309AE00E945C1386DADC01CB015C016D0126
S1133740E12CF12C87012A2D3B2D4C2D5D2D6E2D66
S11337507F2D802F912F215C3D4B404F5F4F6F4F4A
S11337607F4F8F4F9F4FA22EB32EC42ED52EE62E01
S1133770F72E082F192F2A2D3B2D4C2D5D2D6E2D44
S11337807F2D802F912F0E94CD01DC01CB0120E001
S11337903BE147EB5AE4BC01CD010E944803DC0144
S11337A0CB01BC01CD010E941C01A22EB32EC42E5C
S11337B0D52EE62EF72E082F192FD601C501BC01F0
S11337C0CD014CDA80914C20682F80EA9AE084DBAA
S11337D0DF91CF911F910F91FF90EF90DF90CF90E9
S11337E0BF90AF900895AF92BF92CF92DF92EF92C5
S11337F0FF920F931F93CF93DF9300D000D0CDB7E8
S1133800DEB720DADC01CB0189839A83AB83BC83E6
S113381019DADC01CB015C016D01E12CF12C87018B
S11338202A2D3B2D4C2D5D2D6E2D7F2D802F912F1C
S1133830215C3D4B404F5F4F6F4F7F4F8F4F9F4FEA
S1133840A22EB32EC42ED52EE62EF72E082F192F16
S11338502A2D3B2D4C2D5D2D6E2D7F2D802F912FEC
S11338600E94CD01DC01CB0120E03BE147EB5AE4AF
S1133870BC01CD010E944803DC01CB01BC01CD0198
S11338800E941C01A22EB32EC42ED52EE62EF72E96
S1133890082F192FD601C501BC01CD01DFD966E07F
S11338A080EA9AE00E945C13CDD9DC01CB015C0173
S11338B06D01E12CF12C87012A2D3B2D4C2D5D2D22
S11338C06E2D7F2D802F912F215C3D4B404F5F4FFC
S11338D06F4F7F4F8F4F9F4FA22EB32EC42ED52EE6
S11338E0E62EF72E082F192F2A2D3B2D4C2D5D2D5A
S11338F06E2D7F2D802F912F0E94CD01DC01CB01F5
S113390020E03BE147EB5AE4BC01CD010E944803AF
S1133910DC01CB01BC01CD010E941C01A22EB32EFF
S1133920C42ED52EE62EF72E082F192FD601C50149
S1133930BC01CD0193D98981682F80EA9AE00E9465
S11339405C1380D9DC01CB015C016D01E12CF12C0D
S113395087012A2D3B2D4C2D5D2D6E2D7F2D802F23
S1133960912F215C3D4B404F5F4F6F4F7F4F8F4FE7
S11339709F4FA22EB32EC42ED52EE62EF72E082F3F
S1133980192F2A2D3B2D4C2D5D2D6E2D7F2D802F33
S1133990912F0E94CD01DC01CB0120E03BE147EBFC
S11339A05AE4BC01CD010E944803DC01CB01BC01F7
S11339B0CD010E941C01A22EB32EC42ED52EE62EBC
S11339C0F72E082F192FD601C501BC01CD0146D908
S11339D089819A81AB81BC81892F9A2FAB2FBB2718
S11339E0682F80EA9AE00E945C132CD9DC01CB0199
S11339F05C016D01E12CF12C87012A2D3B2D4C2D0E
S1133A005D2D6E2D7F2D802F912F215C3D4B404FDE
S1133A105F4F6F4F7F4F8F4F9F4FA22EB32EC42EF9
S1133A20D52EE62EF72E082F192F2A2D3B2D4C2D9F
S1133A305D2D6E2D7F2D802F912F0E94CD01DC01F5
S1133A40CB0120E03BE147EB5AE4BC01CD010E94ED
S1133A504803DC01CB01BC01CD010E941C01A22E54
S1133A60B32EC42ED52EE62EF72E082F192FD601ED
S1133A70C501BC01CD01F2D889819A81AB81BC8199
S1133A80CD01AA27BB27682F80EA9AE00E945C1325
S1133A90D9D8DC01CB015C016D01E12CF12C87014B
S1133AA02A2D3B2D4C2D5D2D6E2D7F2D802F912F9A
S1133AB0215C3D4B404F5F4F6F4F7F4F8F4F9F4F68
S1133AC0A22EB32EC42ED52EE62EF72E082F192F94
S1133AD02A2D3B2D4C2D5D2D6E2D7F2D802F912F6A
S1133AE00E94CD01DC01CB0120E03BE147EB5AE42D
S1133AF0BC01CD010E944803DC01CB01BC01CD0116
S1133B000E941C01A22EB32EC42ED52EE62EF72E13
S1133B10082F192FD601C501BC01CD019FD8898179
S1133B209A81AB81BC818B2F9927AA27BB27682F49
S1133B3080EA9AE00E945C132496CDBFDEBFDF9139
S1133B40CF911F910F91FF90EF90DF90CF90BF9096
S1133B50AF900895AF92BF92CF92DF92EF92FF920F
S1133B600F931F93CF93DF93CDB7DEB76BD8DC01F0
S1133B70CB015C016D01E12CF12C87012A2D3B2D39
S1133B804C2D5D2D6E2D7F2D802F912F215C3D4B73
S1133B90404F5F4F6F4F7F4F8F4F9F4FA22EB32EDB
S1133BA0C42ED52EE62EF72E082F192F2A2D3B2DA5
S1133BB04C2D5D2D6E2D7F2D802F912F0E94CD01D8
S1133BC0DC01CB0120E03BE147EB5AE4BC01CD0131
S1133BD00E944803DC01CB01BC01CD010E941C0101
S1133BE0A22EB32EC42ED52EE62EF72E082F192F73
S1133BF0D601C501BC01CD0131D864E080EA9AE068
S1133C000E945C131FD8DC01CB015C016D01E12C27
S1133C10F12C87012A2D3B2D4C2D5D2D6E2D7F2DF2
S1133C20802F912F215C3D4B404F5F4F6F4F7F4F53
S1133C308F4F9F4FA22EB32EC42ED52EE62EF72ED5
S1133C40082F192F2A2D3B2D4C2D5D2D6E2D7F2DE8
S1133C50802F912F0E94CD01DC01CB0120E03BE1BC
S1133C6047EB5AE4BC01CD010E944803DC01CB01BF
S1133C70BC01CD010E941C01A22EB32EC42ED52E50
S1133C80E62EF72E082F192FD601C501BC01CD0150
S1133C900E942E1680910020682F80EA9AE00E94EC
S1133CA05C13DF91CF911F910F91FF90EF90DF9004
S1133CB0CF90BF90AF900895AF92BF92CF92DF9212
S1133CC0EF92FF920F931F93CF93DF93CDB7DEB79D
S1133CD00E942216DC01CB015C016D01E12CF12C68
S1133CE087012A2D3B2D4C2D5D2D6E2D7F2D802F90
S1133CF0912F215C3D4B404F5F4F6F4F7F4F8F4F54
S1133D009F4FA22EB32EC42ED52EE62EF72E082FAB
S1133D10192F2A2D3B2D4C2D5D2D6E2D7F2D802F9F
S1133D20912F0E94CD01DC01CB0120E03BE147EB68
S1133D305AE4BC01CD010E944803DC01CB01BC0163
S1133D40CD010E941C01A22EB32EC42ED52EE62E28
S1133D50F72E082F192FD601C501BC01CD010E94F1
S1133D602E1665E080EA9AE00E945C130E942216F7
S1133D70DC01CB015C016D01E12CF12C87012A2DC2
S1133D803B2D4C2D5D2D6E2D7F2D802F912F215C91
S1133D903D4B404F5F4F6F4F7F4F8F4F9F4FA22E32
S1133DA0B32EC42ED52EE62EF72E082F192F2A2D2A
S1133DB03B2D4C2D5D2D6E2D7F2D802F912F0E943C
S1133DC0CD01DC01CB0120E03BE147EB5AE4BC012F
S1133DD0CD010E944803DC01CB01BC01CD010E944E
S1133DE01C01A22EB32EC42ED52EE62EF72E082F9C
S1133DF0192FD601C501BC01CD010E942E16809158
S1133E00012090910220A0910320B0910420682FFA
S1133E1080EA9AE00E945C130E942216DC01CB0126
S1133E205C016D01E12CF12C87012A2D3B2D4C2DD9
S1133E305D2D6E2D7F2D802F912F215C3D4B404FAA
S1133E405F4F6F4F7F4F8F4F9F4FA22EB32EC42EC5
S1133E50D52EE62EF72E082F192F2A2D3B2D4C2D6B
S1133E605D2D6E2D7F2D802F912F0E94CD01DC01C1
S1133E70CB0120E03BE147EB5AE4BC01CD010E94B9
S1133E804803DC01CB01BC01CD010E941C01A22E20
S1133E90B32EC42ED52EE62EF72E082F192FD601B9
S1133EA0C501BC01CD010E942E1680910120909184
S1133EB00220A0910320B0910420892F9A2FAB2FC8
S1133EC0BB27682F80EA9AE00E945C130E942216A6
S1133ED0DC01CB015C016D01E12CF12C87012A2D61
S1133EE03B2D4C2D5D2D6E2D7F2D802F912F215C30
S1133EF03D4B404F5F4F6F4F7F4F8F4F9F4FA22ED1
S1133F00B32EC42ED52EE62EF72E082F192F2A2DC8
S1133F103B2D4C2D5D2D6E2D7F2D802F912F0E94DA
S1133F20CD01DC01CB0120E03BE147EB5AE4BC01CD
S1133F30CD010E944803DC01CB01BC01CD010E94EC
S1133F401C01A22EB32EC42ED52EE62EF72E082F3A
S1133F50192FD601C501BC01CD010E942E168091F6
S1133F60012090910220A0910320B0910420CD0162
S1133F70AA27BB27682F80EA9AE00E945C130E945C
S1133F802216DC01CB015C016D01E12CF12C8701CF
S1133F902A2D3B2D4C2D5D2D6E2D7F2D802F912FA5
S1133FA0215C3D4B404F5F4F6F4F7F4F8F4F9F4F73
S1133FB0A22EB32EC42ED52EE62EF72E082F192F9F
S1133FC02A2D3B2D4C2D5D2D6E2D7F2D802F912F75
S1133FD00E94CD01DC01CB0120E03BE147EB5AE438
S1133FE0BC01CD010E944803DC01CB01BC01CD0121
S1133FF00E941C01A22EB32EC42ED52EE62EF72E1F
S1134000082F192FD601C501BC01CD010E942E161F
S11340108091012090910220A0910320B09104206E
S11340208B2F9927AA27BB27682F80EA9AE00E9442
S11340305C13DF91CF911F910F91FF90EF90DF9070
S1134040CF90BF90AF900895AF92BF92CF92DF927E
S1134050EF92FF920F931F93CF93DF93CDB7DEB709
S11340600E942216DC01CB015C016D01E12CF12CD4
S113407087012A2D3B2D4C2D5D2D6E2D7F2D802FFC
S1134080912F215C3D4B404F5F4F6F4F7F4F8F4FC0
S11340909F4FA22EB32EC42ED52EE62EF72E082F18
S11340A0192F2A2D3B2D4C2D5D2D6E2D7F2D802F0C
S11340B0912F0E94CD01DC01CB0120E03BE147EBD5
S11340C05AE4BC01CD010E944803DC01CB01BC01D0
S11340D0CD010E941C01A22EB32EC42ED52EE62E95
S11340E0F72E082F192FD601C501BC01CD010E945E
S11340F02E1680910720682F80EA9AE00E945C13B4
S11341000E942216DC01CB015C016D01E12CF12C33
S113411087012A2D3B2D4C2D5D2D6E2D7F2D802F5B
S1134120912F215C3D4B404F5F4F6F4F7F4F8F4F1F
S11341309F4FA22EB32EC42ED52EE62EF72E082F77
S1134140192F2A2D3B2D4C2D5D2D6E2D7F2D802F6B
S1134150912F0E94CD01DC01CB0120E03BE147EB34
S11341605AE4BC01CD010E944803DC01CB01BC012F
S1134170CD010E941C01A22EB32EC42ED52EE62EF4
S1134180F72E082F192FD601C501BC01CD010E94BD
S11341902E1680915C2090915D20892F9927682F9D
S11341A080EA9AE00E945C130E942216DC01CB0193
S11341B05C016D01E12CF12C87012A2D3B2D4C2D46
S11341C05D2D6E2D7F2D802F912F215C3D4B404F17
S11341D05F4F6F4F7F4F8F4F9F4FA22EB32EC42E32
S11341E0D52EE62EF72E082F192F2A2D3B2D4C2DD8
S11341F05D2D6E2D7F2D802F912F0E94CD01DC012E
S1134200CB0120E03BE147EB5AE4BC01CD010E9425
S11342104803DC01CB01BC01CD010E941C01A22E8C
S1134220B32EC42ED52EE62EF72E082F192FD60125
S1134230C501BC01CD010E942E1680915C20909195
S11342405D20682F80EA9AE00E945C13DF91CF9191
S11342501F910F91FF90EF90DF90CF90BF90AF90A0
S11342600895CF93DF93CDB7DEB72597CDBFDEBFDB
S11342708B836C837D838B81883070F48B81882F52
S113428090E080589E4F89839A832C8189819A81FA
S1134290FC01208381E001C080E02596CDBFDEBF14
S11342A0DF91CF910895CF93DF93CDB7DEB72597F4
S11342B0CDBFDEBF8B836C837D838B81883070F4AC
S11342C08B81882F90E088579E4F89839A832C8115
S11342D089819A81FC01208381E001C080E02596D8
S11342E0CDBFDEBFDF91CF910895CF93DF9300D090
S11342F0CDB7DEB789836A838981882F90E0382F10
S113430022278A81882F90E0820F931F80930520B3
S11343109093062080E094E02091052030910620BF
S1134320FC01228733870F900F90DF91CF9108957E
S1134330CF93DF93CDB7DEB780E099E0FC0110A204
S113434011A280E499E0FC0110A211A280E094E0A3
S1134350FC01108611861092602088E0809307206B
S113436061E082E00E94341668E070E080E099E049
S11343700E94301769E070E080E499E00E943017F1
S113438080E094E021E0FC01208361E083E00E946E
S11343903416DF91CF910895CF93DF93CDB7DEB775
S11343A060E070E080E099E00E94301760E070E027
S11343B080E499E00E94301780E094E0FC011082D0
S11343C080E094E0FC011086118689E08093072048
S11343D0DF91CF9108952F923F924F925F926F9207
S11343E07F928F929F92AF92BF92CF92DF92EF9281
S11343F0FF920F931F93CF93DF93CDB7DEB7C959C5
S1134400D109CDBFDEBF0E94892E82E00E94AB1588
S113441082E00E94D11561E080E490E00E94F10AFC
S113442081E00E9490150E94C51680EC98E00E94DD
S1134430660A80EC98E00E94D1160E94360B80E454
S113444090E02DE0FC01238361E070E080E099E0DE
S11344500E940B1768E070E280EA9AE00E9414134D
S113446062E070E080EA9AE00E944D1780E696E0F0
S113447021E0FC01258B6DE670E080E0F2DE67E070
S113448070E080E010DF60ED70E081E0EADE67E07C
S113449070E081E008DF81E080934C2081E080932C
S11344A04D20789460E082E00E94341660E083E05E
S11344B00E94341680914C20882F90E08230910520
S11344C011F40C94842E833091052CF481309105E1
S11344D069F00C94872E8330910511F40C94862E88
S11344E08430910509F43DC10C94872E0E94221654
S11344F0DC01CB018C019D0140E050E0BA010A834C
S11345001B832C833D834E835F83688779871A815D
S113451023961FAF23972B8124962FAF24973C819A
S113452025963FAF25974D8126964FAF26975E81FE
S113453027965FAF27976F8128966FAF2897788566
S113454029967FAF299789852A968FAF2A97239634
S11345502FAD239724963FAD249725964FAD2597ED
S113456026965FAD269727966FAD279728967FAD41
S1134570289729968FAD29972A969FAD2A9702E00E
S11345800E94612FA22EB32EC42ED52EE62EF72E16
S1134590082F192F2396AFAE23972496BFAE2497E6
S11345A02596CFAE25972696DFAE26972796EFAEB3
S11345B027972896FFAE289729960FAF29972A9612
S11345C01FAF2A9723962FAD239724963FAD2497A8
S11345D025964FAD259726965FAD269727966FAD06
S11345E0279728967FAD289729968FAD29972A96E5
S11345F09FAD2A9705E00E94612F222E332E442E70
S1134600552E662E772E882E992E222D332D442D4D
S1134610552D662D772D882D992D2396AFAC239794
S11346202496BFAC24972596CFAC25972696DFAC6D
S113463026972796EFAC27972896FFAC28972996BC
S11346400FAD29972A961FAD2A970E94792F222E03
S1134650332E442E552E662E772E882E992E222DFB
S1134660332D442D552D662D772D882D992DAA8017
S1134670BB80CC80DD80EE80FF80088519850E9498
S1134680702F222E332E442E552E662E772E882EF2
S1134690992E222D332D442D552D662D772D882DC1
S11346A0992D03E00E94612FA22EB32EC42ED52E85
S11346B0E62EF72E082F192F2A2C3B2C4C2C5D2C80
S11346C06E2C7F2C802E912EA22CB32CC42CD52C96
S11346D0E62CF72C082D192D2A2D3B2D4C2D5D2D64
S11346E06E2D7F2D802F912F29513C4F4F4F5F4FBF
S11346F06F4F7F4F8F4F9F4FA22EB32EC42ED52EB8
S1134700E62EF72E082F192F2A2D3B2D4C2D5D2D2B
S11347106E2D7F2D802F912F0E94CD01DC01CB01C6
S113472020E030E84BEB55E4BC01CD010E94480386
S1134730DC01CB01BC01CD010E941C01A22EB32ED1
S1134740C42ED52EE62EF72E082F192FD601C5011B
S1134750BC01CD010E942E1688E00E948A160C949A
S1134760872E19822CC188E00E948A160E94221684
S1134770DC01CB019C01AD0160E070E0CB01822E35
S1134780932EA42EB52EC62ED72EE82EF92E282D24
S1134790392D4A2D5B2D6C2D7D2D8E2D9F2D01E005
S11347A00E94612F2B962FAF2B972C963FAF2C97FF
S11347B02D964FAF2D972E965FAF2E972F966FAFF6
S11347C02F9760967FAF609761968FAF61976296DF
S11347D09FAF62972B968FAC2B972C969FAC2C9700
S11347E02D96AFAC2D972E96BFAC2E972F96CFACAF
S11347F02F976096DFAC60976196EFAC61976296F5
S1134800FFAC6297282D392D4A2D5B2D6C2D7D2D03
S11348108E2D9F2D02E00E94612F63962FAF639728
S113482064963FAF649765964FAF659766965FAFA2
S1134830669767966FAF679768967FAF6897699634
S11348408FAF69976A969FAF6A97282D392D4A2DA5
S11348505B2D6C2D7D2D8E2D9F2D6396AFAC6397B4
S11348606496BFAC64976596CFAC65976696DFACEB
S113487066976796EFAC67976896FFAC68976996FA
S11348800FAD69976A961FAD6A970E94702F822EAA
S1134890932EA42EB52EC62ED72EE82EF92E282D13
S11348A0392D4A2D5B2D6C2D7D2D8E2D9F2D02E0F3
S11348B00E94612F6B962FAF6B976C963FAF6C97EE
S11348C06D964FAF6D976E965FAF6E976F966FAFA5
S11348D06F97A0967FAFA097A1968FAFA197A2964E
S11348E09FAFA297282D392D4A2D5B2D6C2D7D2D40
S11348F08E2D9F2D6B96AFAC6B976C96BFAC6C975F
S11349006D96CFAC6D976E96DFAC6E976F96EFACED
S11349106F97A096FFACA097A1960FADA197A29612
S11349201FADA2970E94702FA22EB32EC42ED52E97
S1134930E62EF72E082F192F2A2D3B2D4C2D5D2DF9
S11349406E2D7F2D802F912F29513C4F4F4F5F4F5C
S11349506F4F7F4F8F4F9F4FA22EB32EC42ED52E55
S1134960E62EF72E082F192F2A2D3B2D4C2D5D2DC9
S11349706E2D7F2D802F912F0E94CD01DC01CB0164
S113498020E030E84BEB55E4BC01CD010E94480324
S1134990DC01CB01BC01CD010E941C01A22EB32E6F
S11349A0C42ED52EE62EF72E082F192FD601C501B9
S11349B0BC01CD010E942E1689818F5F8983898174
S11349C0843108F4D0CE80915E2090915F20892FAD
S11349D099270E94EF180E942216DC01CB018C015A
S11349E09D0140E050E0BA010A871B872C873D8770
S11349F04E875F87688B798B1A85A3961FAFA39721
S1134A002B85A4962FAFA4973C85A5963FAFA59779
S1134A104D85A6964FAFA6975E85A7965FAFA797DD
S1134A206F85A8966FAFA8977889A9967FAFA99745
S1134A308989AA968FAFAA97A3962FADA397A49618
S1134A403FADA497A5964FADA597A6965FADA69743
S1134A50A7966FADA797A8967FADA897A9968FAD97
S1134A60A997AA969FADAA9702E00E94612FA22E51
S1134A70B32EC42ED52EE62EF72E082F192FA3966B
S1134A80AFAEA397A496BFAEA497A596CFAEA597B5
S1134A90A696DFAEA697A796EFAEA797A896FFAE09
S1134AA0A897A9960FAFA997AA961FAFAA97A396FE
S1134AB02FADA397A4963FADA497A5964FADA59708
S1134AC0A6965FADA697A7966FADA797A8967FAD5C
S1134AD0A897A9968FADA997AA969FADAA9705E026
S1134AE00E94612F222E332E442E552E662E772EB1
S1134AF0882E992E222D332D442D552D662D772D5C
S1134B00882D992DA396AFACA397A496BFACA49778
S1134B10A596CFACA597A696DFACA697A796EFACC3
S1134B20A797A896FFACA897A9960FADA997AA96A0
S1134B301FADAA970E94792F222E332E442E552E74
S1134B40662E772E882E992E222D332D442D552D09
S1134B50662D772D882D992DAA84BB84CC84DD8481
S1134B60EE84FF84088919890E94702F222E332E27
S1134B70442E552E662E772E882E992E222D332DD7
S1134B80442D552D662D772D882D992D04E00E94F6
S1134B90612FA22EB32EC42ED52EE62EF72E082F6B
S1134BA0192F2A2C3B2C4C2C5D2C6E2C7F2C802E08
S1134BB0912EA22CB32CC42CD52CE62CF72C082D2A
S1134BC0192D2A2D3B2D4C2D5D2D6E2D7F2D802FE3
S1134BD0912F29513C4F4F4F5F4F6F4F7F4F8F4F56
S1134BE09F4FA22EB32EC42ED52EE62EF72E082FBD
S1134BF0192F2A2D3B2D4C2D5D2D6E2D7F2D802FB1
S1134C00912F0E94CD01DC01CB0120E030E84BEB79
S1134C1055E4BC01CD010E944803DC01CB01BC0179
S1134C20CD010E941C01A22EB32EC42ED52EE62E39
S1134C30F72E082F192FD601C501BC01CD010E9402
S1134C402E1680E00E94EF180E942216DC01CB0190
S1134C508C019D0140E050E0BA010A8B1B8B2C8B28
S1134C603D8B4E8B5F8B688F798F1A89AB961FAF04
S1134C70AB972B89AC962FAFAC973C89AD963FAFE1
S1134C80AD974D89AE964FAFAE975E89AF965FAF45
S1134C90AF976F89E0966FAFE097788DE1967FAF1D
S1134CA0E197898DE2968FAFE297AB962FADAB97E4
S1134CB0AC963FADAC97AD964FADAD97AE965FADAC
S1134CC0AE97AF966FADAF97E0967FADE097E19664
S1134CD08FADE197E2969FADE29702E00E94612FCB
S1134CE0A22EB32EC42ED52EE62EF72E082F192F62
S1134CF0AB96AFAEAB97AC96BFAEAC97AD96CFAE1E
S1134D00AD97AE96DFAEAE97AF96EFAEAF97E096A7
S1134D10FFAEE097E1960FAFE197E2961FAFE297FF
S1134D20AB962FADAB97AC963FADAC97AD964FAD70
S1134D30AD97AE965FADAE97AF966FADAF97E09679
S1134D407FADE097E1968FADE197E2969FADE29754
S1134D5005E00E94612F222E332E442E552E662EFE
S1134D60772E882E992E222D332D442D552D662DE8
S1134D70772D882D992DAB96AFACAB97AC96BFAC85
S1134D80AC97AD96CFACAD97AE96DFACAE97AF9681
S1134D90EFACAF97E096FFACE097E1960FADE197EB
S1134DA0E2961FADE2970E94792F222E332E442ED5
S1134DB0552E662E772E882E992E222D332D442D96
S1134DC0552D662D772D882D992DAA88BB88CC88E2
S1134DD0DD88EE88FF88088D198D0E94702F222EA1
S1134DE0332E442E552E662E772E882E992E222D64
S1134DF0332D442D552D662D772D882D992D02E0C8
S1134E000E94612FA22EB32EC42ED52EE62EF72E8D
S1134E10082F192F2A2C3B2C4C2C5D2C6E2C7F2C0C
S1134E20802E912EA22CB32CC42CD52CE62CF72C3E
S1134E30082D192D2A2D3B2D4C2D5D2D6E2D7F2DEA
S1134E40802F912F29513C4F4F4F5F4F6F4F7F4F12
S1134E508F4F9F4FA22EB32EC42ED52EE62EF72EA3
S1134E60082F192F2A2D3B2D4C2D5D2D6E2D7F2DB6
S1134E70802F912F0E94CD01DC01CB0120E030E88E
S1134E804BEB55E4BC01CD010E944803DC01CB018E
S1134E90BC01CD010E941C01A22EB32EC42ED52E1E
S1134EA0E62EF72E082F192FD601C501BC01CD011E
S1134EB00E942E1680915E2090915F200E94EF1830
S1134EC00E942216DC01CB018C019D0140E050E0E0
S1134ED0BA010A8F1B8F2C8F3D8F4E8F5F8F68A373
S1134EE079A31A8DE3961FAFE3972B8DE4962FAF2A
S1134EF0E4973C8DE5963FAFE5974D8DE6964FAF31
S1134F00E6975E8DE7965FAFE7976F8DE8966FAF94
S1134F10E89778A1E9967FAFE99789A1EA968FAFE0
S1134F20EA97E3962FADE397E4963FADE497E596D1
S1134F304FADE597E6965FADE697E7966FADE797D9
S1134F40E8967FADE897E9968FADE997EA969FAD2D
S1134F50EA9702E0B6D7A22EB32EC42ED52EE62EA3
S1134F60F72E082F192FE396AFAEE397E496BFAE62
S1134F70E497E596CFAEE597E696DFAEE697E7963B
S1134F80EFAEE797E896FFAEE897E9960FAFE9979B
S1134F90EA961FAFEA97E3962FADE397E4963FAD09
S1134FA0E497E5964FADE597E6965FADE697E7960D
S1134FB06FADE797E8967FADE897E9968FADE997EF
S1134FC0EA969FADEA9705E07CD7222E332E442E35
S1134FD0552E662E772E882E992E222D332D442D74
S1134FE0552D662D772D882D992DE396AFACE3973B
S1134FF0E496BFACE497E596CFACE597E696DFACD4
S1135000E697E796EFACE797E896FFACE897E99662
S11350100FADE997EA961FADEA976BD7222E332E90
S1135020442E552E662E772E882E992E222D332D22
S1135030442D552D662D772D882D992DAA8CBB8C4A
S1135040CC8CDD8CEE8CFF8C08A119A149D7222EC3
S1135050332E442E552E662E772E882E992E222DF1
S1135060332D442D552D662D772D882D992D04E053
S113507028D7A22EB32EC42ED52EE62EF72E082F17
S1135080192F2A2C3B2C4C2C5D2C6E2C7F2C802E23
S1135090912EA22CB32CC42CD52CE62CF72C082D45
S11350A0192D2A2D3B2D4C2D5D2D6E2D7F2D802FFE
S11350B0912F29513C4F4F4F5F4F6F4F7F4F8F4F71
S11350C09F4FA22EB32EC42ED52EE62EF72E082FD8
S11350D0192F2A2D3B2D4C2D5D2D6E2D7F2D802FCC
S11350E0912F0E94CD01DC01CB0120E030E84BEB95
S11350F055E4BC01CD010E944803DC01CB01BC0195
S1135100CD010E941C01A22EB32EC42ED52EE62E54
S1135110F72E082F192FD601C501BC01CD010E941D
S11351202E1680E00E94EF180E942216DC01CB01AB
S11351308C019D0140E050E0BA010AA31BA32CA3FB
S11351403DA34EA35FA368A779A71AA1EB961FAF4F
S1135150EB972BA1EC962FAFEC973CA1ED963FAFCC
S1135160ED974DA1EE964FAFEE975EA1EF965FAF30
S1135170EF976FA1C158DF4F6883CF57D04078A510
S1135180C058DF4F7883C058D04089A5CF57DF4F30
S11351908883C158D040EB962FADEB97EC963FAD8A
S11351A0EC97ED964FADED97EE965FADEE97EF96DB
S11351B06FADEF97C158DF4F7881CF57D040C058BB
S11351C0DF4F8881C058D040CF57DF4F9881C158F6
S11351D0D04002E076D6A22EB32EC42ED52EE62ED3
S11351E0F72E082F192FEB96AFAEEB97EC96BFAEC8
S11351F0EC97ED96CFAEED97EE96DFAEEE97EF9689
S1135200EFAEEF97C158DF4FF882CF57D040C05868
S1135210DF4F0883C058D040CF57DF4F1883C158A1
S1135220D040EB962FADEB97EC963FADEC97ED9617
S11352304FADED97EE965FADEE97EF966FADEF97AE
S1135240C158DF4F7881CF57D040C058DF4F888195
S1135250C058D040CF57DF4F9881C158D04005E0A7
S113526030D6222E332E442E552E662E772E882E9F
S1135270992E222D332D442D552D662D772D882DD5
S1135280992DEB96AFACEB97EC96BFACEC97ED9603
S1135290CFACED97EE96DFACEE97EF96EFACEF97D1
S11352A0C158DF4FF880CF57D040C058DF4F088136
S11352B0C058D040CF57DF4F1881C158D04019D6BD
S11352C0222E332E442E552E662E772E882E992E7E
S11352D0222D332D442D552D662D772D882D992D76
S11352E0AAA0BBA0CCA0DDA0EEA0FFA008A519A594
S11352F0F7D5222E332E442E552E662E772E882E49
S1135300992E222D332D442D552D662D772D882D44
S1135310992D02E0D6D5A22EB32EC42ED52EE62E7C
S1135320F72E082F192F2A2C3B2C4C2C5D2C6E2C7D
S11353307F2C802E912EA22CB32CC42CD52CE62CA1
S1135340F72C082D192D2A2D3B2D4C2D5D2D6E2D5E
S11353507F2D802F912F29513C4F4F4F5F4F6F4F1F
S11353607F4F8F4F9F4FA22EB32EC42ED52EE62EE5
S1135370F72E082F192F2A2D3B2D4C2D5D2D6E2D28
S11353807F2D802F912F0E94CD01DC01CB0120E0E5
S113539030E84BEB55E4BC01CD010E944803DC012D
S11353A0CB01BC01CD010E941C01A22EB32EC42E40
S11353B0D52EE62EF72E082F192FD601C501BC01D4
S11353C0CD010E942E1680915C2090915D20892F42
S11353D099270E94EF180E942216DC01CB018C0150
S11353E09D0140E050E0BA010AA71BA72CA73DA7E6
S11353F04EA75FA768AB79AB1AA5CE57DF4F1883CA
S1135400C258D0402BA5CD57DF4F2883C358D04076
S11354103CA5CC57DF4F3883C458D0404DA5CB575B
S1135420DF4F4883C558D0405EA5CA57DF4F588325
S1135430C658D0406FA5C957DF4F6883C758D040BE
S113544078A9C857DF4F7883C858D04089A9C7576F
S1135450DF4F8883C958D040CE57DF4F2881C258C8
S1135460D040CD57DF4F3881C358D040CC57DF4FA1
S11354704881C458D040CB57DF4F5881C558D040DD
S1135480CA57DF4F6881C658D040C957DF4F78816B
S1135490C758D040C857DF4F8881C858D040C75735
S11354A0DF4F9881C958D04002E00BD5A22EB32E0D
S11354B0C42ED52EE62EF72E082F192FCE57DF4FE8
S11354C0A882C258D040CD57DF4FB882C358D040CD
S11354D0CC57DF4FC882C458D040CB57DF4FD88257
S11354E0C558D040CA57DF4FE882C658D040C95784
S11354F0DF4FF882C758D040C857DF4F0883C858D9
S1135500D040C757DF4F1883C958D040CE57DF4F1C
S11355102881C258D040CD57DF4F3881C358D0407E
S1135520CC57DF4F4881C458D040CB57DF4F588108
S1135530C558D040CA57DF4F6881C658D040C957B4
S1135540DF4F7881C758D040C857DF4F8881C8588B
S1135550D040C757DF4F9881C958D04005E0B1D437
S1135560222E332E442E552E662E772E882E992EDB
S1135570222D332D442D552D662D772D882D992DD3
S1135580CE57DF4FA880C258D040CD57DF4FB880E8
S1135590C358D040CC57DF4FC880C458D040CB57F5
S11355A0DF4FD880C558D040CA57DF4FE880C6586F
S11355B0D040C957DF4FF880C758D040C857DF4F95
S11355C00881C858D040C757DF4F1881C958D04008
S11355D090D4222E332E442E552E662E772E882ECE
S11355E0992E222D332D442D552D662D772D882D62
S11355F0992DAAA4BBA4CCA4DDA4EEA4FFA408A95D
S113560019A96ED4222E332E442E552E662E772EB3
S1135610882E992E222D332D442D552D662D772D30
S1135620882D992D04E04DD4A22EB32EC42ED52E50
S1135630E62EF72E082F192F2A2C3B2C4C2C5D2CF0
S11356406E2C7F2C802E912EA22CB32CC42CD52C06
S1135650E62CF72C082D192D2A2D3B2D4C2D5D2DD4
S11356606E2D7F2D802F912F29513C4F4F4F5F4F2F
S11356706F4F7F4F8F4F9F4FA22EB32EC42ED52E28
S1135680E62EF72E082F192F2A2D3B2D4C2D5D2D9C
S11356906E2D7F2D802F912F0E94CD01DC01CB0137
S11356A020E030E84BEB55E4BC01CD010E944803F7
S11356B0DC01CB01BC01CD010E941C01A22EB32E42
S11356C0C42ED52EE62EF72E082F192FD601C5018C
S11356D0BC01CD010E942E1680E00E94EF180E94AA
S11356E02216DC01CB018C019D0140E050E0BA019F
S11356F00AAB1BAB2CAB3DAB4EAB5FAB68AF79AF2A
S11357001AA9C657DF4F1883CA58D0402BA9C557CA
S1135710DF4F2883CB58D0403CA9C457DF4F388390
S1135720CC58D0404DA9C357DF4F4883CD58D04003
S11357305EA9C257DF4F5883CE58D0406FA9C157D6
S1135740DF4F6883CF58D04078ADC057DF4F7883A0
S1135750C059D04089ADCF56DF4F8883C159D0405E
S1135760C657DF4F2881CA58D040C557DF4F38810C
S1135770CB58D040C457DF4F4881CC58D040C35792
S1135780DF4F5881CD58D040C257DF4F6881CE5883
S1135790D040C157DF4F7881CF58D040C057DF4F3A
S11357A08881C059D040CF56DF4F9881C159D0402D
S11357B002E087D3A22EB32EC42ED52EE62EF72ECA
S11357C0082F192FC657DF4FA882CA58D040C55793
S11357D0DF4FB882CB58D040C457DF4FC882CC5873
S11357E0D040C357DF4FD882CD58D040C257DF4F87
S11357F0E882CE58D040C157DF4FF882CF58D0400E
S1135800C057DF4F0883C059D040CF56DF4F1883AD
S1135810C159D040C657DF4F2881CA58D040C55718
S1135820DF4F3881CB58D040C457DF4F4881CC5824
S1135830D040C357DF4F5881CD58D040C257DF4FB7
S11358406881CE58D040C157DF4F7881CF58D040BF
S1135850C057DF4F8881C059D040CF56DF4F988161
S1135860C159D04005E02DD3222E332E442E552E7F
S1135870662E772E882E992E222D332D442D552DCC
S1135880662D772D882D992DC657DF4FA880CA58CD
S1135890D040C557DF4FB880CB58D040C457DF4FF6
S11358A0C880CC58D040C357DF4FD880CD58D040A3
S11358B0C257DF4FE880CE58D040C157DF4FF88041
S11358C0CF58D040C057DF4F0881C059D040CF5681
S11358D0DF4F1881C159D0400CD3222E332E442ED1
S11358E0552E662E772E882E992E222D332D442D5B
S11358F0552D662D772D882D992DAAA8BBA8CCA847
S1135900DDA8EEA8FFA808AD19ADEAD2222E332EE9
S1135910442E552E662E772E882E992E222D332D29
S1135920442D552D662D772D882D992D02E0C9D251
S1135930A22EB32EC42ED52EE62EF72E082F192F05
S11359402A2C3B2C4C2C5D2C6E2C7F2C802E912EE3
S1135950A22CB32CC42CD52CE62CF72C082D192DF5
S11359602A2D3B2D4C2D5D2D6E2D7F2D802F912FBB
S113597029513C4F4F4F5F4F6F4F7F4F8F4F9F4F7A
S1135980A22EB32EC42ED52EE62EF72E082F192FB5
S11359902A2D3B2D4C2D5D2D6E2D7F2D802F912F8B
S11359A00E94CD01DC01CB0120E030E84BEB55E453
S11359B0BC01CD010E944803DC01CB01BC01CD0137
S11359C00E941C01A22EB32EC42ED52EE62EF72E35
S11359D0082F192FD601C501BC01CD010E942E1636
S11359E080915C2090915D200E94EF180E94221605
S11359F0DC01CB018C019D0140E050E0BA010AAF0B
S1135A001BAF2CAF3DAF4EAF5FAF21966FAF219769
S1135A1022967FAF22971AADCE56DF4F1883C25914
S1135A20D0402BADCD56DF4F2883C359D0403CAD79
S1135A30CC56DF4F3883C459D0404DADCB56DF4FE1
S1135A404883C559D0405EADCA56DF4F5883C65906
S1135A50D0406FADC956DF4F6883C759D0402196F7
S1135A607FAD2197C856DF4F7883C859D04022961E
S1135A708FAD2297C756DF4F8883C959D040CE5681
S1135A80DF4F2881C259D040CD56DF4F3881C359EA
S1135A90D040CC56DF4F4881C459D040CB56DF4F5D
S1135AA05881C559D040CA56DF4F6881C659D04085
S1135AB0C956DF4F7881C759D040C856DF4F888117
S1135AC0C859D040C756DF4F9881C959D04002E029
S1135AD0F8D1A22EB32EC42ED52EE62EF72E082FE3
S1135AE0192FCE56DF4FA882C259D040CD56DF4F72
S1135AF0B882C359D040CC56DF4FC882C459D04075
S1135B00CB56DF4FD882C559D040CA56DF4FE88202
S1135B10C659D040C956DF4FF882C759D040C8563D
S1135B20DF4F0883C859D040C756DF4F1883C9597F
S1135B30D040CE56DF4F2881C259D040CD56DF4FDA
S1135B403881C359D040CC56DF4F4881C459D04026
S1135B50CB56DF4F5881C559D040CA56DF4F6881B4
S1135B60C659D040C956DF4F7881C759D040C8566E
S1135B70DF4F8881C859D040C756DF4F9881C95933
S1135B80D04005E09ED1222E332E442E552E662E73
S1135B90772E882E992E222D332D442D552D662DAA
S1135BA0772D882D992DCE56DF4FA880C259D0402D
S1135BB0CD56DF4FB880C359D040CC56DF4FC88094
S1135BC0C459D040CB56DF4FD880C559D040CA56AF
S1135BD0DF4FE880C659D040C956DF4FF880C75917
S1135BE0D040C856DF4F0881C859D040C756DF4F50
S1135BF01881C959D0407DD1222E332E442E552EE2
S1135C00662E772E882E992E222D332D442D552D38
S1135C10662D772D882D992DAAACBBACCCACDDAC10
S1135C20EEACFFAC21960FAD219722961FAD2297C3
S1135C3057D1222E332E442E552E662E772E882EA3
S1135C40992E222D332D442D552D662D772D882DFB
S1135C50992D04E036D1A22EB32EC42ED52EE62ED5
S1135C60F72E082F192F2A2C3B2C4C2C5D2C6E2C34
S1135C707F2C802E912EA22CB32CC42CD52CE62C58
S1135C80F72C082D192D2A2D3B2D4C2D5D2D6E2D15
S1135C907F2D802F912F29513C4F4F4F5F4F6F4FD6
S1135CA07F4F8F4F9F4FA22EB32EC42ED52EE62E9C
S1135CB0F72E082F192F2A2D3B2D4C2D5D2D6E2DDF
S1135CC07F2D802F912F0E94CD01DC01CB0120E09C
S1135CD030E84BEB55E4BC01CD010E944803DC01E4
